{
	"src/Admin.sol": {
		"Admin": {
			"abi": [
				{
					"inputs": [],
					"stateMutability": "nonpayable",
					"type": "constructor"
				},
				{
					"inputs": [],
					"name": "NoEnoughBalance",
					"type": "error"
				},
				{
					"inputs": [],
					"name": "NotOwner",
					"type": "error"
				},
				{
					"inputs": [],
					"name": "isZeroAddress",
					"type": "error"
				},
				{
					"inputs": [
						{
							"internalType": "contract IBank",
							"name": "bank",
							"type": "address"
						}
					],
					"name": "adminWithdraw",
					"outputs": [],
					"stateMutability": "nonpayable",
					"type": "function"
				},
				{
					"inputs": [],
					"name": "owner",
					"outputs": [
						{
							"internalType": "address",
							"name": "",
							"type": "address"
						}
					],
					"stateMutability": "view",
					"type": "function"
				},
				{
					"inputs": [
						{
							"internalType": "address",
							"name": "newOwner",
							"type": "address"
						}
					],
					"name": "transferOwnership",
					"outputs": [],
					"stateMutability": "nonpayable",
					"type": "function"
				},
				{
					"stateMutability": "payable",
					"type": "receive"
				}
			],
			"devdoc": {
				"kind": "dev",
				"methods": {},
				"version": 1
			},
			"evm": {
				"assembly": "    /* \"src/Admin.sol\":178:950  contract Admin {... */\n  mstore(0x40, 0x80)\n    /* \"src/Admin.sol\":305:354  constructor() {... */\n  callvalue\n  dup1\n  iszero\n  tag_1\n  jumpi\n  0x00\n  dup1\n  revert\ntag_1:\n  pop\n    /* \"src/Admin.sol\":337:347  msg.sender */\n  caller\n    /* \"src/Admin.sol\":329:334  owner */\n  0x00\n  dup1\n    /* \"src/Admin.sol\":329:347  owner = msg.sender */\n  0x0100\n  exp\n  dup2\n  sload\n  dup2\n  0xffffffffffffffffffffffffffffffffffffffff\n  mul\n  not\n  and\n  swap1\n  dup4\n  0xffffffffffffffffffffffffffffffffffffffff\n  and\n  mul\n  or\n  swap1\n  sstore\n  pop\n    /* \"src/Admin.sol\":178:950  contract Admin {... */\n  dataSize(sub_0)\n  dup1\n  dataOffset(sub_0)\n  0x00\n  codecopy\n  0x00\n  return\nstop\n\nsub_0: assembly {\n        /* \"src/Admin.sol\":178:950  contract Admin {... */\n      mstore(0x40, 0x80)\n      jumpi(tag_1, lt(calldatasize, 0x04))\n      shr(0xe0, calldataload(0x00))\n      dup1\n      0x8da5cb5b\n      eq\n      tag_3\n      jumpi\n      dup1\n      0xa28835b6\n      eq\n      tag_4\n      jumpi\n      dup1\n      0xf2fde38b\n      eq\n      tag_5\n      jumpi\n      jump(tag_2)\n    tag_1:\n      jumpi(tag_2, calldatasize)\n      stop\n    tag_2:\n      0x00\n      dup1\n      revert\n        /* \"src/Admin.sol\":199:219  address public owner */\n    tag_3:\n      callvalue\n      dup1\n      iszero\n      tag_8\n      jumpi\n      0x00\n      dup1\n      revert\n    tag_8:\n      pop\n      tag_9\n      tag_10\n      jump\t// in\n    tag_9:\n      mload(0x40)\n      tag_11\n      swap2\n      swap1\n      tag_12\n      jump\t// in\n    tag_11:\n      mload(0x40)\n      dup1\n      swap2\n      sub\n      swap1\n      return\n        /* \"src/Admin.sol\":410:601  function adminWithdraw(IBank bank) external onlyOwner {... */\n    tag_4:\n      callvalue\n      dup1\n      iszero\n      tag_13\n      jumpi\n      0x00\n      dup1\n      revert\n    tag_13:\n      pop\n      tag_14\n      0x04\n      dup1\n      calldatasize\n      sub\n      dup2\n      add\n      swap1\n      tag_15\n      swap2\n      swap1\n      tag_16\n      jump\t// in\n    tag_15:\n      tag_17\n      jump\t// in\n    tag_14:\n      stop\n        /* \"src/Admin.sol\":607:726  function transferOwnership(address newOwner) external onlyOwner zeroAddress(newOwner) {... */\n    tag_5:\n      callvalue\n      dup1\n      iszero\n      tag_18\n      jumpi\n      0x00\n      dup1\n      revert\n    tag_18:\n      pop\n      tag_19\n      0x04\n      dup1\n      calldatasize\n      sub\n      dup2\n      add\n      swap1\n      tag_20\n      swap2\n      swap1\n      tag_21\n      jump\t// in\n    tag_20:\n      tag_22\n      jump\t// in\n    tag_19:\n      stop\n        /* \"src/Admin.sol\":199:219  address public owner */\n    tag_10:\n      0x00\n      dup1\n      sload\n      swap1\n      0x0100\n      exp\n      swap1\n      div\n      0xffffffffffffffffffffffffffffffffffffffff\n      and\n      dup2\n      jump\t// out\n        /* \"src/Admin.sol\":410:601  function adminWithdraw(IBank bank) external onlyOwner {... */\n    tag_17:\n        /* \"src/Admin.sol\":782:787  owner */\n      0x00\n      dup1\n      sload\n      swap1\n      0x0100\n      exp\n      swap1\n      div\n      0xffffffffffffffffffffffffffffffffffffffff\n      and\n        /* \"src/Admin.sol\":768:787  msg.sender != owner */\n      0xffffffffffffffffffffffffffffffffffffffff\n      and\n        /* \"src/Admin.sol\":768:778  msg.sender */\n      caller\n        /* \"src/Admin.sol\":768:787  msg.sender != owner */\n      0xffffffffffffffffffffffffffffffffffffffff\n      and\n      eq\n        /* \"src/Admin.sol\":764:806  if (msg.sender != owner) revert NotOwner() */\n      tag_24\n      jumpi\n        /* \"src/Admin.sol\":796:806  NotOwner() */\n      mload(0x40)\n      0x30cd747100000000000000000000000000000000000000000000000000000000\n      dup2\n      mstore\n      0x04\n      add\n      mload(0x40)\n      dup1\n      swap2\n      sub\n      swap1\n      revert\n        /* \"src/Admin.sol\":764:806  if (msg.sender != owner) revert NotOwner() */\n    tag_24:\n        /* \"src/Admin.sol\":474:486  uint balance */\n      0x00\n        /* \"src/Admin.sol\":497:501  bank */\n      dup2\n        /* \"src/Admin.sol\":489:510  address(bank).balance */\n      0xffffffffffffffffffffffffffffffffffffffff\n      and\n      balance\n        /* \"src/Admin.sol\":474:510  uint balance = address(bank).balance */\n      swap1\n      pop\n        /* \"src/Admin.sol\":535:536  0 */\n      0x00\n        /* \"src/Admin.sol\":524:531  balance */\n      dup2\n        /* \"src/Admin.sol\":524:536  balance <= 0 */\n      gt\n        /* \"src/Admin.sol\":520:562  if (balance <= 0) revert NoEnoughBalance() */\n      tag_26\n      jumpi\n        /* \"src/Admin.sol\":545:562  NoEnoughBalance() */\n      mload(0x40)\n      0x5ad8341100000000000000000000000000000000000000000000000000000000\n      dup2\n      mstore\n      0x04\n      add\n      mload(0x40)\n      dup1\n      swap2\n      sub\n      swap1\n      revert\n        /* \"src/Admin.sol\":520:562  if (balance <= 0) revert NoEnoughBalance() */\n    tag_26:\n        /* \"src/Admin.sol\":572:576  bank */\n      dup2\n        /* \"src/Admin.sol\":572:585  bank.withdraw */\n      0xffffffffffffffffffffffffffffffffffffffff\n      and\n      0x2e1a7d4d\n        /* \"src/Admin.sol\":586:593  balance */\n      dup3\n        /* \"src/Admin.sol\":572:594  bank.withdraw(balance) */\n      mload(0x40)\n      dup3\n      0xffffffff\n      and\n      0xe0\n      shl\n      dup2\n      mstore\n      0x04\n      add\n      tag_27\n      swap2\n      swap1\n      tag_28\n      jump\t// in\n    tag_27:\n      0x00\n      mload(0x40)\n      dup1\n      dup4\n      sub\n      dup2\n      0x00\n      dup8\n      dup1\n      extcodesize\n      iszero\n      dup1\n      iszero\n      tag_29\n      jumpi\n      0x00\n      dup1\n      revert\n    tag_29:\n      pop\n      gas\n      call\n      iszero\n      dup1\n      iszero\n      tag_31\n      jumpi\n      returndatasize\n      0x00\n      dup1\n      returndatacopy\n      revert(0x00, returndatasize)\n    tag_31:\n      pop\n      pop\n      pop\n      pop\n        /* \"src/Admin.sol\":464:601  {... */\n      pop\n        /* \"src/Admin.sol\":410:601  function adminWithdraw(IBank bank) external onlyOwner {... */\n      pop\n      jump\t// out\n        /* \"src/Admin.sol\":607:726  function transferOwnership(address newOwner) external onlyOwner zeroAddress(newOwner) {... */\n    tag_22:\n        /* \"src/Admin.sol\":782:787  owner */\n      0x00\n      dup1\n      sload\n      swap1\n      0x0100\n      exp\n      swap1\n      div\n      0xffffffffffffffffffffffffffffffffffffffff\n      and\n        /* \"src/Admin.sol\":768:787  msg.sender != owner */\n      0xffffffffffffffffffffffffffffffffffffffff\n      and\n        /* \"src/Admin.sol\":768:778  msg.sender */\n      caller\n        /* \"src/Admin.sol\":768:787  msg.sender != owner */\n      0xffffffffffffffffffffffffffffffffffffffff\n      and\n      eq\n        /* \"src/Admin.sol\":764:806  if (msg.sender != owner) revert NotOwner() */\n      tag_33\n      jumpi\n        /* \"src/Admin.sol\":796:806  NotOwner() */\n      mload(0x40)\n      0x30cd747100000000000000000000000000000000000000000000000000000000\n      dup2\n      mstore\n      0x04\n      add\n      mload(0x40)\n      dup1\n      swap2\n      sub\n      swap1\n      revert\n        /* \"src/Admin.sol\":764:806  if (msg.sender != owner) revert NotOwner() */\n    tag_33:\n        /* \"src/Admin.sol\":683:691  newOwner */\n      dup1\n        /* \"src/Admin.sol\":903:904  0 */\n      0x00\n        /* \"src/Admin.sol\":883:905  newOwner == address(0) */\n      0xffffffffffffffffffffffffffffffffffffffff\n      and\n        /* \"src/Admin.sol\":883:891  newOwner */\n      dup2\n        /* \"src/Admin.sol\":883:905  newOwner == address(0) */\n      0xffffffffffffffffffffffffffffffffffffffff\n      and\n      sub\n        /* \"src/Admin.sol\":879:929  if (newOwner == address(0)) revert isZeroAddress() */\n      tag_35\n      jumpi\n        /* \"src/Admin.sol\":914:929  isZeroAddress() */\n      mload(0x40)\n      0x29dde86d00000000000000000000000000000000000000000000000000000000\n      dup2\n      mstore\n      0x04\n      add\n      mload(0x40)\n      dup1\n      swap2\n      sub\n      swap1\n      revert\n        /* \"src/Admin.sol\":879:929  if (newOwner == address(0)) revert isZeroAddress() */\n    tag_35:\n        /* \"src/Admin.sol\":711:719  newOwner */\n      dup2\n        /* \"src/Admin.sol\":703:708  owner */\n      0x00\n      dup1\n        /* \"src/Admin.sol\":703:719  owner = newOwner */\n      0x0100\n      exp\n      dup2\n      sload\n      dup2\n      0xffffffffffffffffffffffffffffffffffffffff\n      mul\n      not\n      and\n      swap1\n      dup4\n      0xffffffffffffffffffffffffffffffffffffffff\n      and\n      mul\n      or\n      swap1\n      sstore\n      pop\n        /* \"src/Admin.sol\":816:817  _ */\n      pop\n        /* \"src/Admin.sol\":607:726  function transferOwnership(address newOwner) external onlyOwner zeroAddress(newOwner) {... */\n      pop\n      jump\t// out\n        /* \"#utility.yul\":7:133   */\n    tag_37:\n        /* \"#utility.yul\":44:51   */\n      0x00\n        /* \"#utility.yul\":84:126   */\n      0xffffffffffffffffffffffffffffffffffffffff\n        /* \"#utility.yul\":77:82   */\n      dup3\n        /* \"#utility.yul\":73:127   */\n      and\n        /* \"#utility.yul\":62:127   */\n      swap1\n      pop\n        /* \"#utility.yul\":7:133   */\n      swap2\n      swap1\n      pop\n      jump\t// out\n        /* \"#utility.yul\":139:235   */\n    tag_38:\n        /* \"#utility.yul\":176:183   */\n      0x00\n        /* \"#utility.yul\":205:229   */\n      tag_53\n        /* \"#utility.yul\":223:228   */\n      dup3\n        /* \"#utility.yul\":205:229   */\n      tag_37\n      jump\t// in\n    tag_53:\n        /* \"#utility.yul\":194:229   */\n      swap1\n      pop\n        /* \"#utility.yul\":139:235   */\n      swap2\n      swap1\n      pop\n      jump\t// out\n        /* \"#utility.yul\":241:359   */\n    tag_39:\n        /* \"#utility.yul\":328:352   */\n      tag_55\n        /* \"#utility.yul\":346:351   */\n      dup2\n        /* \"#utility.yul\":328:352   */\n      tag_38\n      jump\t// in\n    tag_55:\n        /* \"#utility.yul\":323:326   */\n      dup3\n        /* \"#utility.yul\":316:353   */\n      mstore\n        /* \"#utility.yul\":241:359   */\n      pop\n      pop\n      jump\t// out\n        /* \"#utility.yul\":365:587   */\n    tag_12:\n        /* \"#utility.yul\":458:462   */\n      0x00\n        /* \"#utility.yul\":496:498   */\n      0x20\n        /* \"#utility.yul\":485:494   */\n      dup3\n        /* \"#utility.yul\":481:499   */\n      add\n        /* \"#utility.yul\":473:499   */\n      swap1\n      pop\n        /* \"#utility.yul\":509:580   */\n      tag_57\n        /* \"#utility.yul\":577:578   */\n      0x00\n        /* \"#utility.yul\":566:575   */\n      dup4\n        /* \"#utility.yul\":562:579   */\n      add\n        /* \"#utility.yul\":553:559   */\n      dup5\n        /* \"#utility.yul\":509:580   */\n      tag_39\n      jump\t// in\n    tag_57:\n        /* \"#utility.yul\":365:587   */\n      swap3\n      swap2\n      pop\n      pop\n      jump\t// out\n        /* \"#utility.yul\":674:791   */\n    tag_41:\n        /* \"#utility.yul\":783:784   */\n      0x00\n        /* \"#utility.yul\":780:781   */\n      dup1\n        /* \"#utility.yul\":773:785   */\n      revert\n        /* \"#utility.yul\":920:1028   */\n    tag_43:\n        /* \"#utility.yul\":969:976   */\n      0x00\n        /* \"#utility.yul\":998:1022   */\n      tag_62\n        /* \"#utility.yul\":1016:1021   */\n      dup3\n        /* \"#utility.yul\":998:1022   */\n      tag_38\n      jump\t// in\n    tag_62:\n        /* \"#utility.yul\":987:1022   */\n      swap1\n      pop\n        /* \"#utility.yul\":920:1028   */\n      swap2\n      swap1\n      pop\n      jump\t// out\n        /* \"#utility.yul\":1034:1180   */\n    tag_44:\n        /* \"#utility.yul\":1119:1155   */\n      tag_64\n        /* \"#utility.yul\":1149:1154   */\n      dup2\n        /* \"#utility.yul\":1119:1155   */\n      tag_43\n      jump\t// in\n    tag_64:\n        /* \"#utility.yul\":1112:1117   */\n      dup2\n        /* \"#utility.yul\":1109:1156   */\n      eq\n        /* \"#utility.yul\":1099:1174   */\n      tag_65\n      jumpi\n        /* \"#utility.yul\":1170:1171   */\n      0x00\n        /* \"#utility.yul\":1167:1168   */\n      dup1\n        /* \"#utility.yul\":1160:1172   */\n      revert\n        /* \"#utility.yul\":1099:1174   */\n    tag_65:\n        /* \"#utility.yul\":1034:1180   */\n      pop\n      jump\t// out\n        /* \"#utility.yul\":1186:1349   */\n    tag_45:\n        /* \"#utility.yul\":1244:1249   */\n      0x00\n        /* \"#utility.yul\":1282:1288   */\n      dup2\n        /* \"#utility.yul\":1269:1289   */\n      calldataload\n        /* \"#utility.yul\":1260:1289   */\n      swap1\n      pop\n        /* \"#utility.yul\":1298:1343   */\n      tag_67\n        /* \"#utility.yul\":1337:1342   */\n      dup2\n        /* \"#utility.yul\":1298:1343   */\n      tag_44\n      jump\t// in\n    tag_67:\n        /* \"#utility.yul\":1186:1349   */\n      swap3\n      swap2\n      pop\n      pop\n      jump\t// out\n        /* \"#utility.yul\":1355:1708   */\n    tag_16:\n        /* \"#utility.yul\":1426:1432   */\n      0x00\n        /* \"#utility.yul\":1475:1477   */\n      0x20\n        /* \"#utility.yul\":1463:1472   */\n      dup3\n        /* \"#utility.yul\":1454:1461   */\n      dup5\n        /* \"#utility.yul\":1450:1473   */\n      sub\n        /* \"#utility.yul\":1446:1478   */\n      slt\n        /* \"#utility.yul\":1443:1562   */\n      iszero\n      tag_69\n      jumpi\n        /* \"#utility.yul\":1481:1560   */\n      tag_70\n      tag_41\n      jump\t// in\n    tag_70:\n        /* \"#utility.yul\":1443:1562   */\n    tag_69:\n        /* \"#utility.yul\":1601:1602   */\n      0x00\n        /* \"#utility.yul\":1626:1691   */\n      tag_71\n        /* \"#utility.yul\":1683:1690   */\n      dup5\n        /* \"#utility.yul\":1674:1680   */\n      dup3\n        /* \"#utility.yul\":1663:1672   */\n      dup6\n        /* \"#utility.yul\":1659:1681   */\n      add\n        /* \"#utility.yul\":1626:1691   */\n      tag_45\n      jump\t// in\n    tag_71:\n        /* \"#utility.yul\":1616:1691   */\n      swap2\n      pop\n        /* \"#utility.yul\":1572:1701   */\n      pop\n        /* \"#utility.yul\":1355:1708   */\n      swap3\n      swap2\n      pop\n      pop\n      jump\t// out\n        /* \"#utility.yul\":1714:1836   */\n    tag_46:\n        /* \"#utility.yul\":1787:1811   */\n      tag_73\n        /* \"#utility.yul\":1805:1810   */\n      dup2\n        /* \"#utility.yul\":1787:1811   */\n      tag_38\n      jump\t// in\n    tag_73:\n        /* \"#utility.yul\":1780:1785   */\n      dup2\n        /* \"#utility.yul\":1777:1812   */\n      eq\n        /* \"#utility.yul\":1767:1830   */\n      tag_74\n      jumpi\n        /* \"#utility.yul\":1826:1827   */\n      0x00\n        /* \"#utility.yul\":1823:1824   */\n      dup1\n        /* \"#utility.yul\":1816:1828   */\n      revert\n        /* \"#utility.yul\":1767:1830   */\n    tag_74:\n        /* \"#utility.yul\":1714:1836   */\n      pop\n      jump\t// out\n        /* \"#utility.yul\":1842:1981   */\n    tag_47:\n        /* \"#utility.yul\":1888:1893   */\n      0x00\n        /* \"#utility.yul\":1926:1932   */\n      dup2\n        /* \"#utility.yul\":1913:1933   */\n      calldataload\n        /* \"#utility.yul\":1904:1933   */\n      swap1\n      pop\n        /* \"#utility.yul\":1942:1975   */\n      tag_76\n        /* \"#utility.yul\":1969:1974   */\n      dup2\n        /* \"#utility.yul\":1942:1975   */\n      tag_46\n      jump\t// in\n    tag_76:\n        /* \"#utility.yul\":1842:1981   */\n      swap3\n      swap2\n      pop\n      pop\n      jump\t// out\n        /* \"#utility.yul\":1987:2316   */\n    tag_21:\n        /* \"#utility.yul\":2046:2052   */\n      0x00\n        /* \"#utility.yul\":2095:2097   */\n      0x20\n        /* \"#utility.yul\":2083:2092   */\n      dup3\n        /* \"#utility.yul\":2074:2081   */\n      dup5\n        /* \"#utility.yul\":2070:2093   */\n      sub\n        /* \"#utility.yul\":2066:2098   */\n      slt\n        /* \"#utility.yul\":2063:2182   */\n      iszero\n      tag_78\n      jumpi\n        /* \"#utility.yul\":2101:2180   */\n      tag_79\n      tag_41\n      jump\t// in\n    tag_79:\n        /* \"#utility.yul\":2063:2182   */\n    tag_78:\n        /* \"#utility.yul\":2221:2222   */\n      0x00\n        /* \"#utility.yul\":2246:2299   */\n      tag_80\n        /* \"#utility.yul\":2291:2298   */\n      dup5\n        /* \"#utility.yul\":2282:2288   */\n      dup3\n        /* \"#utility.yul\":2271:2280   */\n      dup6\n        /* \"#utility.yul\":2267:2289   */\n      add\n        /* \"#utility.yul\":2246:2299   */\n      tag_47\n      jump\t// in\n    tag_80:\n        /* \"#utility.yul\":2236:2299   */\n      swap2\n      pop\n        /* \"#utility.yul\":2192:2309   */\n      pop\n        /* \"#utility.yul\":1987:2316   */\n      swap3\n      swap2\n      pop\n      pop\n      jump\t// out\n        /* \"#utility.yul\":2322:2399   */\n    tag_48:\n        /* \"#utility.yul\":2359:2366   */\n      0x00\n        /* \"#utility.yul\":2388:2393   */\n      dup2\n        /* \"#utility.yul\":2377:2393   */\n      swap1\n      pop\n        /* \"#utility.yul\":2322:2399   */\n      swap2\n      swap1\n      pop\n      jump\t// out\n        /* \"#utility.yul\":2405:2523   */\n    tag_49:\n        /* \"#utility.yul\":2492:2516   */\n      tag_83\n        /* \"#utility.yul\":2510:2515   */\n      dup2\n        /* \"#utility.yul\":2492:2516   */\n      tag_48\n      jump\t// in\n    tag_83:\n        /* \"#utility.yul\":2487:2490   */\n      dup3\n        /* \"#utility.yul\":2480:2517   */\n      mstore\n        /* \"#utility.yul\":2405:2523   */\n      pop\n      pop\n      jump\t// out\n        /* \"#utility.yul\":2529:2751   */\n    tag_28:\n        /* \"#utility.yul\":2622:2626   */\n      0x00\n        /* \"#utility.yul\":2660:2662   */\n      0x20\n        /* \"#utility.yul\":2649:2658   */\n      dup3\n        /* \"#utility.yul\":2645:2663   */\n      add\n        /* \"#utility.yul\":2637:2663   */\n      swap1\n      pop\n        /* \"#utility.yul\":2673:2744   */\n      tag_85\n        /* \"#utility.yul\":2741:2742   */\n      0x00\n        /* \"#utility.yul\":2730:2739   */\n      dup4\n        /* \"#utility.yul\":2726:2743   */\n      add\n        /* \"#utility.yul\":2717:2723   */\n      dup5\n        /* \"#utility.yul\":2673:2744   */\n      tag_49\n      jump\t// in\n    tag_85:\n        /* \"#utility.yul\":2529:2751   */\n      swap3\n      swap2\n      pop\n      pop\n      jump\t// out\n\n    auxdata: 0xa264697066735822122088784f04a4b3a0fb81357b318936cf9f0665f82e909e96bfa59644cf2489450364736f6c634300081a0033\n}\n",
				"bytecode": {
					"linkReferences": {},
					"object": "6080604052348015600e575f80fd5b50335f806101000a81548173ffffffffffffffffffffffffffffffffffffffff021916908373ffffffffffffffffffffffffffffffffffffffff1602179055506104cc8061005b5f395ff3fe608060405260043610610037575f3560e01c80638da5cb5b14610042578063a28835b61461006c578063f2fde38b146100945761003e565b3661003e57005b5f80fd5b34801561004d575f80fd5b506100566100bc565b604051610063919061038d565b60405180910390f35b348015610077575f80fd5b50610092600480360381019061008d91906103e5565b6100df565b005b34801561009f575f80fd5b506100ba60048036038101906100b5919061043a565b610221565b005b5f8054906101000a900473ffffffffffffffffffffffffffffffffffffffff1681565b5f8054906101000a900473ffffffffffffffffffffffffffffffffffffffff1673ffffffffffffffffffffffffffffffffffffffff163373ffffffffffffffffffffffffffffffffffffffff1614610163576040517f30cd747100000000000000000000000000000000000000000000000000000000815260040160405180910390fd5b5f8173ffffffffffffffffffffffffffffffffffffffff163190505f81116101b7576040517f5ad8341100000000000000000000000000000000000000000000000000000000815260040160405180910390fd5b8173ffffffffffffffffffffffffffffffffffffffff16632e1a7d4d826040518263ffffffff1660e01b81526004016101f0919061047d565b5f604051808303815f87803b158015610207575f80fd5b505af1158015610219573d5f803e3d5ffd5b505050505050565b5f8054906101000a900473ffffffffffffffffffffffffffffffffffffffff1673ffffffffffffffffffffffffffffffffffffffff163373ffffffffffffffffffffffffffffffffffffffff16146102a5576040517f30cd747100000000000000000000000000000000000000000000000000000000815260040160405180910390fd5b805f73ffffffffffffffffffffffffffffffffffffffff168173ffffffffffffffffffffffffffffffffffffffff160361030b576040517f29dde86d00000000000000000000000000000000000000000000000000000000815260040160405180910390fd5b815f806101000a81548173ffffffffffffffffffffffffffffffffffffffff021916908373ffffffffffffffffffffffffffffffffffffffff1602179055505050565b5f73ffffffffffffffffffffffffffffffffffffffff82169050919050565b5f6103778261034e565b9050919050565b6103878161036d565b82525050565b5f6020820190506103a05f83018461037e565b92915050565b5f80fd5b5f6103b48261036d565b9050919050565b6103c4816103aa565b81146103ce575f80fd5b50565b5f813590506103df816103bb565b92915050565b5f602082840312156103fa576103f96103a6565b5b5f610407848285016103d1565b91505092915050565b6104198161036d565b8114610423575f80fd5b50565b5f8135905061043481610410565b92915050565b5f6020828403121561044f5761044e6103a6565b5b5f61045c84828501610426565b91505092915050565b5f819050919050565b61047781610465565b82525050565b5f6020820190506104905f83018461046e565b9291505056fea264697066735822122088784f04a4b3a0fb81357b318936cf9f0665f82e909e96bfa59644cf2489450364736f6c634300081a0033",
					"opcodes": "PUSH1 0x80 PUSH1 0x40 MSTORE CALLVALUE DUP1 ISZERO PUSH1 0xE JUMPI PUSH0 DUP1 REVERT JUMPDEST POP CALLER PUSH0 DUP1 PUSH2 0x100 EXP DUP2 SLOAD DUP2 PUSH20 0xFFFFFFFFFFFFFFFFFFFFFFFFFFFFFFFFFFFFFFFF MUL NOT AND SWAP1 DUP4 PUSH20 0xFFFFFFFFFFFFFFFFFFFFFFFFFFFFFFFFFFFFFFFF AND MUL OR SWAP1 SSTORE POP PUSH2 0x4CC DUP1 PUSH2 0x5B PUSH0 CODECOPY PUSH0 RETURN INVALID PUSH1 0x80 PUSH1 0x40 MSTORE PUSH1 0x4 CALLDATASIZE LT PUSH2 0x37 JUMPI PUSH0 CALLDATALOAD PUSH1 0xE0 SHR DUP1 PUSH4 0x8DA5CB5B EQ PUSH2 0x42 JUMPI DUP1 PUSH4 0xA28835B6 EQ PUSH2 0x6C JUMPI DUP1 PUSH4 0xF2FDE38B EQ PUSH2 0x94 JUMPI PUSH2 0x3E JUMP JUMPDEST CALLDATASIZE PUSH2 0x3E JUMPI STOP JUMPDEST PUSH0 DUP1 REVERT JUMPDEST CALLVALUE DUP1 ISZERO PUSH2 0x4D JUMPI PUSH0 DUP1 REVERT JUMPDEST POP PUSH2 0x56 PUSH2 0xBC JUMP JUMPDEST PUSH1 0x40 MLOAD PUSH2 0x63 SWAP2 SWAP1 PUSH2 0x38D JUMP JUMPDEST PUSH1 0x40 MLOAD DUP1 SWAP2 SUB SWAP1 RETURN JUMPDEST CALLVALUE DUP1 ISZERO PUSH2 0x77 JUMPI PUSH0 DUP1 REVERT JUMPDEST POP PUSH2 0x92 PUSH1 0x4 DUP1 CALLDATASIZE SUB DUP2 ADD SWAP1 PUSH2 0x8D SWAP2 SWAP1 PUSH2 0x3E5 JUMP JUMPDEST PUSH2 0xDF JUMP JUMPDEST STOP JUMPDEST CALLVALUE DUP1 ISZERO PUSH2 0x9F JUMPI PUSH0 DUP1 REVERT JUMPDEST POP PUSH2 0xBA PUSH1 0x4 DUP1 CALLDATASIZE SUB DUP2 ADD SWAP1 PUSH2 0xB5 SWAP2 SWAP1 PUSH2 0x43A JUMP JUMPDEST PUSH2 0x221 JUMP JUMPDEST STOP JUMPDEST PUSH0 DUP1 SLOAD SWAP1 PUSH2 0x100 EXP SWAP1 DIV PUSH20 0xFFFFFFFFFFFFFFFFFFFFFFFFFFFFFFFFFFFFFFFF AND DUP2 JUMP JUMPDEST PUSH0 DUP1 SLOAD SWAP1 PUSH2 0x100 EXP SWAP1 DIV PUSH20 0xFFFFFFFFFFFFFFFFFFFFFFFFFFFFFFFFFFFFFFFF AND PUSH20 0xFFFFFFFFFFFFFFFFFFFFFFFFFFFFFFFFFFFFFFFF AND CALLER PUSH20 0xFFFFFFFFFFFFFFFFFFFFFFFFFFFFFFFFFFFFFFFF AND EQ PUSH2 0x163 JUMPI PUSH1 0x40 MLOAD PUSH32 0x30CD747100000000000000000000000000000000000000000000000000000000 DUP2 MSTORE PUSH1 0x4 ADD PUSH1 0x40 MLOAD DUP1 SWAP2 SUB SWAP1 REVERT JUMPDEST PUSH0 DUP2 PUSH20 0xFFFFFFFFFFFFFFFFFFFFFFFFFFFFFFFFFFFFFFFF AND BALANCE SWAP1 POP PUSH0 DUP2 GT PUSH2 0x1B7 JUMPI PUSH1 0x40 MLOAD PUSH32 0x5AD8341100000000000000000000000000000000000000000000000000000000 DUP2 MSTORE PUSH1 0x4 ADD PUSH1 0x40 MLOAD DUP1 SWAP2 SUB SWAP1 REVERT JUMPDEST DUP2 PUSH20 0xFFFFFFFFFFFFFFFFFFFFFFFFFFFFFFFFFFFFFFFF AND PUSH4 0x2E1A7D4D DUP3 PUSH1 0x40 MLOAD DUP3 PUSH4 0xFFFFFFFF AND PUSH1 0xE0 SHL DUP2 MSTORE PUSH1 0x4 ADD PUSH2 0x1F0 SWAP2 SWAP1 PUSH2 0x47D JUMP JUMPDEST PUSH0 PUSH1 0x40 MLOAD DUP1 DUP4 SUB DUP2 PUSH0 DUP8 DUP1 EXTCODESIZE ISZERO DUP1 ISZERO PUSH2 0x207 JUMPI PUSH0 DUP1 REVERT JUMPDEST POP GAS CALL ISZERO DUP1 ISZERO PUSH2 0x219 JUMPI RETURNDATASIZE PUSH0 DUP1 RETURNDATACOPY RETURNDATASIZE PUSH0 REVERT JUMPDEST POP POP POP POP POP POP JUMP JUMPDEST PUSH0 DUP1 SLOAD SWAP1 PUSH2 0x100 EXP SWAP1 DIV PUSH20 0xFFFFFFFFFFFFFFFFFFFFFFFFFFFFFFFFFFFFFFFF AND PUSH20 0xFFFFFFFFFFFFFFFFFFFFFFFFFFFFFFFFFFFFFFFF AND CALLER PUSH20 0xFFFFFFFFFFFFFFFFFFFFFFFFFFFFFFFFFFFFFFFF AND EQ PUSH2 0x2A5 JUMPI PUSH1 0x40 MLOAD PUSH32 0x30CD747100000000000000000000000000000000000000000000000000000000 DUP2 MSTORE PUSH1 0x4 ADD PUSH1 0x40 MLOAD DUP1 SWAP2 SUB SWAP1 REVERT JUMPDEST DUP1 PUSH0 PUSH20 0xFFFFFFFFFFFFFFFFFFFFFFFFFFFFFFFFFFFFFFFF AND DUP2 PUSH20 0xFFFFFFFFFFFFFFFFFFFFFFFFFFFFFFFFFFFFFFFF AND SUB PUSH2 0x30B JUMPI PUSH1 0x40 MLOAD PUSH32 0x29DDE86D00000000000000000000000000000000000000000000000000000000 DUP2 MSTORE PUSH1 0x4 ADD PUSH1 0x40 MLOAD DUP1 SWAP2 SUB SWAP1 REVERT JUMPDEST DUP2 PUSH0 DUP1 PUSH2 0x100 EXP DUP2 SLOAD DUP2 PUSH20 0xFFFFFFFFFFFFFFFFFFFFFFFFFFFFFFFFFFFFFFFF MUL NOT AND SWAP1 DUP4 PUSH20 0xFFFFFFFFFFFFFFFFFFFFFFFFFFFFFFFFFFFFFFFF AND MUL OR SWAP1 SSTORE POP POP POP JUMP JUMPDEST PUSH0 PUSH20 0xFFFFFFFFFFFFFFFFFFFFFFFFFFFFFFFFFFFFFFFF DUP3 AND SWAP1 POP SWAP2 SWAP1 POP JUMP JUMPDEST PUSH0 PUSH2 0x377 DUP3 PUSH2 0x34E JUMP JUMPDEST SWAP1 POP SWAP2 SWAP1 POP JUMP JUMPDEST PUSH2 0x387 DUP2 PUSH2 0x36D JUMP JUMPDEST DUP3 MSTORE POP POP JUMP JUMPDEST PUSH0 PUSH1 0x20 DUP3 ADD SWAP1 POP PUSH2 0x3A0 PUSH0 DUP4 ADD DUP5 PUSH2 0x37E JUMP JUMPDEST SWAP3 SWAP2 POP POP JUMP JUMPDEST PUSH0 DUP1 REVERT JUMPDEST PUSH0 PUSH2 0x3B4 DUP3 PUSH2 0x36D JUMP JUMPDEST SWAP1 POP SWAP2 SWAP1 POP JUMP JUMPDEST PUSH2 0x3C4 DUP2 PUSH2 0x3AA JUMP JUMPDEST DUP2 EQ PUSH2 0x3CE JUMPI PUSH0 DUP1 REVERT JUMPDEST POP JUMP JUMPDEST PUSH0 DUP2 CALLDATALOAD SWAP1 POP PUSH2 0x3DF DUP2 PUSH2 0x3BB JUMP JUMPDEST SWAP3 SWAP2 POP POP JUMP JUMPDEST PUSH0 PUSH1 0x20 DUP3 DUP5 SUB SLT ISZERO PUSH2 0x3FA JUMPI PUSH2 0x3F9 PUSH2 0x3A6 JUMP JUMPDEST JUMPDEST PUSH0 PUSH2 0x407 DUP5 DUP3 DUP6 ADD PUSH2 0x3D1 JUMP JUMPDEST SWAP2 POP POP SWAP3 SWAP2 POP POP JUMP JUMPDEST PUSH2 0x419 DUP2 PUSH2 0x36D JUMP JUMPDEST DUP2 EQ PUSH2 0x423 JUMPI PUSH0 DUP1 REVERT JUMPDEST POP JUMP JUMPDEST PUSH0 DUP2 CALLDATALOAD SWAP1 POP PUSH2 0x434 DUP2 PUSH2 0x410 JUMP JUMPDEST SWAP3 SWAP2 POP POP JUMP JUMPDEST PUSH0 PUSH1 0x20 DUP3 DUP5 SUB SLT ISZERO PUSH2 0x44F JUMPI PUSH2 0x44E PUSH2 0x3A6 JUMP JUMPDEST JUMPDEST PUSH0 PUSH2 0x45C DUP5 DUP3 DUP6 ADD PUSH2 0x426 JUMP JUMPDEST SWAP2 POP POP SWAP3 SWAP2 POP POP JUMP JUMPDEST PUSH0 DUP2 SWAP1 POP SWAP2 SWAP1 POP JUMP JUMPDEST PUSH2 0x477 DUP2 PUSH2 0x465 JUMP JUMPDEST DUP3 MSTORE POP POP JUMP JUMPDEST PUSH0 PUSH1 0x20 DUP3 ADD SWAP1 POP PUSH2 0x490 PUSH0 DUP4 ADD DUP5 PUSH2 0x46E JUMP JUMPDEST SWAP3 SWAP2 POP POP JUMP INVALID LOG2 PUSH5 0x6970667358 0x22 SLT KECCAK256 DUP9 PUSH25 0x4F04A4B3A0FB81357B318936CF9F0665F82E909E96BFA59644 0xCF 0x24 DUP10 GASLIMIT SUB PUSH5 0x736F6C6343 STOP ADDMOD BYTE STOP CALLER "
				},
				"gasEstimates": {
					"creation": {
						"codeDepositCost": "245600",
						"executionCost": "24550",
						"totalCost": "270150"
					},
					"external": {
						"adminWithdraw(address)": "infinite",
						"owner()": "2483",
						"transferOwnership(address)": "26942"
					}
				},
				"methodIdentifiers": {
					"adminWithdraw(address)": "a28835b6",
					"owner()": "8da5cb5b",
					"transferOwnership(address)": "f2fde38b"
				}
			},
			"storageLayout": {
				"storage": [
					{
						"astId": 239,
						"contract": "src/Admin.sol:Admin",
						"label": "owner",
						"offset": 0,
						"slot": "0",
						"type": "t_address"
					}
				],
				"types": {
					"t_address": {
						"encoding": "inplace",
						"label": "address",
						"numberOfBytes": "20"
					}
				}
			},
			"userdoc": {
				"kind": "user",
				"methods": {},
				"version": 1
			}
		}
	}
}