{
	"https://github.com/lilongxi/OpenSpace/blob/challenge-003-2024-10-11/BankContract/Bank.sol": {
		"Bank": {
			"abi": [
				{
					"inputs": [],
					"stateMutability": "nonpayable",
					"type": "constructor"
				},
				{
					"anonymous": false,
					"inputs": [
						{
							"indexed": true,
							"internalType": "address",
							"name": "user",
							"type": "address"
						},
						{
							"indexed": false,
							"internalType": "uint256",
							"name": "amount",
							"type": "uint256"
						}
					],
					"name": "Deposit",
					"type": "event"
				},
				{
					"anonymous": false,
					"inputs": [
						{
							"indexed": false,
							"internalType": "uint256",
							"name": "amount",
							"type": "uint256"
						}
					],
					"name": "Withdraw",
					"type": "event"
				},
				{
					"inputs": [],
					"name": "deposit",
					"outputs": [],
					"stateMutability": "payable",
					"type": "function"
				},
				{
					"inputs": [
						{
							"internalType": "address",
							"name": "",
							"type": "address"
						}
					],
					"name": "deposits",
					"outputs": [
						{
							"internalType": "uint256",
							"name": "",
							"type": "uint256"
						}
					],
					"stateMutability": "view",
					"type": "function"
				},
				{
					"inputs": [],
					"name": "getBalance",
					"outputs": [
						{
							"internalType": "uint256",
							"name": "",
							"type": "uint256"
						}
					],
					"stateMutability": "view",
					"type": "function"
				},
				{
					"inputs": [],
					"name": "owner",
					"outputs": [
						{
							"internalType": "address",
							"name": "",
							"type": "address"
						}
					],
					"stateMutability": "view",
					"type": "function"
				},
				{
					"inputs": [
						{
							"internalType": "uint256",
							"name": "",
							"type": "uint256"
						}
					],
					"name": "topDeposits",
					"outputs": [
						{
							"internalType": "uint256",
							"name": "",
							"type": "uint256"
						}
					],
					"stateMutability": "view",
					"type": "function"
				},
				{
					"inputs": [
						{
							"internalType": "uint256",
							"name": "",
							"type": "uint256"
						}
					],
					"name": "topUsers",
					"outputs": [
						{
							"internalType": "address",
							"name": "",
							"type": "address"
						}
					],
					"stateMutability": "view",
					"type": "function"
				},
				{
					"inputs": [
						{
							"internalType": "uint256",
							"name": "amount",
							"type": "uint256"
						}
					],
					"name": "withdraw",
					"outputs": [],
					"stateMutability": "nonpayable",
					"type": "function"
				},
				{
					"stateMutability": "payable",
					"type": "receive"
				}
			],
			"devdoc": {
				"kind": "dev",
				"methods": {},
				"version": 1
			},
			"evm": {
				"assembly": "    /* \"https://github.com/lilongxi/OpenSpace/blob/challenge-003-2024-10-11/BankContract/Bank.sol\":239:1953  contract Bank is IBank {... */\n  mstore(0x40, 0x80)\n    /* \"https://github.com/lilongxi/OpenSpace/blob/challenge-003-2024-10-11/BankContract/Bank.sol\":543:593  constructor () {... */\n  callvalue\n  dup1\n  iszero\n  tag_1\n  jumpi\n  0x00\n  dup1\n  revert\ntag_1:\n  pop\n    /* \"https://github.com/lilongxi/OpenSpace/blob/challenge-003-2024-10-11/BankContract/Bank.sol\":576:586  msg.sender */\n  caller\n    /* \"https://github.com/lilongxi/OpenSpace/blob/challenge-003-2024-10-11/BankContract/Bank.sol\":568:573  owner */\n  0x00\n  dup1\n    /* \"https://github.com/lilongxi/OpenSpace/blob/challenge-003-2024-10-11/BankContract/Bank.sol\":568:586  owner = msg.sender */\n  0x0100\n  exp\n  dup2\n  sload\n  dup2\n  0xffffffffffffffffffffffffffffffffffffffff\n  mul\n  not\n  and\n  swap1\n  dup4\n  0xffffffffffffffffffffffffffffffffffffffff\n  and\n  mul\n  or\n  swap1\n  sstore\n  pop\n    /* \"https://github.com/lilongxi/OpenSpace/blob/challenge-003-2024-10-11/BankContract/Bank.sol\":239:1953  contract Bank is IBank {... */\n  dataSize(sub_0)\n  dup1\n  dataOffset(sub_0)\n  0x00\n  codecopy\n  0x00\n  return\nstop\n\nsub_0: assembly {\n        /* \"https://github.com/lilongxi/OpenSpace/blob/challenge-003-2024-10-11/BankContract/Bank.sol\":239:1953  contract Bank is IBank {... */\n      mstore(0x40, 0x80)\n      jumpi(tag_1, lt(calldatasize, 0x04))\n      shr(0xe0, calldataload(0x00))\n      dup1\n      0x8da5cb5b\n      gt\n      tag_10\n      jumpi\n      dup1\n      0x8da5cb5b\n      eq\n      tag_6\n      jumpi\n      dup1\n      0x91c1aae6\n      eq\n      tag_7\n      jumpi\n      dup1\n      0xd0e30db0\n      eq\n      tag_8\n      jumpi\n      dup1\n      0xfc7e286d\n      eq\n      tag_9\n      jumpi\n      jump(tag_2)\n    tag_10:\n      dup1\n      0x12065fe0\n      eq\n      tag_3\n      jumpi\n      dup1\n      0x2e1a7d4d\n      eq\n      tag_4\n      jumpi\n      dup1\n      0x689dbf4e\n      eq\n      tag_5\n      jumpi\n      jump(tag_2)\n    tag_1:\n      jumpi(tag_2, calldatasize)\n        /* \"https://github.com/lilongxi/OpenSpace/blob/challenge-003-2024-10-11/BankContract/Bank.sol\":634:652  _internalDeposit() */\n      tag_13\n        /* \"https://github.com/lilongxi/OpenSpace/blob/challenge-003-2024-10-11/BankContract/Bank.sol\":634:650  _internalDeposit */\n      tag_14\n        /* \"https://github.com/lilongxi/OpenSpace/blob/challenge-003-2024-10-11/BankContract/Bank.sol\":634:652  _internalDeposit() */\n      jump\t// in\n    tag_13:\n        /* \"https://github.com/lilongxi/OpenSpace/blob/challenge-003-2024-10-11/BankContract/Bank.sol\":239:1953  contract Bank is IBank {... */\n      stop\n    tag_2:\n      0x00\n      dup1\n      revert\n        /* \"https://github.com/lilongxi/OpenSpace/blob/challenge-003-2024-10-11/BankContract/Bank.sol\":1739:1835  function getBalance() external view returns (uint) {... */\n    tag_3:\n      callvalue\n      dup1\n      iszero\n      tag_15\n      jumpi\n      0x00\n      dup1\n      revert\n    tag_15:\n      pop\n      tag_16\n      tag_17\n      jump\t// in\n    tag_16:\n      mload(0x40)\n      tag_18\n      swap2\n      swap1\n      tag_19\n      jump\t// in\n    tag_18:\n      mload(0x40)\n      dup1\n      swap2\n      sub\n      swap1\n      return\n        /* \"https://github.com/lilongxi/OpenSpace/blob/challenge-003-2024-10-11/BankContract/Bank.sol\":1521:1733  function withdraw(uint amount) external onlyOwner {... */\n    tag_4:\n      callvalue\n      dup1\n      iszero\n      tag_20\n      jumpi\n      0x00\n      dup1\n      revert\n    tag_20:\n      pop\n      tag_21\n      0x04\n      dup1\n      calldatasize\n      sub\n      dup2\n      add\n      swap1\n      tag_22\n      swap2\n      swap1\n      tag_23\n      jump\t// in\n    tag_22:\n      tag_24\n      jump\t// in\n    tag_21:\n      stop\n        /* \"https://github.com/lilongxi/OpenSpace/blob/challenge-003-2024-10-11/BankContract/Bank.sol\":390:416  address[3] public topUsers */\n    tag_5:\n      callvalue\n      dup1\n      iszero\n      tag_25\n      jumpi\n      0x00\n      dup1\n      revert\n    tag_25:\n      pop\n      tag_26\n      0x04\n      dup1\n      calldatasize\n      sub\n      dup2\n      add\n      swap1\n      tag_27\n      swap2\n      swap1\n      tag_23\n      jump\t// in\n    tag_27:\n      tag_28\n      jump\t// in\n    tag_26:\n      mload(0x40)\n      tag_29\n      swap2\n      swap1\n      tag_30\n      jump\t// in\n    tag_29:\n      mload(0x40)\n      dup1\n      swap2\n      sub\n      swap1\n      return\n        /* \"https://github.com/lilongxi/OpenSpace/blob/challenge-003-2024-10-11/BankContract/Bank.sol\":317:337  address public owner */\n    tag_6:\n      callvalue\n      dup1\n      iszero\n      tag_31\n      jumpi\n      0x00\n      dup1\n      revert\n    tag_31:\n      pop\n      tag_32\n      tag_33\n      jump\t// in\n    tag_32:\n      mload(0x40)\n      tag_34\n      swap2\n      swap1\n      tag_30\n      jump\t// in\n    tag_34:\n      mload(0x40)\n      dup1\n      swap2\n      sub\n      swap1\n      return\n        /* \"https://github.com/lilongxi/OpenSpace/blob/challenge-003-2024-10-11/BankContract/Bank.sol\":422:448  uint[3] public topDeposits */\n    tag_7:\n      callvalue\n      dup1\n      iszero\n      tag_35\n      jumpi\n      0x00\n      dup1\n      revert\n    tag_35:\n      pop\n      tag_36\n      0x04\n      dup1\n      calldatasize\n      sub\n      dup2\n      add\n      swap1\n      tag_37\n      swap2\n      swap1\n      tag_23\n      jump\t// in\n    tag_37:\n      tag_38\n      jump\t// in\n    tag_36:\n      mload(0x40)\n      tag_39\n      swap2\n      swap1\n      tag_19\n      jump\t// in\n    tag_39:\n      mload(0x40)\n      dup1\n      swap2\n      sub\n      swap1\n      return\n        /* \"https://github.com/lilongxi/OpenSpace/blob/challenge-003-2024-10-11/BankContract/Bank.sol\":934:1019  function deposit() public payable override virtual {... */\n    tag_8:\n      tag_40\n      tag_41\n      jump\t// in\n    tag_40:\n      stop\n        /* \"https://github.com/lilongxi/OpenSpace/blob/challenge-003-2024-10-11/BankContract/Bank.sol\":343:384  mapping (address => uint) public deposits */\n    tag_9:\n      callvalue\n      dup1\n      iszero\n      tag_42\n      jumpi\n      0x00\n      dup1\n      revert\n    tag_42:\n      pop\n      tag_43\n      0x04\n      dup1\n      calldatasize\n      sub\n      dup2\n      add\n      swap1\n      tag_44\n      swap2\n      swap1\n      tag_45\n      jump\t// in\n    tag_44:\n      tag_46\n      jump\t// in\n    tag_43:\n      mload(0x40)\n      tag_47\n      swap2\n      swap1\n      tag_19\n      jump\t// in\n    tag_47:\n      mload(0x40)\n      dup1\n      swap2\n      sub\n      swap1\n      return\n        /* \"https://github.com/lilongxi/OpenSpace/blob/challenge-003-2024-10-11/BankContract/Bank.sol\":665:928  function _internalDeposit() internal {... */\n    tag_14:\n        /* \"https://github.com/lilongxi/OpenSpace/blob/challenge-003-2024-10-11/BankContract/Bank.sol\":732:733  0 */\n      0x00\n        /* \"https://github.com/lilongxi/OpenSpace/blob/challenge-003-2024-10-11/BankContract/Bank.sol\":720:729  msg.value */\n      callvalue\n        /* \"https://github.com/lilongxi/OpenSpace/blob/challenge-003-2024-10-11/BankContract/Bank.sol\":720:733  msg.value > 0 */\n      gt\n        /* \"https://github.com/lilongxi/OpenSpace/blob/challenge-003-2024-10-11/BankContract/Bank.sol\":712:775  require(msg.value > 0, \"Deposit amount must be greater than 0\") */\n      tag_49\n      jumpi\n      mload(0x40)\n      0x08c379a000000000000000000000000000000000000000000000000000000000\n      dup2\n      mstore\n      0x04\n      add\n      tag_50\n      swap1\n      tag_51\n      jump\t// in\n    tag_50:\n      mload(0x40)\n      dup1\n      swap2\n      sub\n      swap1\n      revert\n    tag_49:\n        /* \"https://github.com/lilongxi/OpenSpace/blob/challenge-003-2024-10-11/BankContract/Bank.sol\":809:818  msg.value */\n      callvalue\n        /* \"https://github.com/lilongxi/OpenSpace/blob/challenge-003-2024-10-11/BankContract/Bank.sol\":785:793  deposits */\n      0x01\n        /* \"https://github.com/lilongxi/OpenSpace/blob/challenge-003-2024-10-11/BankContract/Bank.sol\":785:805  deposits[msg.sender] */\n      0x00\n        /* \"https://github.com/lilongxi/OpenSpace/blob/challenge-003-2024-10-11/BankContract/Bank.sol\":794:804  msg.sender */\n      caller\n        /* \"https://github.com/lilongxi/OpenSpace/blob/challenge-003-2024-10-11/BankContract/Bank.sol\":785:805  deposits[msg.sender] */\n      0xffffffffffffffffffffffffffffffffffffffff\n      and\n      0xffffffffffffffffffffffffffffffffffffffff\n      and\n      dup2\n      mstore\n      0x20\n      add\n      swap1\n      dup2\n      mstore\n      0x20\n      add\n      0x00\n      keccak256\n      0x00\n        /* \"https://github.com/lilongxi/OpenSpace/blob/challenge-003-2024-10-11/BankContract/Bank.sol\":785:818  deposits[msg.sender] += msg.value */\n      dup3\n      dup3\n      sload\n      tag_52\n      swap2\n      swap1\n      tag_53\n      jump\t// in\n    tag_52:\n      swap3\n      pop\n      pop\n      dup2\n      swap1\n      sstore\n      pop\n        /* \"https://github.com/lilongxi/OpenSpace/blob/challenge-003-2024-10-11/BankContract/Bank.sol\":841:851  msg.sender */\n      caller\n        /* \"https://github.com/lilongxi/OpenSpace/blob/challenge-003-2024-10-11/BankContract/Bank.sol\":833:863  Deposit(msg.sender, msg.value) */\n      0xffffffffffffffffffffffffffffffffffffffff\n      and\n      0xe1fffcc4923d04b559f4d29a8bfc6cda04eb5b0d3c460751c2402c5c5cc9109c\n        /* \"https://github.com/lilongxi/OpenSpace/blob/challenge-003-2024-10-11/BankContract/Bank.sol\":853:862  msg.value */\n      callvalue\n        /* \"https://github.com/lilongxi/OpenSpace/blob/challenge-003-2024-10-11/BankContract/Bank.sol\":833:863  Deposit(msg.sender, msg.value) */\n      mload(0x40)\n      tag_54\n      swap2\n      swap1\n      tag_19\n      jump\t// in\n    tag_54:\n      mload(0x40)\n      dup1\n      swap2\n      sub\n      swap1\n      log2\n        /* \"https://github.com/lilongxi/OpenSpace/blob/challenge-003-2024-10-11/BankContract/Bank.sol\":873:921  updateTopUsers(msg.sender, deposits[msg.sender]) */\n      tag_55\n        /* \"https://github.com/lilongxi/OpenSpace/blob/challenge-003-2024-10-11/BankContract/Bank.sol\":888:898  msg.sender */\n      caller\n        /* \"https://github.com/lilongxi/OpenSpace/blob/challenge-003-2024-10-11/BankContract/Bank.sol\":900:908  deposits */\n      0x01\n        /* \"https://github.com/lilongxi/OpenSpace/blob/challenge-003-2024-10-11/BankContract/Bank.sol\":900:920  deposits[msg.sender] */\n      0x00\n        /* \"https://github.com/lilongxi/OpenSpace/blob/challenge-003-2024-10-11/BankContract/Bank.sol\":909:919  msg.sender */\n      caller\n        /* \"https://github.com/lilongxi/OpenSpace/blob/challenge-003-2024-10-11/BankContract/Bank.sol\":900:920  deposits[msg.sender] */\n      0xffffffffffffffffffffffffffffffffffffffff\n      and\n      0xffffffffffffffffffffffffffffffffffffffff\n      and\n      dup2\n      mstore\n      0x20\n      add\n      swap1\n      dup2\n      mstore\n      0x20\n      add\n      0x00\n      keccak256\n      sload\n        /* \"https://github.com/lilongxi/OpenSpace/blob/challenge-003-2024-10-11/BankContract/Bank.sol\":873:887  updateTopUsers */\n      tag_56\n        /* \"https://github.com/lilongxi/OpenSpace/blob/challenge-003-2024-10-11/BankContract/Bank.sol\":873:921  updateTopUsers(msg.sender, deposits[msg.sender]) */\n      jump\t// in\n    tag_55:\n        /* \"https://github.com/lilongxi/OpenSpace/blob/challenge-003-2024-10-11/BankContract/Bank.sol\":665:928  function _internalDeposit() internal {... */\n      jump\t// out\n        /* \"https://github.com/lilongxi/OpenSpace/blob/challenge-003-2024-10-11/BankContract/Bank.sol\":1739:1835  function getBalance() external view returns (uint) {... */\n    tag_17:\n        /* \"https://github.com/lilongxi/OpenSpace/blob/challenge-003-2024-10-11/BankContract/Bank.sol\":1784:1788  uint */\n      0x00\n        /* \"https://github.com/lilongxi/OpenSpace/blob/challenge-003-2024-10-11/BankContract/Bank.sol\":1807:1828  address(this).balance */\n      selfbalance\n        /* \"https://github.com/lilongxi/OpenSpace/blob/challenge-003-2024-10-11/BankContract/Bank.sol\":1800:1828  return address(this).balance */\n      swap1\n      pop\n        /* \"https://github.com/lilongxi/OpenSpace/blob/challenge-003-2024-10-11/BankContract/Bank.sol\":1739:1835  function getBalance() external view returns (uint) {... */\n      swap1\n      jump\t// out\n        /* \"https://github.com/lilongxi/OpenSpace/blob/challenge-003-2024-10-11/BankContract/Bank.sol\":1521:1733  function withdraw(uint amount) external onlyOwner {... */\n    tag_24:\n        /* \"https://github.com/lilongxi/OpenSpace/blob/challenge-003-2024-10-11/BankContract/Bank.sol\":1894:1899  owner */\n      0x00\n      dup1\n      sload\n      swap1\n      0x0100\n      exp\n      swap1\n      div\n      0xffffffffffffffffffffffffffffffffffffffff\n      and\n        /* \"https://github.com/lilongxi/OpenSpace/blob/challenge-003-2024-10-11/BankContract/Bank.sol\":1880:1899  msg.sender == owner */\n      0xffffffffffffffffffffffffffffffffffffffff\n      and\n        /* \"https://github.com/lilongxi/OpenSpace/blob/challenge-003-2024-10-11/BankContract/Bank.sol\":1880:1890  msg.sender */\n      caller\n        /* \"https://github.com/lilongxi/OpenSpace/blob/challenge-003-2024-10-11/BankContract/Bank.sol\":1880:1899  msg.sender == owner */\n      0xffffffffffffffffffffffffffffffffffffffff\n      and\n      eq\n        /* \"https://github.com/lilongxi/OpenSpace/blob/challenge-003-2024-10-11/BankContract/Bank.sol\":1872:1932  require(msg.sender == owner, \"Only administrators can call\") */\n      tag_59\n      jumpi\n      mload(0x40)\n      0x08c379a000000000000000000000000000000000000000000000000000000000\n      dup2\n      mstore\n      0x04\n      add\n      tag_60\n      swap1\n      tag_61\n      jump\t// in\n    tag_60:\n      mload(0x40)\n      dup1\n      swap2\n      sub\n      swap1\n      revert\n    tag_59:\n        /* \"https://github.com/lilongxi/OpenSpace/blob/challenge-003-2024-10-11/BankContract/Bank.sol\":1599:1620  address(this).balance */\n      selfbalance\n        /* \"https://github.com/lilongxi/OpenSpace/blob/challenge-003-2024-10-11/BankContract/Bank.sol\":1589:1595  amount */\n      dup2\n        /* \"https://github.com/lilongxi/OpenSpace/blob/challenge-003-2024-10-11/BankContract/Bank.sol\":1589:1620  amount <= address(this).balance */\n      gt\n      iszero\n        /* \"https://github.com/lilongxi/OpenSpace/blob/challenge-003-2024-10-11/BankContract/Bank.sol\":1581:1654  require(amount <= address(this).balance, \"Insufficient contract balance\") */\n      tag_63\n      jumpi\n      mload(0x40)\n      0x08c379a000000000000000000000000000000000000000000000000000000000\n      dup2\n      mstore\n      0x04\n      add\n      tag_64\n      swap1\n      tag_65\n      jump\t// in\n    tag_64:\n      mload(0x40)\n      dup1\n      swap2\n      sub\n      swap1\n      revert\n    tag_63:\n        /* \"https://github.com/lilongxi/OpenSpace/blob/challenge-003-2024-10-11/BankContract/Bank.sol\":1672:1677  owner */\n      0x00\n      dup1\n      sload\n      swap1\n      0x0100\n      exp\n      swap1\n      div\n      0xffffffffffffffffffffffffffffffffffffffff\n      and\n        /* \"https://github.com/lilongxi/OpenSpace/blob/challenge-003-2024-10-11/BankContract/Bank.sol\":1664:1687  payable(owner).transfer */\n      0xffffffffffffffffffffffffffffffffffffffff\n      and\n        /* \"https://github.com/lilongxi/OpenSpace/blob/challenge-003-2024-10-11/BankContract/Bank.sol\":1664:1695  payable(owner).transfer(amount) */\n      0x08fc\n        /* \"https://github.com/lilongxi/OpenSpace/blob/challenge-003-2024-10-11/BankContract/Bank.sol\":1688:1694  amount */\n      dup3\n        /* \"https://github.com/lilongxi/OpenSpace/blob/challenge-003-2024-10-11/BankContract/Bank.sol\":1664:1695  payable(owner).transfer(amount) */\n      swap1\n      dup2\n      iszero\n      mul\n      swap1\n      mload(0x40)\n      0x00\n      mload(0x40)\n      dup1\n      dup4\n      sub\n      dup2\n      dup6\n      dup9\n      dup9\n      call\n      swap4\n      pop\n      pop\n      pop\n      pop\n      iszero\n      dup1\n      iszero\n      tag_67\n      jumpi\n      returndatasize\n      0x00\n      dup1\n      returndatacopy\n      revert(0x00, returndatasize)\n    tag_67:\n      pop\n        /* \"https://github.com/lilongxi/OpenSpace/blob/challenge-003-2024-10-11/BankContract/Bank.sol\":1710:1726  Withdraw(amount) */\n      0x5b6b431d4476a211bb7d41c20d1aab9ae2321deee0d20be3d9fc9b1093fa6e3d\n        /* \"https://github.com/lilongxi/OpenSpace/blob/challenge-003-2024-10-11/BankContract/Bank.sol\":1719:1725  amount */\n      dup2\n        /* \"https://github.com/lilongxi/OpenSpace/blob/challenge-003-2024-10-11/BankContract/Bank.sol\":1710:1726  Withdraw(amount) */\n      mload(0x40)\n      tag_68\n      swap2\n      swap1\n      tag_19\n      jump\t// in\n    tag_68:\n      mload(0x40)\n      dup1\n      swap2\n      sub\n      swap1\n      log1\n        /* \"https://github.com/lilongxi/OpenSpace/blob/challenge-003-2024-10-11/BankContract/Bank.sol\":1521:1733  function withdraw(uint amount) external onlyOwner {... */\n      pop\n      jump\t// out\n        /* \"https://github.com/lilongxi/OpenSpace/blob/challenge-003-2024-10-11/BankContract/Bank.sol\":390:416  address[3] public topUsers */\n    tag_28:\n      0x02\n      dup2\n      0x03\n      dup2\n      lt\n      tag_69\n      jumpi\n      0x00\n      dup1\n      revert\n    tag_69:\n      add\n      0x00\n      swap2\n      pop\n      sload\n      swap1\n      0x0100\n      exp\n      swap1\n      div\n      0xffffffffffffffffffffffffffffffffffffffff\n      and\n      dup2\n      jump\t// out\n        /* \"https://github.com/lilongxi/OpenSpace/blob/challenge-003-2024-10-11/BankContract/Bank.sol\":317:337  address public owner */\n    tag_33:\n      0x00\n      dup1\n      sload\n      swap1\n      0x0100\n      exp\n      swap1\n      div\n      0xffffffffffffffffffffffffffffffffffffffff\n      and\n      dup2\n      jump\t// out\n        /* \"https://github.com/lilongxi/OpenSpace/blob/challenge-003-2024-10-11/BankContract/Bank.sol\":422:448  uint[3] public topDeposits */\n    tag_38:\n      0x05\n      dup2\n      0x03\n      dup2\n      lt\n      tag_71\n      jumpi\n      0x00\n      dup1\n      revert\n    tag_71:\n      add\n      0x00\n      swap2\n      pop\n      swap1\n      pop\n      sload\n      dup2\n      jump\t// out\n        /* \"https://github.com/lilongxi/OpenSpace/blob/challenge-003-2024-10-11/BankContract/Bank.sol\":934:1019  function deposit() public payable override virtual {... */\n    tag_41:\n        /* \"https://github.com/lilongxi/OpenSpace/blob/challenge-003-2024-10-11/BankContract/Bank.sol\":994:1012  _internalDeposit() */\n      tag_74\n        /* \"https://github.com/lilongxi/OpenSpace/blob/challenge-003-2024-10-11/BankContract/Bank.sol\":994:1010  _internalDeposit */\n      tag_14\n        /* \"https://github.com/lilongxi/OpenSpace/blob/challenge-003-2024-10-11/BankContract/Bank.sol\":994:1012  _internalDeposit() */\n      jump\t// in\n    tag_74:\n        /* \"https://github.com/lilongxi/OpenSpace/blob/challenge-003-2024-10-11/BankContract/Bank.sol\":934:1019  function deposit() public payable override virtual {... */\n      jump\t// out\n        /* \"https://github.com/lilongxi/OpenSpace/blob/challenge-003-2024-10-11/BankContract/Bank.sol\":343:384  mapping (address => uint) public deposits */\n    tag_46:\n      mstore(0x20, 0x01)\n      dup1\n      0x00\n      mstore\n      keccak256(0x00, 0x40)\n      0x00\n      swap2\n      pop\n      swap1\n      pop\n      sload\n      dup2\n      jump\t// out\n        /* \"https://github.com/lilongxi/OpenSpace/blob/challenge-003-2024-10-11/BankContract/Bank.sol\":1025:1515  function updateTopUsers(address user, uint depositAmount) internal {... */\n    tag_56:\n        /* \"https://github.com/lilongxi/OpenSpace/blob/challenge-003-2024-10-11/BankContract/Bank.sol\":1107:1113  uint i */\n      0x00\n        /* \"https://github.com/lilongxi/OpenSpace/blob/challenge-003-2024-10-11/BankContract/Bank.sol\":1102:1509  for (uint i = 0; i < TOP_NUMBERS; i++) {... */\n    tag_76:\n        /* \"https://github.com/lilongxi/OpenSpace/blob/challenge-003-2024-10-11/BankContract/Bank.sol\":305:306  3 */\n      0x03\n        /* \"https://github.com/lilongxi/OpenSpace/blob/challenge-003-2024-10-11/BankContract/Bank.sol\":1119:1120  i */\n      dup2\n        /* \"https://github.com/lilongxi/OpenSpace/blob/challenge-003-2024-10-11/BankContract/Bank.sol\":1119:1134  i < TOP_NUMBERS */\n      lt\n        /* \"https://github.com/lilongxi/OpenSpace/blob/challenge-003-2024-10-11/BankContract/Bank.sol\":1102:1509  for (uint i = 0; i < TOP_NUMBERS; i++) {... */\n      iszero\n      tag_77\n      jumpi\n        /* \"https://github.com/lilongxi/OpenSpace/blob/challenge-003-2024-10-11/BankContract/Bank.sol\":1175:1186  topDeposits */\n      0x05\n        /* \"https://github.com/lilongxi/OpenSpace/blob/challenge-003-2024-10-11/BankContract/Bank.sol\":1187:1188  i */\n      dup2\n        /* \"https://github.com/lilongxi/OpenSpace/blob/challenge-003-2024-10-11/BankContract/Bank.sol\":1175:1189  topDeposits[i] */\n      0x03\n      dup2\n      lt\n      tag_79\n      jumpi\n      tag_80\n      tag_81\n      jump\t// in\n    tag_80:\n    tag_79:\n      add\n      sload\n        /* \"https://github.com/lilongxi/OpenSpace/blob/challenge-003-2024-10-11/BankContract/Bank.sol\":1159:1172  depositAmount */\n      dup3\n        /* \"https://github.com/lilongxi/OpenSpace/blob/challenge-003-2024-10-11/BankContract/Bank.sol\":1159:1189  depositAmount > topDeposits[i] */\n      gt\n        /* \"https://github.com/lilongxi/OpenSpace/blob/challenge-003-2024-10-11/BankContract/Bank.sol\":1155:1499  if (depositAmount > topDeposits[i]) {... */\n      iszero\n      tag_83\n      jumpi\n        /* \"https://github.com/lilongxi/OpenSpace/blob/challenge-003-2024-10-11/BankContract/Bank.sol\":1213:1219  uint k */\n      0x00\n        /* \"https://github.com/lilongxi/OpenSpace/blob/challenge-003-2024-10-11/BankContract/Bank.sol\":1236:1237  1 */\n      0x01\n        /* \"https://github.com/lilongxi/OpenSpace/blob/challenge-003-2024-10-11/BankContract/Bank.sol\":305:306  3 */\n      0x03\n        /* \"https://github.com/lilongxi/OpenSpace/blob/challenge-003-2024-10-11/BankContract/Bank.sol\":1222:1237  TOP_NUMBERS - 1 */\n      tag_87\n      swap2\n      swap1\n      tag_88\n      jump\t// in\n    tag_87:\n        /* \"https://github.com/lilongxi/OpenSpace/blob/challenge-003-2024-10-11/BankContract/Bank.sol\":1213:1237  uint k = TOP_NUMBERS - 1 */\n      swap1\n      pop\n        /* \"https://github.com/lilongxi/OpenSpace/blob/challenge-003-2024-10-11/BankContract/Bank.sol\":1209:1378  for(uint k = TOP_NUMBERS - 1; k > i; k--) {... */\n    tag_84:\n        /* \"https://github.com/lilongxi/OpenSpace/blob/challenge-003-2024-10-11/BankContract/Bank.sol\":1243:1244  i */\n      dup2\n        /* \"https://github.com/lilongxi/OpenSpace/blob/challenge-003-2024-10-11/BankContract/Bank.sol\":1239:1240  k */\n      dup2\n        /* \"https://github.com/lilongxi/OpenSpace/blob/challenge-003-2024-10-11/BankContract/Bank.sol\":1239:1244  k > i */\n      gt\n        /* \"https://github.com/lilongxi/OpenSpace/blob/challenge-003-2024-10-11/BankContract/Bank.sol\":1209:1378  for(uint k = TOP_NUMBERS - 1; k > i; k--) {... */\n      iszero\n      tag_85\n      jumpi\n        /* \"https://github.com/lilongxi/OpenSpace/blob/challenge-003-2024-10-11/BankContract/Bank.sol\":1290:1301  topDeposits */\n      0x05\n        /* \"https://github.com/lilongxi/OpenSpace/blob/challenge-003-2024-10-11/BankContract/Bank.sol\":1306:1307  1 */\n      0x01\n        /* \"https://github.com/lilongxi/OpenSpace/blob/challenge-003-2024-10-11/BankContract/Bank.sol\":1302:1303  k */\n      dup3\n        /* \"https://github.com/lilongxi/OpenSpace/blob/challenge-003-2024-10-11/BankContract/Bank.sol\":1302:1307  k - 1 */\n      tag_89\n      swap2\n      swap1\n      tag_88\n      jump\t// in\n    tag_89:\n        /* \"https://github.com/lilongxi/OpenSpace/blob/challenge-003-2024-10-11/BankContract/Bank.sol\":1290:1308  topDeposits[k - 1] */\n      0x03\n      dup2\n      lt\n      tag_90\n      jumpi\n      tag_91\n      tag_81\n      jump\t// in\n    tag_91:\n    tag_90:\n      add\n      sload\n        /* \"https://github.com/lilongxi/OpenSpace/blob/challenge-003-2024-10-11/BankContract/Bank.sol\":1273:1284  topDeposits */\n      0x05\n        /* \"https://github.com/lilongxi/OpenSpace/blob/challenge-003-2024-10-11/BankContract/Bank.sol\":1285:1286  k */\n      dup3\n        /* \"https://github.com/lilongxi/OpenSpace/blob/challenge-003-2024-10-11/BankContract/Bank.sol\":1273:1287  topDeposits[k] */\n      0x03\n      dup2\n      lt\n      tag_93\n      jumpi\n      tag_94\n      tag_81\n      jump\t// in\n    tag_94:\n    tag_93:\n      add\n        /* \"https://github.com/lilongxi/OpenSpace/blob/challenge-003-2024-10-11/BankContract/Bank.sol\":1273:1308  topDeposits[k] = topDeposits[k - 1] */\n      dup2\n      swap1\n      sstore\n      pop\n        /* \"https://github.com/lilongxi/OpenSpace/blob/challenge-003-2024-10-11/BankContract/Bank.sol\":1344:1352  topUsers */\n      0x02\n        /* \"https://github.com/lilongxi/OpenSpace/blob/challenge-003-2024-10-11/BankContract/Bank.sol\":1357:1358  1 */\n      0x01\n        /* \"https://github.com/lilongxi/OpenSpace/blob/challenge-003-2024-10-11/BankContract/Bank.sol\":1353:1354  k */\n      dup3\n        /* \"https://github.com/lilongxi/OpenSpace/blob/challenge-003-2024-10-11/BankContract/Bank.sol\":1353:1358  k - 1 */\n      tag_96\n      swap2\n      swap1\n      tag_88\n      jump\t// in\n    tag_96:\n        /* \"https://github.com/lilongxi/OpenSpace/blob/challenge-003-2024-10-11/BankContract/Bank.sol\":1344:1359  topUsers[k - 1] */\n      0x03\n      dup2\n      lt\n      tag_97\n      jumpi\n      tag_98\n      tag_81\n      jump\t// in\n    tag_98:\n    tag_97:\n      add\n      0x00\n      swap1\n      sload\n      swap1\n      0x0100\n      exp\n      swap1\n      div\n      0xffffffffffffffffffffffffffffffffffffffff\n      and\n        /* \"https://github.com/lilongxi/OpenSpace/blob/challenge-003-2024-10-11/BankContract/Bank.sol\":1330:1338  topUsers */\n      0x02\n        /* \"https://github.com/lilongxi/OpenSpace/blob/challenge-003-2024-10-11/BankContract/Bank.sol\":1339:1340  k */\n      dup3\n        /* \"https://github.com/lilongxi/OpenSpace/blob/challenge-003-2024-10-11/BankContract/Bank.sol\":1330:1341  topUsers[k] */\n      0x03\n      dup2\n      lt\n      tag_100\n      jumpi\n      tag_101\n      tag_81\n      jump\t// in\n    tag_101:\n    tag_100:\n      add\n      0x00\n        /* \"https://github.com/lilongxi/OpenSpace/blob/challenge-003-2024-10-11/BankContract/Bank.sol\":1330:1359  topUsers[k] = topUsers[k - 1] */\n      0x0100\n      exp\n      dup2\n      sload\n      dup2\n      0xffffffffffffffffffffffffffffffffffffffff\n      mul\n      not\n      and\n      swap1\n      dup4\n      0xffffffffffffffffffffffffffffffffffffffff\n      and\n      mul\n      or\n      swap1\n      sstore\n      pop\n        /* \"https://github.com/lilongxi/OpenSpace/blob/challenge-003-2024-10-11/BankContract/Bank.sol\":1246:1249  k-- */\n      dup1\n      dup1\n      tag_103\n      swap1\n      tag_104\n      jump\t// in\n    tag_103:\n      swap2\n      pop\n      pop\n        /* \"https://github.com/lilongxi/OpenSpace/blob/challenge-003-2024-10-11/BankContract/Bank.sol\":1209:1378  for(uint k = TOP_NUMBERS - 1; k > i; k--) {... */\n      jump(tag_84)\n    tag_85:\n      pop\n        /* \"https://github.com/lilongxi/OpenSpace/blob/challenge-003-2024-10-11/BankContract/Bank.sol\":1412:1425  depositAmount */\n      dup2\n        /* \"https://github.com/lilongxi/OpenSpace/blob/challenge-003-2024-10-11/BankContract/Bank.sol\":1395:1406  topDeposits */\n      0x05\n        /* \"https://github.com/lilongxi/OpenSpace/blob/challenge-003-2024-10-11/BankContract/Bank.sol\":1407:1408  i */\n      dup3\n        /* \"https://github.com/lilongxi/OpenSpace/blob/challenge-003-2024-10-11/BankContract/Bank.sol\":1395:1409  topDeposits[i] */\n      0x03\n      dup2\n      lt\n      tag_105\n      jumpi\n      tag_106\n      tag_81\n      jump\t// in\n    tag_106:\n    tag_105:\n      add\n        /* \"https://github.com/lilongxi/OpenSpace/blob/challenge-003-2024-10-11/BankContract/Bank.sol\":1395:1425  topDeposits[i] = depositAmount */\n      dup2\n      swap1\n      sstore\n      pop\n        /* \"https://github.com/lilongxi/OpenSpace/blob/challenge-003-2024-10-11/BankContract/Bank.sol\":1457:1461  user */\n      dup3\n        /* \"https://github.com/lilongxi/OpenSpace/blob/challenge-003-2024-10-11/BankContract/Bank.sol\":1443:1451  topUsers */\n      0x02\n        /* \"https://github.com/lilongxi/OpenSpace/blob/challenge-003-2024-10-11/BankContract/Bank.sol\":1452:1453  i */\n      dup3\n        /* \"https://github.com/lilongxi/OpenSpace/blob/challenge-003-2024-10-11/BankContract/Bank.sol\":1443:1454  topUsers[i] */\n      0x03\n      dup2\n      lt\n      tag_108\n      jumpi\n      tag_109\n      tag_81\n      jump\t// in\n    tag_109:\n    tag_108:\n      add\n      0x00\n        /* \"https://github.com/lilongxi/OpenSpace/blob/challenge-003-2024-10-11/BankContract/Bank.sol\":1443:1461  topUsers[i] = user */\n      0x0100\n      exp\n      dup2\n      sload\n      dup2\n      0xffffffffffffffffffffffffffffffffffffffff\n      mul\n      not\n      and\n      swap1\n      dup4\n      0xffffffffffffffffffffffffffffffffffffffff\n      and\n      mul\n      or\n      swap1\n      sstore\n      pop\n        /* \"https://github.com/lilongxi/OpenSpace/blob/challenge-003-2024-10-11/BankContract/Bank.sol\":1479:1484  break */\n      jump(tag_77)\n        /* \"https://github.com/lilongxi/OpenSpace/blob/challenge-003-2024-10-11/BankContract/Bank.sol\":1155:1499  if (depositAmount > topDeposits[i]) {... */\n    tag_83:\n        /* \"https://github.com/lilongxi/OpenSpace/blob/challenge-003-2024-10-11/BankContract/Bank.sol\":1136:1139  i++ */\n      dup1\n      dup1\n      0x01\n      add\n      swap2\n      pop\n      pop\n        /* \"https://github.com/lilongxi/OpenSpace/blob/challenge-003-2024-10-11/BankContract/Bank.sol\":1102:1509  for (uint i = 0; i < TOP_NUMBERS; i++) {... */\n      jump(tag_76)\n    tag_77:\n      pop\n        /* \"https://github.com/lilongxi/OpenSpace/blob/challenge-003-2024-10-11/BankContract/Bank.sol\":1025:1515  function updateTopUsers(address user, uint depositAmount) internal {... */\n      pop\n      pop\n      jump\t// out\n        /* \"#utility.yul\":7:84   */\n    tag_111:\n        /* \"#utility.yul\":44:51   */\n      0x00\n        /* \"#utility.yul\":73:78   */\n      dup2\n        /* \"#utility.yul\":62:78   */\n      swap1\n      pop\n        /* \"#utility.yul\":7:84   */\n      swap2\n      swap1\n      pop\n      jump\t// out\n        /* \"#utility.yul\":90:208   */\n    tag_112:\n        /* \"#utility.yul\":177:201   */\n      tag_134\n        /* \"#utility.yul\":195:200   */\n      dup2\n        /* \"#utility.yul\":177:201   */\n      tag_111\n      jump\t// in\n    tag_134:\n        /* \"#utility.yul\":172:175   */\n      dup3\n        /* \"#utility.yul\":165:202   */\n      mstore\n        /* \"#utility.yul\":90:208   */\n      pop\n      pop\n      jump\t// out\n        /* \"#utility.yul\":214:436   */\n    tag_19:\n        /* \"#utility.yul\":307:311   */\n      0x00\n        /* \"#utility.yul\":345:347   */\n      0x20\n        /* \"#utility.yul\":334:343   */\n      dup3\n        /* \"#utility.yul\":330:348   */\n      add\n        /* \"#utility.yul\":322:348   */\n      swap1\n      pop\n        /* \"#utility.yul\":358:429   */\n      tag_136\n        /* \"#utility.yul\":426:427   */\n      0x00\n        /* \"#utility.yul\":415:424   */\n      dup4\n        /* \"#utility.yul\":411:428   */\n      add\n        /* \"#utility.yul\":402:408   */\n      dup5\n        /* \"#utility.yul\":358:429   */\n      tag_112\n      jump\t// in\n    tag_136:\n        /* \"#utility.yul\":214:436   */\n      swap3\n      swap2\n      pop\n      pop\n      jump\t// out\n        /* \"#utility.yul\":523:640   */\n    tag_114:\n        /* \"#utility.yul\":632:633   */\n      0x00\n        /* \"#utility.yul\":629:630   */\n      dup1\n        /* \"#utility.yul\":622:634   */\n      revert\n        /* \"#utility.yul\":769:891   */\n    tag_116:\n        /* \"#utility.yul\":842:866   */\n      tag_141\n        /* \"#utility.yul\":860:865   */\n      dup2\n        /* \"#utility.yul\":842:866   */\n      tag_111\n      jump\t// in\n    tag_141:\n        /* \"#utility.yul\":835:840   */\n      dup2\n        /* \"#utility.yul\":832:867   */\n      eq\n        /* \"#utility.yul\":822:885   */\n      tag_142\n      jumpi\n        /* \"#utility.yul\":881:882   */\n      0x00\n        /* \"#utility.yul\":878:879   */\n      dup1\n        /* \"#utility.yul\":871:883   */\n      revert\n        /* \"#utility.yul\":822:885   */\n    tag_142:\n        /* \"#utility.yul\":769:891   */\n      pop\n      jump\t// out\n        /* \"#utility.yul\":897:1036   */\n    tag_117:\n        /* \"#utility.yul\":943:948   */\n      0x00\n        /* \"#utility.yul\":981:987   */\n      dup2\n        /* \"#utility.yul\":968:988   */\n      calldataload\n        /* \"#utility.yul\":959:988   */\n      swap1\n      pop\n        /* \"#utility.yul\":997:1030   */\n      tag_144\n        /* \"#utility.yul\":1024:1029   */\n      dup2\n        /* \"#utility.yul\":997:1030   */\n      tag_116\n      jump\t// in\n    tag_144:\n        /* \"#utility.yul\":897:1036   */\n      swap3\n      swap2\n      pop\n      pop\n      jump\t// out\n        /* \"#utility.yul\":1042:1371   */\n    tag_23:\n        /* \"#utility.yul\":1101:1107   */\n      0x00\n        /* \"#utility.yul\":1150:1152   */\n      0x20\n        /* \"#utility.yul\":1138:1147   */\n      dup3\n        /* \"#utility.yul\":1129:1136   */\n      dup5\n        /* \"#utility.yul\":1125:1148   */\n      sub\n        /* \"#utility.yul\":1121:1153   */\n      slt\n        /* \"#utility.yul\":1118:1237   */\n      iszero\n      tag_146\n      jumpi\n        /* \"#utility.yul\":1156:1235   */\n      tag_147\n      tag_114\n      jump\t// in\n    tag_147:\n        /* \"#utility.yul\":1118:1237   */\n    tag_146:\n        /* \"#utility.yul\":1276:1277   */\n      0x00\n        /* \"#utility.yul\":1301:1354   */\n      tag_148\n        /* \"#utility.yul\":1346:1353   */\n      dup5\n        /* \"#utility.yul\":1337:1343   */\n      dup3\n        /* \"#utility.yul\":1326:1335   */\n      dup6\n        /* \"#utility.yul\":1322:1344   */\n      add\n        /* \"#utility.yul\":1301:1354   */\n      tag_117\n      jump\t// in\n    tag_148:\n        /* \"#utility.yul\":1291:1354   */\n      swap2\n      pop\n        /* \"#utility.yul\":1247:1364   */\n      pop\n        /* \"#utility.yul\":1042:1371   */\n      swap3\n      swap2\n      pop\n      pop\n      jump\t// out\n        /* \"#utility.yul\":1377:1503   */\n    tag_118:\n        /* \"#utility.yul\":1414:1421   */\n      0x00\n        /* \"#utility.yul\":1454:1496   */\n      0xffffffffffffffffffffffffffffffffffffffff\n        /* \"#utility.yul\":1447:1452   */\n      dup3\n        /* \"#utility.yul\":1443:1497   */\n      and\n        /* \"#utility.yul\":1432:1497   */\n      swap1\n      pop\n        /* \"#utility.yul\":1377:1503   */\n      swap2\n      swap1\n      pop\n      jump\t// out\n        /* \"#utility.yul\":1509:1605   */\n    tag_119:\n        /* \"#utility.yul\":1546:1553   */\n      0x00\n        /* \"#utility.yul\":1575:1599   */\n      tag_151\n        /* \"#utility.yul\":1593:1598   */\n      dup3\n        /* \"#utility.yul\":1575:1599   */\n      tag_118\n      jump\t// in\n    tag_151:\n        /* \"#utility.yul\":1564:1599   */\n      swap1\n      pop\n        /* \"#utility.yul\":1509:1605   */\n      swap2\n      swap1\n      pop\n      jump\t// out\n        /* \"#utility.yul\":1611:1729   */\n    tag_120:\n        /* \"#utility.yul\":1698:1722   */\n      tag_153\n        /* \"#utility.yul\":1716:1721   */\n      dup2\n        /* \"#utility.yul\":1698:1722   */\n      tag_119\n      jump\t// in\n    tag_153:\n        /* \"#utility.yul\":1693:1696   */\n      dup3\n        /* \"#utility.yul\":1686:1723   */\n      mstore\n        /* \"#utility.yul\":1611:1729   */\n      pop\n      pop\n      jump\t// out\n        /* \"#utility.yul\":1735:1957   */\n    tag_30:\n        /* \"#utility.yul\":1828:1832   */\n      0x00\n        /* \"#utility.yul\":1866:1868   */\n      0x20\n        /* \"#utility.yul\":1855:1864   */\n      dup3\n        /* \"#utility.yul\":1851:1869   */\n      add\n        /* \"#utility.yul\":1843:1869   */\n      swap1\n      pop\n        /* \"#utility.yul\":1879:1950   */\n      tag_155\n        /* \"#utility.yul\":1947:1948   */\n      0x00\n        /* \"#utility.yul\":1936:1945   */\n      dup4\n        /* \"#utility.yul\":1932:1949   */\n      add\n        /* \"#utility.yul\":1923:1929   */\n      dup5\n        /* \"#utility.yul\":1879:1950   */\n      tag_120\n      jump\t// in\n    tag_155:\n        /* \"#utility.yul\":1735:1957   */\n      swap3\n      swap2\n      pop\n      pop\n      jump\t// out\n        /* \"#utility.yul\":1963:2085   */\n    tag_121:\n        /* \"#utility.yul\":2036:2060   */\n      tag_157\n        /* \"#utility.yul\":2054:2059   */\n      dup2\n        /* \"#utility.yul\":2036:2060   */\n      tag_119\n      jump\t// in\n    tag_157:\n        /* \"#utility.yul\":2029:2034   */\n      dup2\n        /* \"#utility.yul\":2026:2061   */\n      eq\n        /* \"#utility.yul\":2016:2079   */\n      tag_158\n      jumpi\n        /* \"#utility.yul\":2075:2076   */\n      0x00\n        /* \"#utility.yul\":2072:2073   */\n      dup1\n        /* \"#utility.yul\":2065:2077   */\n      revert\n        /* \"#utility.yul\":2016:2079   */\n    tag_158:\n        /* \"#utility.yul\":1963:2085   */\n      pop\n      jump\t// out\n        /* \"#utility.yul\":2091:2230   */\n    tag_122:\n        /* \"#utility.yul\":2137:2142   */\n      0x00\n        /* \"#utility.yul\":2175:2181   */\n      dup2\n        /* \"#utility.yul\":2162:2182   */\n      calldataload\n        /* \"#utility.yul\":2153:2182   */\n      swap1\n      pop\n        /* \"#utility.yul\":2191:2224   */\n      tag_160\n        /* \"#utility.yul\":2218:2223   */\n      dup2\n        /* \"#utility.yul\":2191:2224   */\n      tag_121\n      jump\t// in\n    tag_160:\n        /* \"#utility.yul\":2091:2230   */\n      swap3\n      swap2\n      pop\n      pop\n      jump\t// out\n        /* \"#utility.yul\":2236:2565   */\n    tag_45:\n        /* \"#utility.yul\":2295:2301   */\n      0x00\n        /* \"#utility.yul\":2344:2346   */\n      0x20\n        /* \"#utility.yul\":2332:2341   */\n      dup3\n        /* \"#utility.yul\":2323:2330   */\n      dup5\n        /* \"#utility.yul\":2319:2342   */\n      sub\n        /* \"#utility.yul\":2315:2347   */\n      slt\n        /* \"#utility.yul\":2312:2431   */\n      iszero\n      tag_162\n      jumpi\n        /* \"#utility.yul\":2350:2429   */\n      tag_163\n      tag_114\n      jump\t// in\n    tag_163:\n        /* \"#utility.yul\":2312:2431   */\n    tag_162:\n        /* \"#utility.yul\":2470:2471   */\n      0x00\n        /* \"#utility.yul\":2495:2548   */\n      tag_164\n        /* \"#utility.yul\":2540:2547   */\n      dup5\n        /* \"#utility.yul\":2531:2537   */\n      dup3\n        /* \"#utility.yul\":2520:2529   */\n      dup6\n        /* \"#utility.yul\":2516:2538   */\n      add\n        /* \"#utility.yul\":2495:2548   */\n      tag_122\n      jump\t// in\n    tag_164:\n        /* \"#utility.yul\":2485:2548   */\n      swap2\n      pop\n        /* \"#utility.yul\":2441:2558   */\n      pop\n        /* \"#utility.yul\":2236:2565   */\n      swap3\n      swap2\n      pop\n      pop\n      jump\t// out\n        /* \"#utility.yul\":2571:2740   */\n    tag_123:\n        /* \"#utility.yul\":2655:2666   */\n      0x00\n        /* \"#utility.yul\":2689:2695   */\n      dup3\n        /* \"#utility.yul\":2684:2687   */\n      dup3\n        /* \"#utility.yul\":2677:2696   */\n      mstore\n        /* \"#utility.yul\":2729:2733   */\n      0x20\n        /* \"#utility.yul\":2724:2727   */\n      dup3\n        /* \"#utility.yul\":2720:2734   */\n      add\n        /* \"#utility.yul\":2705:2734   */\n      swap1\n      pop\n        /* \"#utility.yul\":2571:2740   */\n      swap3\n      swap2\n      pop\n      pop\n      jump\t// out\n        /* \"#utility.yul\":2746:2970   */\n    tag_124:\n        /* \"#utility.yul\":2886:2920   */\n      0x4465706f73697420616d6f756e74206d75737420626520677265617465722074\n        /* \"#utility.yul\":2882:2883   */\n      0x00\n        /* \"#utility.yul\":2874:2880   */\n      dup3\n        /* \"#utility.yul\":2870:2884   */\n      add\n        /* \"#utility.yul\":2863:2921   */\n      mstore\n        /* \"#utility.yul\":2955:2962   */\n      0x68616e2030000000000000000000000000000000000000000000000000000000\n        /* \"#utility.yul\":2950:2952   */\n      0x20\n        /* \"#utility.yul\":2942:2948   */\n      dup3\n        /* \"#utility.yul\":2938:2953   */\n      add\n        /* \"#utility.yul\":2931:2963   */\n      mstore\n        /* \"#utility.yul\":2746:2970   */\n      pop\n      jump\t// out\n        /* \"#utility.yul\":2976:3342   */\n    tag_125:\n        /* \"#utility.yul\":3118:3121   */\n      0x00\n        /* \"#utility.yul\":3139:3206   */\n      tag_168\n        /* \"#utility.yul\":3203:3205   */\n      0x25\n        /* \"#utility.yul\":3198:3201   */\n      dup4\n        /* \"#utility.yul\":3139:3206   */\n      tag_123\n      jump\t// in\n    tag_168:\n        /* \"#utility.yul\":3132:3206   */\n      swap2\n      pop\n        /* \"#utility.yul\":3215:3308   */\n      tag_169\n        /* \"#utility.yul\":3304:3307   */\n      dup3\n        /* \"#utility.yul\":3215:3308   */\n      tag_124\n      jump\t// in\n    tag_169:\n        /* \"#utility.yul\":3333:3335   */\n      0x40\n        /* \"#utility.yul\":3328:3331   */\n      dup3\n        /* \"#utility.yul\":3324:3336   */\n      add\n        /* \"#utility.yul\":3317:3336   */\n      swap1\n      pop\n        /* \"#utility.yul\":2976:3342   */\n      swap2\n      swap1\n      pop\n      jump\t// out\n        /* \"#utility.yul\":3348:3767   */\n    tag_51:\n        /* \"#utility.yul\":3514:3518   */\n      0x00\n        /* \"#utility.yul\":3552:3554   */\n      0x20\n        /* \"#utility.yul\":3541:3550   */\n      dup3\n        /* \"#utility.yul\":3537:3555   */\n      add\n        /* \"#utility.yul\":3529:3555   */\n      swap1\n      pop\n        /* \"#utility.yul\":3601:3610   */\n      dup2\n        /* \"#utility.yul\":3595:3599   */\n      dup2\n        /* \"#utility.yul\":3591:3611   */\n      sub\n        /* \"#utility.yul\":3587:3588   */\n      0x00\n        /* \"#utility.yul\":3576:3585   */\n      dup4\n        /* \"#utility.yul\":3572:3589   */\n      add\n        /* \"#utility.yul\":3565:3612   */\n      mstore\n        /* \"#utility.yul\":3629:3760   */\n      tag_171\n        /* \"#utility.yul\":3755:3759   */\n      dup2\n        /* \"#utility.yul\":3629:3760   */\n      tag_125\n      jump\t// in\n    tag_171:\n        /* \"#utility.yul\":3621:3760   */\n      swap1\n      pop\n        /* \"#utility.yul\":3348:3767   */\n      swap2\n      swap1\n      pop\n      jump\t// out\n        /* \"#utility.yul\":3773:3953   */\n    tag_126:\n        /* \"#utility.yul\":3821:3898   */\n      0x4e487b7100000000000000000000000000000000000000000000000000000000\n        /* \"#utility.yul\":3818:3819   */\n      0x00\n        /* \"#utility.yul\":3811:3899   */\n      mstore\n        /* \"#utility.yul\":3918:3922   */\n      0x11\n        /* \"#utility.yul\":3915:3916   */\n      0x04\n        /* \"#utility.yul\":3908:3923   */\n      mstore\n        /* \"#utility.yul\":3942:3946   */\n      0x24\n        /* \"#utility.yul\":3939:3940   */\n      0x00\n        /* \"#utility.yul\":3932:3947   */\n      revert\n        /* \"#utility.yul\":3959:4150   */\n    tag_53:\n        /* \"#utility.yul\":3999:4002   */\n      0x00\n        /* \"#utility.yul\":4018:4038   */\n      tag_174\n        /* \"#utility.yul\":4036:4037   */\n      dup3\n        /* \"#utility.yul\":4018:4038   */\n      tag_111\n      jump\t// in\n    tag_174:\n        /* \"#utility.yul\":4013:4038   */\n      swap2\n      pop\n        /* \"#utility.yul\":4052:4072   */\n      tag_175\n        /* \"#utility.yul\":4070:4071   */\n      dup4\n        /* \"#utility.yul\":4052:4072   */\n      tag_111\n      jump\t// in\n    tag_175:\n        /* \"#utility.yul\":4047:4072   */\n      swap3\n      pop\n        /* \"#utility.yul\":4095:4096   */\n      dup3\n        /* \"#utility.yul\":4092:4093   */\n      dup3\n        /* \"#utility.yul\":4088:4097   */\n      add\n        /* \"#utility.yul\":4081:4097   */\n      swap1\n      pop\n        /* \"#utility.yul\":4116:4119   */\n      dup1\n        /* \"#utility.yul\":4113:4114   */\n      dup3\n        /* \"#utility.yul\":4110:4120   */\n      gt\n        /* \"#utility.yul\":4107:4143   */\n      iszero\n      tag_176\n      jumpi\n        /* \"#utility.yul\":4123:4141   */\n      tag_177\n      tag_126\n      jump\t// in\n    tag_177:\n        /* \"#utility.yul\":4107:4143   */\n    tag_176:\n        /* \"#utility.yul\":3959:4150   */\n      swap3\n      swap2\n      pop\n      pop\n      jump\t// out\n        /* \"#utility.yul\":4156:4334   */\n    tag_127:\n        /* \"#utility.yul\":4296:4326   */\n      0x4f6e6c792061646d696e6973747261746f72732063616e2063616c6c00000000\n        /* \"#utility.yul\":4292:4293   */\n      0x00\n        /* \"#utility.yul\":4284:4290   */\n      dup3\n        /* \"#utility.yul\":4280:4294   */\n      add\n        /* \"#utility.yul\":4273:4327   */\n      mstore\n        /* \"#utility.yul\":4156:4334   */\n      pop\n      jump\t// out\n        /* \"#utility.yul\":4340:4706   */\n    tag_128:\n        /* \"#utility.yul\":4482:4485   */\n      0x00\n        /* \"#utility.yul\":4503:4570   */\n      tag_180\n        /* \"#utility.yul\":4567:4569   */\n      0x1c\n        /* \"#utility.yul\":4562:4565   */\n      dup4\n        /* \"#utility.yul\":4503:4570   */\n      tag_123\n      jump\t// in\n    tag_180:\n        /* \"#utility.yul\":4496:4570   */\n      swap2\n      pop\n        /* \"#utility.yul\":4579:4672   */\n      tag_181\n        /* \"#utility.yul\":4668:4671   */\n      dup3\n        /* \"#utility.yul\":4579:4672   */\n      tag_127\n      jump\t// in\n    tag_181:\n        /* \"#utility.yul\":4697:4699   */\n      0x20\n        /* \"#utility.yul\":4692:4695   */\n      dup3\n        /* \"#utility.yul\":4688:4700   */\n      add\n        /* \"#utility.yul\":4681:4700   */\n      swap1\n      pop\n        /* \"#utility.yul\":4340:4706   */\n      swap2\n      swap1\n      pop\n      jump\t// out\n        /* \"#utility.yul\":4712:5131   */\n    tag_61:\n        /* \"#utility.yul\":4878:4882   */\n      0x00\n        /* \"#utility.yul\":4916:4918   */\n      0x20\n        /* \"#utility.yul\":4905:4914   */\n      dup3\n        /* \"#utility.yul\":4901:4919   */\n      add\n        /* \"#utility.yul\":4893:4919   */\n      swap1\n      pop\n        /* \"#utility.yul\":4965:4974   */\n      dup2\n        /* \"#utility.yul\":4959:4963   */\n      dup2\n        /* \"#utility.yul\":4955:4975   */\n      sub\n        /* \"#utility.yul\":4951:4952   */\n      0x00\n        /* \"#utility.yul\":4940:4949   */\n      dup4\n        /* \"#utility.yul\":4936:4953   */\n      add\n        /* \"#utility.yul\":4929:4976   */\n      mstore\n        /* \"#utility.yul\":4993:5124   */\n      tag_183\n        /* \"#utility.yul\":5119:5123   */\n      dup2\n        /* \"#utility.yul\":4993:5124   */\n      tag_128\n      jump\t// in\n    tag_183:\n        /* \"#utility.yul\":4985:5124   */\n      swap1\n      pop\n        /* \"#utility.yul\":4712:5131   */\n      swap2\n      swap1\n      pop\n      jump\t// out\n        /* \"#utility.yul\":5137:5316   */\n    tag_129:\n        /* \"#utility.yul\":5277:5308   */\n      0x496e73756666696369656e7420636f6e74726163742062616c616e6365000000\n        /* \"#utility.yul\":5273:5274   */\n      0x00\n        /* \"#utility.yul\":5265:5271   */\n      dup3\n        /* \"#utility.yul\":5261:5275   */\n      add\n        /* \"#utility.yul\":5254:5309   */\n      mstore\n        /* \"#utility.yul\":5137:5316   */\n      pop\n      jump\t// out\n        /* \"#utility.yul\":5322:5688   */\n    tag_130:\n        /* \"#utility.yul\":5464:5467   */\n      0x00\n        /* \"#utility.yul\":5485:5552   */\n      tag_186\n        /* \"#utility.yul\":5549:5551   */\n      0x1d\n        /* \"#utility.yul\":5544:5547   */\n      dup4\n        /* \"#utility.yul\":5485:5552   */\n      tag_123\n      jump\t// in\n    tag_186:\n        /* \"#utility.yul\":5478:5552   */\n      swap2\n      pop\n        /* \"#utility.yul\":5561:5654   */\n      tag_187\n        /* \"#utility.yul\":5650:5653   */\n      dup3\n        /* \"#utility.yul\":5561:5654   */\n      tag_129\n      jump\t// in\n    tag_187:\n        /* \"#utility.yul\":5679:5681   */\n      0x20\n        /* \"#utility.yul\":5674:5677   */\n      dup3\n        /* \"#utility.yul\":5670:5682   */\n      add\n        /* \"#utility.yul\":5663:5682   */\n      swap1\n      pop\n        /* \"#utility.yul\":5322:5688   */\n      swap2\n      swap1\n      pop\n      jump\t// out\n        /* \"#utility.yul\":5694:6113   */\n    tag_65:\n        /* \"#utility.yul\":5860:5864   */\n      0x00\n        /* \"#utility.yul\":5898:5900   */\n      0x20\n        /* \"#utility.yul\":5887:5896   */\n      dup3\n        /* \"#utility.yul\":5883:5901   */\n      add\n        /* \"#utility.yul\":5875:5901   */\n      swap1\n      pop\n        /* \"#utility.yul\":5947:5956   */\n      dup2\n        /* \"#utility.yul\":5941:5945   */\n      dup2\n        /* \"#utility.yul\":5937:5957   */\n      sub\n        /* \"#utility.yul\":5933:5934   */\n      0x00\n        /* \"#utility.yul\":5922:5931   */\n      dup4\n        /* \"#utility.yul\":5918:5935   */\n      add\n        /* \"#utility.yul\":5911:5958   */\n      mstore\n        /* \"#utility.yul\":5975:6106   */\n      tag_189\n        /* \"#utility.yul\":6101:6105   */\n      dup2\n        /* \"#utility.yul\":5975:6106   */\n      tag_130\n      jump\t// in\n    tag_189:\n        /* \"#utility.yul\":5967:6106   */\n      swap1\n      pop\n        /* \"#utility.yul\":5694:6113   */\n      swap2\n      swap1\n      pop\n      jump\t// out\n        /* \"#utility.yul\":6119:6299   */\n    tag_81:\n        /* \"#utility.yul\":6167:6244   */\n      0x4e487b7100000000000000000000000000000000000000000000000000000000\n        /* \"#utility.yul\":6164:6165   */\n      0x00\n        /* \"#utility.yul\":6157:6245   */\n      mstore\n        /* \"#utility.yul\":6264:6268   */\n      0x32\n        /* \"#utility.yul\":6261:6262   */\n      0x04\n        /* \"#utility.yul\":6254:6269   */\n      mstore\n        /* \"#utility.yul\":6288:6292   */\n      0x24\n        /* \"#utility.yul\":6285:6286   */\n      0x00\n        /* \"#utility.yul\":6278:6293   */\n      revert\n        /* \"#utility.yul\":6305:6499   */\n    tag_88:\n        /* \"#utility.yul\":6345:6349   */\n      0x00\n        /* \"#utility.yul\":6365:6385   */\n      tag_192\n        /* \"#utility.yul\":6383:6384   */\n      dup3\n        /* \"#utility.yul\":6365:6385   */\n      tag_111\n      jump\t// in\n    tag_192:\n        /* \"#utility.yul\":6360:6385   */\n      swap2\n      pop\n        /* \"#utility.yul\":6399:6419   */\n      tag_193\n        /* \"#utility.yul\":6417:6418   */\n      dup4\n        /* \"#utility.yul\":6399:6419   */\n      tag_111\n      jump\t// in\n    tag_193:\n        /* \"#utility.yul\":6394:6419   */\n      swap3\n      pop\n        /* \"#utility.yul\":6443:6444   */\n      dup3\n        /* \"#utility.yul\":6440:6441   */\n      dup3\n        /* \"#utility.yul\":6436:6445   */\n      sub\n        /* \"#utility.yul\":6428:6445   */\n      swap1\n      pop\n        /* \"#utility.yul\":6467:6468   */\n      dup2\n        /* \"#utility.yul\":6461:6465   */\n      dup2\n        /* \"#utility.yul\":6458:6469   */\n      gt\n        /* \"#utility.yul\":6455:6492   */\n      iszero\n      tag_194\n      jumpi\n        /* \"#utility.yul\":6472:6490   */\n      tag_195\n      tag_126\n      jump\t// in\n    tag_195:\n        /* \"#utility.yul\":6455:6492   */\n    tag_194:\n        /* \"#utility.yul\":6305:6499   */\n      swap3\n      swap2\n      pop\n      pop\n      jump\t// out\n        /* \"#utility.yul\":6505:6676   */\n    tag_104:\n        /* \"#utility.yul\":6544:6547   */\n      0x00\n        /* \"#utility.yul\":6567:6591   */\n      tag_197\n        /* \"#utility.yul\":6585:6590   */\n      dup3\n        /* \"#utility.yul\":6567:6591   */\n      tag_111\n      jump\t// in\n    tag_197:\n        /* \"#utility.yul\":6558:6591   */\n      swap2\n      pop\n        /* \"#utility.yul\":6613:6617   */\n      0x00\n        /* \"#utility.yul\":6606:6611   */\n      dup3\n        /* \"#utility.yul\":6603:6618   */\n      sub\n        /* \"#utility.yul\":6600:6641   */\n      tag_198\n      jumpi\n        /* \"#utility.yul\":6621:6639   */\n      tag_199\n      tag_126\n      jump\t// in\n    tag_199:\n        /* \"#utility.yul\":6600:6641   */\n    tag_198:\n        /* \"#utility.yul\":6668:6669   */\n      0x01\n        /* \"#utility.yul\":6661:6666   */\n      dup3\n        /* \"#utility.yul\":6657:6670   */\n      sub\n        /* \"#utility.yul\":6650:6670   */\n      swap1\n      pop\n        /* \"#utility.yul\":6505:6676   */\n      swap2\n      swap1\n      pop\n      jump\t// out\n\n    auxdata: 0xa26469706673582212207e26bbae9a7932475ab3656f475cf29a17fd201ad5c3eaf583eaddf6dcb9f05864736f6c634300081a0033\n}\n",
				"bytecode": {
					"linkReferences": {},
					"object": "6080604052348015600e575f80fd5b50335f806101000a81548173ffffffffffffffffffffffffffffffffffffffff021916908373ffffffffffffffffffffffffffffffffffffffff160217905550610a598061005b5f395ff3fe608060405260043610610073575f3560e01c80638da5cb5b1161004d5780638da5cb5b1461011457806391c1aae61461013e578063d0e30db01461017a578063fc7e286d1461018457610082565b806312065fe0146100865780632e1a7d4d146100b0578063689dbf4e146100d857610082565b36610082576100806101c0565b005b5f80fd5b348015610091575f80fd5b5061009a6102ec565b6040516100a791906106af565b60405180910390f35b3480156100bb575f80fd5b506100d660048036038101906100d191906106f6565b6102f3565b005b3480156100e3575f80fd5b506100fe60048036038101906100f991906106f6565b610460565b60405161010b9190610760565b60405180910390f35b34801561011f575f80fd5b50610128610494565b6040516101359190610760565b60405180910390f35b348015610149575f80fd5b50610164600480360381019061015f91906106f6565b6104b7565b60405161017191906106af565b60405180910390f35b6101826104d0565b005b34801561018f575f80fd5b506101aa60048036038101906101a591906107a3565b6104da565b6040516101b791906106af565b60405180910390f35b5f3411610202576040517f08c379a00000000000000000000000000000000000000000000000000000000081526004016101f99061084e565b60405180910390fd5b3460015f3373ffffffffffffffffffffffffffffffffffffffff1673ffffffffffffffffffffffffffffffffffffffff1681526020019081526020015f205f82825461024e9190610899565b925050819055503373ffffffffffffffffffffffffffffffffffffffff167fe1fffcc4923d04b559f4d29a8bfc6cda04eb5b0d3c460751c2402c5c5cc9109c3460405161029b91906106af565b60405180910390a26102ea3360015f3373ffffffffffffffffffffffffffffffffffffffff1673ffffffffffffffffffffffffffffffffffffffff1681526020019081526020015f20546104ef565b565b5f47905090565b5f8054906101000a900473ffffffffffffffffffffffffffffffffffffffff1673ffffffffffffffffffffffffffffffffffffffff163373ffffffffffffffffffffffffffffffffffffffff1614610380576040517f08c379a000000000000000000000000000000000000000000000000000000000815260040161037790610916565b60405180910390fd5b478111156103c3576040517f08c379a00000000000000000000000000000000000000000000000000000000081526004016103ba9061097e565b60405180910390fd5b5f8054906101000a900473ffffffffffffffffffffffffffffffffffffffff1673ffffffffffffffffffffffffffffffffffffffff166108fc8290811502906040515f60405180830381858888f19350505050158015610425573d5f803e3d5ffd5b507f5b6b431d4476a211bb7d41c20d1aab9ae2321deee0d20be3d9fc9b1093fa6e3d8160405161045591906106af565b60405180910390a150565b6002816003811061046f575f80fd5b015f915054906101000a900473ffffffffffffffffffffffffffffffffffffffff1681565b5f8054906101000a900473ffffffffffffffffffffffffffffffffffffffff1681565b600581600381106104c6575f80fd5b015f915090505481565b6104d86101c0565b565b6001602052805f5260405f205f915090505481565b5f5b6003811015610692576005816003811061050e5761050d61099c565b5b0154821115610685575f6001600361052691906109c9565b90505b8181111561061257600560018261054091906109c9565b600381106105515761055061099c565b5b0154600582600381106105675761056661099c565b5b0181905550600260018261057b91906109c9565b6003811061058c5761058b61099c565b5b015f9054906101000a900473ffffffffffffffffffffffffffffffffffffffff16600282600381106105c1576105c061099c565b5b015f6101000a81548173ffffffffffffffffffffffffffffffffffffffff021916908373ffffffffffffffffffffffffffffffffffffffff160217905550808061060a906109fc565b915050610529565b5081600582600381106106285761062761099c565b5b018190555082600282600381106106425761064161099c565b5b015f6101000a81548173ffffffffffffffffffffffffffffffffffffffff021916908373ffffffffffffffffffffffffffffffffffffffff160217905550610692565b80806001019150506104f1565b505050565b5f819050919050565b6106a981610697565b82525050565b5f6020820190506106c25f8301846106a0565b92915050565b5f80fd5b6106d581610697565b81146106df575f80fd5b50565b5f813590506106f0816106cc565b92915050565b5f6020828403121561070b5761070a6106c8565b5b5f610718848285016106e2565b91505092915050565b5f73ffffffffffffffffffffffffffffffffffffffff82169050919050565b5f61074a82610721565b9050919050565b61075a81610740565b82525050565b5f6020820190506107735f830184610751565b92915050565b61078281610740565b811461078c575f80fd5b50565b5f8135905061079d81610779565b92915050565b5f602082840312156107b8576107b76106c8565b5b5f6107c58482850161078f565b91505092915050565b5f82825260208201905092915050565b7f4465706f73697420616d6f756e74206d757374206265206772656174657220745f8201527f68616e2030000000000000000000000000000000000000000000000000000000602082015250565b5f6108386025836107ce565b9150610843826107de565b604082019050919050565b5f6020820190508181035f8301526108658161082c565b9050919050565b7f4e487b71000000000000000000000000000000000000000000000000000000005f52601160045260245ffd5b5f6108a382610697565b91506108ae83610697565b92508282019050808211156108c6576108c561086c565b5b92915050565b7f4f6e6c792061646d696e6973747261746f72732063616e2063616c6c000000005f82015250565b5f610900601c836107ce565b915061090b826108cc565b602082019050919050565b5f6020820190508181035f83015261092d816108f4565b9050919050565b7f496e73756666696369656e7420636f6e74726163742062616c616e63650000005f82015250565b5f610968601d836107ce565b915061097382610934565b602082019050919050565b5f6020820190508181035f8301526109958161095c565b9050919050565b7f4e487b71000000000000000000000000000000000000000000000000000000005f52603260045260245ffd5b5f6109d382610697565b91506109de83610697565b92508282039050818111156109f6576109f561086c565b5b92915050565b5f610a0682610697565b91505f8203610a1857610a1761086c565b5b60018203905091905056fea26469706673582212207e26bbae9a7932475ab3656f475cf29a17fd201ad5c3eaf583eaddf6dcb9f05864736f6c634300081a0033",
					"opcodes": "PUSH1 0x80 PUSH1 0x40 MSTORE CALLVALUE DUP1 ISZERO PUSH1 0xE JUMPI PUSH0 DUP1 REVERT JUMPDEST POP CALLER PUSH0 DUP1 PUSH2 0x100 EXP DUP2 SLOAD DUP2 PUSH20 0xFFFFFFFFFFFFFFFFFFFFFFFFFFFFFFFFFFFFFFFF MUL NOT AND SWAP1 DUP4 PUSH20 0xFFFFFFFFFFFFFFFFFFFFFFFFFFFFFFFFFFFFFFFF AND MUL OR SWAP1 SSTORE POP PUSH2 0xA59 DUP1 PUSH2 0x5B PUSH0 CODECOPY PUSH0 RETURN INVALID PUSH1 0x80 PUSH1 0x40 MSTORE PUSH1 0x4 CALLDATASIZE LT PUSH2 0x73 JUMPI PUSH0 CALLDATALOAD PUSH1 0xE0 SHR DUP1 PUSH4 0x8DA5CB5B GT PUSH2 0x4D JUMPI DUP1 PUSH4 0x8DA5CB5B EQ PUSH2 0x114 JUMPI DUP1 PUSH4 0x91C1AAE6 EQ PUSH2 0x13E JUMPI DUP1 PUSH4 0xD0E30DB0 EQ PUSH2 0x17A JUMPI DUP1 PUSH4 0xFC7E286D EQ PUSH2 0x184 JUMPI PUSH2 0x82 JUMP JUMPDEST DUP1 PUSH4 0x12065FE0 EQ PUSH2 0x86 JUMPI DUP1 PUSH4 0x2E1A7D4D EQ PUSH2 0xB0 JUMPI DUP1 PUSH4 0x689DBF4E EQ PUSH2 0xD8 JUMPI PUSH2 0x82 JUMP JUMPDEST CALLDATASIZE PUSH2 0x82 JUMPI PUSH2 0x80 PUSH2 0x1C0 JUMP JUMPDEST STOP JUMPDEST PUSH0 DUP1 REVERT JUMPDEST CALLVALUE DUP1 ISZERO PUSH2 0x91 JUMPI PUSH0 DUP1 REVERT JUMPDEST POP PUSH2 0x9A PUSH2 0x2EC JUMP JUMPDEST PUSH1 0x40 MLOAD PUSH2 0xA7 SWAP2 SWAP1 PUSH2 0x6AF JUMP JUMPDEST PUSH1 0x40 MLOAD DUP1 SWAP2 SUB SWAP1 RETURN JUMPDEST CALLVALUE DUP1 ISZERO PUSH2 0xBB JUMPI PUSH0 DUP1 REVERT JUMPDEST POP PUSH2 0xD6 PUSH1 0x4 DUP1 CALLDATASIZE SUB DUP2 ADD SWAP1 PUSH2 0xD1 SWAP2 SWAP1 PUSH2 0x6F6 JUMP JUMPDEST PUSH2 0x2F3 JUMP JUMPDEST STOP JUMPDEST CALLVALUE DUP1 ISZERO PUSH2 0xE3 JUMPI PUSH0 DUP1 REVERT JUMPDEST POP PUSH2 0xFE PUSH1 0x4 DUP1 CALLDATASIZE SUB DUP2 ADD SWAP1 PUSH2 0xF9 SWAP2 SWAP1 PUSH2 0x6F6 JUMP JUMPDEST PUSH2 0x460 JUMP JUMPDEST PUSH1 0x40 MLOAD PUSH2 0x10B SWAP2 SWAP1 PUSH2 0x760 JUMP JUMPDEST PUSH1 0x40 MLOAD DUP1 SWAP2 SUB SWAP1 RETURN JUMPDEST CALLVALUE DUP1 ISZERO PUSH2 0x11F JUMPI PUSH0 DUP1 REVERT JUMPDEST POP PUSH2 0x128 PUSH2 0x494 JUMP JUMPDEST PUSH1 0x40 MLOAD PUSH2 0x135 SWAP2 SWAP1 PUSH2 0x760 JUMP JUMPDEST PUSH1 0x40 MLOAD DUP1 SWAP2 SUB SWAP1 RETURN JUMPDEST CALLVALUE DUP1 ISZERO PUSH2 0x149 JUMPI PUSH0 DUP1 REVERT JUMPDEST POP PUSH2 0x164 PUSH1 0x4 DUP1 CALLDATASIZE SUB DUP2 ADD SWAP1 PUSH2 0x15F SWAP2 SWAP1 PUSH2 0x6F6 JUMP JUMPDEST PUSH2 0x4B7 JUMP JUMPDEST PUSH1 0x40 MLOAD PUSH2 0x171 SWAP2 SWAP1 PUSH2 0x6AF JUMP JUMPDEST PUSH1 0x40 MLOAD DUP1 SWAP2 SUB SWAP1 RETURN JUMPDEST PUSH2 0x182 PUSH2 0x4D0 JUMP JUMPDEST STOP JUMPDEST CALLVALUE DUP1 ISZERO PUSH2 0x18F JUMPI PUSH0 DUP1 REVERT JUMPDEST POP PUSH2 0x1AA PUSH1 0x4 DUP1 CALLDATASIZE SUB DUP2 ADD SWAP1 PUSH2 0x1A5 SWAP2 SWAP1 PUSH2 0x7A3 JUMP JUMPDEST PUSH2 0x4DA JUMP JUMPDEST PUSH1 0x40 MLOAD PUSH2 0x1B7 SWAP2 SWAP1 PUSH2 0x6AF JUMP JUMPDEST PUSH1 0x40 MLOAD DUP1 SWAP2 SUB SWAP1 RETURN JUMPDEST PUSH0 CALLVALUE GT PUSH2 0x202 JUMPI PUSH1 0x40 MLOAD PUSH32 0x8C379A000000000000000000000000000000000000000000000000000000000 DUP2 MSTORE PUSH1 0x4 ADD PUSH2 0x1F9 SWAP1 PUSH2 0x84E JUMP JUMPDEST PUSH1 0x40 MLOAD DUP1 SWAP2 SUB SWAP1 REVERT JUMPDEST CALLVALUE PUSH1 0x1 PUSH0 CALLER PUSH20 0xFFFFFFFFFFFFFFFFFFFFFFFFFFFFFFFFFFFFFFFF AND PUSH20 0xFFFFFFFFFFFFFFFFFFFFFFFFFFFFFFFFFFFFFFFF AND DUP2 MSTORE PUSH1 0x20 ADD SWAP1 DUP2 MSTORE PUSH1 0x20 ADD PUSH0 KECCAK256 PUSH0 DUP3 DUP3 SLOAD PUSH2 0x24E SWAP2 SWAP1 PUSH2 0x899 JUMP JUMPDEST SWAP3 POP POP DUP2 SWAP1 SSTORE POP CALLER PUSH20 0xFFFFFFFFFFFFFFFFFFFFFFFFFFFFFFFFFFFFFFFF AND PUSH32 0xE1FFFCC4923D04B559F4D29A8BFC6CDA04EB5B0D3C460751C2402C5C5CC9109C CALLVALUE PUSH1 0x40 MLOAD PUSH2 0x29B SWAP2 SWAP1 PUSH2 0x6AF JUMP JUMPDEST PUSH1 0x40 MLOAD DUP1 SWAP2 SUB SWAP1 LOG2 PUSH2 0x2EA CALLER PUSH1 0x1 PUSH0 CALLER PUSH20 0xFFFFFFFFFFFFFFFFFFFFFFFFFFFFFFFFFFFFFFFF AND PUSH20 0xFFFFFFFFFFFFFFFFFFFFFFFFFFFFFFFFFFFFFFFF AND DUP2 MSTORE PUSH1 0x20 ADD SWAP1 DUP2 MSTORE PUSH1 0x20 ADD PUSH0 KECCAK256 SLOAD PUSH2 0x4EF JUMP JUMPDEST JUMP JUMPDEST PUSH0 SELFBALANCE SWAP1 POP SWAP1 JUMP JUMPDEST PUSH0 DUP1 SLOAD SWAP1 PUSH2 0x100 EXP SWAP1 DIV PUSH20 0xFFFFFFFFFFFFFFFFFFFFFFFFFFFFFFFFFFFFFFFF AND PUSH20 0xFFFFFFFFFFFFFFFFFFFFFFFFFFFFFFFFFFFFFFFF AND CALLER PUSH20 0xFFFFFFFFFFFFFFFFFFFFFFFFFFFFFFFFFFFFFFFF AND EQ PUSH2 0x380 JUMPI PUSH1 0x40 MLOAD PUSH32 0x8C379A000000000000000000000000000000000000000000000000000000000 DUP2 MSTORE PUSH1 0x4 ADD PUSH2 0x377 SWAP1 PUSH2 0x916 JUMP JUMPDEST PUSH1 0x40 MLOAD DUP1 SWAP2 SUB SWAP1 REVERT JUMPDEST SELFBALANCE DUP2 GT ISZERO PUSH2 0x3C3 JUMPI PUSH1 0x40 MLOAD PUSH32 0x8C379A000000000000000000000000000000000000000000000000000000000 DUP2 MSTORE PUSH1 0x4 ADD PUSH2 0x3BA SWAP1 PUSH2 0x97E JUMP JUMPDEST PUSH1 0x40 MLOAD DUP1 SWAP2 SUB SWAP1 REVERT JUMPDEST PUSH0 DUP1 SLOAD SWAP1 PUSH2 0x100 EXP SWAP1 DIV PUSH20 0xFFFFFFFFFFFFFFFFFFFFFFFFFFFFFFFFFFFFFFFF AND PUSH20 0xFFFFFFFFFFFFFFFFFFFFFFFFFFFFFFFFFFFFFFFF AND PUSH2 0x8FC DUP3 SWAP1 DUP2 ISZERO MUL SWAP1 PUSH1 0x40 MLOAD PUSH0 PUSH1 0x40 MLOAD DUP1 DUP4 SUB DUP2 DUP6 DUP9 DUP9 CALL SWAP4 POP POP POP POP ISZERO DUP1 ISZERO PUSH2 0x425 JUMPI RETURNDATASIZE PUSH0 DUP1 RETURNDATACOPY RETURNDATASIZE PUSH0 REVERT JUMPDEST POP PUSH32 0x5B6B431D4476A211BB7D41C20D1AAB9AE2321DEEE0D20BE3D9FC9B1093FA6E3D DUP2 PUSH1 0x40 MLOAD PUSH2 0x455 SWAP2 SWAP1 PUSH2 0x6AF JUMP JUMPDEST PUSH1 0x40 MLOAD DUP1 SWAP2 SUB SWAP1 LOG1 POP JUMP JUMPDEST PUSH1 0x2 DUP2 PUSH1 0x3 DUP2 LT PUSH2 0x46F JUMPI PUSH0 DUP1 REVERT JUMPDEST ADD PUSH0 SWAP2 POP SLOAD SWAP1 PUSH2 0x100 EXP SWAP1 DIV PUSH20 0xFFFFFFFFFFFFFFFFFFFFFFFFFFFFFFFFFFFFFFFF AND DUP2 JUMP JUMPDEST PUSH0 DUP1 SLOAD SWAP1 PUSH2 0x100 EXP SWAP1 DIV PUSH20 0xFFFFFFFFFFFFFFFFFFFFFFFFFFFFFFFFFFFFFFFF AND DUP2 JUMP JUMPDEST PUSH1 0x5 DUP2 PUSH1 0x3 DUP2 LT PUSH2 0x4C6 JUMPI PUSH0 DUP1 REVERT JUMPDEST ADD PUSH0 SWAP2 POP SWAP1 POP SLOAD DUP2 JUMP JUMPDEST PUSH2 0x4D8 PUSH2 0x1C0 JUMP JUMPDEST JUMP JUMPDEST PUSH1 0x1 PUSH1 0x20 MSTORE DUP1 PUSH0 MSTORE PUSH1 0x40 PUSH0 KECCAK256 PUSH0 SWAP2 POP SWAP1 POP SLOAD DUP2 JUMP JUMPDEST PUSH0 JUMPDEST PUSH1 0x3 DUP2 LT ISZERO PUSH2 0x692 JUMPI PUSH1 0x5 DUP2 PUSH1 0x3 DUP2 LT PUSH2 0x50E JUMPI PUSH2 0x50D PUSH2 0x99C JUMP JUMPDEST JUMPDEST ADD SLOAD DUP3 GT ISZERO PUSH2 0x685 JUMPI PUSH0 PUSH1 0x1 PUSH1 0x3 PUSH2 0x526 SWAP2 SWAP1 PUSH2 0x9C9 JUMP JUMPDEST SWAP1 POP JUMPDEST DUP2 DUP2 GT ISZERO PUSH2 0x612 JUMPI PUSH1 0x5 PUSH1 0x1 DUP3 PUSH2 0x540 SWAP2 SWAP1 PUSH2 0x9C9 JUMP JUMPDEST PUSH1 0x3 DUP2 LT PUSH2 0x551 JUMPI PUSH2 0x550 PUSH2 0x99C JUMP JUMPDEST JUMPDEST ADD SLOAD PUSH1 0x5 DUP3 PUSH1 0x3 DUP2 LT PUSH2 0x567 JUMPI PUSH2 0x566 PUSH2 0x99C JUMP JUMPDEST JUMPDEST ADD DUP2 SWAP1 SSTORE POP PUSH1 0x2 PUSH1 0x1 DUP3 PUSH2 0x57B SWAP2 SWAP1 PUSH2 0x9C9 JUMP JUMPDEST PUSH1 0x3 DUP2 LT PUSH2 0x58C JUMPI PUSH2 0x58B PUSH2 0x99C JUMP JUMPDEST JUMPDEST ADD PUSH0 SWAP1 SLOAD SWAP1 PUSH2 0x100 EXP SWAP1 DIV PUSH20 0xFFFFFFFFFFFFFFFFFFFFFFFFFFFFFFFFFFFFFFFF AND PUSH1 0x2 DUP3 PUSH1 0x3 DUP2 LT PUSH2 0x5C1 JUMPI PUSH2 0x5C0 PUSH2 0x99C JUMP JUMPDEST JUMPDEST ADD PUSH0 PUSH2 0x100 EXP DUP2 SLOAD DUP2 PUSH20 0xFFFFFFFFFFFFFFFFFFFFFFFFFFFFFFFFFFFFFFFF MUL NOT AND SWAP1 DUP4 PUSH20 0xFFFFFFFFFFFFFFFFFFFFFFFFFFFFFFFFFFFFFFFF AND MUL OR SWAP1 SSTORE POP DUP1 DUP1 PUSH2 0x60A SWAP1 PUSH2 0x9FC JUMP JUMPDEST SWAP2 POP POP PUSH2 0x529 JUMP JUMPDEST POP DUP2 PUSH1 0x5 DUP3 PUSH1 0x3 DUP2 LT PUSH2 0x628 JUMPI PUSH2 0x627 PUSH2 0x99C JUMP JUMPDEST JUMPDEST ADD DUP2 SWAP1 SSTORE POP DUP3 PUSH1 0x2 DUP3 PUSH1 0x3 DUP2 LT PUSH2 0x642 JUMPI PUSH2 0x641 PUSH2 0x99C JUMP JUMPDEST JUMPDEST ADD PUSH0 PUSH2 0x100 EXP DUP2 SLOAD DUP2 PUSH20 0xFFFFFFFFFFFFFFFFFFFFFFFFFFFFFFFFFFFFFFFF MUL NOT AND SWAP1 DUP4 PUSH20 0xFFFFFFFFFFFFFFFFFFFFFFFFFFFFFFFFFFFFFFFF AND MUL OR SWAP1 SSTORE POP PUSH2 0x692 JUMP JUMPDEST DUP1 DUP1 PUSH1 0x1 ADD SWAP2 POP POP PUSH2 0x4F1 JUMP JUMPDEST POP POP POP JUMP JUMPDEST PUSH0 DUP2 SWAP1 POP SWAP2 SWAP1 POP JUMP JUMPDEST PUSH2 0x6A9 DUP2 PUSH2 0x697 JUMP JUMPDEST DUP3 MSTORE POP POP JUMP JUMPDEST PUSH0 PUSH1 0x20 DUP3 ADD SWAP1 POP PUSH2 0x6C2 PUSH0 DUP4 ADD DUP5 PUSH2 0x6A0 JUMP JUMPDEST SWAP3 SWAP2 POP POP JUMP JUMPDEST PUSH0 DUP1 REVERT JUMPDEST PUSH2 0x6D5 DUP2 PUSH2 0x697 JUMP JUMPDEST DUP2 EQ PUSH2 0x6DF JUMPI PUSH0 DUP1 REVERT JUMPDEST POP JUMP JUMPDEST PUSH0 DUP2 CALLDATALOAD SWAP1 POP PUSH2 0x6F0 DUP2 PUSH2 0x6CC JUMP JUMPDEST SWAP3 SWAP2 POP POP JUMP JUMPDEST PUSH0 PUSH1 0x20 DUP3 DUP5 SUB SLT ISZERO PUSH2 0x70B JUMPI PUSH2 0x70A PUSH2 0x6C8 JUMP JUMPDEST JUMPDEST PUSH0 PUSH2 0x718 DUP5 DUP3 DUP6 ADD PUSH2 0x6E2 JUMP JUMPDEST SWAP2 POP POP SWAP3 SWAP2 POP POP JUMP JUMPDEST PUSH0 PUSH20 0xFFFFFFFFFFFFFFFFFFFFFFFFFFFFFFFFFFFFFFFF DUP3 AND SWAP1 POP SWAP2 SWAP1 POP JUMP JUMPDEST PUSH0 PUSH2 0x74A DUP3 PUSH2 0x721 JUMP JUMPDEST SWAP1 POP SWAP2 SWAP1 POP JUMP JUMPDEST PUSH2 0x75A DUP2 PUSH2 0x740 JUMP JUMPDEST DUP3 MSTORE POP POP JUMP JUMPDEST PUSH0 PUSH1 0x20 DUP3 ADD SWAP1 POP PUSH2 0x773 PUSH0 DUP4 ADD DUP5 PUSH2 0x751 JUMP JUMPDEST SWAP3 SWAP2 POP POP JUMP JUMPDEST PUSH2 0x782 DUP2 PUSH2 0x740 JUMP JUMPDEST DUP2 EQ PUSH2 0x78C JUMPI PUSH0 DUP1 REVERT JUMPDEST POP JUMP JUMPDEST PUSH0 DUP2 CALLDATALOAD SWAP1 POP PUSH2 0x79D DUP2 PUSH2 0x779 JUMP JUMPDEST SWAP3 SWAP2 POP POP JUMP JUMPDEST PUSH0 PUSH1 0x20 DUP3 DUP5 SUB SLT ISZERO PUSH2 0x7B8 JUMPI PUSH2 0x7B7 PUSH2 0x6C8 JUMP JUMPDEST JUMPDEST PUSH0 PUSH2 0x7C5 DUP5 DUP3 DUP6 ADD PUSH2 0x78F JUMP JUMPDEST SWAP2 POP POP SWAP3 SWAP2 POP POP JUMP JUMPDEST PUSH0 DUP3 DUP3 MSTORE PUSH1 0x20 DUP3 ADD SWAP1 POP SWAP3 SWAP2 POP POP JUMP JUMPDEST PUSH32 0x4465706F73697420616D6F756E74206D75737420626520677265617465722074 PUSH0 DUP3 ADD MSTORE PUSH32 0x68616E2030000000000000000000000000000000000000000000000000000000 PUSH1 0x20 DUP3 ADD MSTORE POP JUMP JUMPDEST PUSH0 PUSH2 0x838 PUSH1 0x25 DUP4 PUSH2 0x7CE JUMP JUMPDEST SWAP2 POP PUSH2 0x843 DUP3 PUSH2 0x7DE JUMP JUMPDEST PUSH1 0x40 DUP3 ADD SWAP1 POP SWAP2 SWAP1 POP JUMP JUMPDEST PUSH0 PUSH1 0x20 DUP3 ADD SWAP1 POP DUP2 DUP2 SUB PUSH0 DUP4 ADD MSTORE PUSH2 0x865 DUP2 PUSH2 0x82C JUMP JUMPDEST SWAP1 POP SWAP2 SWAP1 POP JUMP JUMPDEST PUSH32 0x4E487B7100000000000000000000000000000000000000000000000000000000 PUSH0 MSTORE PUSH1 0x11 PUSH1 0x4 MSTORE PUSH1 0x24 PUSH0 REVERT JUMPDEST PUSH0 PUSH2 0x8A3 DUP3 PUSH2 0x697 JUMP JUMPDEST SWAP2 POP PUSH2 0x8AE DUP4 PUSH2 0x697 JUMP JUMPDEST SWAP3 POP DUP3 DUP3 ADD SWAP1 POP DUP1 DUP3 GT ISZERO PUSH2 0x8C6 JUMPI PUSH2 0x8C5 PUSH2 0x86C JUMP JUMPDEST JUMPDEST SWAP3 SWAP2 POP POP JUMP JUMPDEST PUSH32 0x4F6E6C792061646D696E6973747261746F72732063616E2063616C6C00000000 PUSH0 DUP3 ADD MSTORE POP JUMP JUMPDEST PUSH0 PUSH2 0x900 PUSH1 0x1C DUP4 PUSH2 0x7CE JUMP JUMPDEST SWAP2 POP PUSH2 0x90B DUP3 PUSH2 0x8CC JUMP JUMPDEST PUSH1 0x20 DUP3 ADD SWAP1 POP SWAP2 SWAP1 POP JUMP JUMPDEST PUSH0 PUSH1 0x20 DUP3 ADD SWAP1 POP DUP2 DUP2 SUB PUSH0 DUP4 ADD MSTORE PUSH2 0x92D DUP2 PUSH2 0x8F4 JUMP JUMPDEST SWAP1 POP SWAP2 SWAP1 POP JUMP JUMPDEST PUSH32 0x496E73756666696369656E7420636F6E74726163742062616C616E6365000000 PUSH0 DUP3 ADD MSTORE POP JUMP JUMPDEST PUSH0 PUSH2 0x968 PUSH1 0x1D DUP4 PUSH2 0x7CE JUMP JUMPDEST SWAP2 POP PUSH2 0x973 DUP3 PUSH2 0x934 JUMP JUMPDEST PUSH1 0x20 DUP3 ADD SWAP1 POP SWAP2 SWAP1 POP JUMP JUMPDEST PUSH0 PUSH1 0x20 DUP3 ADD SWAP1 POP DUP2 DUP2 SUB PUSH0 DUP4 ADD MSTORE PUSH2 0x995 DUP2 PUSH2 0x95C JUMP JUMPDEST SWAP1 POP SWAP2 SWAP1 POP JUMP JUMPDEST PUSH32 0x4E487B7100000000000000000000000000000000000000000000000000000000 PUSH0 MSTORE PUSH1 0x32 PUSH1 0x4 MSTORE PUSH1 0x24 PUSH0 REVERT JUMPDEST PUSH0 PUSH2 0x9D3 DUP3 PUSH2 0x697 JUMP JUMPDEST SWAP2 POP PUSH2 0x9DE DUP4 PUSH2 0x697 JUMP JUMPDEST SWAP3 POP DUP3 DUP3 SUB SWAP1 POP DUP2 DUP2 GT ISZERO PUSH2 0x9F6 JUMPI PUSH2 0x9F5 PUSH2 0x86C JUMP JUMPDEST JUMPDEST SWAP3 SWAP2 POP POP JUMP JUMPDEST PUSH0 PUSH2 0xA06 DUP3 PUSH2 0x697 JUMP JUMPDEST SWAP2 POP PUSH0 DUP3 SUB PUSH2 0xA18 JUMPI PUSH2 0xA17 PUSH2 0x86C JUMP JUMPDEST JUMPDEST PUSH1 0x1 DUP3 SUB SWAP1 POP SWAP2 SWAP1 POP JUMP INVALID LOG2 PUSH5 0x6970667358 0x22 SLT KECCAK256 PUSH31 0x26BBAE9A7932475AB3656F475CF29A17FD201AD5C3EAF583EADDF6DCB9F058 PUSH5 0x736F6C6343 STOP ADDMOD BYTE STOP CALLER "
				},
				"gasEstimates": {
					"creation": {
						"codeDepositCost": "529800",
						"executionCost": "24825",
						"totalCost": "554625"
					},
					"external": {
						"deposit()": "infinite",
						"deposits(address)": "2868",
						"getBalance()": "335",
						"owner()": "2505",
						"topDeposits(uint256)": "infinite",
						"topUsers(uint256)": "2840",
						"withdraw(uint256)": "infinite"
					},
					"internal": {
						"_internalDeposit()": "infinite",
						"updateTopUsers(address,uint256)": "infinite"
					}
				},
				"methodIdentifiers": {
					"deposit()": "d0e30db0",
					"deposits(address)": "fc7e286d",
					"getBalance()": "12065fe0",
					"owner()": "8da5cb5b",
					"topDeposits(uint256)": "91c1aae6",
					"topUsers(uint256)": "689dbf4e",
					"withdraw(uint256)": "2e1a7d4d"
				}
			},
			"storageLayout": {
				"storage": [
					{
						"astId": 22,
						"contract": "https://github.com/lilongxi/OpenSpace/blob/challenge-003-2024-10-11/BankContract/Bank.sol:Bank",
						"label": "owner",
						"offset": 0,
						"slot": "0",
						"type": "t_address"
					},
					{
						"astId": 26,
						"contract": "https://github.com/lilongxi/OpenSpace/blob/challenge-003-2024-10-11/BankContract/Bank.sol:Bank",
						"label": "deposits",
						"offset": 0,
						"slot": "1",
						"type": "t_mapping(t_address,t_uint256)"
					},
					{
						"astId": 30,
						"contract": "https://github.com/lilongxi/OpenSpace/blob/challenge-003-2024-10-11/BankContract/Bank.sol:Bank",
						"label": "topUsers",
						"offset": 0,
						"slot": "2",
						"type": "t_array(t_address)3_storage"
					},
					{
						"astId": 34,
						"contract": "https://github.com/lilongxi/OpenSpace/blob/challenge-003-2024-10-11/BankContract/Bank.sol:Bank",
						"label": "topDeposits",
						"offset": 0,
						"slot": "5",
						"type": "t_array(t_uint256)3_storage"
					}
				],
				"types": {
					"t_address": {
						"encoding": "inplace",
						"label": "address",
						"numberOfBytes": "20"
					},
					"t_array(t_address)3_storage": {
						"base": "t_address",
						"encoding": "inplace",
						"label": "address[3]",
						"numberOfBytes": "96"
					},
					"t_array(t_uint256)3_storage": {
						"base": "t_uint256",
						"encoding": "inplace",
						"label": "uint256[3]",
						"numberOfBytes": "96"
					},
					"t_mapping(t_address,t_uint256)": {
						"encoding": "mapping",
						"key": "t_address",
						"label": "mapping(address => uint256)",
						"numberOfBytes": "32",
						"value": "t_uint256"
					},
					"t_uint256": {
						"encoding": "inplace",
						"label": "uint256",
						"numberOfBytes": "32"
					}
				}
			},
			"userdoc": {
				"kind": "user",
				"methods": {},
				"version": 1
			}
		}
	}
}