{
	"CounterContract/Counter.sol": {
		"Counter": {
			"abi": [
				{
					"inputs": [],
					"stateMutability": "nonpayable",
					"type": "constructor"
				},
				{
					"inputs": [
						{
							"internalType": "uint256",
							"name": "x",
							"type": "uint256"
						}
					],
					"name": "add",
					"outputs": [],
					"stateMutability": "nonpayable",
					"type": "function"
				},
				{
					"inputs": [],
					"name": "counter",
					"outputs": [
						{
							"internalType": "uint256",
							"name": "",
							"type": "uint256"
						}
					],
					"stateMutability": "view",
					"type": "function"
				},
				{
					"inputs": [],
					"name": "get",
					"outputs": [
						{
							"internalType": "uint256",
							"name": "",
							"type": "uint256"
						}
					],
					"stateMutability": "view",
					"type": "function"
				}
			],
			"devdoc": {
				"kind": "dev",
				"methods": {},
				"version": 1
			},
			"evm": {
				"assembly": "    /* \"CounterContract/Counter.sol\":77:376  contract Counter {... */\n  mstore(0x40, 0x80)\n    /* \"CounterContract/Counter.sol\":130:172  constructor() {... */\n  callvalue\n  dup1\n  iszero\n  tag_1\n  jumpi\n  0x00\n  dup1\n  revert\ntag_1:\n  pop\n    /* \"CounterContract/Counter.sol\":164:165  0 */\n  0x00\n    /* \"CounterContract/Counter.sol\":154:161  counter */\n  dup1\n    /* \"CounterContract/Counter.sol\":154:165  counter = 0 */\n  dup2\n  swap1\n  sstore\n  pop\n    /* \"CounterContract/Counter.sol\":77:376  contract Counter {... */\n  dataSize(sub_0)\n  dup1\n  dataOffset(sub_0)\n  0x00\n  codecopy\n  0x00\n  return\nstop\n\nsub_0: assembly {\n        /* \"CounterContract/Counter.sol\":77:376  contract Counter {... */\n      mstore(0x40, 0x80)\n      callvalue\n      dup1\n      iszero\n      tag_1\n      jumpi\n      0x00\n      dup1\n      revert\n    tag_1:\n      pop\n      jumpi(tag_2, lt(calldatasize, 0x04))\n      shr(0xe0, calldataload(0x00))\n      dup1\n      0x1003e2d2\n      eq\n      tag_3\n      jumpi\n      dup1\n      0x61bc221a\n      eq\n      tag_4\n      jumpi\n      dup1\n      0x6d4ce63c\n      eq\n      tag_5\n      jumpi\n    tag_2:\n      0x00\n      dup1\n      revert\n        /* \"CounterContract/Counter.sol\":260:373  function add (uint256 x) public {... */\n    tag_3:\n      tag_6\n      0x04\n      dup1\n      calldatasize\n      sub\n      dup2\n      add\n      swap1\n      tag_7\n      swap2\n      swap1\n      tag_8\n      jump\t// in\n    tag_7:\n      tag_9\n      jump\t// in\n    tag_6:\n      stop\n        /* \"CounterContract/Counter.sol\":101:123  uint256 public counter */\n    tag_4:\n      tag_10\n      tag_11\n      jump\t// in\n    tag_10:\n      mload(0x40)\n      tag_12\n      swap2\n      swap1\n      tag_13\n      jump\t// in\n    tag_12:\n      mload(0x40)\n      dup1\n      swap2\n      sub\n      swap1\n      return\n        /* \"CounterContract/Counter.sol\":178:254  function get() public view returns (uint256) {... */\n    tag_5:\n      tag_14\n      tag_15\n      jump\t// in\n    tag_14:\n      mload(0x40)\n      tag_16\n      swap2\n      swap1\n      tag_13\n      jump\t// in\n    tag_16:\n      mload(0x40)\n      dup1\n      swap2\n      sub\n      swap1\n      return\n        /* \"CounterContract/Counter.sol\":260:373  function add (uint256 x) public {... */\n    tag_9:\n        /* \"CounterContract/Counter.sol\":314:315  0 */\n      0x00\n        /* \"CounterContract/Counter.sol\":310:311  x */\n      dup2\n        /* \"CounterContract/Counter.sol\":310:315  x > 0 */\n      gt\n        /* \"CounterContract/Counter.sol\":302:344  require(x > 0, \"x must be greater than 0\") */\n      tag_18\n      jumpi\n      mload(0x40)\n      0x08c379a000000000000000000000000000000000000000000000000000000000\n      dup2\n      mstore\n      0x04\n      add\n      tag_19\n      swap1\n      tag_20\n      jump\t// in\n    tag_19:\n      mload(0x40)\n      dup1\n      swap2\n      sub\n      swap1\n      revert\n    tag_18:\n        /* \"CounterContract/Counter.sol\":365:366  x */\n      dup1\n        /* \"CounterContract/Counter.sol\":354:361  counter */\n      0x00\n      dup1\n        /* \"CounterContract/Counter.sol\":354:366  counter += x */\n      dup3\n      dup3\n      sload\n      tag_21\n      swap2\n      swap1\n      tag_22\n      jump\t// in\n    tag_21:\n      swap3\n      pop\n      pop\n      dup2\n      swap1\n      sstore\n      pop\n        /* \"CounterContract/Counter.sol\":260:373  function add (uint256 x) public {... */\n      pop\n      jump\t// out\n        /* \"CounterContract/Counter.sol\":101:123  uint256 public counter */\n    tag_11:\n      sload(0x00)\n      dup2\n      jump\t// out\n        /* \"CounterContract/Counter.sol\":178:254  function get() public view returns (uint256) {... */\n    tag_15:\n        /* \"CounterContract/Counter.sol\":214:221  uint256 */\n      0x00\n        /* \"CounterContract/Counter.sol\":240:247  counter */\n      dup1\n      sload\n        /* \"CounterContract/Counter.sol\":233:247  return counter */\n      swap1\n      pop\n        /* \"CounterContract/Counter.sol\":178:254  function get() public view returns (uint256) {... */\n      swap1\n      jump\t// out\n        /* \"#utility.yul\":88:205   */\n    tag_25:\n        /* \"#utility.yul\":197:198   */\n      0x00\n        /* \"#utility.yul\":194:195   */\n      dup1\n        /* \"#utility.yul\":187:199   */\n      revert\n        /* \"#utility.yul\":334:411   */\n    tag_27:\n        /* \"#utility.yul\":371:378   */\n      0x00\n        /* \"#utility.yul\":400:405   */\n      dup2\n        /* \"#utility.yul\":389:405   */\n      swap1\n      pop\n        /* \"#utility.yul\":334:411   */\n      swap2\n      swap1\n      pop\n      jump\t// out\n        /* \"#utility.yul\":417:539   */\n    tag_28:\n        /* \"#utility.yul\":490:514   */\n      tag_41\n        /* \"#utility.yul\":508:513   */\n      dup2\n        /* \"#utility.yul\":490:514   */\n      tag_27\n      jump\t// in\n    tag_41:\n        /* \"#utility.yul\":483:488   */\n      dup2\n        /* \"#utility.yul\":480:515   */\n      eq\n        /* \"#utility.yul\":470:533   */\n      tag_42\n      jumpi\n        /* \"#utility.yul\":529:530   */\n      0x00\n        /* \"#utility.yul\":526:527   */\n      dup1\n        /* \"#utility.yul\":519:531   */\n      revert\n        /* \"#utility.yul\":470:533   */\n    tag_42:\n        /* \"#utility.yul\":417:539   */\n      pop\n      jump\t// out\n        /* \"#utility.yul\":545:684   */\n    tag_29:\n        /* \"#utility.yul\":591:596   */\n      0x00\n        /* \"#utility.yul\":629:635   */\n      dup2\n        /* \"#utility.yul\":616:636   */\n      calldataload\n        /* \"#utility.yul\":607:636   */\n      swap1\n      pop\n        /* \"#utility.yul\":645:678   */\n      tag_44\n        /* \"#utility.yul\":672:677   */\n      dup2\n        /* \"#utility.yul\":645:678   */\n      tag_28\n      jump\t// in\n    tag_44:\n        /* \"#utility.yul\":545:684   */\n      swap3\n      swap2\n      pop\n      pop\n      jump\t// out\n        /* \"#utility.yul\":690:1019   */\n    tag_8:\n        /* \"#utility.yul\":749:755   */\n      0x00\n        /* \"#utility.yul\":798:800   */\n      0x20\n        /* \"#utility.yul\":786:795   */\n      dup3\n        /* \"#utility.yul\":777:784   */\n      dup5\n        /* \"#utility.yul\":773:796   */\n      sub\n        /* \"#utility.yul\":769:801   */\n      slt\n        /* \"#utility.yul\":766:885   */\n      iszero\n      tag_46\n      jumpi\n        /* \"#utility.yul\":804:883   */\n      tag_47\n      tag_25\n      jump\t// in\n    tag_47:\n        /* \"#utility.yul\":766:885   */\n    tag_46:\n        /* \"#utility.yul\":924:925   */\n      0x00\n        /* \"#utility.yul\":949:1002   */\n      tag_48\n        /* \"#utility.yul\":994:1001   */\n      dup5\n        /* \"#utility.yul\":985:991   */\n      dup3\n        /* \"#utility.yul\":974:983   */\n      dup6\n        /* \"#utility.yul\":970:992   */\n      add\n        /* \"#utility.yul\":949:1002   */\n      tag_29\n      jump\t// in\n    tag_48:\n        /* \"#utility.yul\":939:1002   */\n      swap2\n      pop\n        /* \"#utility.yul\":895:1012   */\n      pop\n        /* \"#utility.yul\":690:1019   */\n      swap3\n      swap2\n      pop\n      pop\n      jump\t// out\n        /* \"#utility.yul\":1025:1143   */\n    tag_30:\n        /* \"#utility.yul\":1112:1136   */\n      tag_50\n        /* \"#utility.yul\":1130:1135   */\n      dup2\n        /* \"#utility.yul\":1112:1136   */\n      tag_27\n      jump\t// in\n    tag_50:\n        /* \"#utility.yul\":1107:1110   */\n      dup3\n        /* \"#utility.yul\":1100:1137   */\n      mstore\n        /* \"#utility.yul\":1025:1143   */\n      pop\n      pop\n      jump\t// out\n        /* \"#utility.yul\":1149:1371   */\n    tag_13:\n        /* \"#utility.yul\":1242:1246   */\n      0x00\n        /* \"#utility.yul\":1280:1282   */\n      0x20\n        /* \"#utility.yul\":1269:1278   */\n      dup3\n        /* \"#utility.yul\":1265:1283   */\n      add\n        /* \"#utility.yul\":1257:1283   */\n      swap1\n      pop\n        /* \"#utility.yul\":1293:1364   */\n      tag_52\n        /* \"#utility.yul\":1361:1362   */\n      0x00\n        /* \"#utility.yul\":1350:1359   */\n      dup4\n        /* \"#utility.yul\":1346:1363   */\n      add\n        /* \"#utility.yul\":1337:1343   */\n      dup5\n        /* \"#utility.yul\":1293:1364   */\n      tag_30\n      jump\t// in\n    tag_52:\n        /* \"#utility.yul\":1149:1371   */\n      swap3\n      swap2\n      pop\n      pop\n      jump\t// out\n        /* \"#utility.yul\":1377:1546   */\n    tag_31:\n        /* \"#utility.yul\":1461:1472   */\n      0x00\n        /* \"#utility.yul\":1495:1501   */\n      dup3\n        /* \"#utility.yul\":1490:1493   */\n      dup3\n        /* \"#utility.yul\":1483:1502   */\n      mstore\n        /* \"#utility.yul\":1535:1539   */\n      0x20\n        /* \"#utility.yul\":1530:1533   */\n      dup3\n        /* \"#utility.yul\":1526:1540   */\n      add\n        /* \"#utility.yul\":1511:1540   */\n      swap1\n      pop\n        /* \"#utility.yul\":1377:1546   */\n      swap3\n      swap2\n      pop\n      pop\n      jump\t// out\n        /* \"#utility.yul\":1552:1726   */\n    tag_32:\n        /* \"#utility.yul\":1692:1718   */\n      0x78206d7573742062652067726561746572207468616e20300000000000000000\n        /* \"#utility.yul\":1688:1689   */\n      0x00\n        /* \"#utility.yul\":1680:1686   */\n      dup3\n        /* \"#utility.yul\":1676:1690   */\n      add\n        /* \"#utility.yul\":1669:1719   */\n      mstore\n        /* \"#utility.yul\":1552:1726   */\n      pop\n      jump\t// out\n        /* \"#utility.yul\":1732:2098   */\n    tag_33:\n        /* \"#utility.yul\":1874:1877   */\n      0x00\n        /* \"#utility.yul\":1895:1962   */\n      tag_56\n        /* \"#utility.yul\":1959:1961   */\n      0x18\n        /* \"#utility.yul\":1954:1957   */\n      dup4\n        /* \"#utility.yul\":1895:1962   */\n      tag_31\n      jump\t// in\n    tag_56:\n        /* \"#utility.yul\":1888:1962   */\n      swap2\n      pop\n        /* \"#utility.yul\":1971:2064   */\n      tag_57\n        /* \"#utility.yul\":2060:2063   */\n      dup3\n        /* \"#utility.yul\":1971:2064   */\n      tag_32\n      jump\t// in\n    tag_57:\n        /* \"#utility.yul\":2089:2091   */\n      0x20\n        /* \"#utility.yul\":2084:2087   */\n      dup3\n        /* \"#utility.yul\":2080:2092   */\n      add\n        /* \"#utility.yul\":2073:2092   */\n      swap1\n      pop\n        /* \"#utility.yul\":1732:2098   */\n      swap2\n      swap1\n      pop\n      jump\t// out\n        /* \"#utility.yul\":2104:2523   */\n    tag_20:\n        /* \"#utility.yul\":2270:2274   */\n      0x00\n        /* \"#utility.yul\":2308:2310   */\n      0x20\n        /* \"#utility.yul\":2297:2306   */\n      dup3\n        /* \"#utility.yul\":2293:2311   */\n      add\n        /* \"#utility.yul\":2285:2311   */\n      swap1\n      pop\n        /* \"#utility.yul\":2357:2366   */\n      dup2\n        /* \"#utility.yul\":2351:2355   */\n      dup2\n        /* \"#utility.yul\":2347:2367   */\n      sub\n        /* \"#utility.yul\":2343:2344   */\n      0x00\n        /* \"#utility.yul\":2332:2341   */\n      dup4\n        /* \"#utility.yul\":2328:2345   */\n      add\n        /* \"#utility.yul\":2321:2368   */\n      mstore\n        /* \"#utility.yul\":2385:2516   */\n      tag_59\n        /* \"#utility.yul\":2511:2515   */\n      dup2\n        /* \"#utility.yul\":2385:2516   */\n      tag_33\n      jump\t// in\n    tag_59:\n        /* \"#utility.yul\":2377:2516   */\n      swap1\n      pop\n        /* \"#utility.yul\":2104:2523   */\n      swap2\n      swap1\n      pop\n      jump\t// out\n        /* \"#utility.yul\":2529:2709   */\n    tag_34:\n        /* \"#utility.yul\":2577:2654   */\n      0x4e487b7100000000000000000000000000000000000000000000000000000000\n        /* \"#utility.yul\":2574:2575   */\n      0x00\n        /* \"#utility.yul\":2567:2655   */\n      mstore\n        /* \"#utility.yul\":2674:2678   */\n      0x11\n        /* \"#utility.yul\":2671:2672   */\n      0x04\n        /* \"#utility.yul\":2664:2679   */\n      mstore\n        /* \"#utility.yul\":2698:2702   */\n      0x24\n        /* \"#utility.yul\":2695:2696   */\n      0x00\n        /* \"#utility.yul\":2688:2703   */\n      revert\n        /* \"#utility.yul\":2715:2906   */\n    tag_22:\n        /* \"#utility.yul\":2755:2758   */\n      0x00\n        /* \"#utility.yul\":2774:2794   */\n      tag_62\n        /* \"#utility.yul\":2792:2793   */\n      dup3\n        /* \"#utility.yul\":2774:2794   */\n      tag_27\n      jump\t// in\n    tag_62:\n        /* \"#utility.yul\":2769:2794   */\n      swap2\n      pop\n        /* \"#utility.yul\":2808:2828   */\n      tag_63\n        /* \"#utility.yul\":2826:2827   */\n      dup4\n        /* \"#utility.yul\":2808:2828   */\n      tag_27\n      jump\t// in\n    tag_63:\n        /* \"#utility.yul\":2803:2828   */\n      swap3\n      pop\n        /* \"#utility.yul\":2851:2852   */\n      dup3\n        /* \"#utility.yul\":2848:2849   */\n      dup3\n        /* \"#utility.yul\":2844:2853   */\n      add\n        /* \"#utility.yul\":2837:2853   */\n      swap1\n      pop\n        /* \"#utility.yul\":2872:2875   */\n      dup1\n        /* \"#utility.yul\":2869:2870   */\n      dup3\n        /* \"#utility.yul\":2866:2876   */\n      gt\n        /* \"#utility.yul\":2863:2899   */\n      iszero\n      tag_64\n      jumpi\n        /* \"#utility.yul\":2879:2897   */\n      tag_65\n      tag_34\n      jump\t// in\n    tag_65:\n        /* \"#utility.yul\":2863:2899   */\n    tag_64:\n        /* \"#utility.yul\":2715:2906   */\n      swap3\n      swap2\n      pop\n      pop\n      jump\t// out\n\n    auxdata: 0xa2646970667358221220d957fd82babecce28c313f8f173307fa6b5a8002bb0a24d9b0f0a9d74da306f064736f6c634300081a0033\n}\n",
				"bytecode": {
					"linkReferences": {},
					"object": "6080604052348015600e575f80fd5b505f808190555061029c806100225f395ff3fe608060405234801561000f575f80fd5b506004361061003f575f3560e01c80631003e2d21461004357806361bc221a1461005f5780636d4ce63c1461007d575b5f80fd5b61005d6004803603810190610058919061013b565b61009b565b005b6100676100f7565b6040516100749190610175565b60405180910390f35b6100856100fc565b6040516100929190610175565b60405180910390f35b5f81116100dd576040517f08c379a00000000000000000000000000000000000000000000000000000000081526004016100d4906101e8565b60405180910390fd5b805f808282546100ed9190610233565b9250508190555050565b5f5481565b5f8054905090565b5f80fd5b5f819050919050565b61011a81610108565b8114610124575f80fd5b50565b5f8135905061013581610111565b92915050565b5f602082840312156101505761014f610104565b5b5f61015d84828501610127565b91505092915050565b61016f81610108565b82525050565b5f6020820190506101885f830184610166565b92915050565b5f82825260208201905092915050565b7f78206d7573742062652067726561746572207468616e203000000000000000005f82015250565b5f6101d260188361018e565b91506101dd8261019e565b602082019050919050565b5f6020820190508181035f8301526101ff816101c6565b9050919050565b7f4e487b71000000000000000000000000000000000000000000000000000000005f52601160045260245ffd5b5f61023d82610108565b915061024883610108565b92508282019050808211156102605761025f610206565b5b9291505056fea2646970667358221220d957fd82babecce28c313f8f173307fa6b5a8002bb0a24d9b0f0a9d74da306f064736f6c634300081a0033",
					"opcodes": "PUSH1 0x80 PUSH1 0x40 MSTORE CALLVALUE DUP1 ISZERO PUSH1 0xE JUMPI PUSH0 DUP1 REVERT JUMPDEST POP PUSH0 DUP1 DUP2 SWAP1 SSTORE POP PUSH2 0x29C DUP1 PUSH2 0x22 PUSH0 CODECOPY PUSH0 RETURN INVALID PUSH1 0x80 PUSH1 0x40 MSTORE CALLVALUE DUP1 ISZERO PUSH2 0xF JUMPI PUSH0 DUP1 REVERT JUMPDEST POP PUSH1 0x4 CALLDATASIZE LT PUSH2 0x3F JUMPI PUSH0 CALLDATALOAD PUSH1 0xE0 SHR DUP1 PUSH4 0x1003E2D2 EQ PUSH2 0x43 JUMPI DUP1 PUSH4 0x61BC221A EQ PUSH2 0x5F JUMPI DUP1 PUSH4 0x6D4CE63C EQ PUSH2 0x7D JUMPI JUMPDEST PUSH0 DUP1 REVERT JUMPDEST PUSH2 0x5D PUSH1 0x4 DUP1 CALLDATASIZE SUB DUP2 ADD SWAP1 PUSH2 0x58 SWAP2 SWAP1 PUSH2 0x13B JUMP JUMPDEST PUSH2 0x9B JUMP JUMPDEST STOP JUMPDEST PUSH2 0x67 PUSH2 0xF7 JUMP JUMPDEST PUSH1 0x40 MLOAD PUSH2 0x74 SWAP2 SWAP1 PUSH2 0x175 JUMP JUMPDEST PUSH1 0x40 MLOAD DUP1 SWAP2 SUB SWAP1 RETURN JUMPDEST PUSH2 0x85 PUSH2 0xFC JUMP JUMPDEST PUSH1 0x40 MLOAD PUSH2 0x92 SWAP2 SWAP1 PUSH2 0x175 JUMP JUMPDEST PUSH1 0x40 MLOAD DUP1 SWAP2 SUB SWAP1 RETURN JUMPDEST PUSH0 DUP2 GT PUSH2 0xDD JUMPI PUSH1 0x40 MLOAD PUSH32 0x8C379A000000000000000000000000000000000000000000000000000000000 DUP2 MSTORE PUSH1 0x4 ADD PUSH2 0xD4 SWAP1 PUSH2 0x1E8 JUMP JUMPDEST PUSH1 0x40 MLOAD DUP1 SWAP2 SUB SWAP1 REVERT JUMPDEST DUP1 PUSH0 DUP1 DUP3 DUP3 SLOAD PUSH2 0xED SWAP2 SWAP1 PUSH2 0x233 JUMP JUMPDEST SWAP3 POP POP DUP2 SWAP1 SSTORE POP POP JUMP JUMPDEST PUSH0 SLOAD DUP2 JUMP JUMPDEST PUSH0 DUP1 SLOAD SWAP1 POP SWAP1 JUMP JUMPDEST PUSH0 DUP1 REVERT JUMPDEST PUSH0 DUP2 SWAP1 POP SWAP2 SWAP1 POP JUMP JUMPDEST PUSH2 0x11A DUP2 PUSH2 0x108 JUMP JUMPDEST DUP2 EQ PUSH2 0x124 JUMPI PUSH0 DUP1 REVERT JUMPDEST POP JUMP JUMPDEST PUSH0 DUP2 CALLDATALOAD SWAP1 POP PUSH2 0x135 DUP2 PUSH2 0x111 JUMP JUMPDEST SWAP3 SWAP2 POP POP JUMP JUMPDEST PUSH0 PUSH1 0x20 DUP3 DUP5 SUB SLT ISZERO PUSH2 0x150 JUMPI PUSH2 0x14F PUSH2 0x104 JUMP JUMPDEST JUMPDEST PUSH0 PUSH2 0x15D DUP5 DUP3 DUP6 ADD PUSH2 0x127 JUMP JUMPDEST SWAP2 POP POP SWAP3 SWAP2 POP POP JUMP JUMPDEST PUSH2 0x16F DUP2 PUSH2 0x108 JUMP JUMPDEST DUP3 MSTORE POP POP JUMP JUMPDEST PUSH0 PUSH1 0x20 DUP3 ADD SWAP1 POP PUSH2 0x188 PUSH0 DUP4 ADD DUP5 PUSH2 0x166 JUMP JUMPDEST SWAP3 SWAP2 POP POP JUMP JUMPDEST PUSH0 DUP3 DUP3 MSTORE PUSH1 0x20 DUP3 ADD SWAP1 POP SWAP3 SWAP2 POP POP JUMP JUMPDEST PUSH32 0x78206D7573742062652067726561746572207468616E20300000000000000000 PUSH0 DUP3 ADD MSTORE POP JUMP JUMPDEST PUSH0 PUSH2 0x1D2 PUSH1 0x18 DUP4 PUSH2 0x18E JUMP JUMPDEST SWAP2 POP PUSH2 0x1DD DUP3 PUSH2 0x19E JUMP JUMPDEST PUSH1 0x20 DUP3 ADD SWAP1 POP SWAP2 SWAP1 POP JUMP JUMPDEST PUSH0 PUSH1 0x20 DUP3 ADD SWAP1 POP DUP2 DUP2 SUB PUSH0 DUP4 ADD MSTORE PUSH2 0x1FF DUP2 PUSH2 0x1C6 JUMP JUMPDEST SWAP1 POP SWAP2 SWAP1 POP JUMP JUMPDEST PUSH32 0x4E487B7100000000000000000000000000000000000000000000000000000000 PUSH0 MSTORE PUSH1 0x11 PUSH1 0x4 MSTORE PUSH1 0x24 PUSH0 REVERT JUMPDEST PUSH0 PUSH2 0x23D DUP3 PUSH2 0x108 JUMP JUMPDEST SWAP2 POP PUSH2 0x248 DUP4 PUSH2 0x108 JUMP JUMPDEST SWAP3 POP DUP3 DUP3 ADD SWAP1 POP DUP1 DUP3 GT ISZERO PUSH2 0x260 JUMPI PUSH2 0x25F PUSH2 0x206 JUMP JUMPDEST JUMPDEST SWAP3 SWAP2 POP POP JUMP INVALID LOG2 PUSH5 0x6970667358 0x22 SLT KECCAK256 0xD9 JUMPI REVERT DUP3 0xBA 0xBE 0xCC 0xE2 DUP13 BALANCE EXTCODEHASH DUP16 OR CALLER SMOD STATICCALL PUSH12 0x5A8002BB0A24D9B0F0A9D74D LOG3 MOD CREATE PUSH5 0x736F6C6343 STOP ADDMOD BYTE STOP CALLER "
				},
				"gasEstimates": {
					"creation": {
						"codeDepositCost": "133600",
						"executionCost": "5188",
						"totalCost": "138788"
					},
					"external": {
						"add(uint256)": "infinite",
						"counter()": "2424",
						"get()": "2454"
					}
				},
				"methodIdentifiers": {
					"add(uint256)": "1003e2d2",
					"counter()": "61bc221a",
					"get()": "6d4ce63c"
				}
			},
			"storageLayout": {
				"storage": [
					{
						"astId": 3,
						"contract": "CounterContract/Counter.sol:Counter",
						"label": "counter",
						"offset": 0,
						"slot": "0",
						"type": "t_uint256"
					}
				],
				"types": {
					"t_uint256": {
						"encoding": "inplace",
						"label": "uint256",
						"numberOfBytes": "32"
					}
				}
			},
			"userdoc": {
				"kind": "user",
				"methods": {},
				"version": 1
			}
		}
	}
}