{
	"src/chapter-006/ERC20WithCallback.sol": {
		"ERC20WithCallback": {
			"abi": [
				{
					"inputs": [
						{
							"internalType": "string",
							"name": "name",
							"type": "string"
						},
						{
							"internalType": "string",
							"name": "symbol",
							"type": "string"
						}
					],
					"stateMutability": "nonpayable",
					"type": "constructor"
				},
				{
					"inputs": [
						{
							"internalType": "address",
							"name": "spender",
							"type": "address"
						},
						{
							"internalType": "uint256",
							"name": "allowance",
							"type": "uint256"
						},
						{
							"internalType": "uint256",
							"name": "needed",
							"type": "uint256"
						}
					],
					"name": "ERC20InsufficientAllowance",
					"type": "error"
				},
				{
					"inputs": [
						{
							"internalType": "address",
							"name": "sender",
							"type": "address"
						},
						{
							"internalType": "uint256",
							"name": "balance",
							"type": "uint256"
						},
						{
							"internalType": "uint256",
							"name": "needed",
							"type": "uint256"
						}
					],
					"name": "ERC20InsufficientBalance",
					"type": "error"
				},
				{
					"inputs": [
						{
							"internalType": "address",
							"name": "approver",
							"type": "address"
						}
					],
					"name": "ERC20InvalidApprover",
					"type": "error"
				},
				{
					"inputs": [
						{
							"internalType": "address",
							"name": "receiver",
							"type": "address"
						}
					],
					"name": "ERC20InvalidReceiver",
					"type": "error"
				},
				{
					"inputs": [
						{
							"internalType": "address",
							"name": "sender",
							"type": "address"
						}
					],
					"name": "ERC20InvalidSender",
					"type": "error"
				},
				{
					"inputs": [
						{
							"internalType": "address",
							"name": "spender",
							"type": "address"
						}
					],
					"name": "ERC20InvalidSpender",
					"type": "error"
				},
				{
					"anonymous": false,
					"inputs": [
						{
							"indexed": true,
							"internalType": "address",
							"name": "owner",
							"type": "address"
						},
						{
							"indexed": true,
							"internalType": "address",
							"name": "spender",
							"type": "address"
						},
						{
							"indexed": false,
							"internalType": "uint256",
							"name": "value",
							"type": "uint256"
						}
					],
					"name": "Approval",
					"type": "event"
				},
				{
					"anonymous": false,
					"inputs": [
						{
							"indexed": true,
							"internalType": "address",
							"name": "from",
							"type": "address"
						},
						{
							"indexed": false,
							"internalType": "uint256",
							"name": "amount",
							"type": "uint256"
						}
					],
					"name": "Received",
					"type": "event"
				},
				{
					"anonymous": false,
					"inputs": [
						{
							"indexed": true,
							"internalType": "address",
							"name": "from",
							"type": "address"
						},
						{
							"indexed": true,
							"internalType": "address",
							"name": "to",
							"type": "address"
						},
						{
							"indexed": false,
							"internalType": "uint256",
							"name": "value",
							"type": "uint256"
						}
					],
					"name": "Transfer",
					"type": "event"
				},
				{
					"inputs": [
						{
							"internalType": "address",
							"name": "_owner",
							"type": "address"
						},
						{
							"internalType": "address",
							"name": "_spender",
							"type": "address"
						}
					],
					"name": "allowance",
					"outputs": [
						{
							"internalType": "uint256",
							"name": "remaining",
							"type": "uint256"
						}
					],
					"stateMutability": "view",
					"type": "function"
				},
				{
					"inputs": [
						{
							"internalType": "address",
							"name": "_spender",
							"type": "address"
						},
						{
							"internalType": "uint256",
							"name": "_value",
							"type": "uint256"
						}
					],
					"name": "approve",
					"outputs": [
						{
							"internalType": "bool",
							"name": "success",
							"type": "bool"
						}
					],
					"stateMutability": "nonpayable",
					"type": "function"
				},
				{
					"inputs": [
						{
							"internalType": "address",
							"name": "_owner",
							"type": "address"
						}
					],
					"name": "balanceOf",
					"outputs": [
						{
							"internalType": "uint256",
							"name": "balance",
							"type": "uint256"
						}
					],
					"stateMutability": "view",
					"type": "function"
				},
				{
					"inputs": [],
					"name": "decimals",
					"outputs": [
						{
							"internalType": "uint8",
							"name": "",
							"type": "uint8"
						}
					],
					"stateMutability": "view",
					"type": "function"
				},
				{
					"inputs": [
						{
							"internalType": "address",
							"name": "_to",
							"type": "address"
						},
						{
							"internalType": "uint256",
							"name": "_value",
							"type": "uint256"
						}
					],
					"name": "transfer",
					"outputs": [
						{
							"internalType": "bool",
							"name": "success",
							"type": "bool"
						}
					],
					"stateMutability": "nonpayable",
					"type": "function"
				},
				{
					"inputs": [
						{
							"internalType": "address",
							"name": "_from",
							"type": "address"
						},
						{
							"internalType": "address",
							"name": "_to",
							"type": "address"
						},
						{
							"internalType": "uint256",
							"name": "_value",
							"type": "uint256"
						}
					],
					"name": "transferFrom",
					"outputs": [
						{
							"internalType": "bool",
							"name": "success",
							"type": "bool"
						}
					],
					"stateMutability": "nonpayable",
					"type": "function"
				},
				{
					"inputs": [
						{
							"internalType": "address",
							"name": "to",
							"type": "address"
						},
						{
							"internalType": "uint256",
							"name": "amount",
							"type": "uint256"
						},
						{
							"internalType": "bytes",
							"name": "data",
							"type": "bytes"
						}
					],
					"name": "transferWithCallback",
					"outputs": [
						{
							"internalType": "bool",
							"name": "",
							"type": "bool"
						}
					],
					"stateMutability": "nonpayable",
					"type": "function"
				}
			],
			"devdoc": {
				"errors": {
					"ERC20InsufficientAllowance(address,uint256,uint256)": [
						{
							"details": "Indicates a failure with the `spender`’s `allowance`. Used in transfers.",
							"params": {
								"allowance": "Amount of tokens a `spender` is allowed to operate with.",
								"needed": "Minimum amount required to perform a transfer.",
								"spender": "Address that may be allowed to operate on tokens without being their owner."
							}
						}
					],
					"ERC20InsufficientBalance(address,uint256,uint256)": [
						{
							"details": "Indicates an error related to the current `balance` of a `sender`. Used in transfers.",
							"params": {
								"balance": "Current balance for the interacting account.",
								"needed": "Minimum amount required to perform a transfer.",
								"sender": "Address whose tokens are being transferred."
							}
						}
					],
					"ERC20InvalidApprover(address)": [
						{
							"details": "Indicates a failure with the `approver` of a token to be approved. Used in approvals.",
							"params": {
								"approver": "Address initiating an approval operation."
							}
						}
					],
					"ERC20InvalidReceiver(address)": [
						{
							"details": "Indicates a failure with the token `receiver`. Used in transfers.",
							"params": {
								"receiver": "Address to which tokens are being transferred."
							}
						}
					],
					"ERC20InvalidSender(address)": [
						{
							"details": "Indicates a failure with the token `sender`. Used in transfers.",
							"params": {
								"sender": "Address whose tokens are being transferred."
							}
						}
					],
					"ERC20InvalidSpender(address)": [
						{
							"details": "Indicates a failure with the `spender` to be approved. Used in approvals.",
							"params": {
								"spender": "Address that may be allowed to operate on tokens without being their owner."
							}
						}
					]
				},
				"kind": "dev",
				"methods": {},
				"version": 1
			},
			"evm": {
				"assembly": "    /* \"src/chapter-006/ERC20WithCallback.sol\":256:1187  contract ERC20WithCallback is BaseERC20 {... */\n  mstore(0x40, 0x80)\n    /* \"src/BaseERC20.sol\":330:332  18 */\n  0x12\n    /* \"src/BaseERC20.sol\":306:332  uint8 public decimals = 18 */\n  0x03\n  exp(0x0100, 0x00)\n  dup2\n  sload\n  dup2\n  0xff\n  mul\n  not\n  and\n  swap1\n  dup4\n  0xff\n  and\n  mul\n  or\n  swap1\n  sstore\n  pop\n    /* \"src/chapter-006/ERC20WithCallback.sol\":302:388  constructor(string memory name, string memory symbol) BaseERC20(name, symbol) {... */\n  callvalue\n  dup1\n  iszero\n  tag_1\n  jumpi\n  0x00\n  dup1\n  revert\ntag_1:\n  pop\n  mload(0x40)\n  sub(codesize, bytecodeSize)\n  dup1\n  bytecodeSize\n  dup4\n  codecopy\n  dup2\n  dup2\n  add\n  0x40\n  mstore\n  dup2\n  add\n  swap1\n  tag_2\n  swap2\n  swap1\n  tag_3\n  jump\t// in\ntag_2:\n    /* \"src/chapter-006/ERC20WithCallback.sol\":366:370  name */\n  dup2\n    /* \"src/chapter-006/ERC20WithCallback.sol\":372:378  symbol */\n  dup2\n    /* \"src/BaseERC20.sol\":687:692  name_ */\n  dup2\n    /* \"src/BaseERC20.sol\":680:684  name */\n  0x00\n    /* \"src/BaseERC20.sol\":680:692  name = name_ */\n  swap1\n  dup2\n  tag_7\n  swap2\n  swap1\n  tag_8\n  jump\t// in\ntag_7:\n  pop\n    /* \"src/BaseERC20.sol\":711:718  symbol_ */\n  dup1\n    /* \"src/BaseERC20.sol\":702:708  symbol */\n  0x01\n    /* \"src/BaseERC20.sol\":702:718  symbol = symbol_ */\n  swap1\n  dup2\n  tag_9\n  swap2\n  swap1\n  tag_8\n  jump\t// in\ntag_9:\n  pop\n    /* \"src/BaseERC20.sol\":614:725  constructor(string memory name_, string memory symbol_) {... */\n  pop\n  pop\n    /* \"src/chapter-006/ERC20WithCallback.sol\":302:388  constructor(string memory name, string memory symbol) BaseERC20(name, symbol) {... */\n  pop\n  pop\n    /* \"src/chapter-006/ERC20WithCallback.sol\":256:1187  contract ERC20WithCallback is BaseERC20 {... */\n  jump(tag_11)\n    /* \"#utility.yul\":7:82   */\ntag_12:\n    /* \"#utility.yul\":40:46   */\n  0x00\n    /* \"#utility.yul\":73:75   */\n  0x40\n    /* \"#utility.yul\":67:76   */\n  mload\n    /* \"#utility.yul\":57:76   */\n  swap1\n  pop\n    /* \"#utility.yul\":7:82   */\n  swap1\n  jump\t// out\n    /* \"#utility.yul\":88:205   */\ntag_13:\n    /* \"#utility.yul\":197:198   */\n  0x00\n    /* \"#utility.yul\":194:195   */\n  dup1\n    /* \"#utility.yul\":187:199   */\n  revert\n    /* \"#utility.yul\":211:328   */\ntag_14:\n    /* \"#utility.yul\":320:321   */\n  0x00\n    /* \"#utility.yul\":317:318   */\n  dup1\n    /* \"#utility.yul\":310:322   */\n  revert\n    /* \"#utility.yul\":334:451   */\ntag_15:\n    /* \"#utility.yul\":443:444   */\n  0x00\n    /* \"#utility.yul\":440:441   */\n  dup1\n    /* \"#utility.yul\":433:445   */\n  revert\n    /* \"#utility.yul\":457:574   */\ntag_16:\n    /* \"#utility.yul\":566:567   */\n  0x00\n    /* \"#utility.yul\":563:564   */\n  dup1\n    /* \"#utility.yul\":556:568   */\n  revert\n    /* \"#utility.yul\":580:682   */\ntag_17:\n    /* \"#utility.yul\":621:627   */\n  0x00\n    /* \"#utility.yul\":672:674   */\n  0x1f\n    /* \"#utility.yul\":668:675   */\n  not\n    /* \"#utility.yul\":663:665   */\n  0x1f\n    /* \"#utility.yul\":656:661   */\n  dup4\n    /* \"#utility.yul\":652:666   */\n  add\n    /* \"#utility.yul\":648:676   */\n  and\n    /* \"#utility.yul\":638:676   */\n  swap1\n  pop\n    /* \"#utility.yul\":580:682   */\n  swap2\n  swap1\n  pop\n  jump\t// out\n    /* \"#utility.yul\":688:868   */\ntag_18:\n    /* \"#utility.yul\":736:813   */\n  0x4e487b7100000000000000000000000000000000000000000000000000000000\n    /* \"#utility.yul\":733:734   */\n  0x00\n    /* \"#utility.yul\":726:814   */\n  mstore\n    /* \"#utility.yul\":833:837   */\n  0x41\n    /* \"#utility.yul\":830:831   */\n  0x04\n    /* \"#utility.yul\":823:838   */\n  mstore\n    /* \"#utility.yul\":857:861   */\n  0x24\n    /* \"#utility.yul\":854:855   */\n  0x00\n    /* \"#utility.yul\":847:862   */\n  revert\n    /* \"#utility.yul\":874:1155   */\ntag_19:\n    /* \"#utility.yul\":957:984   */\n  tag_53\n    /* \"#utility.yul\":979:983   */\n  dup3\n    /* \"#utility.yul\":957:984   */\n  tag_17\n  jump\t// in\ntag_53:\n    /* \"#utility.yul\":949:955   */\n  dup2\n    /* \"#utility.yul\":945:985   */\n  add\n    /* \"#utility.yul\":1087:1093   */\n  dup2\n    /* \"#utility.yul\":1075:1085   */\n  dup2\n    /* \"#utility.yul\":1072:1094   */\n  lt\n    /* \"#utility.yul\":1051:1069   */\n  0xffffffffffffffff\n    /* \"#utility.yul\":1039:1049   */\n  dup3\n    /* \"#utility.yul\":1036:1070   */\n  gt\n    /* \"#utility.yul\":1033:1095   */\n  or\n    /* \"#utility.yul\":1030:1118   */\n  iszero\n  tag_54\n  jumpi\n    /* \"#utility.yul\":1098:1116   */\n  tag_55\n  tag_18\n  jump\t// in\ntag_55:\n    /* \"#utility.yul\":1030:1118   */\ntag_54:\n    /* \"#utility.yul\":1138:1148   */\n  dup1\n    /* \"#utility.yul\":1134:1136   */\n  0x40\n    /* \"#utility.yul\":1127:1149   */\n  mstore\n    /* \"#utility.yul\":917:1155   */\n  pop\n    /* \"#utility.yul\":874:1155   */\n  pop\n  pop\n  jump\t// out\n    /* \"#utility.yul\":1161:1290   */\ntag_20:\n    /* \"#utility.yul\":1195:1201   */\n  0x00\n    /* \"#utility.yul\":1222:1242   */\n  tag_57\n  tag_12\n  jump\t// in\ntag_57:\n    /* \"#utility.yul\":1212:1242   */\n  swap1\n  pop\n    /* \"#utility.yul\":1251:1284   */\n  tag_58\n    /* \"#utility.yul\":1279:1283   */\n  dup3\n    /* \"#utility.yul\":1271:1277   */\n  dup3\n    /* \"#utility.yul\":1251:1284   */\n  tag_19\n  jump\t// in\ntag_58:\n    /* \"#utility.yul\":1161:1290   */\n  swap2\n  swap1\n  pop\n  jump\t// out\n    /* \"#utility.yul\":1296:1604   */\ntag_21:\n    /* \"#utility.yul\":1358:1362   */\n  0x00\n    /* \"#utility.yul\":1448:1466   */\n  0xffffffffffffffff\n    /* \"#utility.yul\":1440:1446   */\n  dup3\n    /* \"#utility.yul\":1437:1467   */\n  gt\n    /* \"#utility.yul\":1434:1490   */\n  iszero\n  tag_60\n  jumpi\n    /* \"#utility.yul\":1470:1488   */\n  tag_61\n  tag_18\n  jump\t// in\ntag_61:\n    /* \"#utility.yul\":1434:1490   */\ntag_60:\n    /* \"#utility.yul\":1508:1537   */\n  tag_62\n    /* \"#utility.yul\":1530:1536   */\n  dup3\n    /* \"#utility.yul\":1508:1537   */\n  tag_17\n  jump\t// in\ntag_62:\n    /* \"#utility.yul\":1500:1537   */\n  swap1\n  pop\n    /* \"#utility.yul\":1592:1596   */\n  0x20\n    /* \"#utility.yul\":1586:1590   */\n  dup2\n    /* \"#utility.yul\":1582:1597   */\n  add\n    /* \"#utility.yul\":1574:1597   */\n  swap1\n  pop\n    /* \"#utility.yul\":1296:1604   */\n  swap2\n  swap1\n  pop\n  jump\t// out\n    /* \"#utility.yul\":1610:1749   */\ntag_22:\n    /* \"#utility.yul\":1699:1705   */\n  dup3\n    /* \"#utility.yul\":1694:1697   */\n  dup2\n    /* \"#utility.yul\":1689:1692   */\n  dup4\n    /* \"#utility.yul\":1683:1706   */\n  mcopy\n    /* \"#utility.yul\":1740:1741   */\n  0x00\n    /* \"#utility.yul\":1731:1737   */\n  dup4\n    /* \"#utility.yul\":1726:1729   */\n  dup4\n    /* \"#utility.yul\":1722:1738   */\n  add\n    /* \"#utility.yul\":1715:1742   */\n  mstore\n    /* \"#utility.yul\":1610:1749   */\n  pop\n  pop\n  pop\n  jump\t// out\n    /* \"#utility.yul\":1755:2189   */\ntag_23:\n    /* \"#utility.yul\":1844:1849   */\n  0x00\n    /* \"#utility.yul\":1869:1935   */\n  tag_65\n    /* \"#utility.yul\":1885:1934   */\n  tag_66\n    /* \"#utility.yul\":1927:1933   */\n  dup5\n    /* \"#utility.yul\":1885:1934   */\n  tag_21\n  jump\t// in\ntag_66:\n    /* \"#utility.yul\":1869:1935   */\n  tag_20\n  jump\t// in\ntag_65:\n    /* \"#utility.yul\":1860:1935   */\n  swap1\n  pop\n    /* \"#utility.yul\":1958:1964   */\n  dup3\n    /* \"#utility.yul\":1951:1956   */\n  dup2\n    /* \"#utility.yul\":1944:1965   */\n  mstore\n    /* \"#utility.yul\":1996:2000   */\n  0x20\n    /* \"#utility.yul\":1989:1994   */\n  dup2\n    /* \"#utility.yul\":1985:2001   */\n  add\n    /* \"#utility.yul\":2034:2037   */\n  dup5\n    /* \"#utility.yul\":2025:2031   */\n  dup5\n    /* \"#utility.yul\":2020:2023   */\n  dup5\n    /* \"#utility.yul\":2016:2032   */\n  add\n    /* \"#utility.yul\":2013:2038   */\n  gt\n    /* \"#utility.yul\":2010:2122   */\n  iszero\n  tag_67\n  jumpi\n    /* \"#utility.yul\":2041:2120   */\n  tag_68\n  tag_16\n  jump\t// in\ntag_68:\n    /* \"#utility.yul\":2010:2122   */\ntag_67:\n    /* \"#utility.yul\":2131:2183   */\n  tag_69\n    /* \"#utility.yul\":2176:2182   */\n  dup5\n    /* \"#utility.yul\":2171:2174   */\n  dup3\n    /* \"#utility.yul\":2166:2169   */\n  dup6\n    /* \"#utility.yul\":2131:2183   */\n  tag_22\n  jump\t// in\ntag_69:\n    /* \"#utility.yul\":1850:2189   */\n  pop\n    /* \"#utility.yul\":1755:2189   */\n  swap4\n  swap3\n  pop\n  pop\n  pop\n  jump\t// out\n    /* \"#utility.yul\":2209:2564   */\ntag_24:\n    /* \"#utility.yul\":2276:2281   */\n  0x00\n    /* \"#utility.yul\":2325:2328   */\n  dup3\n    /* \"#utility.yul\":2318:2322   */\n  0x1f\n    /* \"#utility.yul\":2310:2316   */\n  dup4\n    /* \"#utility.yul\":2306:2323   */\n  add\n    /* \"#utility.yul\":2302:2329   */\n  slt\n    /* \"#utility.yul\":2292:2414   */\n  tag_71\n  jumpi\n    /* \"#utility.yul\":2333:2412   */\n  tag_72\n  tag_15\n  jump\t// in\ntag_72:\n    /* \"#utility.yul\":2292:2414   */\ntag_71:\n    /* \"#utility.yul\":2443:2449   */\n  dup2\n    /* \"#utility.yul\":2437:2450   */\n  mload\n    /* \"#utility.yul\":2468:2558   */\n  tag_73\n    /* \"#utility.yul\":2554:2557   */\n  dup5\n    /* \"#utility.yul\":2546:2552   */\n  dup3\n    /* \"#utility.yul\":2539:2543   */\n  0x20\n    /* \"#utility.yul\":2531:2537   */\n  dup7\n    /* \"#utility.yul\":2527:2544   */\n  add\n    /* \"#utility.yul\":2468:2558   */\n  tag_23\n  jump\t// in\ntag_73:\n    /* \"#utility.yul\":2459:2558   */\n  swap2\n  pop\n    /* \"#utility.yul\":2282:2564   */\n  pop\n    /* \"#utility.yul\":2209:2564   */\n  swap3\n  swap2\n  pop\n  pop\n  jump\t// out\n    /* \"#utility.yul\":2570:3423   */\ntag_3:\n    /* \"#utility.yul\":2669:2675   */\n  0x00\n    /* \"#utility.yul\":2677:2683   */\n  dup1\n    /* \"#utility.yul\":2726:2728   */\n  0x40\n    /* \"#utility.yul\":2714:2723   */\n  dup4\n    /* \"#utility.yul\":2705:2712   */\n  dup6\n    /* \"#utility.yul\":2701:2724   */\n  sub\n    /* \"#utility.yul\":2697:2729   */\n  slt\n    /* \"#utility.yul\":2694:2813   */\n  iszero\n  tag_75\n  jumpi\n    /* \"#utility.yul\":2732:2811   */\n  tag_76\n  tag_13\n  jump\t// in\ntag_76:\n    /* \"#utility.yul\":2694:2813   */\ntag_75:\n    /* \"#utility.yul\":2873:2874   */\n  0x00\n    /* \"#utility.yul\":2862:2871   */\n  dup4\n    /* \"#utility.yul\":2858:2875   */\n  add\n    /* \"#utility.yul\":2852:2876   */\n  mload\n    /* \"#utility.yul\":2903:2921   */\n  0xffffffffffffffff\n    /* \"#utility.yul\":2895:2901   */\n  dup2\n    /* \"#utility.yul\":2892:2922   */\n  gt\n    /* \"#utility.yul\":2889:3006   */\n  iszero\n  tag_77\n  jumpi\n    /* \"#utility.yul\":2925:3004   */\n  tag_78\n  tag_14\n  jump\t// in\ntag_78:\n    /* \"#utility.yul\":2889:3006   */\ntag_77:\n    /* \"#utility.yul\":3030:3104   */\n  tag_79\n    /* \"#utility.yul\":3096:3103   */\n  dup6\n    /* \"#utility.yul\":3087:3093   */\n  dup3\n    /* \"#utility.yul\":3076:3085   */\n  dup7\n    /* \"#utility.yul\":3072:3094   */\n  add\n    /* \"#utility.yul\":3030:3104   */\n  tag_24\n  jump\t// in\ntag_79:\n    /* \"#utility.yul\":3020:3104   */\n  swap3\n  pop\n    /* \"#utility.yul\":2823:3114   */\n  pop\n    /* \"#utility.yul\":3174:3176   */\n  0x20\n    /* \"#utility.yul\":3163:3172   */\n  dup4\n    /* \"#utility.yul\":3159:3177   */\n  add\n    /* \"#utility.yul\":3153:3178   */\n  mload\n    /* \"#utility.yul\":3205:3223   */\n  0xffffffffffffffff\n    /* \"#utility.yul\":3197:3203   */\n  dup2\n    /* \"#utility.yul\":3194:3224   */\n  gt\n    /* \"#utility.yul\":3191:3308   */\n  iszero\n  tag_80\n  jumpi\n    /* \"#utility.yul\":3227:3306   */\n  tag_81\n  tag_14\n  jump\t// in\ntag_81:\n    /* \"#utility.yul\":3191:3308   */\ntag_80:\n    /* \"#utility.yul\":3332:3406   */\n  tag_82\n    /* \"#utility.yul\":3398:3405   */\n  dup6\n    /* \"#utility.yul\":3389:3395   */\n  dup3\n    /* \"#utility.yul\":3378:3387   */\n  dup7\n    /* \"#utility.yul\":3374:3396   */\n  add\n    /* \"#utility.yul\":3332:3406   */\n  tag_24\n  jump\t// in\ntag_82:\n    /* \"#utility.yul\":3322:3406   */\n  swap2\n  pop\n    /* \"#utility.yul\":3124:3416   */\n  pop\n    /* \"#utility.yul\":2570:3423   */\n  swap3\n  pop\n  swap3\n  swap1\n  pop\n  jump\t// out\n    /* \"#utility.yul\":3429:3528   */\ntag_25:\n    /* \"#utility.yul\":3481:3487   */\n  0x00\n    /* \"#utility.yul\":3515:3520   */\n  dup2\n    /* \"#utility.yul\":3509:3521   */\n  mload\n    /* \"#utility.yul\":3499:3521   */\n  swap1\n  pop\n    /* \"#utility.yul\":3429:3528   */\n  swap2\n  swap1\n  pop\n  jump\t// out\n    /* \"#utility.yul\":3534:3714   */\ntag_26:\n    /* \"#utility.yul\":3582:3659   */\n  0x4e487b7100000000000000000000000000000000000000000000000000000000\n    /* \"#utility.yul\":3579:3580   */\n  0x00\n    /* \"#utility.yul\":3572:3660   */\n  mstore\n    /* \"#utility.yul\":3679:3683   */\n  0x22\n    /* \"#utility.yul\":3676:3677   */\n  0x04\n    /* \"#utility.yul\":3669:3684   */\n  mstore\n    /* \"#utility.yul\":3703:3707   */\n  0x24\n    /* \"#utility.yul\":3700:3701   */\n  0x00\n    /* \"#utility.yul\":3693:3708   */\n  revert\n    /* \"#utility.yul\":3720:4040   */\ntag_27:\n    /* \"#utility.yul\":3764:3770   */\n  0x00\n    /* \"#utility.yul\":3801:3802   */\n  0x02\n    /* \"#utility.yul\":3795:3799   */\n  dup3\n    /* \"#utility.yul\":3791:3803   */\n  div\n    /* \"#utility.yul\":3781:3803   */\n  swap1\n  pop\n    /* \"#utility.yul\":3848:3849   */\n  0x01\n    /* \"#utility.yul\":3842:3846   */\n  dup3\n    /* \"#utility.yul\":3838:3850   */\n  and\n    /* \"#utility.yul\":3869:3887   */\n  dup1\n    /* \"#utility.yul\":3859:3940   */\n  tag_86\n  jumpi\n    /* \"#utility.yul\":3925:3929   */\n  0x7f\n    /* \"#utility.yul\":3917:3923   */\n  dup3\n    /* \"#utility.yul\":3913:3930   */\n  and\n    /* \"#utility.yul\":3903:3930   */\n  swap2\n  pop\n    /* \"#utility.yul\":3859:3940   */\ntag_86:\n    /* \"#utility.yul\":3987:3989   */\n  0x20\n    /* \"#utility.yul\":3979:3985   */\n  dup3\n    /* \"#utility.yul\":3976:3990   */\n  lt\n    /* \"#utility.yul\":3956:3974   */\n  dup2\n    /* \"#utility.yul\":3953:3991   */\n  sub\n    /* \"#utility.yul\":3950:4034   */\n  tag_87\n  jumpi\n    /* \"#utility.yul\":4006:4024   */\n  tag_88\n  tag_26\n  jump\t// in\ntag_88:\n    /* \"#utility.yul\":3950:4034   */\ntag_87:\n    /* \"#utility.yul\":3771:4040   */\n  pop\n    /* \"#utility.yul\":3720:4040   */\n  swap2\n  swap1\n  pop\n  jump\t// out\n    /* \"#utility.yul\":4046:4187   */\ntag_28:\n    /* \"#utility.yul\":4095:4099   */\n  0x00\n    /* \"#utility.yul\":4118:4121   */\n  dup2\n    /* \"#utility.yul\":4110:4121   */\n  swap1\n  pop\n    /* \"#utility.yul\":4141:4144   */\n  dup2\n    /* \"#utility.yul\":4138:4139   */\n  0x00\n    /* \"#utility.yul\":4131:4145   */\n  mstore\n    /* \"#utility.yul\":4175:4179   */\n  0x20\n    /* \"#utility.yul\":4172:4173   */\n  0x00\n    /* \"#utility.yul\":4162:4180   */\n  keccak256\n    /* \"#utility.yul\":4154:4180   */\n  swap1\n  pop\n    /* \"#utility.yul\":4046:4187   */\n  swap2\n  swap1\n  pop\n  jump\t// out\n    /* \"#utility.yul\":4193:4286   */\ntag_29:\n    /* \"#utility.yul\":4230:4236   */\n  0x00\n    /* \"#utility.yul\":4277:4279   */\n  0x20\n    /* \"#utility.yul\":4272:4274   */\n  0x1f\n    /* \"#utility.yul\":4265:4270   */\n  dup4\n    /* \"#utility.yul\":4261:4275   */\n  add\n    /* \"#utility.yul\":4257:4280   */\n  div\n    /* \"#utility.yul\":4247:4280   */\n  swap1\n  pop\n    /* \"#utility.yul\":4193:4286   */\n  swap2\n  swap1\n  pop\n  jump\t// out\n    /* \"#utility.yul\":4292:4399   */\ntag_30:\n    /* \"#utility.yul\":4336:4344   */\n  0x00\n    /* \"#utility.yul\":4386:4391   */\n  dup3\n    /* \"#utility.yul\":4380:4384   */\n  dup3\n    /* \"#utility.yul\":4376:4392   */\n  shl\n    /* \"#utility.yul\":4355:4392   */\n  swap1\n  pop\n    /* \"#utility.yul\":4292:4399   */\n  swap3\n  swap2\n  pop\n  pop\n  jump\t// out\n    /* \"#utility.yul\":4405:4798   */\ntag_31:\n    /* \"#utility.yul\":4474:4480   */\n  0x00\n    /* \"#utility.yul\":4524:4525   */\n  0x08\n    /* \"#utility.yul\":4512:4522   */\n  dup4\n    /* \"#utility.yul\":4508:4526   */\n  mul\n    /* \"#utility.yul\":4547:4644   */\n  tag_93\n    /* \"#utility.yul\":4577:4643   */\n  0xffffffffffffffffffffffffffffffffffffffffffffffffffffffffffffffff\n    /* \"#utility.yul\":4566:4575   */\n  dup3\n    /* \"#utility.yul\":4547:4644   */\n  tag_30\n  jump\t// in\ntag_93:\n    /* \"#utility.yul\":4665:4704   */\n  tag_94\n    /* \"#utility.yul\":4695:4703   */\n  dup7\n    /* \"#utility.yul\":4684:4693   */\n  dup4\n    /* \"#utility.yul\":4665:4704   */\n  tag_30\n  jump\t// in\ntag_94:\n    /* \"#utility.yul\":4653:4704   */\n  swap6\n  pop\n    /* \"#utility.yul\":4737:4741   */\n  dup1\n    /* \"#utility.yul\":4733:4742   */\n  not\n    /* \"#utility.yul\":4726:4731   */\n  dup5\n    /* \"#utility.yul\":4722:4743   */\n  and\n    /* \"#utility.yul\":4713:4743   */\n  swap4\n  pop\n    /* \"#utility.yul\":4786:4790   */\n  dup1\n    /* \"#utility.yul\":4776:4784   */\n  dup7\n    /* \"#utility.yul\":4772:4791   */\n  and\n    /* \"#utility.yul\":4765:4770   */\n  dup5\n    /* \"#utility.yul\":4762:4792   */\n  or\n    /* \"#utility.yul\":4752:4792   */\n  swap3\n  pop\n    /* \"#utility.yul\":4481:4798   */\n  pop\n  pop\n    /* \"#utility.yul\":4405:4798   */\n  swap4\n  swap3\n  pop\n  pop\n  pop\n  jump\t// out\n    /* \"#utility.yul\":4804:4881   */\ntag_32:\n    /* \"#utility.yul\":4841:4848   */\n  0x00\n    /* \"#utility.yul\":4870:4875   */\n  dup2\n    /* \"#utility.yul\":4859:4875   */\n  swap1\n  pop\n    /* \"#utility.yul\":4804:4881   */\n  swap2\n  swap1\n  pop\n  jump\t// out\n    /* \"#utility.yul\":4887:4947   */\ntag_33:\n    /* \"#utility.yul\":4915:4918   */\n  0x00\n    /* \"#utility.yul\":4936:4941   */\n  dup2\n    /* \"#utility.yul\":4929:4941   */\n  swap1\n  pop\n    /* \"#utility.yul\":4887:4947   */\n  swap2\n  swap1\n  pop\n  jump\t// out\n    /* \"#utility.yul\":4953:5095   */\ntag_34:\n    /* \"#utility.yul\":5003:5012   */\n  0x00\n    /* \"#utility.yul\":5036:5089   */\n  tag_98\n    /* \"#utility.yul\":5054:5088   */\n  tag_99\n    /* \"#utility.yul\":5063:5087   */\n  tag_100\n    /* \"#utility.yul\":5081:5086   */\n  dup5\n    /* \"#utility.yul\":5063:5087   */\n  tag_32\n  jump\t// in\ntag_100:\n    /* \"#utility.yul\":5054:5088   */\n  tag_33\n  jump\t// in\ntag_99:\n    /* \"#utility.yul\":5036:5089   */\n  tag_32\n  jump\t// in\ntag_98:\n    /* \"#utility.yul\":5023:5089   */\n  swap1\n  pop\n    /* \"#utility.yul\":4953:5095   */\n  swap2\n  swap1\n  pop\n  jump\t// out\n    /* \"#utility.yul\":5101:5176   */\ntag_35:\n    /* \"#utility.yul\":5144:5147   */\n  0x00\n    /* \"#utility.yul\":5165:5170   */\n  dup2\n    /* \"#utility.yul\":5158:5170   */\n  swap1\n  pop\n    /* \"#utility.yul\":5101:5176   */\n  swap2\n  swap1\n  pop\n  jump\t// out\n    /* \"#utility.yul\":5182:5451   */\ntag_36:\n    /* \"#utility.yul\":5292:5331   */\n  tag_103\n    /* \"#utility.yul\":5323:5330   */\n  dup4\n    /* \"#utility.yul\":5292:5331   */\n  tag_34\n  jump\t// in\ntag_103:\n    /* \"#utility.yul\":5353:5444   */\n  tag_104\n    /* \"#utility.yul\":5402:5443   */\n  tag_105\n    /* \"#utility.yul\":5426:5442   */\n  dup3\n    /* \"#utility.yul\":5402:5443   */\n  tag_35\n  jump\t// in\ntag_105:\n    /* \"#utility.yul\":5394:5400   */\n  dup5\n    /* \"#utility.yul\":5387:5391   */\n  dup5\n    /* \"#utility.yul\":5381:5392   */\n  sload\n    /* \"#utility.yul\":5353:5444   */\n  tag_31\n  jump\t// in\ntag_104:\n    /* \"#utility.yul\":5347:5351   */\n  dup3\n    /* \"#utility.yul\":5340:5445   */\n  sstore\n    /* \"#utility.yul\":5258:5451   */\n  pop\n    /* \"#utility.yul\":5182:5451   */\n  pop\n  pop\n  pop\n  jump\t// out\n    /* \"#utility.yul\":5457:5530   */\ntag_37:\n    /* \"#utility.yul\":5502:5505   */\n  0x00\n    /* \"#utility.yul\":5457:5530   */\n  swap1\n  jump\t// out\n    /* \"#utility.yul\":5536:5725   */\ntag_38:\n    /* \"#utility.yul\":5613:5645   */\n  tag_108\n  tag_37\n  jump\t// in\ntag_108:\n    /* \"#utility.yul\":5654:5719   */\n  tag_109\n    /* \"#utility.yul\":5712:5718   */\n  dup2\n    /* \"#utility.yul\":5704:5710   */\n  dup5\n    /* \"#utility.yul\":5698:5702   */\n  dup5\n    /* \"#utility.yul\":5654:5719   */\n  tag_36\n  jump\t// in\ntag_109:\n    /* \"#utility.yul\":5589:5725   */\n  pop\n    /* \"#utility.yul\":5536:5725   */\n  pop\n  pop\n  jump\t// out\n    /* \"#utility.yul\":5731:5917   */\ntag_39:\n    /* \"#utility.yul\":5791:5911   */\ntag_111:\n    /* \"#utility.yul\":5808:5811   */\n  dup2\n    /* \"#utility.yul\":5801:5806   */\n  dup2\n    /* \"#utility.yul\":5798:5812   */\n  lt\n    /* \"#utility.yul\":5791:5911   */\n  iszero\n  tag_113\n  jumpi\n    /* \"#utility.yul\":5862:5901   */\n  tag_114\n    /* \"#utility.yul\":5899:5900   */\n  0x00\n    /* \"#utility.yul\":5892:5897   */\n  dup3\n    /* \"#utility.yul\":5862:5901   */\n  tag_38\n  jump\t// in\ntag_114:\n    /* \"#utility.yul\":5835:5836   */\n  0x01\n    /* \"#utility.yul\":5828:5833   */\n  dup2\n    /* \"#utility.yul\":5824:5837   */\n  add\n    /* \"#utility.yul\":5815:5837   */\n  swap1\n  pop\n    /* \"#utility.yul\":5791:5911   */\n  jump(tag_111)\ntag_113:\n    /* \"#utility.yul\":5731:5917   */\n  pop\n  pop\n  jump\t// out\n    /* \"#utility.yul\":5923:6466   */\ntag_40:\n    /* \"#utility.yul\":6024:6026   */\n  0x1f\n    /* \"#utility.yul\":6019:6022   */\n  dup3\n    /* \"#utility.yul\":6016:6027   */\n  gt\n    /* \"#utility.yul\":6013:6459   */\n  iszero\n  tag_116\n  jumpi\n    /* \"#utility.yul\":6058:6096   */\n  tag_117\n    /* \"#utility.yul\":6090:6095   */\n  dup2\n    /* \"#utility.yul\":6058:6096   */\n  tag_28\n  jump\t// in\ntag_117:\n    /* \"#utility.yul\":6142:6171   */\n  tag_118\n    /* \"#utility.yul\":6160:6170   */\n  dup5\n    /* \"#utility.yul\":6142:6171   */\n  tag_29\n  jump\t// in\ntag_118:\n    /* \"#utility.yul\":6132:6140   */\n  dup2\n    /* \"#utility.yul\":6128:6172   */\n  add\n    /* \"#utility.yul\":6325:6327   */\n  0x20\n    /* \"#utility.yul\":6313:6323   */\n  dup6\n    /* \"#utility.yul\":6310:6328   */\n  lt\n    /* \"#utility.yul\":6307:6356   */\n  iszero\n  tag_119\n  jumpi\n    /* \"#utility.yul\":6346:6354   */\n  dup2\n    /* \"#utility.yul\":6331:6354   */\n  swap1\n  pop\n    /* \"#utility.yul\":6307:6356   */\ntag_119:\n    /* \"#utility.yul\":6369:6449   */\n  tag_120\n    /* \"#utility.yul\":6425:6447   */\n  tag_121\n    /* \"#utility.yul\":6443:6446   */\n  dup6\n    /* \"#utility.yul\":6425:6447   */\n  tag_29\n  jump\t// in\ntag_121:\n    /* \"#utility.yul\":6415:6423   */\n  dup4\n    /* \"#utility.yul\":6411:6448   */\n  add\n    /* \"#utility.yul\":6398:6409   */\n  dup3\n    /* \"#utility.yul\":6369:6449   */\n  tag_39\n  jump\t// in\ntag_120:\n    /* \"#utility.yul\":6028:6459   */\n  pop\n  pop\n    /* \"#utility.yul\":6013:6459   */\ntag_116:\n    /* \"#utility.yul\":5923:6466   */\n  pop\n  pop\n  pop\n  jump\t// out\n    /* \"#utility.yul\":6472:6589   */\ntag_41:\n    /* \"#utility.yul\":6526:6534   */\n  0x00\n    /* \"#utility.yul\":6576:6581   */\n  dup3\n    /* \"#utility.yul\":6570:6574   */\n  dup3\n    /* \"#utility.yul\":6566:6582   */\n  shr\n    /* \"#utility.yul\":6545:6582   */\n  swap1\n  pop\n    /* \"#utility.yul\":6472:6589   */\n  swap3\n  swap2\n  pop\n  pop\n  jump\t// out\n    /* \"#utility.yul\":6595:6764   */\ntag_42:\n    /* \"#utility.yul\":6639:6645   */\n  0x00\n    /* \"#utility.yul\":6672:6723   */\n  tag_124\n    /* \"#utility.yul\":6720:6721   */\n  0x00\n    /* \"#utility.yul\":6716:6722   */\n  not\n    /* \"#utility.yul\":6708:6713   */\n  dup5\n    /* \"#utility.yul\":6705:6706   */\n  0x08\n    /* \"#utility.yul\":6701:6714   */\n  mul\n    /* \"#utility.yul\":6672:6723   */\n  tag_41\n  jump\t// in\ntag_124:\n    /* \"#utility.yul\":6668:6724   */\n  not\n    /* \"#utility.yul\":6753:6757   */\n  dup1\n    /* \"#utility.yul\":6747:6751   */\n  dup4\n    /* \"#utility.yul\":6743:6758   */\n  and\n    /* \"#utility.yul\":6733:6758   */\n  swap2\n  pop\n    /* \"#utility.yul\":6646:6764   */\n  pop\n    /* \"#utility.yul\":6595:6764   */\n  swap3\n  swap2\n  pop\n  pop\n  jump\t// out\n    /* \"#utility.yul\":6769:7064   */\ntag_43:\n    /* \"#utility.yul\":6845:6849   */\n  0x00\n    /* \"#utility.yul\":6991:7020   */\n  tag_126\n    /* \"#utility.yul\":7016:7019   */\n  dup4\n    /* \"#utility.yul\":7010:7014   */\n  dup4\n    /* \"#utility.yul\":6991:7020   */\n  tag_42\n  jump\t// in\ntag_126:\n    /* \"#utility.yul\":6983:7020   */\n  swap2\n  pop\n    /* \"#utility.yul\":7053:7056   */\n  dup3\n    /* \"#utility.yul\":7050:7051   */\n  0x02\n    /* \"#utility.yul\":7046:7057   */\n  mul\n    /* \"#utility.yul\":7040:7044   */\n  dup3\n    /* \"#utility.yul\":7037:7058   */\n  or\n    /* \"#utility.yul\":7029:7058   */\n  swap1\n  pop\n    /* \"#utility.yul\":6769:7064   */\n  swap3\n  swap2\n  pop\n  pop\n  jump\t// out\n    /* \"#utility.yul\":7069:8464   */\ntag_8:\n    /* \"#utility.yul\":7186:7223   */\n  tag_128\n    /* \"#utility.yul\":7219:7222   */\n  dup3\n    /* \"#utility.yul\":7186:7223   */\n  tag_25\n  jump\t// in\ntag_128:\n    /* \"#utility.yul\":7288:7306   */\n  0xffffffffffffffff\n    /* \"#utility.yul\":7280:7286   */\n  dup2\n    /* \"#utility.yul\":7277:7307   */\n  gt\n    /* \"#utility.yul\":7274:7330   */\n  iszero\n  tag_129\n  jumpi\n    /* \"#utility.yul\":7310:7328   */\n  tag_130\n  tag_18\n  jump\t// in\ntag_130:\n    /* \"#utility.yul\":7274:7330   */\ntag_129:\n    /* \"#utility.yul\":7354:7392   */\n  tag_131\n    /* \"#utility.yul\":7386:7390   */\n  dup3\n    /* \"#utility.yul\":7380:7391   */\n  sload\n    /* \"#utility.yul\":7354:7392   */\n  tag_27\n  jump\t// in\ntag_131:\n    /* \"#utility.yul\":7439:7506   */\n  tag_132\n    /* \"#utility.yul\":7499:7505   */\n  dup3\n    /* \"#utility.yul\":7491:7497   */\n  dup3\n    /* \"#utility.yul\":7485:7489   */\n  dup6\n    /* \"#utility.yul\":7439:7506   */\n  tag_40\n  jump\t// in\ntag_132:\n    /* \"#utility.yul\":7533:7534   */\n  0x00\n    /* \"#utility.yul\":7557:7561   */\n  0x20\n    /* \"#utility.yul\":7544:7561   */\n  swap1\n  pop\n    /* \"#utility.yul\":7589:7591   */\n  0x1f\n    /* \"#utility.yul\":7581:7587   */\n  dup4\n    /* \"#utility.yul\":7578:7592   */\n  gt\n    /* \"#utility.yul\":7606:7607   */\n  0x01\n    /* \"#utility.yul\":7601:8219   */\n  dup2\n  eq\n  tag_134\n  jumpi\n    /* \"#utility.yul\":8263:8264   */\n  0x00\n    /* \"#utility.yul\":8280:8286   */\n  dup5\n    /* \"#utility.yul\":8277:8354   */\n  iszero\n  tag_135\n  jumpi\n    /* \"#utility.yul\":8329:8338   */\n  dup3\n    /* \"#utility.yul\":8324:8327   */\n  dup8\n    /* \"#utility.yul\":8320:8339   */\n  add\n    /* \"#utility.yul\":8314:8340   */\n  mload\n    /* \"#utility.yul\":8305:8340   */\n  swap1\n  pop\n    /* \"#utility.yul\":8277:8354   */\ntag_135:\n    /* \"#utility.yul\":8380:8447   */\n  tag_136\n    /* \"#utility.yul\":8440:8446   */\n  dup6\n    /* \"#utility.yul\":8433:8438   */\n  dup3\n    /* \"#utility.yul\":8380:8447   */\n  tag_43\n  jump\t// in\ntag_136:\n    /* \"#utility.yul\":8374:8378   */\n  dup7\n    /* \"#utility.yul\":8367:8448   */\n  sstore\n    /* \"#utility.yul\":8236:8458   */\n  pop\n    /* \"#utility.yul\":7571:8458   */\n  jump(tag_133)\n    /* \"#utility.yul\":7601:8219   */\ntag_134:\n    /* \"#utility.yul\":7653:7657   */\n  0x1f\n    /* \"#utility.yul\":7649:7658   */\n  not\n    /* \"#utility.yul\":7641:7647   */\n  dup5\n    /* \"#utility.yul\":7637:7659   */\n  and\n    /* \"#utility.yul\":7687:7724   */\n  tag_137\n    /* \"#utility.yul\":7719:7723   */\n  dup7\n    /* \"#utility.yul\":7687:7724   */\n  tag_28\n  jump\t// in\ntag_137:\n    /* \"#utility.yul\":7746:7747   */\n  0x00\n    /* \"#utility.yul\":7760:7968   */\ntag_138:\n    /* \"#utility.yul\":7774:7781   */\n  dup3\n    /* \"#utility.yul\":7771:7772   */\n  dup2\n    /* \"#utility.yul\":7768:7782   */\n  lt\n    /* \"#utility.yul\":7760:7968   */\n  iszero\n  tag_140\n  jumpi\n    /* \"#utility.yul\":7853:7862   */\n  dup5\n    /* \"#utility.yul\":7848:7851   */\n  dup10\n    /* \"#utility.yul\":7844:7863   */\n  add\n    /* \"#utility.yul\":7838:7864   */\n  mload\n    /* \"#utility.yul\":7830:7836   */\n  dup3\n    /* \"#utility.yul\":7823:7865   */\n  sstore\n    /* \"#utility.yul\":7904:7905   */\n  0x01\n    /* \"#utility.yul\":7896:7902   */\n  dup3\n    /* \"#utility.yul\":7892:7906   */\n  add\n    /* \"#utility.yul\":7882:7906   */\n  swap2\n  pop\n    /* \"#utility.yul\":7951:7953   */\n  0x20\n    /* \"#utility.yul\":7940:7949   */\n  dup6\n    /* \"#utility.yul\":7936:7954   */\n  add\n    /* \"#utility.yul\":7923:7954   */\n  swap5\n  pop\n    /* \"#utility.yul\":7797:7801   */\n  0x20\n    /* \"#utility.yul\":7794:7795   */\n  dup2\n    /* \"#utility.yul\":7790:7802   */\n  add\n    /* \"#utility.yul\":7785:7802   */\n  swap1\n  pop\n    /* \"#utility.yul\":7760:7968   */\n  jump(tag_138)\ntag_140:\n    /* \"#utility.yul\":7996:8002   */\n  dup7\n    /* \"#utility.yul\":7987:7994   */\n  dup4\n    /* \"#utility.yul\":7984:8003   */\n  lt\n    /* \"#utility.yul\":7981:8160   */\n  iszero\n  tag_141\n  jumpi\n    /* \"#utility.yul\":8054:8063   */\n  dup5\n    /* \"#utility.yul\":8049:8052   */\n  dup10\n    /* \"#utility.yul\":8045:8064   */\n  add\n    /* \"#utility.yul\":8039:8065   */\n  mload\n    /* \"#utility.yul\":8097:8145   */\n  tag_142\n    /* \"#utility.yul\":8139:8143   */\n  0x1f\n    /* \"#utility.yul\":8131:8137   */\n  dup10\n    /* \"#utility.yul\":8127:8144   */\n  and\n    /* \"#utility.yul\":8116:8125   */\n  dup3\n    /* \"#utility.yul\":8097:8145   */\n  tag_42\n  jump\t// in\ntag_142:\n    /* \"#utility.yul\":8089:8095   */\n  dup4\n    /* \"#utility.yul\":8082:8146   */\n  sstore\n    /* \"#utility.yul\":8004:8160   */\n  pop\n    /* \"#utility.yul\":7981:8160   */\ntag_141:\n    /* \"#utility.yul\":8206:8207   */\n  0x01\n    /* \"#utility.yul\":8202:8203   */\n  0x02\n    /* \"#utility.yul\":8194:8200   */\n  dup9\n    /* \"#utility.yul\":8190:8204   */\n  mul\n    /* \"#utility.yul\":8186:8208   */\n  add\n    /* \"#utility.yul\":8180:8184   */\n  dup9\n    /* \"#utility.yul\":8173:8209   */\n  sstore\n    /* \"#utility.yul\":7608:8219   */\n  pop\n  pop\n  pop\n    /* \"#utility.yul\":7571:8458   */\ntag_133:\n  pop\n    /* \"#utility.yul\":7161:8464   */\n  pop\n  pop\n  pop\n    /* \"#utility.yul\":7069:8464   */\n  pop\n  pop\n  jump\t// out\n    /* \"src/chapter-006/ERC20WithCallback.sol\":256:1187  contract ERC20WithCallback is BaseERC20 {... */\ntag_11:\n  dataSize(sub_0)\n  dup1\n  dataOffset(sub_0)\n  0x00\n  codecopy\n  0x00\n  return\nstop\n\nsub_0: assembly {\n        /* \"src/chapter-006/ERC20WithCallback.sol\":256:1187  contract ERC20WithCallback is BaseERC20 {... */\n      mstore(0x40, 0x80)\n      callvalue\n      dup1\n      iszero\n      tag_1\n      jumpi\n      0x00\n      dup1\n      revert\n    tag_1:\n      pop\n      jumpi(tag_2, lt(calldatasize, 0x04))\n      shr(0xe0, calldataload(0x00))\n      dup1\n      0x70a08231\n      gt\n      tag_10\n      jumpi\n      dup1\n      0x70a08231\n      eq\n      tag_6\n      jumpi\n      dup1\n      0xa9059cbb\n      eq\n      tag_7\n      jumpi\n      dup1\n      0xd3139195\n      eq\n      tag_8\n      jumpi\n      dup1\n      0xdd62ed3e\n      eq\n      tag_9\n      jumpi\n      jump(tag_2)\n    tag_10:\n      dup1\n      0x095ea7b3\n      eq\n      tag_3\n      jumpi\n      dup1\n      0x23b872dd\n      eq\n      tag_4\n      jumpi\n      dup1\n      0x313ce567\n      eq\n      tag_5\n      jumpi\n    tag_2:\n      0x00\n      dup1\n      revert\n        /* \"src/BaseERC20.sol\":3256:3501  function approve(address _spender, uint256 _value) public returns (bool success) {... */\n    tag_3:\n      tag_11\n      0x04\n      dup1\n      calldatasize\n      sub\n      dup2\n      add\n      swap1\n      tag_12\n      swap2\n      swap1\n      tag_13\n      jump\t// in\n    tag_12:\n      tag_14\n      jump\t// in\n    tag_11:\n      mload(0x40)\n      tag_15\n      swap2\n      swap1\n      tag_16\n      jump\t// in\n    tag_15:\n      mload(0x40)\n      dup1\n      swap2\n      sub\n      swap1\n      return\n        /* \"src/BaseERC20.sol\":2243:2691  function transferFrom(address _from, address _to, uint256 _value) public returns (bool success) {... */\n    tag_4:\n      tag_17\n      0x04\n      dup1\n      calldatasize\n      sub\n      dup2\n      add\n      swap1\n      tag_18\n      swap2\n      swap1\n      tag_19\n      jump\t// in\n    tag_18:\n      tag_20\n      jump\t// in\n    tag_17:\n      mload(0x40)\n      tag_21\n      swap2\n      swap1\n      tag_16\n      jump\t// in\n    tag_21:\n      mload(0x40)\n      dup1\n      swap2\n      sub\n      swap1\n      return\n        /* \"src/BaseERC20.sol\":306:332  uint8 public decimals = 18 */\n    tag_5:\n      tag_22\n      tag_23\n      jump\t// in\n    tag_22:\n      mload(0x40)\n      tag_24\n      swap2\n      swap1\n      tag_25\n      jump\t// in\n    tag_24:\n      mload(0x40)\n      dup1\n      swap2\n      sub\n      swap1\n      return\n        /* \"src/BaseERC20.sol\":1791:1904  function balanceOf(address _owner) public view returns (uint256 balance) {... */\n    tag_6:\n      tag_26\n      0x04\n      dup1\n      calldatasize\n      sub\n      dup2\n      add\n      swap1\n      tag_27\n      swap2\n      swap1\n      tag_28\n      jump\t// in\n    tag_27:\n      tag_29\n      jump\t// in\n    tag_26:\n      mload(0x40)\n      tag_30\n      swap2\n      swap1\n      tag_31\n      jump\t// in\n    tag_30:\n      mload(0x40)\n      dup1\n      swap2\n      sub\n      swap1\n      return\n        /* \"src/BaseERC20.sol\":1910:2145  function transfer(address _to, uint256 _value) public returns (bool success) {... */\n    tag_7:\n      tag_32\n      0x04\n      dup1\n      calldatasize\n      sub\n      dup2\n      add\n      swap1\n      tag_33\n      swap2\n      swap1\n      tag_13\n      jump\t// in\n    tag_33:\n      tag_34\n      jump\t// in\n    tag_32:\n      mload(0x40)\n      tag_35\n      swap2\n      swap1\n      tag_16\n      jump\t// in\n    tag_35:\n      mload(0x40)\n      dup1\n      swap2\n      sub\n      swap1\n      return\n        /* \"src/chapter-006/ERC20WithCallback.sol\":457:1184  function transferWithCallback(... */\n    tag_8:\n      tag_36\n      0x04\n      dup1\n      calldatasize\n      sub\n      dup2\n      add\n      swap1\n      tag_37\n      swap2\n      swap1\n      tag_38\n      jump\t// in\n    tag_37:\n      tag_39\n      jump\t// in\n    tag_36:\n      mload(0x40)\n      tag_40\n      swap2\n      swap1\n      tag_16\n      jump\t// in\n    tag_40:\n      mload(0x40)\n      dup1\n      swap2\n      sub\n      swap1\n      return\n        /* \"src/BaseERC20.sol\":3507:3655  function allowance(address _owner, address _spender) public view returns (uint256 remaining) {   ... */\n    tag_9:\n      tag_41\n      0x04\n      dup1\n      calldatasize\n      sub\n      dup2\n      add\n      swap1\n      tag_42\n      swap2\n      swap1\n      tag_43\n      jump\t// in\n    tag_42:\n      tag_44\n      jump\t// in\n    tag_41:\n      mload(0x40)\n      tag_45\n      swap2\n      swap1\n      tag_31\n      jump\t// in\n    tag_45:\n      mload(0x40)\n      dup1\n      swap2\n      sub\n      swap1\n      return\n        /* \"src/BaseERC20.sol\":3256:3501  function approve(address _spender, uint256 _value) public returns (bool success) {... */\n    tag_14:\n        /* \"src/BaseERC20.sol\":3323:3335  bool success */\n      0x00\n        /* \"src/BaseERC20.sol\":3347:3360  address owner */\n      dup1\n        /* \"src/BaseERC20.sol\":3363:3375  _msgSender() */\n      tag_47\n        /* \"src/BaseERC20.sol\":3363:3373  _msgSender */\n      tag_48\n        /* \"src/BaseERC20.sol\":3363:3375  _msgSender() */\n      jump\t// in\n    tag_47:\n        /* \"src/BaseERC20.sol\":3347:3375  address owner = _msgSender() */\n      swap1\n      pop\n        /* \"src/BaseERC20.sol\":3385:3418  _approve(owner, _spender, _value) */\n      tag_49\n        /* \"src/BaseERC20.sol\":3394:3399  owner */\n      dup2\n        /* \"src/BaseERC20.sol\":3401:3409  _spender */\n      dup6\n        /* \"src/BaseERC20.sol\":3411:3417  _value */\n      dup6\n        /* \"src/BaseERC20.sol\":3385:3393  _approve */\n      tag_50\n        /* \"src/BaseERC20.sol\":3385:3418  _approve(owner, _spender, _value) */\n      jump\t// in\n    tag_49:\n        /* \"src/BaseERC20.sol\":3454:3462  _spender */\n      dup4\n        /* \"src/BaseERC20.sol\":3433:3471  Approval(msg.sender, _spender, _value) */\n      0xffffffffffffffffffffffffffffffffffffffff\n      and\n        /* \"src/BaseERC20.sol\":3442:3452  msg.sender */\n      caller\n        /* \"src/BaseERC20.sol\":3433:3471  Approval(msg.sender, _spender, _value) */\n      0xffffffffffffffffffffffffffffffffffffffff\n      and\n      0x8c5be1e5ebec7d5bd14f71427d1e84f3dd0314c0f7b2291e5b200ac8c7c3b925\n        /* \"src/BaseERC20.sol\":3464:3470  _value */\n      dup6\n        /* \"src/BaseERC20.sol\":3433:3471  Approval(msg.sender, _spender, _value) */\n      mload(0x40)\n      tag_51\n      swap2\n      swap1\n      tag_31\n      jump\t// in\n    tag_51:\n      mload(0x40)\n      dup1\n      swap2\n      sub\n      swap1\n      log3\n        /* \"src/BaseERC20.sol\":3489:3493  true */\n      0x01\n        /* \"src/BaseERC20.sol\":3482:3493  return true */\n      swap2\n      pop\n      pop\n        /* \"src/BaseERC20.sol\":3256:3501  function approve(address _spender, uint256 _value) public returns (bool success) {... */\n      swap3\n      swap2\n      pop\n      pop\n      jump\t// out\n        /* \"src/BaseERC20.sol\":2243:2691  function transferFrom(address _from, address _to, uint256 _value) public returns (bool success) {... */\n    tag_20:\n        /* \"src/BaseERC20.sol\":2325:2337  bool success */\n      0x00\n        /* \"src/BaseERC20.sol\":2349:2364  address spender */\n      dup1\n        /* \"src/BaseERC20.sol\":2367:2379  _msgSender() */\n      tag_53\n        /* \"src/BaseERC20.sol\":2367:2377  _msgSender */\n      tag_48\n        /* \"src/BaseERC20.sol\":2367:2379  _msgSender() */\n      jump\t// in\n    tag_53:\n        /* \"src/BaseERC20.sol\":2349:2379  address spender = _msgSender() */\n      swap1\n      pop\n        /* \"src/BaseERC20.sol\":2508:2547  _spendAllowance(_from, spender, _value) */\n      tag_54\n        /* \"src/BaseERC20.sol\":2524:2529  _from */\n      dup6\n        /* \"src/BaseERC20.sol\":2531:2538  spender */\n      dup3\n        /* \"src/BaseERC20.sol\":2540:2546  _value */\n      dup6\n        /* \"src/BaseERC20.sol\":2508:2523  _spendAllowance */\n      tag_55\n        /* \"src/BaseERC20.sol\":2508:2547  _spendAllowance(_from, spender, _value) */\n      jump\t// in\n    tag_54:\n        /* \"src/BaseERC20.sol\":2590:2619  _transfer(_from, _to, _value) */\n      tag_56\n        /* \"src/BaseERC20.sol\":2600:2605  _from */\n      dup6\n        /* \"src/BaseERC20.sol\":2607:2610  _to */\n      dup6\n        /* \"src/BaseERC20.sol\":2612:2618  _value */\n      dup6\n        /* \"src/BaseERC20.sol\":2590:2599  _transfer */\n      tag_57\n        /* \"src/BaseERC20.sol\":2590:2619  _transfer(_from, _to, _value) */\n      jump\t// in\n    tag_56:\n        /* \"src/BaseERC20.sol\":2650:2653  _to */\n      dup4\n        /* \"src/BaseERC20.sol\":2634:2662  Transfer(_from, _to, _value) */\n      0xffffffffffffffffffffffffffffffffffffffff\n      and\n        /* \"src/BaseERC20.sol\":2643:2648  _from */\n      dup6\n        /* \"src/BaseERC20.sol\":2634:2662  Transfer(_from, _to, _value) */\n      0xffffffffffffffffffffffffffffffffffffffff\n      and\n      0xddf252ad1be2c89b69c2b068fc378daa952ba7f163c4a11628f55a4df523b3ef\n        /* \"src/BaseERC20.sol\":2655:2661  _value */\n      dup6\n        /* \"src/BaseERC20.sol\":2634:2662  Transfer(_from, _to, _value) */\n      mload(0x40)\n      tag_58\n      swap2\n      swap1\n      tag_31\n      jump\t// in\n    tag_58:\n      mload(0x40)\n      dup1\n      swap2\n      sub\n      swap1\n      log3\n        /* \"src/BaseERC20.sol\":2679:2683  true */\n      0x01\n        /* \"src/BaseERC20.sol\":2672:2683  return true */\n      swap2\n      pop\n      pop\n        /* \"src/BaseERC20.sol\":2243:2691  function transferFrom(address _from, address _to, uint256 _value) public returns (bool success) {... */\n      swap4\n      swap3\n      pop\n      pop\n      pop\n      jump\t// out\n        /* \"src/BaseERC20.sol\":306:332  uint8 public decimals = 18 */\n    tag_23:\n      0x03\n      0x00\n      swap1\n      sload\n      swap1\n      0x0100\n      exp\n      swap1\n      div\n      0xff\n      and\n      dup2\n      jump\t// out\n        /* \"src/BaseERC20.sol\":1791:1904  function balanceOf(address _owner) public view returns (uint256 balance) {... */\n    tag_29:\n        /* \"src/BaseERC20.sol\":1847:1862  uint256 balance */\n      0x00\n        /* \"src/BaseERC20.sol\":1881:1889  balances */\n      0x04\n        /* \"src/BaseERC20.sol\":1881:1897  balances[_owner] */\n      0x00\n        /* \"src/BaseERC20.sol\":1890:1896  _owner */\n      dup4\n        /* \"src/BaseERC20.sol\":1881:1897  balances[_owner] */\n      0xffffffffffffffffffffffffffffffffffffffff\n      and\n      0xffffffffffffffffffffffffffffffffffffffff\n      and\n      dup2\n      mstore\n      0x20\n      add\n      swap1\n      dup2\n      mstore\n      0x20\n      add\n      0x00\n      keccak256\n      sload\n        /* \"src/BaseERC20.sol\":1874:1897  return balances[_owner] */\n      swap1\n      pop\n        /* \"src/BaseERC20.sol\":1791:1904  function balanceOf(address _owner) public view returns (uint256 balance) {... */\n      swap2\n      swap1\n      pop\n      jump\t// out\n        /* \"src/BaseERC20.sol\":1910:2145  function transfer(address _to, uint256 _value) public returns (bool success) {... */\n    tag_34:\n        /* \"src/BaseERC20.sol\":1973:1985  bool success */\n      0x00\n        /* \"src/BaseERC20.sol\":1997:2010  address owner */\n      dup1\n        /* \"src/BaseERC20.sol\":2013:2025  _msgSender() */\n      tag_61\n        /* \"src/BaseERC20.sol\":2013:2023  _msgSender */\n      tag_48\n        /* \"src/BaseERC20.sol\":2013:2025  _msgSender() */\n      jump\t// in\n    tag_61:\n        /* \"src/BaseERC20.sol\":1997:2025  address owner = _msgSender() */\n      swap1\n      pop\n        /* \"src/BaseERC20.sol\":2035:2064  _transfer(owner, _to, _value) */\n      tag_62\n        /* \"src/BaseERC20.sol\":2045:2050  owner */\n      dup2\n        /* \"src/BaseERC20.sol\":2052:2055  _to */\n      dup6\n        /* \"src/BaseERC20.sol\":2057:2063  _value */\n      dup6\n        /* \"src/BaseERC20.sol\":2035:2044  _transfer */\n      tag_57\n        /* \"src/BaseERC20.sol\":2035:2064  _transfer(owner, _to, _value) */\n      jump\t// in\n    tag_62:\n        /* \"src/BaseERC20.sol\":2100:2103  _to */\n      dup4\n        /* \"src/BaseERC20.sol\":2079:2112  Transfer(msg.sender, _to, _value) */\n      0xffffffffffffffffffffffffffffffffffffffff\n      and\n        /* \"src/BaseERC20.sol\":2088:2098  msg.sender */\n      caller\n        /* \"src/BaseERC20.sol\":2079:2112  Transfer(msg.sender, _to, _value) */\n      0xffffffffffffffffffffffffffffffffffffffff\n      and\n      0xddf252ad1be2c89b69c2b068fc378daa952ba7f163c4a11628f55a4df523b3ef\n        /* \"src/BaseERC20.sol\":2105:2111  _value */\n      dup6\n        /* \"src/BaseERC20.sol\":2079:2112  Transfer(msg.sender, _to, _value) */\n      mload(0x40)\n      tag_63\n      swap2\n      swap1\n      tag_31\n      jump\t// in\n    tag_63:\n      mload(0x40)\n      dup1\n      swap2\n      sub\n      swap1\n      log3\n        /* \"src/BaseERC20.sol\":2131:2135  true */\n      0x01\n        /* \"src/BaseERC20.sol\":2124:2135  return true */\n      swap2\n      pop\n      pop\n        /* \"src/BaseERC20.sol\":1910:2145  function transfer(address _to, uint256 _value) public returns (bool success) {... */\n      swap3\n      swap2\n      pop\n      pop\n      jump\t// out\n        /* \"src/chapter-006/ERC20WithCallback.sol\":457:1184  function transferWithCallback(... */\n    tag_39:\n        /* \"src/chapter-006/ERC20WithCallback.sol\":579:583  bool */\n      0x00\n        /* \"src/chapter-006/ERC20WithCallback.sol\":595:630  _transfer(_msgSender(), to, amount) */\n      tag_65\n        /* \"src/chapter-006/ERC20WithCallback.sol\":605:617  _msgSender() */\n      tag_66\n        /* \"src/chapter-006/ERC20WithCallback.sol\":605:615  _msgSender */\n      tag_48\n        /* \"src/chapter-006/ERC20WithCallback.sol\":605:617  _msgSender() */\n      jump\t// in\n    tag_66:\n        /* \"src/chapter-006/ERC20WithCallback.sol\":619:621  to */\n      dup7\n        /* \"src/chapter-006/ERC20WithCallback.sol\":623:629  amount */\n      dup7\n        /* \"src/chapter-006/ERC20WithCallback.sol\":595:604  _transfer */\n      tag_57\n        /* \"src/chapter-006/ERC20WithCallback.sol\":595:630  _transfer(_msgSender(), to, amount) */\n      jump\t// in\n    tag_65:\n        /* \"src/chapter-006/ERC20WithCallback.sol\":644:666  Address.isContract(to) */\n      tag_67\n        /* \"src/chapter-006/ERC20WithCallback.sol\":663:665  to */\n      dup6\n        /* \"src/chapter-006/ERC20WithCallback.sol\":644:662  Address.isContract */\n      tag_68\n        /* \"src/chapter-006/ERC20WithCallback.sol\":644:666  Address.isContract(to) */\n      jump\t// in\n    tag_67:\n        /* \"src/chapter-006/ERC20WithCallback.sol\":640:1157  if (Address.isContract(to)) {... */\n      iszero\n      tag_69\n      jumpi\n        /* \"src/chapter-006/ERC20WithCallback.sol\":713:715  to */\n      dup5\n        /* \"src/chapter-006/ERC20WithCallback.sol\":686:732  IERC20WithCallback(address(to)).tokensReceived */\n      0xffffffffffffffffffffffffffffffffffffffff\n      and\n      0xd0314263\n        /* \"src/chapter-006/ERC20WithCallback.sol\":733:745  _msgSender() */\n      tag_70\n        /* \"src/chapter-006/ERC20WithCallback.sol\":733:743  _msgSender */\n      tag_48\n        /* \"src/chapter-006/ERC20WithCallback.sol\":733:745  _msgSender() */\n      jump\t// in\n    tag_70:\n        /* \"src/chapter-006/ERC20WithCallback.sol\":747:753  amount */\n      dup7\n        /* \"src/chapter-006/ERC20WithCallback.sol\":755:759  data */\n      dup7\n      dup7\n        /* \"src/chapter-006/ERC20WithCallback.sol\":686:760  IERC20WithCallback(address(to)).tokensReceived(_msgSender(), amount, data) */\n      mload(0x40)\n      dup6\n      0xffffffff\n      and\n      0xe0\n      shl\n      dup2\n      mstore\n      0x04\n      add\n      tag_71\n      swap5\n      swap4\n      swap3\n      swap2\n      swap1\n      tag_72\n      jump\t// in\n    tag_71:\n      0x00\n      mload(0x40)\n      dup1\n      dup4\n      sub\n      dup2\n      0x00\n      dup8\n      dup1\n      extcodesize\n      iszero\n      dup1\n      iszero\n      tag_73\n      jumpi\n      0x00\n      dup1\n      revert\n    tag_73:\n      pop\n      gas\n      call\n      swap3\n      pop\n      pop\n      pop\n      dup1\n      iszero\n      tag_74\n      jumpi\n      pop\n      0x01\n    tag_74:\n        /* \"src/chapter-006/ERC20WithCallback.sol\":682:1147  try IERC20WithCallback(address(to)).tokensReceived(_msgSender(), amount, data) {... */\n      tag_75\n      jumpi\n      returndatasize\n      dup1\n      0x00\n      dup2\n      eq\n      tag_80\n      jumpi\n      mload(0x40)\n      swap2\n      pop\n      and(add(returndatasize, 0x3f), not(0x1f))\n      dup3\n      add\n      0x40\n      mstore\n      returndatasize\n      dup3\n      mstore\n      returndatasize\n      0x00\n      0x20\n      dup5\n      add\n      returndatacopy\n      jump(tag_79)\n    tag_80:\n      0x60\n      swap2\n      pop\n    tag_79:\n      pop\n        /* \"src/chapter-006/ERC20WithCallback.sol\":898:899  0 */\n      0x00\n        /* \"src/chapter-006/ERC20WithCallback.sol\":881:887  reason */\n      dup2\n        /* \"src/chapter-006/ERC20WithCallback.sol\":881:894  reason.length */\n      mload\n        /* \"src/chapter-006/ERC20WithCallback.sol\":881:899  reason.length == 0 */\n      sub\n        /* \"src/chapter-006/ERC20WithCallback.sol\":877:1133  if (reason.length == 0) {... */\n      tag_81\n      jumpi\n        /* \"src/chapter-006/ERC20WithCallback.sol\":923:973  revert(\"ERC20WithCallback: tokensReceived failed\") */\n      mload(0x40)\n      0x08c379a000000000000000000000000000000000000000000000000000000000\n      dup2\n      mstore\n      0x04\n      add\n      tag_82\n      swap1\n      tag_83\n      jump\t// in\n    tag_82:\n      mload(0x40)\n      dup1\n      swap2\n      sub\n      swap1\n      revert\n        /* \"src/chapter-006/ERC20WithCallback.sol\":877:1133  if (reason.length == 0) {... */\n    tag_81:\n        /* \"src/chapter-006/ERC20WithCallback.sol\":1085:1091  reason */\n      dup1\n        /* \"src/chapter-006/ERC20WithCallback.sol\":1079:1092  mload(reason) */\n      mload\n        /* \"src/chapter-006/ERC20WithCallback.sol\":1070:1076  reason */\n      dup2\n        /* \"src/chapter-006/ERC20WithCallback.sol\":1066:1068  32 */\n      0x20\n        /* \"src/chapter-006/ERC20WithCallback.sol\":1062:1077  add(32, reason) */\n      add\n        /* \"src/chapter-006/ERC20WithCallback.sol\":1055:1093  revert(add(32, reason), mload(reason)) */\n      revert\n        /* \"src/chapter-006/ERC20WithCallback.sol\":682:1147  try IERC20WithCallback(address(to)).tokensReceived(_msgSender(), amount, data) {... */\n    tag_75:\n        /* \"src/chapter-006/ERC20WithCallback.sol\":793:805  _msgSender() */\n      tag_86\n        /* \"src/chapter-006/ERC20WithCallback.sol\":793:803  _msgSender */\n      tag_48\n        /* \"src/chapter-006/ERC20WithCallback.sol\":793:805  _msgSender() */\n      jump\t// in\n    tag_86:\n        /* \"src/chapter-006/ERC20WithCallback.sol\":784:814  Received(_msgSender(), amount) */\n      0xffffffffffffffffffffffffffffffffffffffff\n      and\n      0x88a5966d370b9919b20f3e2c13ff65706f196a4e32cc2c12bf57088f88525874\n        /* \"src/chapter-006/ERC20WithCallback.sol\":807:813  amount */\n      dup6\n        /* \"src/chapter-006/ERC20WithCallback.sol\":784:814  Received(_msgSender(), amount) */\n      mload(0x40)\n      tag_87\n      swap2\n      swap1\n      tag_31\n      jump\t// in\n    tag_87:\n      mload(0x40)\n      dup1\n      swap2\n      sub\n      swap1\n      log2\n        /* \"src/chapter-006/ERC20WithCallback.sol\":640:1157  if (Address.isContract(to)) {... */\n    tag_69:\n        /* \"src/chapter-006/ERC20WithCallback.sol\":1173:1177  true */\n      0x01\n        /* \"src/chapter-006/ERC20WithCallback.sol\":1166:1177  return true */\n      swap1\n      pop\n        /* \"src/chapter-006/ERC20WithCallback.sol\":457:1184  function transferWithCallback(... */\n      swap5\n      swap4\n      pop\n      pop\n      pop\n      pop\n      jump\t// out\n        /* \"src/BaseERC20.sol\":3507:3655  function allowance(address _owner, address _spender) public view returns (uint256 remaining) {   ... */\n    tag_44:\n        /* \"src/BaseERC20.sol\":3581:3598  uint256 remaining */\n      0x00\n        /* \"src/BaseERC20.sol\":3620:3630  allowances */\n      0x05\n        /* \"src/BaseERC20.sol\":3620:3638  allowances[_owner] */\n      0x00\n        /* \"src/BaseERC20.sol\":3631:3637  _owner */\n      dup5\n        /* \"src/BaseERC20.sol\":3620:3638  allowances[_owner] */\n      0xffffffffffffffffffffffffffffffffffffffff\n      and\n      0xffffffffffffffffffffffffffffffffffffffff\n      and\n      dup2\n      mstore\n      0x20\n      add\n      swap1\n      dup2\n      mstore\n      0x20\n      add\n      0x00\n      keccak256\n        /* \"src/BaseERC20.sol\":3620:3648  allowances[_owner][_spender] */\n      0x00\n        /* \"src/BaseERC20.sol\":3639:3647  _spender */\n      dup4\n        /* \"src/BaseERC20.sol\":3620:3648  allowances[_owner][_spender] */\n      0xffffffffffffffffffffffffffffffffffffffff\n      and\n      0xffffffffffffffffffffffffffffffffffffffff\n      and\n      dup2\n      mstore\n      0x20\n      add\n      swap1\n      dup2\n      mstore\n      0x20\n      add\n      0x00\n      keccak256\n      sload\n        /* \"src/BaseERC20.sol\":3613:3648  return allowances[_owner][_spender] */\n      swap1\n      pop\n        /* \"src/BaseERC20.sol\":3507:3655  function allowance(address _owner, address _spender) public view returns (uint256 remaining) {   ... */\n      swap3\n      swap2\n      pop\n      pop\n      jump\t// out\n        /* \"lib/openzeppelin-contracts-v4.9.6/contracts/utils/Context.sol\":655:751  function _msgSender() internal view virtual returns (address) {... */\n    tag_48:\n        /* \"lib/openzeppelin-contracts-v4.9.6/contracts/utils/Context.sol\":708:715  address */\n      0x00\n        /* \"lib/openzeppelin-contracts-v4.9.6/contracts/utils/Context.sol\":734:744  msg.sender */\n      caller\n        /* \"lib/openzeppelin-contracts-v4.9.6/contracts/utils/Context.sol\":727:744  return msg.sender */\n      swap1\n      pop\n        /* \"lib/openzeppelin-contracts-v4.9.6/contracts/utils/Context.sol\":655:751  function _msgSender() internal view virtual returns (address) {... */\n      swap1\n      jump\t// out\n        /* \"src/BaseERC20.sol\":1610:1785  function _approve(address owner, address spender, uint256 value) internal virtual ERC20Invalid(owner) ERC20Invalid(spender) {... */\n    tag_50:\n        /* \"src/BaseERC20.sol\":1705:1710  owner */\n      dup3\n        /* \"src/BaseERC20.sol\":1090:1091  0 */\n      0x00\n        /* \"src/BaseERC20.sol\":1070:1092  _address == address(0) */\n      0xffffffffffffffffffffffffffffffffffffffff\n      and\n        /* \"src/BaseERC20.sol\":1070:1078  _address */\n      dup2\n        /* \"src/BaseERC20.sol\":1070:1092  _address == address(0) */\n      0xffffffffffffffffffffffffffffffffffffffff\n      and\n      sub\n        /* \"src/BaseERC20.sol\":1066:1131  if (_address == address(0)) revert ERC20InvalidSender(address(0)) */\n      tag_91\n      jumpi\n        /* \"src/BaseERC20.sol\":1128:1129  0 */\n      0x00\n        /* \"src/BaseERC20.sol\":1101:1131  ERC20InvalidSender(address(0)) */\n      mload(0x40)\n      0x96c6fd1e00000000000000000000000000000000000000000000000000000000\n      dup2\n      mstore\n      0x04\n      add\n      tag_92\n      swap2\n      swap1\n      tag_93\n      jump\t// in\n    tag_92:\n      mload(0x40)\n      dup1\n      swap2\n      sub\n      swap1\n      revert\n        /* \"src/BaseERC20.sol\":1066:1131  if (_address == address(0)) revert ERC20InvalidSender(address(0)) */\n    tag_91:\n        /* \"src/BaseERC20.sol\":1725:1732  spender */\n      dup3\n        /* \"src/BaseERC20.sol\":1090:1091  0 */\n      0x00\n        /* \"src/BaseERC20.sol\":1070:1092  _address == address(0) */\n      0xffffffffffffffffffffffffffffffffffffffff\n      and\n        /* \"src/BaseERC20.sol\":1070:1078  _address */\n      dup2\n        /* \"src/BaseERC20.sol\":1070:1092  _address == address(0) */\n      0xffffffffffffffffffffffffffffffffffffffff\n      and\n      sub\n        /* \"src/BaseERC20.sol\":1066:1131  if (_address == address(0)) revert ERC20InvalidSender(address(0)) */\n      tag_95\n      jumpi\n        /* \"src/BaseERC20.sol\":1128:1129  0 */\n      0x00\n        /* \"src/BaseERC20.sol\":1101:1131  ERC20InvalidSender(address(0)) */\n      mload(0x40)\n      0x96c6fd1e00000000000000000000000000000000000000000000000000000000\n      dup2\n      mstore\n      0x04\n      add\n      tag_96\n      swap2\n      swap1\n      tag_93\n      jump\t// in\n    tag_96:\n      mload(0x40)\n      dup1\n      swap2\n      sub\n      swap1\n      revert\n        /* \"src/BaseERC20.sol\":1066:1131  if (_address == address(0)) revert ERC20InvalidSender(address(0)) */\n    tag_95:\n        /* \"src/BaseERC20.sol\":1773:1778  value */\n      dup3\n        /* \"src/BaseERC20.sol\":1744:1754  allowances */\n      0x05\n        /* \"src/BaseERC20.sol\":1744:1761  allowances[owner] */\n      0x00\n        /* \"src/BaseERC20.sol\":1755:1760  owner */\n      dup8\n        /* \"src/BaseERC20.sol\":1744:1761  allowances[owner] */\n      0xffffffffffffffffffffffffffffffffffffffff\n      and\n      0xffffffffffffffffffffffffffffffffffffffff\n      and\n      dup2\n      mstore\n      0x20\n      add\n      swap1\n      dup2\n      mstore\n      0x20\n      add\n      0x00\n      keccak256\n        /* \"src/BaseERC20.sol\":1744:1770  allowances[owner][spender] */\n      0x00\n        /* \"src/BaseERC20.sol\":1762:1769  spender */\n      dup7\n        /* \"src/BaseERC20.sol\":1744:1770  allowances[owner][spender] */\n      0xffffffffffffffffffffffffffffffffffffffff\n      and\n      0xffffffffffffffffffffffffffffffffffffffff\n      and\n      dup2\n      mstore\n      0x20\n      add\n      swap1\n      dup2\n      mstore\n      0x20\n      add\n      0x00\n      keccak256\n        /* \"src/BaseERC20.sol\":1744:1778  allowances[owner][spender] = value */\n      dup2\n      swap1\n      sstore\n      pop\n        /* \"src/BaseERC20.sol\":1141:1142  _ */\n      pop\n        /* \"src/BaseERC20.sol\":1610:1785  function _approve(address owner, address spender, uint256 value) internal virtual ERC20Invalid(owner) ERC20Invalid(spender) {... */\n      pop\n      pop\n      pop\n      pop\n      jump\t// out\n        /* \"src/BaseERC20.sol\":2701:3250  function _spendAllowance(address owner, address spender, uint256 value) internal virtual {... */\n    tag_55:\n        /* \"src/BaseERC20.sol\":2800:2824  uint256 currentAllowance */\n      0x00\n        /* \"src/BaseERC20.sol\":2827:2852  allowance(owner, spender) */\n      tag_99\n        /* \"src/BaseERC20.sol\":2837:2842  owner */\n      dup5\n        /* \"src/BaseERC20.sol\":2844:2851  spender */\n      dup5\n        /* \"src/BaseERC20.sol\":2827:2836  allowance */\n      tag_44\n        /* \"src/BaseERC20.sol\":2827:2852  allowance(owner, spender) */\n      jump\t// in\n    tag_99:\n        /* \"src/BaseERC20.sol\":2800:2852  uint256 currentAllowance = allowance(owner, spender) */\n      swap1\n      pop\n        /* \"src/BaseERC20.sol\":2925:2942  type(uint256).max */\n      0xffffffffffffffffffffffffffffffffffffffffffffffffffffffffffffffff\n        /* \"src/BaseERC20.sol\":2905:2921  currentAllowance */\n      dup2\n        /* \"src/BaseERC20.sol\":2905:2942  currentAllowance != type(uint256).max */\n      eq\n        /* \"src/BaseERC20.sol\":2901:3244  if (currentAllowance != type(uint256).max) {... */\n      tag_100\n      jumpi\n        /* \"src/BaseERC20.sol\":3021:3026  value */\n      dup2\n        /* \"src/BaseERC20.sol\":3002:3018  currentAllowance */\n      dup2\n        /* \"src/BaseERC20.sol\":3002:3026  currentAllowance < value */\n      lt\n        /* \"src/BaseERC20.sol\":2998:3128  if (currentAllowance < value) {... */\n      iszero\n      tag_101\n      jumpi\n        /* \"src/BaseERC20.sol\":3080:3087  spender */\n      dup3\n        /* \"src/BaseERC20.sol\":3089:3105  currentAllowance */\n      dup2\n        /* \"src/BaseERC20.sol\":3107:3112  value */\n      dup4\n        /* \"src/BaseERC20.sol\":3053:3113  ERC20InsufficientAllowance(spender, currentAllowance, value) */\n      mload(0x40)\n      0xfb8f41b200000000000000000000000000000000000000000000000000000000\n      dup2\n      mstore\n      0x04\n      add\n      tag_102\n      swap4\n      swap3\n      swap2\n      swap1\n      tag_103\n      jump\t// in\n    tag_102:\n      mload(0x40)\n      dup1\n      swap2\n      sub\n      swap1\n      revert\n        /* \"src/BaseERC20.sol\":2998:3128  if (currentAllowance < value) {... */\n    tag_101:\n        /* \"src/BaseERC20.sol\":3169:3219  _approve(owner, spender, currentAllowance - value) */\n      tag_104\n        /* \"src/BaseERC20.sol\":3178:3183  owner */\n      dup5\n        /* \"src/BaseERC20.sol\":3185:3192  spender */\n      dup5\n        /* \"src/BaseERC20.sol\":3213:3218  value */\n      dup5\n        /* \"src/BaseERC20.sol\":3194:3210  currentAllowance */\n      dup5\n        /* \"src/BaseERC20.sol\":3194:3218  currentAllowance - value */\n      sub\n        /* \"src/BaseERC20.sol\":3169:3177  _approve */\n      tag_50\n        /* \"src/BaseERC20.sol\":3169:3219  _approve(owner, spender, currentAllowance - value) */\n      jump\t// in\n    tag_104:\n        /* \"src/BaseERC20.sol\":2901:3244  if (currentAllowance != type(uint256).max) {... */\n    tag_100:\n        /* \"src/BaseERC20.sol\":2790:3250  {... */\n      pop\n        /* \"src/BaseERC20.sol\":2701:3250  function _spendAllowance(address owner, address spender, uint256 value) internal virtual {... */\n      pop\n      pop\n      pop\n      jump\t// out\n        /* \"src/BaseERC20.sol\":1155:1604  function _transfer(address from, address to, uint256 value) internal ERC20Invalid(from) ERC20Invalid(to) {... */\n    tag_57:\n        /* \"src/BaseERC20.sol\":1237:1241  from */\n      dup3\n        /* \"src/BaseERC20.sol\":1090:1091  0 */\n      0x00\n        /* \"src/BaseERC20.sol\":1070:1092  _address == address(0) */\n      0xffffffffffffffffffffffffffffffffffffffff\n      and\n        /* \"src/BaseERC20.sol\":1070:1078  _address */\n      dup2\n        /* \"src/BaseERC20.sol\":1070:1092  _address == address(0) */\n      0xffffffffffffffffffffffffffffffffffffffff\n      and\n      sub\n        /* \"src/BaseERC20.sol\":1066:1131  if (_address == address(0)) revert ERC20InvalidSender(address(0)) */\n      tag_106\n      jumpi\n        /* \"src/BaseERC20.sol\":1128:1129  0 */\n      0x00\n        /* \"src/BaseERC20.sol\":1101:1131  ERC20InvalidSender(address(0)) */\n      mload(0x40)\n      0x96c6fd1e00000000000000000000000000000000000000000000000000000000\n      dup2\n      mstore\n      0x04\n      add\n      tag_107\n      swap2\n      swap1\n      tag_93\n      jump\t// in\n    tag_107:\n      mload(0x40)\n      dup1\n      swap2\n      sub\n      swap1\n      revert\n        /* \"src/BaseERC20.sol\":1066:1131  if (_address == address(0)) revert ERC20InvalidSender(address(0)) */\n    tag_106:\n        /* \"src/BaseERC20.sol\":1256:1258  to */\n      dup3\n        /* \"src/BaseERC20.sol\":1090:1091  0 */\n      0x00\n        /* \"src/BaseERC20.sol\":1070:1092  _address == address(0) */\n      0xffffffffffffffffffffffffffffffffffffffff\n      and\n        /* \"src/BaseERC20.sol\":1070:1078  _address */\n      dup2\n        /* \"src/BaseERC20.sol\":1070:1092  _address == address(0) */\n      0xffffffffffffffffffffffffffffffffffffffff\n      and\n      sub\n        /* \"src/BaseERC20.sol\":1066:1131  if (_address == address(0)) revert ERC20InvalidSender(address(0)) */\n      tag_109\n      jumpi\n        /* \"src/BaseERC20.sol\":1128:1129  0 */\n      0x00\n        /* \"src/BaseERC20.sol\":1101:1131  ERC20InvalidSender(address(0)) */\n      mload(0x40)\n      0x96c6fd1e00000000000000000000000000000000000000000000000000000000\n      dup2\n      mstore\n      0x04\n      add\n      tag_110\n      swap2\n      swap1\n      tag_93\n      jump\t// in\n    tag_110:\n      mload(0x40)\n      dup1\n      swap2\n      sub\n      swap1\n      revert\n        /* \"src/BaseERC20.sol\":1066:1131  if (_address == address(0)) revert ERC20InvalidSender(address(0)) */\n    tag_109:\n        /* \"src/BaseERC20.sol\":1270:1289  uint256 fromBalance */\n      0x00\n        /* \"src/BaseERC20.sol\":1292:1300  balances */\n      0x04\n        /* \"src/BaseERC20.sol\":1292:1306  balances[from] */\n      0x00\n        /* \"src/BaseERC20.sol\":1301:1305  from */\n      dup8\n        /* \"src/BaseERC20.sol\":1292:1306  balances[from] */\n      0xffffffffffffffffffffffffffffffffffffffff\n      and\n      0xffffffffffffffffffffffffffffffffffffffff\n      and\n      dup2\n      mstore\n      0x20\n      add\n      swap1\n      dup2\n      mstore\n      0x20\n      add\n      0x00\n      keccak256\n      sload\n        /* \"src/BaseERC20.sol\":1270:1306  uint256 fromBalance = balances[from] */\n      swap1\n      pop\n        /* \"src/BaseERC20.sol\":1334:1339  value */\n      dup4\n        /* \"src/BaseERC20.sol\":1320:1331  fromBalance */\n      dup2\n        /* \"src/BaseERC20.sol\":1320:1339  fromBalance < value */\n      lt\n        /* \"src/BaseERC20.sol\":1316:1423  if (fromBalance < value) {... */\n      iszero\n      tag_112\n      jumpi\n        /* \"src/BaseERC20.sol\":1387:1391  from */\n      dup6\n        /* \"src/BaseERC20.sol\":1393:1404  fromBalance */\n      dup2\n        /* \"src/BaseERC20.sol\":1406:1411  value */\n      dup6\n        /* \"src/BaseERC20.sol\":1362:1412  ERC20InsufficientBalance(from, fromBalance, value) */\n      mload(0x40)\n      0xe450d38c00000000000000000000000000000000000000000000000000000000\n      dup2\n      mstore\n      0x04\n      add\n      tag_113\n      swap4\n      swap3\n      swap2\n      swap1\n      tag_103\n      jump\t// in\n    tag_113:\n      mload(0x40)\n      dup1\n      swap2\n      sub\n      swap1\n      revert\n        /* \"src/BaseERC20.sol\":1316:1423  if (fromBalance < value) {... */\n    tag_112:\n        /* \"src/BaseERC20.sol\":1517:1522  value */\n      dup4\n        /* \"src/BaseERC20.sol\":1503:1514  fromBalance */\n      dup2\n        /* \"src/BaseERC20.sol\":1503:1522  fromBalance - value */\n      sub\n        /* \"src/BaseERC20.sol\":1486:1494  balances */\n      0x04\n        /* \"src/BaseERC20.sol\":1486:1500  balances[from] */\n      0x00\n        /* \"src/BaseERC20.sol\":1495:1499  from */\n      dup9\n        /* \"src/BaseERC20.sol\":1486:1500  balances[from] */\n      0xffffffffffffffffffffffffffffffffffffffff\n      and\n      0xffffffffffffffffffffffffffffffffffffffff\n      and\n      dup2\n      mstore\n      0x20\n      add\n      swap1\n      dup2\n      mstore\n      0x20\n      add\n      0x00\n      keccak256\n        /* \"src/BaseERC20.sol\":1486:1522  balances[from] = fromBalance - value */\n      dup2\n      swap1\n      sstore\n      pop\n        /* \"src/BaseERC20.sol\":1582:1587  value */\n      dup4\n        /* \"src/BaseERC20.sol\":1566:1574  balances */\n      0x04\n        /* \"src/BaseERC20.sol\":1566:1578  balances[to] */\n      0x00\n        /* \"src/BaseERC20.sol\":1575:1577  to */\n      dup8\n        /* \"src/BaseERC20.sol\":1566:1578  balances[to] */\n      0xffffffffffffffffffffffffffffffffffffffff\n      and\n      0xffffffffffffffffffffffffffffffffffffffff\n      and\n      dup2\n      mstore\n      0x20\n      add\n      swap1\n      dup2\n      mstore\n      0x20\n      add\n      0x00\n      keccak256\n      0x00\n        /* \"src/BaseERC20.sol\":1566:1587  balances[to] += value */\n      dup3\n      dup3\n      sload\n      add\n      swap3\n      pop\n      pop\n      dup2\n      swap1\n      sstore\n      pop\n        /* \"src/BaseERC20.sol\":1260:1604  {... */\n      pop\n        /* \"src/BaseERC20.sol\":1141:1142  _ */\n      pop\n        /* \"src/BaseERC20.sol\":1155:1604  function _transfer(address from, address to, uint256 value) internal ERC20Invalid(from) ERC20Invalid(to) {... */\n      pop\n      pop\n      pop\n      pop\n      jump\t// out\n        /* \"lib/openzeppelin-contracts-v4.9.6/contracts/utils/Address.sol\":1412:1732  function isContract(address account) internal view returns (bool) {... */\n    tag_68:\n        /* \"lib/openzeppelin-contracts-v4.9.6/contracts/utils/Address.sol\":1472:1476  bool */\n      0x00\n        /* \"lib/openzeppelin-contracts-v4.9.6/contracts/utils/Address.sol\":1724:1725  0 */\n      dup1\n        /* \"lib/openzeppelin-contracts-v4.9.6/contracts/utils/Address.sol\":1702:1709  account */\n      dup3\n        /* \"lib/openzeppelin-contracts-v4.9.6/contracts/utils/Address.sol\":1702:1721  account.code.length */\n      0xffffffffffffffffffffffffffffffffffffffff\n      and\n      extcodesize\n        /* \"lib/openzeppelin-contracts-v4.9.6/contracts/utils/Address.sol\":1702:1725  account.code.length > 0 */\n      gt\n        /* \"lib/openzeppelin-contracts-v4.9.6/contracts/utils/Address.sol\":1695:1725  return account.code.length > 0 */\n      swap1\n      pop\n        /* \"lib/openzeppelin-contracts-v4.9.6/contracts/utils/Address.sol\":1412:1732  function isContract(address account) internal view returns (bool) {... */\n      swap2\n      swap1\n      pop\n      jump\t// out\n        /* \"#utility.yul\":88:205   */\n    tag_116:\n        /* \"#utility.yul\":197:198   */\n      0x00\n        /* \"#utility.yul\":194:195   */\n      dup1\n        /* \"#utility.yul\":187:199   */\n      revert\n        /* \"#utility.yul\":211:328   */\n    tag_117:\n        /* \"#utility.yul\":320:321   */\n      0x00\n        /* \"#utility.yul\":317:318   */\n      dup1\n        /* \"#utility.yul\":310:322   */\n      revert\n        /* \"#utility.yul\":334:460   */\n    tag_118:\n        /* \"#utility.yul\":371:378   */\n      0x00\n        /* \"#utility.yul\":411:453   */\n      0xffffffffffffffffffffffffffffffffffffffff\n        /* \"#utility.yul\":404:409   */\n      dup3\n        /* \"#utility.yul\":400:454   */\n      and\n        /* \"#utility.yul\":389:454   */\n      swap1\n      pop\n        /* \"#utility.yul\":334:460   */\n      swap2\n      swap1\n      pop\n      jump\t// out\n        /* \"#utility.yul\":466:562   */\n    tag_119:\n        /* \"#utility.yul\":503:510   */\n      0x00\n        /* \"#utility.yul\":532:556   */\n      tag_148\n        /* \"#utility.yul\":550:555   */\n      dup3\n        /* \"#utility.yul\":532:556   */\n      tag_118\n      jump\t// in\n    tag_148:\n        /* \"#utility.yul\":521:556   */\n      swap1\n      pop\n        /* \"#utility.yul\":466:562   */\n      swap2\n      swap1\n      pop\n      jump\t// out\n        /* \"#utility.yul\":568:690   */\n    tag_120:\n        /* \"#utility.yul\":641:665   */\n      tag_150\n        /* \"#utility.yul\":659:664   */\n      dup2\n        /* \"#utility.yul\":641:665   */\n      tag_119\n      jump\t// in\n    tag_150:\n        /* \"#utility.yul\":634:639   */\n      dup2\n        /* \"#utility.yul\":631:666   */\n      eq\n        /* \"#utility.yul\":621:684   */\n      tag_151\n      jumpi\n        /* \"#utility.yul\":680:681   */\n      0x00\n        /* \"#utility.yul\":677:678   */\n      dup1\n        /* \"#utility.yul\":670:682   */\n      revert\n        /* \"#utility.yul\":621:684   */\n    tag_151:\n        /* \"#utility.yul\":568:690   */\n      pop\n      jump\t// out\n        /* \"#utility.yul\":696:835   */\n    tag_121:\n        /* \"#utility.yul\":742:747   */\n      0x00\n        /* \"#utility.yul\":780:786   */\n      dup2\n        /* \"#utility.yul\":767:787   */\n      calldataload\n        /* \"#utility.yul\":758:787   */\n      swap1\n      pop\n        /* \"#utility.yul\":796:829   */\n      tag_153\n        /* \"#utility.yul\":823:828   */\n      dup2\n        /* \"#utility.yul\":796:829   */\n      tag_120\n      jump\t// in\n    tag_153:\n        /* \"#utility.yul\":696:835   */\n      swap3\n      swap2\n      pop\n      pop\n      jump\t// out\n        /* \"#utility.yul\":841:918   */\n    tag_122:\n        /* \"#utility.yul\":878:885   */\n      0x00\n        /* \"#utility.yul\":907:912   */\n      dup2\n        /* \"#utility.yul\":896:912   */\n      swap1\n      pop\n        /* \"#utility.yul\":841:918   */\n      swap2\n      swap1\n      pop\n      jump\t// out\n        /* \"#utility.yul\":924:1046   */\n    tag_123:\n        /* \"#utility.yul\":997:1021   */\n      tag_156\n        /* \"#utility.yul\":1015:1020   */\n      dup2\n        /* \"#utility.yul\":997:1021   */\n      tag_122\n      jump\t// in\n    tag_156:\n        /* \"#utility.yul\":990:995   */\n      dup2\n        /* \"#utility.yul\":987:1022   */\n      eq\n        /* \"#utility.yul\":977:1040   */\n      tag_157\n      jumpi\n        /* \"#utility.yul\":1036:1037   */\n      0x00\n        /* \"#utility.yul\":1033:1034   */\n      dup1\n        /* \"#utility.yul\":1026:1038   */\n      revert\n        /* \"#utility.yul\":977:1040   */\n    tag_157:\n        /* \"#utility.yul\":924:1046   */\n      pop\n      jump\t// out\n        /* \"#utility.yul\":1052:1191   */\n    tag_124:\n        /* \"#utility.yul\":1098:1103   */\n      0x00\n        /* \"#utility.yul\":1136:1142   */\n      dup2\n        /* \"#utility.yul\":1123:1143   */\n      calldataload\n        /* \"#utility.yul\":1114:1143   */\n      swap1\n      pop\n        /* \"#utility.yul\":1152:1185   */\n      tag_159\n        /* \"#utility.yul\":1179:1184   */\n      dup2\n        /* \"#utility.yul\":1152:1185   */\n      tag_123\n      jump\t// in\n    tag_159:\n        /* \"#utility.yul\":1052:1191   */\n      swap3\n      swap2\n      pop\n      pop\n      jump\t// out\n        /* \"#utility.yul\":1197:1671   */\n    tag_13:\n        /* \"#utility.yul\":1265:1271   */\n      0x00\n        /* \"#utility.yul\":1273:1279   */\n      dup1\n        /* \"#utility.yul\":1322:1324   */\n      0x40\n        /* \"#utility.yul\":1310:1319   */\n      dup4\n        /* \"#utility.yul\":1301:1308   */\n      dup6\n        /* \"#utility.yul\":1297:1320   */\n      sub\n        /* \"#utility.yul\":1293:1325   */\n      slt\n        /* \"#utility.yul\":1290:1409   */\n      iszero\n      tag_161\n      jumpi\n        /* \"#utility.yul\":1328:1407   */\n      tag_162\n      tag_116\n      jump\t// in\n    tag_162:\n        /* \"#utility.yul\":1290:1409   */\n    tag_161:\n        /* \"#utility.yul\":1448:1449   */\n      0x00\n        /* \"#utility.yul\":1473:1526   */\n      tag_163\n        /* \"#utility.yul\":1518:1525   */\n      dup6\n        /* \"#utility.yul\":1509:1515   */\n      dup3\n        /* \"#utility.yul\":1498:1507   */\n      dup7\n        /* \"#utility.yul\":1494:1516   */\n      add\n        /* \"#utility.yul\":1473:1526   */\n      tag_121\n      jump\t// in\n    tag_163:\n        /* \"#utility.yul\":1463:1526   */\n      swap3\n      pop\n        /* \"#utility.yul\":1419:1536   */\n      pop\n        /* \"#utility.yul\":1575:1577   */\n      0x20\n        /* \"#utility.yul\":1601:1654   */\n      tag_164\n        /* \"#utility.yul\":1646:1653   */\n      dup6\n        /* \"#utility.yul\":1637:1643   */\n      dup3\n        /* \"#utility.yul\":1626:1635   */\n      dup7\n        /* \"#utility.yul\":1622:1644   */\n      add\n        /* \"#utility.yul\":1601:1654   */\n      tag_124\n      jump\t// in\n    tag_164:\n        /* \"#utility.yul\":1591:1654   */\n      swap2\n      pop\n        /* \"#utility.yul\":1546:1664   */\n      pop\n        /* \"#utility.yul\":1197:1671   */\n      swap3\n      pop\n      swap3\n      swap1\n      pop\n      jump\t// out\n        /* \"#utility.yul\":1677:1767   */\n    tag_125:\n        /* \"#utility.yul\":1711:1718   */\n      0x00\n        /* \"#utility.yul\":1754:1759   */\n      dup2\n        /* \"#utility.yul\":1747:1760   */\n      iszero\n        /* \"#utility.yul\":1740:1761   */\n      iszero\n        /* \"#utility.yul\":1729:1761   */\n      swap1\n      pop\n        /* \"#utility.yul\":1677:1767   */\n      swap2\n      swap1\n      pop\n      jump\t// out\n        /* \"#utility.yul\":1773:1882   */\n    tag_126:\n        /* \"#utility.yul\":1854:1875   */\n      tag_167\n        /* \"#utility.yul\":1869:1874   */\n      dup2\n        /* \"#utility.yul\":1854:1875   */\n      tag_125\n      jump\t// in\n    tag_167:\n        /* \"#utility.yul\":1849:1852   */\n      dup3\n        /* \"#utility.yul\":1842:1876   */\n      mstore\n        /* \"#utility.yul\":1773:1882   */\n      pop\n      pop\n      jump\t// out\n        /* \"#utility.yul\":1888:2098   */\n    tag_16:\n        /* \"#utility.yul\":1975:1979   */\n      0x00\n        /* \"#utility.yul\":2013:2015   */\n      0x20\n        /* \"#utility.yul\":2002:2011   */\n      dup3\n        /* \"#utility.yul\":1998:2016   */\n      add\n        /* \"#utility.yul\":1990:2016   */\n      swap1\n      pop\n        /* \"#utility.yul\":2026:2091   */\n      tag_169\n        /* \"#utility.yul\":2088:2089   */\n      0x00\n        /* \"#utility.yul\":2077:2086   */\n      dup4\n        /* \"#utility.yul\":2073:2090   */\n      add\n        /* \"#utility.yul\":2064:2070   */\n      dup5\n        /* \"#utility.yul\":2026:2091   */\n      tag_126\n      jump\t// in\n    tag_169:\n        /* \"#utility.yul\":1888:2098   */\n      swap3\n      swap2\n      pop\n      pop\n      jump\t// out\n        /* \"#utility.yul\":2104:2723   */\n    tag_19:\n        /* \"#utility.yul\":2181:2187   */\n      0x00\n        /* \"#utility.yul\":2189:2195   */\n      dup1\n        /* \"#utility.yul\":2197:2203   */\n      0x00\n        /* \"#utility.yul\":2246:2248   */\n      0x60\n        /* \"#utility.yul\":2234:2243   */\n      dup5\n        /* \"#utility.yul\":2225:2232   */\n      dup7\n        /* \"#utility.yul\":2221:2244   */\n      sub\n        /* \"#utility.yul\":2217:2249   */\n      slt\n        /* \"#utility.yul\":2214:2333   */\n      iszero\n      tag_171\n      jumpi\n        /* \"#utility.yul\":2252:2331   */\n      tag_172\n      tag_116\n      jump\t// in\n    tag_172:\n        /* \"#utility.yul\":2214:2333   */\n    tag_171:\n        /* \"#utility.yul\":2372:2373   */\n      0x00\n        /* \"#utility.yul\":2397:2450   */\n      tag_173\n        /* \"#utility.yul\":2442:2449   */\n      dup7\n        /* \"#utility.yul\":2433:2439   */\n      dup3\n        /* \"#utility.yul\":2422:2431   */\n      dup8\n        /* \"#utility.yul\":2418:2440   */\n      add\n        /* \"#utility.yul\":2397:2450   */\n      tag_121\n      jump\t// in\n    tag_173:\n        /* \"#utility.yul\":2387:2450   */\n      swap4\n      pop\n        /* \"#utility.yul\":2343:2460   */\n      pop\n        /* \"#utility.yul\":2499:2501   */\n      0x20\n        /* \"#utility.yul\":2525:2578   */\n      tag_174\n        /* \"#utility.yul\":2570:2577   */\n      dup7\n        /* \"#utility.yul\":2561:2567   */\n      dup3\n        /* \"#utility.yul\":2550:2559   */\n      dup8\n        /* \"#utility.yul\":2546:2568   */\n      add\n        /* \"#utility.yul\":2525:2578   */\n      tag_121\n      jump\t// in\n    tag_174:\n        /* \"#utility.yul\":2515:2578   */\n      swap3\n      pop\n        /* \"#utility.yul\":2470:2588   */\n      pop\n        /* \"#utility.yul\":2627:2629   */\n      0x40\n        /* \"#utility.yul\":2653:2706   */\n      tag_175\n        /* \"#utility.yul\":2698:2705   */\n      dup7\n        /* \"#utility.yul\":2689:2695   */\n      dup3\n        /* \"#utility.yul\":2678:2687   */\n      dup8\n        /* \"#utility.yul\":2674:2696   */\n      add\n        /* \"#utility.yul\":2653:2706   */\n      tag_124\n      jump\t// in\n    tag_175:\n        /* \"#utility.yul\":2643:2706   */\n      swap2\n      pop\n        /* \"#utility.yul\":2598:2716   */\n      pop\n        /* \"#utility.yul\":2104:2723   */\n      swap3\n      pop\n      swap3\n      pop\n      swap3\n      jump\t// out\n        /* \"#utility.yul\":2729:2815   */\n    tag_127:\n        /* \"#utility.yul\":2764:2771   */\n      0x00\n        /* \"#utility.yul\":2804:2808   */\n      0xff\n        /* \"#utility.yul\":2797:2802   */\n      dup3\n        /* \"#utility.yul\":2793:2809   */\n      and\n        /* \"#utility.yul\":2782:2809   */\n      swap1\n      pop\n        /* \"#utility.yul\":2729:2815   */\n      swap2\n      swap1\n      pop\n      jump\t// out\n        /* \"#utility.yul\":2821:2933   */\n    tag_128:\n        /* \"#utility.yul\":2904:2926   */\n      tag_178\n        /* \"#utility.yul\":2920:2925   */\n      dup2\n        /* \"#utility.yul\":2904:2926   */\n      tag_127\n      jump\t// in\n    tag_178:\n        /* \"#utility.yul\":2899:2902   */\n      dup3\n        /* \"#utility.yul\":2892:2927   */\n      mstore\n        /* \"#utility.yul\":2821:2933   */\n      pop\n      pop\n      jump\t// out\n        /* \"#utility.yul\":2939:3153   */\n    tag_25:\n        /* \"#utility.yul\":3028:3032   */\n      0x00\n        /* \"#utility.yul\":3066:3068   */\n      0x20\n        /* \"#utility.yul\":3055:3064   */\n      dup3\n        /* \"#utility.yul\":3051:3069   */\n      add\n        /* \"#utility.yul\":3043:3069   */\n      swap1\n      pop\n        /* \"#utility.yul\":3079:3146   */\n      tag_180\n        /* \"#utility.yul\":3143:3144   */\n      0x00\n        /* \"#utility.yul\":3132:3141   */\n      dup4\n        /* \"#utility.yul\":3128:3145   */\n      add\n        /* \"#utility.yul\":3119:3125   */\n      dup5\n        /* \"#utility.yul\":3079:3146   */\n      tag_128\n      jump\t// in\n    tag_180:\n        /* \"#utility.yul\":2939:3153   */\n      swap3\n      swap2\n      pop\n      pop\n      jump\t// out\n        /* \"#utility.yul\":3159:3488   */\n    tag_28:\n        /* \"#utility.yul\":3218:3224   */\n      0x00\n        /* \"#utility.yul\":3267:3269   */\n      0x20\n        /* \"#utility.yul\":3255:3264   */\n      dup3\n        /* \"#utility.yul\":3246:3253   */\n      dup5\n        /* \"#utility.yul\":3242:3265   */\n      sub\n        /* \"#utility.yul\":3238:3270   */\n      slt\n        /* \"#utility.yul\":3235:3354   */\n      iszero\n      tag_182\n      jumpi\n        /* \"#utility.yul\":3273:3352   */\n      tag_183\n      tag_116\n      jump\t// in\n    tag_183:\n        /* \"#utility.yul\":3235:3354   */\n    tag_182:\n        /* \"#utility.yul\":3393:3394   */\n      0x00\n        /* \"#utility.yul\":3418:3471   */\n      tag_184\n        /* \"#utility.yul\":3463:3470   */\n      dup5\n        /* \"#utility.yul\":3454:3460   */\n      dup3\n        /* \"#utility.yul\":3443:3452   */\n      dup6\n        /* \"#utility.yul\":3439:3461   */\n      add\n        /* \"#utility.yul\":3418:3471   */\n      tag_121\n      jump\t// in\n    tag_184:\n        /* \"#utility.yul\":3408:3471   */\n      swap2\n      pop\n        /* \"#utility.yul\":3364:3481   */\n      pop\n        /* \"#utility.yul\":3159:3488   */\n      swap3\n      swap2\n      pop\n      pop\n      jump\t// out\n        /* \"#utility.yul\":3494:3612   */\n    tag_129:\n        /* \"#utility.yul\":3581:3605   */\n      tag_186\n        /* \"#utility.yul\":3599:3604   */\n      dup2\n        /* \"#utility.yul\":3581:3605   */\n      tag_122\n      jump\t// in\n    tag_186:\n        /* \"#utility.yul\":3576:3579   */\n      dup3\n        /* \"#utility.yul\":3569:3606   */\n      mstore\n        /* \"#utility.yul\":3494:3612   */\n      pop\n      pop\n      jump\t// out\n        /* \"#utility.yul\":3618:3840   */\n    tag_31:\n        /* \"#utility.yul\":3711:3715   */\n      0x00\n        /* \"#utility.yul\":3749:3751   */\n      0x20\n        /* \"#utility.yul\":3738:3747   */\n      dup3\n        /* \"#utility.yul\":3734:3752   */\n      add\n        /* \"#utility.yul\":3726:3752   */\n      swap1\n      pop\n        /* \"#utility.yul\":3762:3833   */\n      tag_188\n        /* \"#utility.yul\":3830:3831   */\n      0x00\n        /* \"#utility.yul\":3819:3828   */\n      dup4\n        /* \"#utility.yul\":3815:3832   */\n      add\n        /* \"#utility.yul\":3806:3812   */\n      dup5\n        /* \"#utility.yul\":3762:3833   */\n      tag_129\n      jump\t// in\n    tag_188:\n        /* \"#utility.yul\":3618:3840   */\n      swap3\n      swap2\n      pop\n      pop\n      jump\t// out\n        /* \"#utility.yul\":3846:3963   */\n    tag_130:\n        /* \"#utility.yul\":3955:3956   */\n      0x00\n        /* \"#utility.yul\":3952:3953   */\n      dup1\n        /* \"#utility.yul\":3945:3957   */\n      revert\n        /* \"#utility.yul\":3969:4086   */\n    tag_131:\n        /* \"#utility.yul\":4078:4079   */\n      0x00\n        /* \"#utility.yul\":4075:4076   */\n      dup1\n        /* \"#utility.yul\":4068:4080   */\n      revert\n        /* \"#utility.yul\":4092:4209   */\n    tag_132:\n        /* \"#utility.yul\":4201:4202   */\n      0x00\n        /* \"#utility.yul\":4198:4199   */\n      dup1\n        /* \"#utility.yul\":4191:4203   */\n      revert\n        /* \"#utility.yul\":4228:4780   */\n    tag_133:\n        /* \"#utility.yul\":4285:4293   */\n      0x00\n        /* \"#utility.yul\":4295:4301   */\n      dup1\n        /* \"#utility.yul\":4345:4348   */\n      dup4\n        /* \"#utility.yul\":4338:4342   */\n      0x1f\n        /* \"#utility.yul\":4330:4336   */\n      dup5\n        /* \"#utility.yul\":4326:4343   */\n      add\n        /* \"#utility.yul\":4322:4349   */\n      slt\n        /* \"#utility.yul\":4312:4434   */\n      tag_193\n      jumpi\n        /* \"#utility.yul\":4353:4432   */\n      tag_194\n      tag_130\n      jump\t// in\n    tag_194:\n        /* \"#utility.yul\":4312:4434   */\n    tag_193:\n        /* \"#utility.yul\":4466:4472   */\n      dup3\n        /* \"#utility.yul\":4453:4473   */\n      calldataload\n        /* \"#utility.yul\":4443:4473   */\n      swap1\n      pop\n        /* \"#utility.yul\":4496:4514   */\n      0xffffffffffffffff\n        /* \"#utility.yul\":4488:4494   */\n      dup2\n        /* \"#utility.yul\":4485:4515   */\n      gt\n        /* \"#utility.yul\":4482:4599   */\n      iszero\n      tag_195\n      jumpi\n        /* \"#utility.yul\":4518:4597   */\n      tag_196\n      tag_131\n      jump\t// in\n    tag_196:\n        /* \"#utility.yul\":4482:4599   */\n    tag_195:\n        /* \"#utility.yul\":4632:4636   */\n      0x20\n        /* \"#utility.yul\":4624:4630   */\n      dup4\n        /* \"#utility.yul\":4620:4637   */\n      add\n        /* \"#utility.yul\":4608:4637   */\n      swap2\n      pop\n        /* \"#utility.yul\":4686:4689   */\n      dup4\n        /* \"#utility.yul\":4678:4682   */\n      0x01\n        /* \"#utility.yul\":4670:4676   */\n      dup3\n        /* \"#utility.yul\":4666:4683   */\n      mul\n        /* \"#utility.yul\":4656:4664   */\n      dup4\n        /* \"#utility.yul\":4652:4684   */\n      add\n        /* \"#utility.yul\":4649:4690   */\n      gt\n        /* \"#utility.yul\":4646:4774   */\n      iszero\n      tag_197\n      jumpi\n        /* \"#utility.yul\":4693:4772   */\n      tag_198\n      tag_132\n      jump\t// in\n    tag_198:\n        /* \"#utility.yul\":4646:4774   */\n    tag_197:\n        /* \"#utility.yul\":4228:4780   */\n      swap3\n      pop\n      swap3\n      swap1\n      pop\n      jump\t// out\n        /* \"#utility.yul\":4786:5603   */\n    tag_38:\n        /* \"#utility.yul\":4874:4880   */\n      0x00\n        /* \"#utility.yul\":4882:4888   */\n      dup1\n        /* \"#utility.yul\":4890:4896   */\n      0x00\n        /* \"#utility.yul\":4898:4904   */\n      dup1\n        /* \"#utility.yul\":4947:4949   */\n      0x60\n        /* \"#utility.yul\":4935:4944   */\n      dup6\n        /* \"#utility.yul\":4926:4933   */\n      dup8\n        /* \"#utility.yul\":4922:4945   */\n      sub\n        /* \"#utility.yul\":4918:4950   */\n      slt\n        /* \"#utility.yul\":4915:5034   */\n      iszero\n      tag_200\n      jumpi\n        /* \"#utility.yul\":4953:5032   */\n      tag_201\n      tag_116\n      jump\t// in\n    tag_201:\n        /* \"#utility.yul\":4915:5034   */\n    tag_200:\n        /* \"#utility.yul\":5073:5074   */\n      0x00\n        /* \"#utility.yul\":5098:5151   */\n      tag_202\n        /* \"#utility.yul\":5143:5150   */\n      dup8\n        /* \"#utility.yul\":5134:5140   */\n      dup3\n        /* \"#utility.yul\":5123:5132   */\n      dup9\n        /* \"#utility.yul\":5119:5141   */\n      add\n        /* \"#utility.yul\":5098:5151   */\n      tag_121\n      jump\t// in\n    tag_202:\n        /* \"#utility.yul\":5088:5151   */\n      swap5\n      pop\n        /* \"#utility.yul\":5044:5161   */\n      pop\n        /* \"#utility.yul\":5200:5202   */\n      0x20\n        /* \"#utility.yul\":5226:5279   */\n      tag_203\n        /* \"#utility.yul\":5271:5278   */\n      dup8\n        /* \"#utility.yul\":5262:5268   */\n      dup3\n        /* \"#utility.yul\":5251:5260   */\n      dup9\n        /* \"#utility.yul\":5247:5269   */\n      add\n        /* \"#utility.yul\":5226:5279   */\n      tag_124\n      jump\t// in\n    tag_203:\n        /* \"#utility.yul\":5216:5279   */\n      swap4\n      pop\n        /* \"#utility.yul\":5171:5289   */\n      pop\n        /* \"#utility.yul\":5356:5358   */\n      0x40\n        /* \"#utility.yul\":5345:5354   */\n      dup6\n        /* \"#utility.yul\":5341:5359   */\n      add\n        /* \"#utility.yul\":5328:5360   */\n      calldataload\n        /* \"#utility.yul\":5387:5405   */\n      0xffffffffffffffff\n        /* \"#utility.yul\":5379:5385   */\n      dup2\n        /* \"#utility.yul\":5376:5406   */\n      gt\n        /* \"#utility.yul\":5373:5490   */\n      iszero\n      tag_204\n      jumpi\n        /* \"#utility.yul\":5409:5488   */\n      tag_205\n      tag_117\n      jump\t// in\n    tag_205:\n        /* \"#utility.yul\":5373:5490   */\n    tag_204:\n        /* \"#utility.yul\":5522:5586   */\n      tag_206\n        /* \"#utility.yul\":5578:5585   */\n      dup8\n        /* \"#utility.yul\":5569:5575   */\n      dup3\n        /* \"#utility.yul\":5558:5567   */\n      dup9\n        /* \"#utility.yul\":5554:5576   */\n      add\n        /* \"#utility.yul\":5522:5586   */\n      tag_133\n      jump\t// in\n    tag_206:\n        /* \"#utility.yul\":5504:5586   */\n      swap3\n      pop\n      swap3\n      pop\n        /* \"#utility.yul\":5299:5596   */\n      pop\n        /* \"#utility.yul\":4786:5603   */\n      swap3\n      swap6\n      swap2\n      swap5\n      pop\n      swap3\n      pop\n      jump\t// out\n        /* \"#utility.yul\":5609:6083   */\n    tag_43:\n        /* \"#utility.yul\":5677:5683   */\n      0x00\n        /* \"#utility.yul\":5685:5691   */\n      dup1\n        /* \"#utility.yul\":5734:5736   */\n      0x40\n        /* \"#utility.yul\":5722:5731   */\n      dup4\n        /* \"#utility.yul\":5713:5720   */\n      dup6\n        /* \"#utility.yul\":5709:5732   */\n      sub\n        /* \"#utility.yul\":5705:5737   */\n      slt\n        /* \"#utility.yul\":5702:5821   */\n      iszero\n      tag_208\n      jumpi\n        /* \"#utility.yul\":5740:5819   */\n      tag_209\n      tag_116\n      jump\t// in\n    tag_209:\n        /* \"#utility.yul\":5702:5821   */\n    tag_208:\n        /* \"#utility.yul\":5860:5861   */\n      0x00\n        /* \"#utility.yul\":5885:5938   */\n      tag_210\n        /* \"#utility.yul\":5930:5937   */\n      dup6\n        /* \"#utility.yul\":5921:5927   */\n      dup3\n        /* \"#utility.yul\":5910:5919   */\n      dup7\n        /* \"#utility.yul\":5906:5928   */\n      add\n        /* \"#utility.yul\":5885:5938   */\n      tag_121\n      jump\t// in\n    tag_210:\n        /* \"#utility.yul\":5875:5938   */\n      swap3\n      pop\n        /* \"#utility.yul\":5831:5948   */\n      pop\n        /* \"#utility.yul\":5987:5989   */\n      0x20\n        /* \"#utility.yul\":6013:6066   */\n      tag_211\n        /* \"#utility.yul\":6058:6065   */\n      dup6\n        /* \"#utility.yul\":6049:6055   */\n      dup3\n        /* \"#utility.yul\":6038:6047   */\n      dup7\n        /* \"#utility.yul\":6034:6056   */\n      add\n        /* \"#utility.yul\":6013:6066   */\n      tag_121\n      jump\t// in\n    tag_211:\n        /* \"#utility.yul\":6003:6066   */\n      swap2\n      pop\n        /* \"#utility.yul\":5958:6076   */\n      pop\n        /* \"#utility.yul\":5609:6083   */\n      swap3\n      pop\n      swap3\n      swap1\n      pop\n      jump\t// out\n        /* \"#utility.yul\":6089:6207   */\n    tag_134:\n        /* \"#utility.yul\":6176:6200   */\n      tag_213\n        /* \"#utility.yul\":6194:6199   */\n      dup2\n        /* \"#utility.yul\":6176:6200   */\n      tag_119\n      jump\t// in\n    tag_213:\n        /* \"#utility.yul\":6171:6174   */\n      dup3\n        /* \"#utility.yul\":6164:6201   */\n      mstore\n        /* \"#utility.yul\":6089:6207   */\n      pop\n      pop\n      jump\t// out\n        /* \"#utility.yul\":6213:6381   */\n    tag_135:\n        /* \"#utility.yul\":6296:6307   */\n      0x00\n        /* \"#utility.yul\":6330:6336   */\n      dup3\n        /* \"#utility.yul\":6325:6328   */\n      dup3\n        /* \"#utility.yul\":6318:6337   */\n      mstore\n        /* \"#utility.yul\":6370:6374   */\n      0x20\n        /* \"#utility.yul\":6365:6368   */\n      dup3\n        /* \"#utility.yul\":6361:6375   */\n      add\n        /* \"#utility.yul\":6346:6375   */\n      swap1\n      pop\n        /* \"#utility.yul\":6213:6381   */\n      swap3\n      swap2\n      pop\n      pop\n      jump\t// out\n        /* \"#utility.yul\":6387:6535   */\n    tag_136:\n        /* \"#utility.yul\":6485:6491   */\n      dup3\n        /* \"#utility.yul\":6480:6483   */\n      dup2\n        /* \"#utility.yul\":6475:6478   */\n      dup4\n        /* \"#utility.yul\":6462:6492   */\n      calldatacopy\n        /* \"#utility.yul\":6526:6527   */\n      0x00\n        /* \"#utility.yul\":6517:6523   */\n      dup4\n        /* \"#utility.yul\":6512:6515   */\n      dup4\n        /* \"#utility.yul\":6508:6524   */\n      add\n        /* \"#utility.yul\":6501:6528   */\n      mstore\n        /* \"#utility.yul\":6387:6535   */\n      pop\n      pop\n      pop\n      jump\t// out\n        /* \"#utility.yul\":6541:6643   */\n    tag_137:\n        /* \"#utility.yul\":6582:6588   */\n      0x00\n        /* \"#utility.yul\":6633:6635   */\n      0x1f\n        /* \"#utility.yul\":6629:6636   */\n      not\n        /* \"#utility.yul\":6624:6626   */\n      0x1f\n        /* \"#utility.yul\":6617:6622   */\n      dup4\n        /* \"#utility.yul\":6613:6627   */\n      add\n        /* \"#utility.yul\":6609:6637   */\n      and\n        /* \"#utility.yul\":6599:6637   */\n      swap1\n      pop\n        /* \"#utility.yul\":6541:6643   */\n      swap2\n      swap1\n      pop\n      jump\t// out\n        /* \"#utility.yul\":6671:6985   */\n    tag_138:\n        /* \"#utility.yul\":6767:6770   */\n      0x00\n        /* \"#utility.yul\":6788:6858   */\n      tag_218\n        /* \"#utility.yul\":6851:6857   */\n      dup4\n        /* \"#utility.yul\":6846:6849   */\n      dup6\n        /* \"#utility.yul\":6788:6858   */\n      tag_135\n      jump\t// in\n    tag_218:\n        /* \"#utility.yul\":6781:6858   */\n      swap4\n      pop\n        /* \"#utility.yul\":6868:6924   */\n      tag_219\n        /* \"#utility.yul\":6917:6923   */\n      dup4\n        /* \"#utility.yul\":6912:6915   */\n      dup6\n        /* \"#utility.yul\":6905:6910   */\n      dup5\n        /* \"#utility.yul\":6868:6924   */\n      tag_136\n      jump\t// in\n    tag_219:\n        /* \"#utility.yul\":6949:6978   */\n      tag_220\n        /* \"#utility.yul\":6971:6977   */\n      dup4\n        /* \"#utility.yul\":6949:6978   */\n      tag_137\n      jump\t// in\n    tag_220:\n        /* \"#utility.yul\":6944:6947   */\n      dup5\n        /* \"#utility.yul\":6940:6979   */\n      add\n        /* \"#utility.yul\":6933:6979   */\n      swap1\n      pop\n        /* \"#utility.yul\":6671:6985   */\n      swap4\n      swap3\n      pop\n      pop\n      pop\n      jump\t// out\n        /* \"#utility.yul\":6991:7540   */\n    tag_72:\n        /* \"#utility.yul\":7168:7172   */\n      0x00\n        /* \"#utility.yul\":7206:7208   */\n      0x60\n        /* \"#utility.yul\":7195:7204   */\n      dup3\n        /* \"#utility.yul\":7191:7209   */\n      add\n        /* \"#utility.yul\":7183:7209   */\n      swap1\n      pop\n        /* \"#utility.yul\":7219:7290   */\n      tag_222\n        /* \"#utility.yul\":7287:7288   */\n      0x00\n        /* \"#utility.yul\":7276:7285   */\n      dup4\n        /* \"#utility.yul\":7272:7289   */\n      add\n        /* \"#utility.yul\":7263:7269   */\n      dup8\n        /* \"#utility.yul\":7219:7290   */\n      tag_134\n      jump\t// in\n    tag_222:\n        /* \"#utility.yul\":7300:7372   */\n      tag_223\n        /* \"#utility.yul\":7368:7370   */\n      0x20\n        /* \"#utility.yul\":7357:7366   */\n      dup4\n        /* \"#utility.yul\":7353:7371   */\n      add\n        /* \"#utility.yul\":7344:7350   */\n      dup7\n        /* \"#utility.yul\":7300:7372   */\n      tag_129\n      jump\t// in\n    tag_223:\n        /* \"#utility.yul\":7419:7428   */\n      dup2\n        /* \"#utility.yul\":7413:7417   */\n      dup2\n        /* \"#utility.yul\":7409:7429   */\n      sub\n        /* \"#utility.yul\":7404:7406   */\n      0x40\n        /* \"#utility.yul\":7393:7402   */\n      dup4\n        /* \"#utility.yul\":7389:7407   */\n      add\n        /* \"#utility.yul\":7382:7430   */\n      mstore\n        /* \"#utility.yul\":7447:7533   */\n      tag_224\n        /* \"#utility.yul\":7528:7532   */\n      dup2\n        /* \"#utility.yul\":7519:7525   */\n      dup5\n        /* \"#utility.yul\":7511:7517   */\n      dup7\n        /* \"#utility.yul\":7447:7533   */\n      tag_138\n      jump\t// in\n    tag_224:\n        /* \"#utility.yul\":7439:7533   */\n      swap1\n      pop\n        /* \"#utility.yul\":6991:7540   */\n      swap6\n      swap5\n      pop\n      pop\n      pop\n      pop\n      pop\n      jump\t// out\n        /* \"#utility.yul\":7546:7715   */\n    tag_139:\n        /* \"#utility.yul\":7630:7641   */\n      0x00\n        /* \"#utility.yul\":7664:7670   */\n      dup3\n        /* \"#utility.yul\":7659:7662   */\n      dup3\n        /* \"#utility.yul\":7652:7671   */\n      mstore\n        /* \"#utility.yul\":7704:7708   */\n      0x20\n        /* \"#utility.yul\":7699:7702   */\n      dup3\n        /* \"#utility.yul\":7695:7709   */\n      add\n        /* \"#utility.yul\":7680:7709   */\n      swap1\n      pop\n        /* \"#utility.yul\":7546:7715   */\n      swap3\n      swap2\n      pop\n      pop\n      jump\t// out\n        /* \"#utility.yul\":7721:7948   */\n    tag_140:\n        /* \"#utility.yul\":7861:7895   */\n      0x45524332305769746843616c6c6261636b3a20746f6b656e7352656365697665\n        /* \"#utility.yul\":7857:7858   */\n      0x00\n        /* \"#utility.yul\":7849:7855   */\n      dup3\n        /* \"#utility.yul\":7845:7859   */\n      add\n        /* \"#utility.yul\":7838:7896   */\n      mstore\n        /* \"#utility.yul\":7930:7940   */\n      0x64206661696c6564000000000000000000000000000000000000000000000000\n        /* \"#utility.yul\":7925:7927   */\n      0x20\n        /* \"#utility.yul\":7917:7923   */\n      dup3\n        /* \"#utility.yul\":7913:7928   */\n      add\n        /* \"#utility.yul\":7906:7941   */\n      mstore\n        /* \"#utility.yul\":7721:7948   */\n      pop\n      jump\t// out\n        /* \"#utility.yul\":7954:8320   */\n    tag_141:\n        /* \"#utility.yul\":8096:8099   */\n      0x00\n        /* \"#utility.yul\":8117:8184   */\n      tag_228\n        /* \"#utility.yul\":8181:8183   */\n      0x28\n        /* \"#utility.yul\":8176:8179   */\n      dup4\n        /* \"#utility.yul\":8117:8184   */\n      tag_139\n      jump\t// in\n    tag_228:\n        /* \"#utility.yul\":8110:8184   */\n      swap2\n      pop\n        /* \"#utility.yul\":8193:8286   */\n      tag_229\n        /* \"#utility.yul\":8282:8285   */\n      dup3\n        /* \"#utility.yul\":8193:8286   */\n      tag_140\n      jump\t// in\n    tag_229:\n        /* \"#utility.yul\":8311:8313   */\n      0x40\n        /* \"#utility.yul\":8306:8309   */\n      dup3\n        /* \"#utility.yul\":8302:8314   */\n      add\n        /* \"#utility.yul\":8295:8314   */\n      swap1\n      pop\n        /* \"#utility.yul\":7954:8320   */\n      swap2\n      swap1\n      pop\n      jump\t// out\n        /* \"#utility.yul\":8326:8745   */\n    tag_83:\n        /* \"#utility.yul\":8492:8496   */\n      0x00\n        /* \"#utility.yul\":8530:8532   */\n      0x20\n        /* \"#utility.yul\":8519:8528   */\n      dup3\n        /* \"#utility.yul\":8515:8533   */\n      add\n        /* \"#utility.yul\":8507:8533   */\n      swap1\n      pop\n        /* \"#utility.yul\":8579:8588   */\n      dup2\n        /* \"#utility.yul\":8573:8577   */\n      dup2\n        /* \"#utility.yul\":8569:8589   */\n      sub\n        /* \"#utility.yul\":8565:8566   */\n      0x00\n        /* \"#utility.yul\":8554:8563   */\n      dup4\n        /* \"#utility.yul\":8550:8567   */\n      add\n        /* \"#utility.yul\":8543:8590   */\n      mstore\n        /* \"#utility.yul\":8607:8738   */\n      tag_231\n        /* \"#utility.yul\":8733:8737   */\n      dup2\n        /* \"#utility.yul\":8607:8738   */\n      tag_141\n      jump\t// in\n    tag_231:\n        /* \"#utility.yul\":8599:8738   */\n      swap1\n      pop\n        /* \"#utility.yul\":8326:8745   */\n      swap2\n      swap1\n      pop\n      jump\t// out\n        /* \"#utility.yul\":8751:8973   */\n    tag_93:\n        /* \"#utility.yul\":8844:8848   */\n      0x00\n        /* \"#utility.yul\":8882:8884   */\n      0x20\n        /* \"#utility.yul\":8871:8880   */\n      dup3\n        /* \"#utility.yul\":8867:8885   */\n      add\n        /* \"#utility.yul\":8859:8885   */\n      swap1\n      pop\n        /* \"#utility.yul\":8895:8966   */\n      tag_233\n        /* \"#utility.yul\":8963:8964   */\n      0x00\n        /* \"#utility.yul\":8952:8961   */\n      dup4\n        /* \"#utility.yul\":8948:8965   */\n      add\n        /* \"#utility.yul\":8939:8945   */\n      dup5\n        /* \"#utility.yul\":8895:8966   */\n      tag_134\n      jump\t// in\n    tag_233:\n        /* \"#utility.yul\":8751:8973   */\n      swap3\n      swap2\n      pop\n      pop\n      jump\t// out\n        /* \"#utility.yul\":8979:9421   */\n    tag_103:\n        /* \"#utility.yul\":9128:9132   */\n      0x00\n        /* \"#utility.yul\":9166:9168   */\n      0x60\n        /* \"#utility.yul\":9155:9164   */\n      dup3\n        /* \"#utility.yul\":9151:9169   */\n      add\n        /* \"#utility.yul\":9143:9169   */\n      swap1\n      pop\n        /* \"#utility.yul\":9179:9250   */\n      tag_235\n        /* \"#utility.yul\":9247:9248   */\n      0x00\n        /* \"#utility.yul\":9236:9245   */\n      dup4\n        /* \"#utility.yul\":9232:9249   */\n      add\n        /* \"#utility.yul\":9223:9229   */\n      dup7\n        /* \"#utility.yul\":9179:9250   */\n      tag_134\n      jump\t// in\n    tag_235:\n        /* \"#utility.yul\":9260:9332   */\n      tag_236\n        /* \"#utility.yul\":9328:9330   */\n      0x20\n        /* \"#utility.yul\":9317:9326   */\n      dup4\n        /* \"#utility.yul\":9313:9331   */\n      add\n        /* \"#utility.yul\":9304:9310   */\n      dup6\n        /* \"#utility.yul\":9260:9332   */\n      tag_129\n      jump\t// in\n    tag_236:\n        /* \"#utility.yul\":9342:9414   */\n      tag_237\n        /* \"#utility.yul\":9410:9412   */\n      0x40\n        /* \"#utility.yul\":9399:9408   */\n      dup4\n        /* \"#utility.yul\":9395:9413   */\n      add\n        /* \"#utility.yul\":9386:9392   */\n      dup5\n        /* \"#utility.yul\":9342:9414   */\n      tag_129\n      jump\t// in\n    tag_237:\n        /* \"#utility.yul\":8979:9421   */\n      swap5\n      swap4\n      pop\n      pop\n      pop\n      pop\n      jump\t// out\n\n    auxdata: 0xa264697066735822122040f06ac5625f868c010fd212120d0d7148b2e444b0fbf3f1202ca9167c1a28b764736f6c634300081a0033\n}\n",
				"bytecode": {
					"linkReferences": {},
					"object": "6080604052601260035f6101000a81548160ff021916908360ff16021790555034801561002a575f80fd5b506040516113a23803806113a2833981810160405281019061004c91906101c3565b8181815f908161005c9190610446565b50806001908161006c9190610446565b5050505050610515565b5f604051905090565b5f80fd5b5f80fd5b5f80fd5b5f80fd5b5f601f19601f8301169050919050565b7f4e487b71000000000000000000000000000000000000000000000000000000005f52604160045260245ffd5b6100d58261008f565b810181811067ffffffffffffffff821117156100f4576100f361009f565b5b80604052505050565b5f610106610076565b905061011282826100cc565b919050565b5f67ffffffffffffffff8211156101315761013061009f565b5b61013a8261008f565b9050602081019050919050565b8281835e5f83830152505050565b5f61016761016284610117565b6100fd565b9050828152602081018484840111156101835761018261008b565b5b61018e848285610147565b509392505050565b5f82601f8301126101aa576101a9610087565b5b81516101ba848260208601610155565b91505092915050565b5f80604083850312156101d9576101d861007f565b5b5f83015167ffffffffffffffff8111156101f6576101f5610083565b5b61020285828601610196565b925050602083015167ffffffffffffffff81111561022357610222610083565b5b61022f85828601610196565b9150509250929050565b5f81519050919050565b7f4e487b71000000000000000000000000000000000000000000000000000000005f52602260045260245ffd5b5f600282049050600182168061028757607f821691505b60208210810361029a57610299610243565b5b50919050565b5f819050815f5260205f209050919050565b5f6020601f8301049050919050565b5f82821b905092915050565b5f600883026102fc7fffffffffffffffffffffffffffffffffffffffffffffffffffffffffffffffff826102c1565b61030686836102c1565b95508019841693508086168417925050509392505050565b5f819050919050565b5f819050919050565b5f61034a6103456103408461031e565b610327565b61031e565b9050919050565b5f819050919050565b61036383610330565b61037761036f82610351565b8484546102cd565b825550505050565b5f90565b61038b61037f565b61039681848461035a565b505050565b5b818110156103b9576103ae5f82610383565b60018101905061039c565b5050565b601f8211156103fe576103cf816102a0565b6103d8846102b2565b810160208510156103e7578190505b6103fb6103f3856102b2565b83018261039b565b50505b505050565b5f82821c905092915050565b5f61041e5f1984600802610403565b1980831691505092915050565b5f610436838361040f565b9150826002028217905092915050565b61044f82610239565b67ffffffffffffffff8111156104685761046761009f565b5b6104728254610270565b61047d8282856103bd565b5f60209050601f8311600181146104ae575f841561049c578287015190505b6104a6858261042b565b86555061050d565b601f1984166104bc866102a0565b5f5b828110156104e3578489015182556001820191506020850194506020810190506104be565b8683101561050057848901516104fc601f89168261040f565b8355505b6001600288020188555050505b505050505050565b610e80806105225f395ff3fe608060405234801561000f575f80fd5b506004361061007b575f3560e01c806370a082311161005957806370a08231146100fd578063a9059cbb1461012d578063d31391951461015d578063dd62ed3e1461018d5761007b565b8063095ea7b31461007f57806323b872dd146100af578063313ce567146100df575b5f80fd5b61009960048036038101906100949190610a5f565b6101bd565b6040516100a69190610ab7565b60405180910390f35b6100c960048036038101906100c49190610ad0565b610244565b6040516100d69190610ab7565b60405180910390f35b6100e76102d7565b6040516100f49190610b3b565b60405180910390f35b61011760048036038101906101129190610b54565b6102e9565b6040516101249190610b8e565b60405180910390f35b61014760048036038101906101429190610a5f565b61032f565b6040516101549190610ab7565b60405180910390f35b61017760048036038101906101729190610c08565b6103b6565b6040516101849190610ab7565b60405180910390f35b6101a760048036038101906101a29190610c79565b610526565b6040516101b49190610b8e565b60405180910390f35b5f806101c76105a8565b90506101d48185856105af565b8373ffffffffffffffffffffffffffffffffffffffff163373ffffffffffffffffffffffffffffffffffffffff167f8c5be1e5ebec7d5bd14f71427d1e84f3dd0314c0f7b2291e5b200ac8c7c3b925856040516102319190610b8e565b60405180910390a3600191505092915050565b5f8061024e6105a8565b905061025b858285610715565b6102668585856107a6565b8373ffffffffffffffffffffffffffffffffffffffff168573ffffffffffffffffffffffffffffffffffffffff167fddf252ad1be2c89b69c2b068fc378daa952ba7f163c4a11628f55a4df523b3ef856040516102c39190610b8e565b60405180910390a360019150509392505050565b60035f9054906101000a900460ff1681565b5f60045f8373ffffffffffffffffffffffffffffffffffffffff1673ffffffffffffffffffffffffffffffffffffffff1681526020019081526020015f20549050919050565b5f806103396105a8565b90506103468185856107a6565b8373ffffffffffffffffffffffffffffffffffffffff163373ffffffffffffffffffffffffffffffffffffffff167fddf252ad1be2c89b69c2b068fc378daa952ba7f163c4a11628f55a4df523b3ef856040516103a39190610b8e565b60405180910390a3600191505092915050565b5f6103c96103c26105a8565b86866107a6565b6103d2856109a8565b1561051a578473ffffffffffffffffffffffffffffffffffffffff1663d03142636103fb6105a8565b8686866040518563ffffffff1660e01b815260040161041d9493929190610d20565b5f604051808303815f87803b158015610434575f80fd5b505af1925050508015610445575060015b6104c4573d805f8114610473576040519150601f19603f3d011682016040523d82523d5f602084013e610478565b606091505b505f8151036104bc576040517f08c379a00000000000000000000000000000000000000000000000000000000081526004016104b390610dde565b60405180910390fd5b805181602001fd5b6104cc6105a8565b73ffffffffffffffffffffffffffffffffffffffff167f88a5966d370b9919b20f3e2c13ff65706f196a4e32cc2c12bf57088f88525874856040516105119190610b8e565b60405180910390a25b60019050949350505050565b5f60055f8473ffffffffffffffffffffffffffffffffffffffff1673ffffffffffffffffffffffffffffffffffffffff1681526020019081526020015f205f8373ffffffffffffffffffffffffffffffffffffffff1673ffffffffffffffffffffffffffffffffffffffff1681526020019081526020015f2054905092915050565b5f33905090565b825f73ffffffffffffffffffffffffffffffffffffffff168173ffffffffffffffffffffffffffffffffffffffff1603610620575f6040517f96c6fd1e0000000000000000000000000000000000000000000000000000000081526004016106179190610dfc565b60405180910390fd5b825f73ffffffffffffffffffffffffffffffffffffffff168173ffffffffffffffffffffffffffffffffffffffff1603610691575f6040517f96c6fd1e0000000000000000000000000000000000000000000000000000000081526004016106889190610dfc565b60405180910390fd5b8260055f8773ffffffffffffffffffffffffffffffffffffffff1673ffffffffffffffffffffffffffffffffffffffff1681526020019081526020015f205f8673ffffffffffffffffffffffffffffffffffffffff1673ffffffffffffffffffffffffffffffffffffffff1681526020019081526020015f20819055505050505050565b5f6107208484610526565b90507fffffffffffffffffffffffffffffffffffffffffffffffffffffffffffffffff81146107a05781811015610792578281836040517ffb8f41b200000000000000000000000000000000000000000000000000000000815260040161078993929190610e15565b60405180910390fd5b61079f84848484036105af565b5b50505050565b825f73ffffffffffffffffffffffffffffffffffffffff168173ffffffffffffffffffffffffffffffffffffffff1603610817575f6040517f96c6fd1e00000000000000000000000000000000000000000000000000000000815260040161080e9190610dfc565b60405180910390fd5b825f73ffffffffffffffffffffffffffffffffffffffff168173ffffffffffffffffffffffffffffffffffffffff1603610888575f6040517f96c6fd1e00000000000000000000000000000000000000000000000000000000815260040161087f9190610dfc565b60405180910390fd5b5f60045f8773ffffffffffffffffffffffffffffffffffffffff1673ffffffffffffffffffffffffffffffffffffffff1681526020019081526020015f2054905083811015610912578581856040517fe450d38c00000000000000000000000000000000000000000000000000000000815260040161090993929190610e15565b60405180910390fd5b83810360045f8873ffffffffffffffffffffffffffffffffffffffff1673ffffffffffffffffffffffffffffffffffffffff1681526020019081526020015f20819055508360045f8773ffffffffffffffffffffffffffffffffffffffff1673ffffffffffffffffffffffffffffffffffffffff1681526020019081526020015f205f8282540192505081905550505050505050565b5f808273ffffffffffffffffffffffffffffffffffffffff163b119050919050565b5f80fd5b5f80fd5b5f73ffffffffffffffffffffffffffffffffffffffff82169050919050565b5f6109fb826109d2565b9050919050565b610a0b816109f1565b8114610a15575f80fd5b50565b5f81359050610a2681610a02565b92915050565b5f819050919050565b610a3e81610a2c565b8114610a48575f80fd5b50565b5f81359050610a5981610a35565b92915050565b5f8060408385031215610a7557610a746109ca565b5b5f610a8285828601610a18565b9250506020610a9385828601610a4b565b9150509250929050565b5f8115159050919050565b610ab181610a9d565b82525050565b5f602082019050610aca5f830184610aa8565b92915050565b5f805f60608486031215610ae757610ae66109ca565b5b5f610af486828701610a18565b9350506020610b0586828701610a18565b9250506040610b1686828701610a4b565b9150509250925092565b5f60ff82169050919050565b610b3581610b20565b82525050565b5f602082019050610b4e5f830184610b2c565b92915050565b5f60208284031215610b6957610b686109ca565b5b5f610b7684828501610a18565b91505092915050565b610b8881610a2c565b82525050565b5f602082019050610ba15f830184610b7f565b92915050565b5f80fd5b5f80fd5b5f80fd5b5f8083601f840112610bc857610bc7610ba7565b5b8235905067ffffffffffffffff811115610be557610be4610bab565b5b602083019150836001820283011115610c0157610c00610baf565b5b9250929050565b5f805f8060608587031215610c2057610c1f6109ca565b5b5f610c2d87828801610a18565b9450506020610c3e87828801610a4b565b935050604085013567ffffffffffffffff811115610c5f57610c5e6109ce565b5b610c6b87828801610bb3565b925092505092959194509250565b5f8060408385031215610c8f57610c8e6109ca565b5b5f610c9c85828601610a18565b9250506020610cad85828601610a18565b9150509250929050565b610cc0816109f1565b82525050565b5f82825260208201905092915050565b828183375f83830152505050565b5f601f19601f8301169050919050565b5f610cff8385610cc6565b9350610d0c838584610cd6565b610d1583610ce4565b840190509392505050565b5f606082019050610d335f830187610cb7565b610d406020830186610b7f565b8181036040830152610d53818486610cf4565b905095945050505050565b5f82825260208201905092915050565b7f45524332305769746843616c6c6261636b3a20746f6b656e73526563656976655f8201527f64206661696c6564000000000000000000000000000000000000000000000000602082015250565b5f610dc8602883610d5e565b9150610dd382610d6e565b604082019050919050565b5f6020820190508181035f830152610df581610dbc565b9050919050565b5f602082019050610e0f5f830184610cb7565b92915050565b5f606082019050610e285f830186610cb7565b610e356020830185610b7f565b610e426040830184610b7f565b94935050505056fea264697066735822122040f06ac5625f868c010fd212120d0d7148b2e444b0fbf3f1202ca9167c1a28b764736f6c634300081a0033",
					"opcodes": "PUSH1 0x80 PUSH1 0x40 MSTORE PUSH1 0x12 PUSH1 0x3 PUSH0 PUSH2 0x100 EXP DUP2 SLOAD DUP2 PUSH1 0xFF MUL NOT AND SWAP1 DUP4 PUSH1 0xFF AND MUL OR SWAP1 SSTORE POP CALLVALUE DUP1 ISZERO PUSH2 0x2A JUMPI PUSH0 DUP1 REVERT JUMPDEST POP PUSH1 0x40 MLOAD PUSH2 0x13A2 CODESIZE SUB DUP1 PUSH2 0x13A2 DUP4 CODECOPY DUP2 DUP2 ADD PUSH1 0x40 MSTORE DUP2 ADD SWAP1 PUSH2 0x4C SWAP2 SWAP1 PUSH2 0x1C3 JUMP JUMPDEST DUP2 DUP2 DUP2 PUSH0 SWAP1 DUP2 PUSH2 0x5C SWAP2 SWAP1 PUSH2 0x446 JUMP JUMPDEST POP DUP1 PUSH1 0x1 SWAP1 DUP2 PUSH2 0x6C SWAP2 SWAP1 PUSH2 0x446 JUMP JUMPDEST POP POP POP POP POP PUSH2 0x515 JUMP JUMPDEST PUSH0 PUSH1 0x40 MLOAD SWAP1 POP SWAP1 JUMP JUMPDEST PUSH0 DUP1 REVERT JUMPDEST PUSH0 DUP1 REVERT JUMPDEST PUSH0 DUP1 REVERT JUMPDEST PUSH0 DUP1 REVERT JUMPDEST PUSH0 PUSH1 0x1F NOT PUSH1 0x1F DUP4 ADD AND SWAP1 POP SWAP2 SWAP1 POP JUMP JUMPDEST PUSH32 0x4E487B7100000000000000000000000000000000000000000000000000000000 PUSH0 MSTORE PUSH1 0x41 PUSH1 0x4 MSTORE PUSH1 0x24 PUSH0 REVERT JUMPDEST PUSH2 0xD5 DUP3 PUSH2 0x8F JUMP JUMPDEST DUP2 ADD DUP2 DUP2 LT PUSH8 0xFFFFFFFFFFFFFFFF DUP3 GT OR ISZERO PUSH2 0xF4 JUMPI PUSH2 0xF3 PUSH2 0x9F JUMP JUMPDEST JUMPDEST DUP1 PUSH1 0x40 MSTORE POP POP POP JUMP JUMPDEST PUSH0 PUSH2 0x106 PUSH2 0x76 JUMP JUMPDEST SWAP1 POP PUSH2 0x112 DUP3 DUP3 PUSH2 0xCC JUMP JUMPDEST SWAP2 SWAP1 POP JUMP JUMPDEST PUSH0 PUSH8 0xFFFFFFFFFFFFFFFF DUP3 GT ISZERO PUSH2 0x131 JUMPI PUSH2 0x130 PUSH2 0x9F JUMP JUMPDEST JUMPDEST PUSH2 0x13A DUP3 PUSH2 0x8F JUMP JUMPDEST SWAP1 POP PUSH1 0x20 DUP2 ADD SWAP1 POP SWAP2 SWAP1 POP JUMP JUMPDEST DUP3 DUP2 DUP4 MCOPY PUSH0 DUP4 DUP4 ADD MSTORE POP POP POP JUMP JUMPDEST PUSH0 PUSH2 0x167 PUSH2 0x162 DUP5 PUSH2 0x117 JUMP JUMPDEST PUSH2 0xFD JUMP JUMPDEST SWAP1 POP DUP3 DUP2 MSTORE PUSH1 0x20 DUP2 ADD DUP5 DUP5 DUP5 ADD GT ISZERO PUSH2 0x183 JUMPI PUSH2 0x182 PUSH2 0x8B JUMP JUMPDEST JUMPDEST PUSH2 0x18E DUP5 DUP3 DUP6 PUSH2 0x147 JUMP JUMPDEST POP SWAP4 SWAP3 POP POP POP JUMP JUMPDEST PUSH0 DUP3 PUSH1 0x1F DUP4 ADD SLT PUSH2 0x1AA JUMPI PUSH2 0x1A9 PUSH2 0x87 JUMP JUMPDEST JUMPDEST DUP2 MLOAD PUSH2 0x1BA DUP5 DUP3 PUSH1 0x20 DUP7 ADD PUSH2 0x155 JUMP JUMPDEST SWAP2 POP POP SWAP3 SWAP2 POP POP JUMP JUMPDEST PUSH0 DUP1 PUSH1 0x40 DUP4 DUP6 SUB SLT ISZERO PUSH2 0x1D9 JUMPI PUSH2 0x1D8 PUSH2 0x7F JUMP JUMPDEST JUMPDEST PUSH0 DUP4 ADD MLOAD PUSH8 0xFFFFFFFFFFFFFFFF DUP2 GT ISZERO PUSH2 0x1F6 JUMPI PUSH2 0x1F5 PUSH2 0x83 JUMP JUMPDEST JUMPDEST PUSH2 0x202 DUP6 DUP3 DUP7 ADD PUSH2 0x196 JUMP JUMPDEST SWAP3 POP POP PUSH1 0x20 DUP4 ADD MLOAD PUSH8 0xFFFFFFFFFFFFFFFF DUP2 GT ISZERO PUSH2 0x223 JUMPI PUSH2 0x222 PUSH2 0x83 JUMP JUMPDEST JUMPDEST PUSH2 0x22F DUP6 DUP3 DUP7 ADD PUSH2 0x196 JUMP JUMPDEST SWAP2 POP POP SWAP3 POP SWAP3 SWAP1 POP JUMP JUMPDEST PUSH0 DUP2 MLOAD SWAP1 POP SWAP2 SWAP1 POP JUMP JUMPDEST PUSH32 0x4E487B7100000000000000000000000000000000000000000000000000000000 PUSH0 MSTORE PUSH1 0x22 PUSH1 0x4 MSTORE PUSH1 0x24 PUSH0 REVERT JUMPDEST PUSH0 PUSH1 0x2 DUP3 DIV SWAP1 POP PUSH1 0x1 DUP3 AND DUP1 PUSH2 0x287 JUMPI PUSH1 0x7F DUP3 AND SWAP2 POP JUMPDEST PUSH1 0x20 DUP3 LT DUP2 SUB PUSH2 0x29A JUMPI PUSH2 0x299 PUSH2 0x243 JUMP JUMPDEST JUMPDEST POP SWAP2 SWAP1 POP JUMP JUMPDEST PUSH0 DUP2 SWAP1 POP DUP2 PUSH0 MSTORE PUSH1 0x20 PUSH0 KECCAK256 SWAP1 POP SWAP2 SWAP1 POP JUMP JUMPDEST PUSH0 PUSH1 0x20 PUSH1 0x1F DUP4 ADD DIV SWAP1 POP SWAP2 SWAP1 POP JUMP JUMPDEST PUSH0 DUP3 DUP3 SHL SWAP1 POP SWAP3 SWAP2 POP POP JUMP JUMPDEST PUSH0 PUSH1 0x8 DUP4 MUL PUSH2 0x2FC PUSH32 0xFFFFFFFFFFFFFFFFFFFFFFFFFFFFFFFFFFFFFFFFFFFFFFFFFFFFFFFFFFFFFFFF DUP3 PUSH2 0x2C1 JUMP JUMPDEST PUSH2 0x306 DUP7 DUP4 PUSH2 0x2C1 JUMP JUMPDEST SWAP6 POP DUP1 NOT DUP5 AND SWAP4 POP DUP1 DUP7 AND DUP5 OR SWAP3 POP POP POP SWAP4 SWAP3 POP POP POP JUMP JUMPDEST PUSH0 DUP2 SWAP1 POP SWAP2 SWAP1 POP JUMP JUMPDEST PUSH0 DUP2 SWAP1 POP SWAP2 SWAP1 POP JUMP JUMPDEST PUSH0 PUSH2 0x34A PUSH2 0x345 PUSH2 0x340 DUP5 PUSH2 0x31E JUMP JUMPDEST PUSH2 0x327 JUMP JUMPDEST PUSH2 0x31E JUMP JUMPDEST SWAP1 POP SWAP2 SWAP1 POP JUMP JUMPDEST PUSH0 DUP2 SWAP1 POP SWAP2 SWAP1 POP JUMP JUMPDEST PUSH2 0x363 DUP4 PUSH2 0x330 JUMP JUMPDEST PUSH2 0x377 PUSH2 0x36F DUP3 PUSH2 0x351 JUMP JUMPDEST DUP5 DUP5 SLOAD PUSH2 0x2CD JUMP JUMPDEST DUP3 SSTORE POP POP POP POP JUMP JUMPDEST PUSH0 SWAP1 JUMP JUMPDEST PUSH2 0x38B PUSH2 0x37F JUMP JUMPDEST PUSH2 0x396 DUP2 DUP5 DUP5 PUSH2 0x35A JUMP JUMPDEST POP POP POP JUMP JUMPDEST JUMPDEST DUP2 DUP2 LT ISZERO PUSH2 0x3B9 JUMPI PUSH2 0x3AE PUSH0 DUP3 PUSH2 0x383 JUMP JUMPDEST PUSH1 0x1 DUP2 ADD SWAP1 POP PUSH2 0x39C JUMP JUMPDEST POP POP JUMP JUMPDEST PUSH1 0x1F DUP3 GT ISZERO PUSH2 0x3FE JUMPI PUSH2 0x3CF DUP2 PUSH2 0x2A0 JUMP JUMPDEST PUSH2 0x3D8 DUP5 PUSH2 0x2B2 JUMP JUMPDEST DUP2 ADD PUSH1 0x20 DUP6 LT ISZERO PUSH2 0x3E7 JUMPI DUP2 SWAP1 POP JUMPDEST PUSH2 0x3FB PUSH2 0x3F3 DUP6 PUSH2 0x2B2 JUMP JUMPDEST DUP4 ADD DUP3 PUSH2 0x39B JUMP JUMPDEST POP POP JUMPDEST POP POP POP JUMP JUMPDEST PUSH0 DUP3 DUP3 SHR SWAP1 POP SWAP3 SWAP2 POP POP JUMP JUMPDEST PUSH0 PUSH2 0x41E PUSH0 NOT DUP5 PUSH1 0x8 MUL PUSH2 0x403 JUMP JUMPDEST NOT DUP1 DUP4 AND SWAP2 POP POP SWAP3 SWAP2 POP POP JUMP JUMPDEST PUSH0 PUSH2 0x436 DUP4 DUP4 PUSH2 0x40F JUMP JUMPDEST SWAP2 POP DUP3 PUSH1 0x2 MUL DUP3 OR SWAP1 POP SWAP3 SWAP2 POP POP JUMP JUMPDEST PUSH2 0x44F DUP3 PUSH2 0x239 JUMP JUMPDEST PUSH8 0xFFFFFFFFFFFFFFFF DUP2 GT ISZERO PUSH2 0x468 JUMPI PUSH2 0x467 PUSH2 0x9F JUMP JUMPDEST JUMPDEST PUSH2 0x472 DUP3 SLOAD PUSH2 0x270 JUMP JUMPDEST PUSH2 0x47D DUP3 DUP3 DUP6 PUSH2 0x3BD JUMP JUMPDEST PUSH0 PUSH1 0x20 SWAP1 POP PUSH1 0x1F DUP4 GT PUSH1 0x1 DUP2 EQ PUSH2 0x4AE JUMPI PUSH0 DUP5 ISZERO PUSH2 0x49C JUMPI DUP3 DUP8 ADD MLOAD SWAP1 POP JUMPDEST PUSH2 0x4A6 DUP6 DUP3 PUSH2 0x42B JUMP JUMPDEST DUP7 SSTORE POP PUSH2 0x50D JUMP JUMPDEST PUSH1 0x1F NOT DUP5 AND PUSH2 0x4BC DUP7 PUSH2 0x2A0 JUMP JUMPDEST PUSH0 JUMPDEST DUP3 DUP2 LT ISZERO PUSH2 0x4E3 JUMPI DUP5 DUP10 ADD MLOAD DUP3 SSTORE PUSH1 0x1 DUP3 ADD SWAP2 POP PUSH1 0x20 DUP6 ADD SWAP5 POP PUSH1 0x20 DUP2 ADD SWAP1 POP PUSH2 0x4BE JUMP JUMPDEST DUP7 DUP4 LT ISZERO PUSH2 0x500 JUMPI DUP5 DUP10 ADD MLOAD PUSH2 0x4FC PUSH1 0x1F DUP10 AND DUP3 PUSH2 0x40F JUMP JUMPDEST DUP4 SSTORE POP JUMPDEST PUSH1 0x1 PUSH1 0x2 DUP9 MUL ADD DUP9 SSTORE POP POP POP JUMPDEST POP POP POP POP POP POP JUMP JUMPDEST PUSH2 0xE80 DUP1 PUSH2 0x522 PUSH0 CODECOPY PUSH0 RETURN INVALID PUSH1 0x80 PUSH1 0x40 MSTORE CALLVALUE DUP1 ISZERO PUSH2 0xF JUMPI PUSH0 DUP1 REVERT JUMPDEST POP PUSH1 0x4 CALLDATASIZE LT PUSH2 0x7B JUMPI PUSH0 CALLDATALOAD PUSH1 0xE0 SHR DUP1 PUSH4 0x70A08231 GT PUSH2 0x59 JUMPI DUP1 PUSH4 0x70A08231 EQ PUSH2 0xFD JUMPI DUP1 PUSH4 0xA9059CBB EQ PUSH2 0x12D JUMPI DUP1 PUSH4 0xD3139195 EQ PUSH2 0x15D JUMPI DUP1 PUSH4 0xDD62ED3E EQ PUSH2 0x18D JUMPI PUSH2 0x7B JUMP JUMPDEST DUP1 PUSH4 0x95EA7B3 EQ PUSH2 0x7F JUMPI DUP1 PUSH4 0x23B872DD EQ PUSH2 0xAF JUMPI DUP1 PUSH4 0x313CE567 EQ PUSH2 0xDF JUMPI JUMPDEST PUSH0 DUP1 REVERT JUMPDEST PUSH2 0x99 PUSH1 0x4 DUP1 CALLDATASIZE SUB DUP2 ADD SWAP1 PUSH2 0x94 SWAP2 SWAP1 PUSH2 0xA5F JUMP JUMPDEST PUSH2 0x1BD JUMP JUMPDEST PUSH1 0x40 MLOAD PUSH2 0xA6 SWAP2 SWAP1 PUSH2 0xAB7 JUMP JUMPDEST PUSH1 0x40 MLOAD DUP1 SWAP2 SUB SWAP1 RETURN JUMPDEST PUSH2 0xC9 PUSH1 0x4 DUP1 CALLDATASIZE SUB DUP2 ADD SWAP1 PUSH2 0xC4 SWAP2 SWAP1 PUSH2 0xAD0 JUMP JUMPDEST PUSH2 0x244 JUMP JUMPDEST PUSH1 0x40 MLOAD PUSH2 0xD6 SWAP2 SWAP1 PUSH2 0xAB7 JUMP JUMPDEST PUSH1 0x40 MLOAD DUP1 SWAP2 SUB SWAP1 RETURN JUMPDEST PUSH2 0xE7 PUSH2 0x2D7 JUMP JUMPDEST PUSH1 0x40 MLOAD PUSH2 0xF4 SWAP2 SWAP1 PUSH2 0xB3B JUMP JUMPDEST PUSH1 0x40 MLOAD DUP1 SWAP2 SUB SWAP1 RETURN JUMPDEST PUSH2 0x117 PUSH1 0x4 DUP1 CALLDATASIZE SUB DUP2 ADD SWAP1 PUSH2 0x112 SWAP2 SWAP1 PUSH2 0xB54 JUMP JUMPDEST PUSH2 0x2E9 JUMP JUMPDEST PUSH1 0x40 MLOAD PUSH2 0x124 SWAP2 SWAP1 PUSH2 0xB8E JUMP JUMPDEST PUSH1 0x40 MLOAD DUP1 SWAP2 SUB SWAP1 RETURN JUMPDEST PUSH2 0x147 PUSH1 0x4 DUP1 CALLDATASIZE SUB DUP2 ADD SWAP1 PUSH2 0x142 SWAP2 SWAP1 PUSH2 0xA5F JUMP JUMPDEST PUSH2 0x32F JUMP JUMPDEST PUSH1 0x40 MLOAD PUSH2 0x154 SWAP2 SWAP1 PUSH2 0xAB7 JUMP JUMPDEST PUSH1 0x40 MLOAD DUP1 SWAP2 SUB SWAP1 RETURN JUMPDEST PUSH2 0x177 PUSH1 0x4 DUP1 CALLDATASIZE SUB DUP2 ADD SWAP1 PUSH2 0x172 SWAP2 SWAP1 PUSH2 0xC08 JUMP JUMPDEST PUSH2 0x3B6 JUMP JUMPDEST PUSH1 0x40 MLOAD PUSH2 0x184 SWAP2 SWAP1 PUSH2 0xAB7 JUMP JUMPDEST PUSH1 0x40 MLOAD DUP1 SWAP2 SUB SWAP1 RETURN JUMPDEST PUSH2 0x1A7 PUSH1 0x4 DUP1 CALLDATASIZE SUB DUP2 ADD SWAP1 PUSH2 0x1A2 SWAP2 SWAP1 PUSH2 0xC79 JUMP JUMPDEST PUSH2 0x526 JUMP JUMPDEST PUSH1 0x40 MLOAD PUSH2 0x1B4 SWAP2 SWAP1 PUSH2 0xB8E JUMP JUMPDEST PUSH1 0x40 MLOAD DUP1 SWAP2 SUB SWAP1 RETURN JUMPDEST PUSH0 DUP1 PUSH2 0x1C7 PUSH2 0x5A8 JUMP JUMPDEST SWAP1 POP PUSH2 0x1D4 DUP2 DUP6 DUP6 PUSH2 0x5AF JUMP JUMPDEST DUP4 PUSH20 0xFFFFFFFFFFFFFFFFFFFFFFFFFFFFFFFFFFFFFFFF AND CALLER PUSH20 0xFFFFFFFFFFFFFFFFFFFFFFFFFFFFFFFFFFFFFFFF AND PUSH32 0x8C5BE1E5EBEC7D5BD14F71427D1E84F3DD0314C0F7B2291E5B200AC8C7C3B925 DUP6 PUSH1 0x40 MLOAD PUSH2 0x231 SWAP2 SWAP1 PUSH2 0xB8E JUMP JUMPDEST PUSH1 0x40 MLOAD DUP1 SWAP2 SUB SWAP1 LOG3 PUSH1 0x1 SWAP2 POP POP SWAP3 SWAP2 POP POP JUMP JUMPDEST PUSH0 DUP1 PUSH2 0x24E PUSH2 0x5A8 JUMP JUMPDEST SWAP1 POP PUSH2 0x25B DUP6 DUP3 DUP6 PUSH2 0x715 JUMP JUMPDEST PUSH2 0x266 DUP6 DUP6 DUP6 PUSH2 0x7A6 JUMP JUMPDEST DUP4 PUSH20 0xFFFFFFFFFFFFFFFFFFFFFFFFFFFFFFFFFFFFFFFF AND DUP6 PUSH20 0xFFFFFFFFFFFFFFFFFFFFFFFFFFFFFFFFFFFFFFFF AND PUSH32 0xDDF252AD1BE2C89B69C2B068FC378DAA952BA7F163C4A11628F55A4DF523B3EF DUP6 PUSH1 0x40 MLOAD PUSH2 0x2C3 SWAP2 SWAP1 PUSH2 0xB8E JUMP JUMPDEST PUSH1 0x40 MLOAD DUP1 SWAP2 SUB SWAP1 LOG3 PUSH1 0x1 SWAP2 POP POP SWAP4 SWAP3 POP POP POP JUMP JUMPDEST PUSH1 0x3 PUSH0 SWAP1 SLOAD SWAP1 PUSH2 0x100 EXP SWAP1 DIV PUSH1 0xFF AND DUP2 JUMP JUMPDEST PUSH0 PUSH1 0x4 PUSH0 DUP4 PUSH20 0xFFFFFFFFFFFFFFFFFFFFFFFFFFFFFFFFFFFFFFFF AND PUSH20 0xFFFFFFFFFFFFFFFFFFFFFFFFFFFFFFFFFFFFFFFF AND DUP2 MSTORE PUSH1 0x20 ADD SWAP1 DUP2 MSTORE PUSH1 0x20 ADD PUSH0 KECCAK256 SLOAD SWAP1 POP SWAP2 SWAP1 POP JUMP JUMPDEST PUSH0 DUP1 PUSH2 0x339 PUSH2 0x5A8 JUMP JUMPDEST SWAP1 POP PUSH2 0x346 DUP2 DUP6 DUP6 PUSH2 0x7A6 JUMP JUMPDEST DUP4 PUSH20 0xFFFFFFFFFFFFFFFFFFFFFFFFFFFFFFFFFFFFFFFF AND CALLER PUSH20 0xFFFFFFFFFFFFFFFFFFFFFFFFFFFFFFFFFFFFFFFF AND PUSH32 0xDDF252AD1BE2C89B69C2B068FC378DAA952BA7F163C4A11628F55A4DF523B3EF DUP6 PUSH1 0x40 MLOAD PUSH2 0x3A3 SWAP2 SWAP1 PUSH2 0xB8E JUMP JUMPDEST PUSH1 0x40 MLOAD DUP1 SWAP2 SUB SWAP1 LOG3 PUSH1 0x1 SWAP2 POP POP SWAP3 SWAP2 POP POP JUMP JUMPDEST PUSH0 PUSH2 0x3C9 PUSH2 0x3C2 PUSH2 0x5A8 JUMP JUMPDEST DUP7 DUP7 PUSH2 0x7A6 JUMP JUMPDEST PUSH2 0x3D2 DUP6 PUSH2 0x9A8 JUMP JUMPDEST ISZERO PUSH2 0x51A JUMPI DUP5 PUSH20 0xFFFFFFFFFFFFFFFFFFFFFFFFFFFFFFFFFFFFFFFF AND PUSH4 0xD0314263 PUSH2 0x3FB PUSH2 0x5A8 JUMP JUMPDEST DUP7 DUP7 DUP7 PUSH1 0x40 MLOAD DUP6 PUSH4 0xFFFFFFFF AND PUSH1 0xE0 SHL DUP2 MSTORE PUSH1 0x4 ADD PUSH2 0x41D SWAP5 SWAP4 SWAP3 SWAP2 SWAP1 PUSH2 0xD20 JUMP JUMPDEST PUSH0 PUSH1 0x40 MLOAD DUP1 DUP4 SUB DUP2 PUSH0 DUP8 DUP1 EXTCODESIZE ISZERO DUP1 ISZERO PUSH2 0x434 JUMPI PUSH0 DUP1 REVERT JUMPDEST POP GAS CALL SWAP3 POP POP POP DUP1 ISZERO PUSH2 0x445 JUMPI POP PUSH1 0x1 JUMPDEST PUSH2 0x4C4 JUMPI RETURNDATASIZE DUP1 PUSH0 DUP2 EQ PUSH2 0x473 JUMPI PUSH1 0x40 MLOAD SWAP2 POP PUSH1 0x1F NOT PUSH1 0x3F RETURNDATASIZE ADD AND DUP3 ADD PUSH1 0x40 MSTORE RETURNDATASIZE DUP3 MSTORE RETURNDATASIZE PUSH0 PUSH1 0x20 DUP5 ADD RETURNDATACOPY PUSH2 0x478 JUMP JUMPDEST PUSH1 0x60 SWAP2 POP JUMPDEST POP PUSH0 DUP2 MLOAD SUB PUSH2 0x4BC JUMPI PUSH1 0x40 MLOAD PUSH32 0x8C379A000000000000000000000000000000000000000000000000000000000 DUP2 MSTORE PUSH1 0x4 ADD PUSH2 0x4B3 SWAP1 PUSH2 0xDDE JUMP JUMPDEST PUSH1 0x40 MLOAD DUP1 SWAP2 SUB SWAP1 REVERT JUMPDEST DUP1 MLOAD DUP2 PUSH1 0x20 ADD REVERT JUMPDEST PUSH2 0x4CC PUSH2 0x5A8 JUMP JUMPDEST PUSH20 0xFFFFFFFFFFFFFFFFFFFFFFFFFFFFFFFFFFFFFFFF AND PUSH32 0x88A5966D370B9919B20F3E2C13FF65706F196A4E32CC2C12BF57088F88525874 DUP6 PUSH1 0x40 MLOAD PUSH2 0x511 SWAP2 SWAP1 PUSH2 0xB8E JUMP JUMPDEST PUSH1 0x40 MLOAD DUP1 SWAP2 SUB SWAP1 LOG2 JUMPDEST PUSH1 0x1 SWAP1 POP SWAP5 SWAP4 POP POP POP POP JUMP JUMPDEST PUSH0 PUSH1 0x5 PUSH0 DUP5 PUSH20 0xFFFFFFFFFFFFFFFFFFFFFFFFFFFFFFFFFFFFFFFF AND PUSH20 0xFFFFFFFFFFFFFFFFFFFFFFFFFFFFFFFFFFFFFFFF AND DUP2 MSTORE PUSH1 0x20 ADD SWAP1 DUP2 MSTORE PUSH1 0x20 ADD PUSH0 KECCAK256 PUSH0 DUP4 PUSH20 0xFFFFFFFFFFFFFFFFFFFFFFFFFFFFFFFFFFFFFFFF AND PUSH20 0xFFFFFFFFFFFFFFFFFFFFFFFFFFFFFFFFFFFFFFFF AND DUP2 MSTORE PUSH1 0x20 ADD SWAP1 DUP2 MSTORE PUSH1 0x20 ADD PUSH0 KECCAK256 SLOAD SWAP1 POP SWAP3 SWAP2 POP POP JUMP JUMPDEST PUSH0 CALLER SWAP1 POP SWAP1 JUMP JUMPDEST DUP3 PUSH0 PUSH20 0xFFFFFFFFFFFFFFFFFFFFFFFFFFFFFFFFFFFFFFFF AND DUP2 PUSH20 0xFFFFFFFFFFFFFFFFFFFFFFFFFFFFFFFFFFFFFFFF AND SUB PUSH2 0x620 JUMPI PUSH0 PUSH1 0x40 MLOAD PUSH32 0x96C6FD1E00000000000000000000000000000000000000000000000000000000 DUP2 MSTORE PUSH1 0x4 ADD PUSH2 0x617 SWAP2 SWAP1 PUSH2 0xDFC JUMP JUMPDEST PUSH1 0x40 MLOAD DUP1 SWAP2 SUB SWAP1 REVERT JUMPDEST DUP3 PUSH0 PUSH20 0xFFFFFFFFFFFFFFFFFFFFFFFFFFFFFFFFFFFFFFFF AND DUP2 PUSH20 0xFFFFFFFFFFFFFFFFFFFFFFFFFFFFFFFFFFFFFFFF AND SUB PUSH2 0x691 JUMPI PUSH0 PUSH1 0x40 MLOAD PUSH32 0x96C6FD1E00000000000000000000000000000000000000000000000000000000 DUP2 MSTORE PUSH1 0x4 ADD PUSH2 0x688 SWAP2 SWAP1 PUSH2 0xDFC JUMP JUMPDEST PUSH1 0x40 MLOAD DUP1 SWAP2 SUB SWAP1 REVERT JUMPDEST DUP3 PUSH1 0x5 PUSH0 DUP8 PUSH20 0xFFFFFFFFFFFFFFFFFFFFFFFFFFFFFFFFFFFFFFFF AND PUSH20 0xFFFFFFFFFFFFFFFFFFFFFFFFFFFFFFFFFFFFFFFF AND DUP2 MSTORE PUSH1 0x20 ADD SWAP1 DUP2 MSTORE PUSH1 0x20 ADD PUSH0 KECCAK256 PUSH0 DUP7 PUSH20 0xFFFFFFFFFFFFFFFFFFFFFFFFFFFFFFFFFFFFFFFF AND PUSH20 0xFFFFFFFFFFFFFFFFFFFFFFFFFFFFFFFFFFFFFFFF AND DUP2 MSTORE PUSH1 0x20 ADD SWAP1 DUP2 MSTORE PUSH1 0x20 ADD PUSH0 KECCAK256 DUP2 SWAP1 SSTORE POP POP POP POP POP POP JUMP JUMPDEST PUSH0 PUSH2 0x720 DUP5 DUP5 PUSH2 0x526 JUMP JUMPDEST SWAP1 POP PUSH32 0xFFFFFFFFFFFFFFFFFFFFFFFFFFFFFFFFFFFFFFFFFFFFFFFFFFFFFFFFFFFFFFFF DUP2 EQ PUSH2 0x7A0 JUMPI DUP2 DUP2 LT ISZERO PUSH2 0x792 JUMPI DUP3 DUP2 DUP4 PUSH1 0x40 MLOAD PUSH32 0xFB8F41B200000000000000000000000000000000000000000000000000000000 DUP2 MSTORE PUSH1 0x4 ADD PUSH2 0x789 SWAP4 SWAP3 SWAP2 SWAP1 PUSH2 0xE15 JUMP JUMPDEST PUSH1 0x40 MLOAD DUP1 SWAP2 SUB SWAP1 REVERT JUMPDEST PUSH2 0x79F DUP5 DUP5 DUP5 DUP5 SUB PUSH2 0x5AF JUMP JUMPDEST JUMPDEST POP POP POP POP JUMP JUMPDEST DUP3 PUSH0 PUSH20 0xFFFFFFFFFFFFFFFFFFFFFFFFFFFFFFFFFFFFFFFF AND DUP2 PUSH20 0xFFFFFFFFFFFFFFFFFFFFFFFFFFFFFFFFFFFFFFFF AND SUB PUSH2 0x817 JUMPI PUSH0 PUSH1 0x40 MLOAD PUSH32 0x96C6FD1E00000000000000000000000000000000000000000000000000000000 DUP2 MSTORE PUSH1 0x4 ADD PUSH2 0x80E SWAP2 SWAP1 PUSH2 0xDFC JUMP JUMPDEST PUSH1 0x40 MLOAD DUP1 SWAP2 SUB SWAP1 REVERT JUMPDEST DUP3 PUSH0 PUSH20 0xFFFFFFFFFFFFFFFFFFFFFFFFFFFFFFFFFFFFFFFF AND DUP2 PUSH20 0xFFFFFFFFFFFFFFFFFFFFFFFFFFFFFFFFFFFFFFFF AND SUB PUSH2 0x888 JUMPI PUSH0 PUSH1 0x40 MLOAD PUSH32 0x96C6FD1E00000000000000000000000000000000000000000000000000000000 DUP2 MSTORE PUSH1 0x4 ADD PUSH2 0x87F SWAP2 SWAP1 PUSH2 0xDFC JUMP JUMPDEST PUSH1 0x40 MLOAD DUP1 SWAP2 SUB SWAP1 REVERT JUMPDEST PUSH0 PUSH1 0x4 PUSH0 DUP8 PUSH20 0xFFFFFFFFFFFFFFFFFFFFFFFFFFFFFFFFFFFFFFFF AND PUSH20 0xFFFFFFFFFFFFFFFFFFFFFFFFFFFFFFFFFFFFFFFF AND DUP2 MSTORE PUSH1 0x20 ADD SWAP1 DUP2 MSTORE PUSH1 0x20 ADD PUSH0 KECCAK256 SLOAD SWAP1 POP DUP4 DUP2 LT ISZERO PUSH2 0x912 JUMPI DUP6 DUP2 DUP6 PUSH1 0x40 MLOAD PUSH32 0xE450D38C00000000000000000000000000000000000000000000000000000000 DUP2 MSTORE PUSH1 0x4 ADD PUSH2 0x909 SWAP4 SWAP3 SWAP2 SWAP1 PUSH2 0xE15 JUMP JUMPDEST PUSH1 0x40 MLOAD DUP1 SWAP2 SUB SWAP1 REVERT JUMPDEST DUP4 DUP2 SUB PUSH1 0x4 PUSH0 DUP9 PUSH20 0xFFFFFFFFFFFFFFFFFFFFFFFFFFFFFFFFFFFFFFFF AND PUSH20 0xFFFFFFFFFFFFFFFFFFFFFFFFFFFFFFFFFFFFFFFF AND DUP2 MSTORE PUSH1 0x20 ADD SWAP1 DUP2 MSTORE PUSH1 0x20 ADD PUSH0 KECCAK256 DUP2 SWAP1 SSTORE POP DUP4 PUSH1 0x4 PUSH0 DUP8 PUSH20 0xFFFFFFFFFFFFFFFFFFFFFFFFFFFFFFFFFFFFFFFF AND PUSH20 0xFFFFFFFFFFFFFFFFFFFFFFFFFFFFFFFFFFFFFFFF AND DUP2 MSTORE PUSH1 0x20 ADD SWAP1 DUP2 MSTORE PUSH1 0x20 ADD PUSH0 KECCAK256 PUSH0 DUP3 DUP3 SLOAD ADD SWAP3 POP POP DUP2 SWAP1 SSTORE POP POP POP POP POP POP POP JUMP JUMPDEST PUSH0 DUP1 DUP3 PUSH20 0xFFFFFFFFFFFFFFFFFFFFFFFFFFFFFFFFFFFFFFFF AND EXTCODESIZE GT SWAP1 POP SWAP2 SWAP1 POP JUMP JUMPDEST PUSH0 DUP1 REVERT JUMPDEST PUSH0 DUP1 REVERT JUMPDEST PUSH0 PUSH20 0xFFFFFFFFFFFFFFFFFFFFFFFFFFFFFFFFFFFFFFFF DUP3 AND SWAP1 POP SWAP2 SWAP1 POP JUMP JUMPDEST PUSH0 PUSH2 0x9FB DUP3 PUSH2 0x9D2 JUMP JUMPDEST SWAP1 POP SWAP2 SWAP1 POP JUMP JUMPDEST PUSH2 0xA0B DUP2 PUSH2 0x9F1 JUMP JUMPDEST DUP2 EQ PUSH2 0xA15 JUMPI PUSH0 DUP1 REVERT JUMPDEST POP JUMP JUMPDEST PUSH0 DUP2 CALLDATALOAD SWAP1 POP PUSH2 0xA26 DUP2 PUSH2 0xA02 JUMP JUMPDEST SWAP3 SWAP2 POP POP JUMP JUMPDEST PUSH0 DUP2 SWAP1 POP SWAP2 SWAP1 POP JUMP JUMPDEST PUSH2 0xA3E DUP2 PUSH2 0xA2C JUMP JUMPDEST DUP2 EQ PUSH2 0xA48 JUMPI PUSH0 DUP1 REVERT JUMPDEST POP JUMP JUMPDEST PUSH0 DUP2 CALLDATALOAD SWAP1 POP PUSH2 0xA59 DUP2 PUSH2 0xA35 JUMP JUMPDEST SWAP3 SWAP2 POP POP JUMP JUMPDEST PUSH0 DUP1 PUSH1 0x40 DUP4 DUP6 SUB SLT ISZERO PUSH2 0xA75 JUMPI PUSH2 0xA74 PUSH2 0x9CA JUMP JUMPDEST JUMPDEST PUSH0 PUSH2 0xA82 DUP6 DUP3 DUP7 ADD PUSH2 0xA18 JUMP JUMPDEST SWAP3 POP POP PUSH1 0x20 PUSH2 0xA93 DUP6 DUP3 DUP7 ADD PUSH2 0xA4B JUMP JUMPDEST SWAP2 POP POP SWAP3 POP SWAP3 SWAP1 POP JUMP JUMPDEST PUSH0 DUP2 ISZERO ISZERO SWAP1 POP SWAP2 SWAP1 POP JUMP JUMPDEST PUSH2 0xAB1 DUP2 PUSH2 0xA9D JUMP JUMPDEST DUP3 MSTORE POP POP JUMP JUMPDEST PUSH0 PUSH1 0x20 DUP3 ADD SWAP1 POP PUSH2 0xACA PUSH0 DUP4 ADD DUP5 PUSH2 0xAA8 JUMP JUMPDEST SWAP3 SWAP2 POP POP JUMP JUMPDEST PUSH0 DUP1 PUSH0 PUSH1 0x60 DUP5 DUP7 SUB SLT ISZERO PUSH2 0xAE7 JUMPI PUSH2 0xAE6 PUSH2 0x9CA JUMP JUMPDEST JUMPDEST PUSH0 PUSH2 0xAF4 DUP7 DUP3 DUP8 ADD PUSH2 0xA18 JUMP JUMPDEST SWAP4 POP POP PUSH1 0x20 PUSH2 0xB05 DUP7 DUP3 DUP8 ADD PUSH2 0xA18 JUMP JUMPDEST SWAP3 POP POP PUSH1 0x40 PUSH2 0xB16 DUP7 DUP3 DUP8 ADD PUSH2 0xA4B JUMP JUMPDEST SWAP2 POP POP SWAP3 POP SWAP3 POP SWAP3 JUMP JUMPDEST PUSH0 PUSH1 0xFF DUP3 AND SWAP1 POP SWAP2 SWAP1 POP JUMP JUMPDEST PUSH2 0xB35 DUP2 PUSH2 0xB20 JUMP JUMPDEST DUP3 MSTORE POP POP JUMP JUMPDEST PUSH0 PUSH1 0x20 DUP3 ADD SWAP1 POP PUSH2 0xB4E PUSH0 DUP4 ADD DUP5 PUSH2 0xB2C JUMP JUMPDEST SWAP3 SWAP2 POP POP JUMP JUMPDEST PUSH0 PUSH1 0x20 DUP3 DUP5 SUB SLT ISZERO PUSH2 0xB69 JUMPI PUSH2 0xB68 PUSH2 0x9CA JUMP JUMPDEST JUMPDEST PUSH0 PUSH2 0xB76 DUP5 DUP3 DUP6 ADD PUSH2 0xA18 JUMP JUMPDEST SWAP2 POP POP SWAP3 SWAP2 POP POP JUMP JUMPDEST PUSH2 0xB88 DUP2 PUSH2 0xA2C JUMP JUMPDEST DUP3 MSTORE POP POP JUMP JUMPDEST PUSH0 PUSH1 0x20 DUP3 ADD SWAP1 POP PUSH2 0xBA1 PUSH0 DUP4 ADD DUP5 PUSH2 0xB7F JUMP JUMPDEST SWAP3 SWAP2 POP POP JUMP JUMPDEST PUSH0 DUP1 REVERT JUMPDEST PUSH0 DUP1 REVERT JUMPDEST PUSH0 DUP1 REVERT JUMPDEST PUSH0 DUP1 DUP4 PUSH1 0x1F DUP5 ADD SLT PUSH2 0xBC8 JUMPI PUSH2 0xBC7 PUSH2 0xBA7 JUMP JUMPDEST JUMPDEST DUP3 CALLDATALOAD SWAP1 POP PUSH8 0xFFFFFFFFFFFFFFFF DUP2 GT ISZERO PUSH2 0xBE5 JUMPI PUSH2 0xBE4 PUSH2 0xBAB JUMP JUMPDEST JUMPDEST PUSH1 0x20 DUP4 ADD SWAP2 POP DUP4 PUSH1 0x1 DUP3 MUL DUP4 ADD GT ISZERO PUSH2 0xC01 JUMPI PUSH2 0xC00 PUSH2 0xBAF JUMP JUMPDEST JUMPDEST SWAP3 POP SWAP3 SWAP1 POP JUMP JUMPDEST PUSH0 DUP1 PUSH0 DUP1 PUSH1 0x60 DUP6 DUP8 SUB SLT ISZERO PUSH2 0xC20 JUMPI PUSH2 0xC1F PUSH2 0x9CA JUMP JUMPDEST JUMPDEST PUSH0 PUSH2 0xC2D DUP8 DUP3 DUP9 ADD PUSH2 0xA18 JUMP JUMPDEST SWAP5 POP POP PUSH1 0x20 PUSH2 0xC3E DUP8 DUP3 DUP9 ADD PUSH2 0xA4B JUMP JUMPDEST SWAP4 POP POP PUSH1 0x40 DUP6 ADD CALLDATALOAD PUSH8 0xFFFFFFFFFFFFFFFF DUP2 GT ISZERO PUSH2 0xC5F JUMPI PUSH2 0xC5E PUSH2 0x9CE JUMP JUMPDEST JUMPDEST PUSH2 0xC6B DUP8 DUP3 DUP9 ADD PUSH2 0xBB3 JUMP JUMPDEST SWAP3 POP SWAP3 POP POP SWAP3 SWAP6 SWAP2 SWAP5 POP SWAP3 POP JUMP JUMPDEST PUSH0 DUP1 PUSH1 0x40 DUP4 DUP6 SUB SLT ISZERO PUSH2 0xC8F JUMPI PUSH2 0xC8E PUSH2 0x9CA JUMP JUMPDEST JUMPDEST PUSH0 PUSH2 0xC9C DUP6 DUP3 DUP7 ADD PUSH2 0xA18 JUMP JUMPDEST SWAP3 POP POP PUSH1 0x20 PUSH2 0xCAD DUP6 DUP3 DUP7 ADD PUSH2 0xA18 JUMP JUMPDEST SWAP2 POP POP SWAP3 POP SWAP3 SWAP1 POP JUMP JUMPDEST PUSH2 0xCC0 DUP2 PUSH2 0x9F1 JUMP JUMPDEST DUP3 MSTORE POP POP JUMP JUMPDEST PUSH0 DUP3 DUP3 MSTORE PUSH1 0x20 DUP3 ADD SWAP1 POP SWAP3 SWAP2 POP POP JUMP JUMPDEST DUP3 DUP2 DUP4 CALLDATACOPY PUSH0 DUP4 DUP4 ADD MSTORE POP POP POP JUMP JUMPDEST PUSH0 PUSH1 0x1F NOT PUSH1 0x1F DUP4 ADD AND SWAP1 POP SWAP2 SWAP1 POP JUMP JUMPDEST PUSH0 PUSH2 0xCFF DUP4 DUP6 PUSH2 0xCC6 JUMP JUMPDEST SWAP4 POP PUSH2 0xD0C DUP4 DUP6 DUP5 PUSH2 0xCD6 JUMP JUMPDEST PUSH2 0xD15 DUP4 PUSH2 0xCE4 JUMP JUMPDEST DUP5 ADD SWAP1 POP SWAP4 SWAP3 POP POP POP JUMP JUMPDEST PUSH0 PUSH1 0x60 DUP3 ADD SWAP1 POP PUSH2 0xD33 PUSH0 DUP4 ADD DUP8 PUSH2 0xCB7 JUMP JUMPDEST PUSH2 0xD40 PUSH1 0x20 DUP4 ADD DUP7 PUSH2 0xB7F JUMP JUMPDEST DUP2 DUP2 SUB PUSH1 0x40 DUP4 ADD MSTORE PUSH2 0xD53 DUP2 DUP5 DUP7 PUSH2 0xCF4 JUMP JUMPDEST SWAP1 POP SWAP6 SWAP5 POP POP POP POP POP JUMP JUMPDEST PUSH0 DUP3 DUP3 MSTORE PUSH1 0x20 DUP3 ADD SWAP1 POP SWAP3 SWAP2 POP POP JUMP JUMPDEST PUSH32 0x45524332305769746843616C6C6261636B3A20746F6B656E7352656365697665 PUSH0 DUP3 ADD MSTORE PUSH32 0x64206661696C6564000000000000000000000000000000000000000000000000 PUSH1 0x20 DUP3 ADD MSTORE POP JUMP JUMPDEST PUSH0 PUSH2 0xDC8 PUSH1 0x28 DUP4 PUSH2 0xD5E JUMP JUMPDEST SWAP2 POP PUSH2 0xDD3 DUP3 PUSH2 0xD6E JUMP JUMPDEST PUSH1 0x40 DUP3 ADD SWAP1 POP SWAP2 SWAP1 POP JUMP JUMPDEST PUSH0 PUSH1 0x20 DUP3 ADD SWAP1 POP DUP2 DUP2 SUB PUSH0 DUP4 ADD MSTORE PUSH2 0xDF5 DUP2 PUSH2 0xDBC JUMP JUMPDEST SWAP1 POP SWAP2 SWAP1 POP JUMP JUMPDEST PUSH0 PUSH1 0x20 DUP3 ADD SWAP1 POP PUSH2 0xE0F PUSH0 DUP4 ADD DUP5 PUSH2 0xCB7 JUMP JUMPDEST SWAP3 SWAP2 POP POP JUMP JUMPDEST PUSH0 PUSH1 0x60 DUP3 ADD SWAP1 POP PUSH2 0xE28 PUSH0 DUP4 ADD DUP7 PUSH2 0xCB7 JUMP JUMPDEST PUSH2 0xE35 PUSH1 0x20 DUP4 ADD DUP6 PUSH2 0xB7F JUMP JUMPDEST PUSH2 0xE42 PUSH1 0x40 DUP4 ADD DUP5 PUSH2 0xB7F JUMP JUMPDEST SWAP5 SWAP4 POP POP POP POP JUMP INVALID LOG2 PUSH5 0x6970667358 0x22 SLT KECCAK256 BLOCKHASH CREATE PUSH11 0xC5625F868C010FD212120D 0xD PUSH18 0x48B2E444B0FBF3F1202CA9167C1A28B76473 PUSH16 0x6C634300081A00330000000000000000 "
				},
				"gasEstimates": {
					"creation": {
						"codeDepositCost": "742400",
						"executionCost": "infinite",
						"totalCost": "infinite"
					},
					"external": {
						"allowance(address,address)": "infinite",
						"approve(address,uint256)": "infinite",
						"balanceOf(address)": "2829",
						"decimals()": "2511",
						"transfer(address,uint256)": "infinite",
						"transferFrom(address,address,uint256)": "infinite",
						"transferWithCallback(address,uint256,bytes)": "infinite"
					}
				},
				"methodIdentifiers": {
					"allowance(address,address)": "dd62ed3e",
					"approve(address,uint256)": "095ea7b3",
					"balanceOf(address)": "70a08231",
					"decimals()": "313ce567",
					"transfer(address,uint256)": "a9059cbb",
					"transferFrom(address,address,uint256)": "23b872dd",
					"transferWithCallback(address,uint256,bytes)": "d3139195"
				}
			},
			"storageLayout": {
				"storage": [
					{
						"astId": 619,
						"contract": "src/chapter-006/ERC20WithCallback.sol:ERC20WithCallback",
						"label": "name",
						"offset": 0,
						"slot": "0",
						"type": "t_string_storage"
					},
					{
						"astId": 621,
						"contract": "src/chapter-006/ERC20WithCallback.sol:ERC20WithCallback",
						"label": "symbol",
						"offset": 0,
						"slot": "1",
						"type": "t_string_storage"
					},
					{
						"astId": 623,
						"contract": "src/chapter-006/ERC20WithCallback.sol:ERC20WithCallback",
						"label": "totalSupply",
						"offset": 0,
						"slot": "2",
						"type": "t_uint256"
					},
					{
						"astId": 626,
						"contract": "src/chapter-006/ERC20WithCallback.sol:ERC20WithCallback",
						"label": "decimals",
						"offset": 0,
						"slot": "3",
						"type": "t_uint8"
					},
					{
						"astId": 630,
						"contract": "src/chapter-006/ERC20WithCallback.sol:ERC20WithCallback",
						"label": "balances",
						"offset": 0,
						"slot": "4",
						"type": "t_mapping(t_address,t_uint256)"
					},
					{
						"astId": 636,
						"contract": "src/chapter-006/ERC20WithCallback.sol:ERC20WithCallback",
						"label": "allowances",
						"offset": 0,
						"slot": "5",
						"type": "t_mapping(t_address,t_mapping(t_address,t_uint256))"
					}
				],
				"types": {
					"t_address": {
						"encoding": "inplace",
						"label": "address",
						"numberOfBytes": "20"
					},
					"t_mapping(t_address,t_mapping(t_address,t_uint256))": {
						"encoding": "mapping",
						"key": "t_address",
						"label": "mapping(address => mapping(address => uint256))",
						"numberOfBytes": "32",
						"value": "t_mapping(t_address,t_uint256)"
					},
					"t_mapping(t_address,t_uint256)": {
						"encoding": "mapping",
						"key": "t_address",
						"label": "mapping(address => uint256)",
						"numberOfBytes": "32",
						"value": "t_uint256"
					},
					"t_string_storage": {
						"encoding": "bytes",
						"label": "string",
						"numberOfBytes": "32"
					},
					"t_uint256": {
						"encoding": "inplace",
						"label": "uint256",
						"numberOfBytes": "32"
					},
					"t_uint8": {
						"encoding": "inplace",
						"label": "uint8",
						"numberOfBytes": "1"
					}
				}
			},
			"userdoc": {
				"kind": "user",
				"methods": {},
				"version": 1
			}
		}
	}
}