{
	"src/chapter-006/TokenBankV2.sol": {
		"TokenBankV2": {
			"abi": [
				{
					"inputs": [
						{
							"internalType": "address",
							"name": "_addr",
							"type": "address"
						}
					],
					"stateMutability": "nonpayable",
					"type": "constructor"
				},
				{
					"inputs": [
						{
							"internalType": "address",
							"name": "spender",
							"type": "address"
						},
						{
							"internalType": "uint256",
							"name": "allowance",
							"type": "uint256"
						},
						{
							"internalType": "uint256",
							"name": "needed",
							"type": "uint256"
						}
					],
					"name": "ERC20InsufficientAllowance",
					"type": "error"
				},
				{
					"inputs": [
						{
							"internalType": "address",
							"name": "sender",
							"type": "address"
						},
						{
							"internalType": "uint256",
							"name": "balance",
							"type": "uint256"
						},
						{
							"internalType": "uint256",
							"name": "needed",
							"type": "uint256"
						}
					],
					"name": "ERC20InsufficientBalance",
					"type": "error"
				},
				{
					"inputs": [
						{
							"internalType": "address",
							"name": "approver",
							"type": "address"
						}
					],
					"name": "ERC20InvalidApprover",
					"type": "error"
				},
				{
					"inputs": [
						{
							"internalType": "address",
							"name": "receiver",
							"type": "address"
						}
					],
					"name": "ERC20InvalidReceiver",
					"type": "error"
				},
				{
					"inputs": [
						{
							"internalType": "address",
							"name": "sender",
							"type": "address"
						}
					],
					"name": "ERC20InvalidSender",
					"type": "error"
				},
				{
					"inputs": [
						{
							"internalType": "address",
							"name": "spender",
							"type": "address"
						}
					],
					"name": "ERC20InvalidSpender",
					"type": "error"
				},
				{
					"inputs": [],
					"name": "NoEnoughBalance",
					"type": "error"
				},
				{
					"inputs": [
						{
							"internalType": "address",
							"name": "",
							"type": "address"
						}
					],
					"name": "balances",
					"outputs": [
						{
							"internalType": "uint256",
							"name": "",
							"type": "uint256"
						}
					],
					"stateMutability": "view",
					"type": "function"
				},
				{
					"inputs": [
						{
							"internalType": "uint256",
							"name": "amount",
							"type": "uint256"
						}
					],
					"name": "deposit",
					"outputs": [],
					"stateMutability": "nonpayable",
					"type": "function"
				},
				{
					"inputs": [],
					"name": "getBalance",
					"outputs": [
						{
							"internalType": "uint256",
							"name": "",
							"type": "uint256"
						}
					],
					"stateMutability": "view",
					"type": "function"
				},
				{
					"inputs": [
						{
							"internalType": "uint256",
							"name": "amount",
							"type": "uint256"
						}
					],
					"name": "testRevert",
					"outputs": [],
					"stateMutability": "pure",
					"type": "function"
				},
				{
					"inputs": [
						{
							"internalType": "uint256",
							"name": "amount",
							"type": "uint256"
						}
					],
					"name": "testRevertRequire",
					"outputs": [],
					"stateMutability": "pure",
					"type": "function"
				},
				{
					"inputs": [],
					"name": "token",
					"outputs": [
						{
							"internalType": "contract BaseERC20",
							"name": "",
							"type": "address"
						}
					],
					"stateMutability": "view",
					"type": "function"
				},
				{
					"inputs": [
						{
							"internalType": "address",
							"name": "account",
							"type": "address"
						},
						{
							"internalType": "uint256",
							"name": "amount",
							"type": "uint256"
						}
					],
					"name": "tokensReceived",
					"outputs": [
						{
							"internalType": "bool",
							"name": "",
							"type": "bool"
						}
					],
					"stateMutability": "nonpayable",
					"type": "function"
				},
				{
					"inputs": [
						{
							"internalType": "uint256",
							"name": "amount",
							"type": "uint256"
						}
					],
					"name": "withdraw",
					"outputs": [],
					"stateMutability": "nonpayable",
					"type": "function"
				}
			],
			"devdoc": {
				"errors": {
					"ERC20InsufficientAllowance(address,uint256,uint256)": [
						{
							"details": "Indicates a failure with the `spender`’s `allowance`. Used in transfers.",
							"params": {
								"allowance": "Amount of tokens a `spender` is allowed to operate with.",
								"needed": "Minimum amount required to perform a transfer.",
								"spender": "Address that may be allowed to operate on tokens without being their owner."
							}
						}
					],
					"ERC20InsufficientBalance(address,uint256,uint256)": [
						{
							"details": "Indicates an error related to the current `balance` of a `sender`. Used in transfers.",
							"params": {
								"balance": "Current balance for the interacting account.",
								"needed": "Minimum amount required to perform a transfer.",
								"sender": "Address whose tokens are being transferred."
							}
						}
					],
					"ERC20InvalidApprover(address)": [
						{
							"details": "Indicates a failure with the `approver` of a token to be approved. Used in approvals.",
							"params": {
								"approver": "Address initiating an approval operation."
							}
						}
					],
					"ERC20InvalidReceiver(address)": [
						{
							"details": "Indicates a failure with the token `receiver`. Used in transfers.",
							"params": {
								"receiver": "Address to which tokens are being transferred."
							}
						}
					],
					"ERC20InvalidSender(address)": [
						{
							"details": "Indicates a failure with the token `sender`. Used in transfers.",
							"params": {
								"sender": "Address whose tokens are being transferred."
							}
						}
					],
					"ERC20InvalidSpender(address)": [
						{
							"details": "Indicates a failure with the `spender` to be approved. Used in approvals.",
							"params": {
								"spender": "Address that may be allowed to operate on tokens without being their owner."
							}
						}
					]
				},
				"kind": "dev",
				"methods": {},
				"version": 1
			},
			"evm": {
				"assembly": "    /* \"src/chapter-006/TokenBankV2.sol\":120:470  contract TokenBankV2 is TokenBank, IERC20WithCallback {... */\n  mstore(0x40, 0x80)\n    /* \"src/chapter-006/TokenBankV2.sol\":180:226  constructor(address _addr) TokenBank(_addr) {} */\n  callvalue\n  dup1\n  iszero\n  tag_1\n  jumpi\n  0x00\n  dup1\n  revert\ntag_1:\n  pop\n  mload(0x40)\n  sub(codesize, bytecodeSize)\n  dup1\n  bytecodeSize\n  dup4\n  codecopy\n  dup2\n  dup2\n  add\n  0x40\n  mstore\n  dup2\n  add\n  swap1\n  tag_2\n  swap2\n  swap1\n  tag_3\n  jump\t// in\ntag_2:\n    /* \"src/chapter-006/TokenBankV2.sol\":217:222  _addr */\n  dup1\n    /* \"src/TokenBank.sol\":873:882  tokenAddr */\n  dup1\n    /* \"src/TokenBank.sol\":651:652  0 */\n  0x00\n    /* \"src/TokenBank.sol\":631:653  _address == address(0) */\n  0xffffffffffffffffffffffffffffffffffffffff\n  and\n    /* \"src/TokenBank.sol\":631:639  _address */\n  dup2\n    /* \"src/TokenBank.sol\":631:653  _address == address(0) */\n  0xffffffffffffffffffffffffffffffffffffffff\n  and\n  sub\n    /* \"src/TokenBank.sol\":627:692  if (_address == address(0)) revert ERC20InvalidSender(address(0)) */\n  tag_7\n  jumpi\n    /* \"src/TokenBank.sol\":689:690  0 */\n  0x00\n    /* \"src/TokenBank.sol\":662:692  ERC20InvalidSender(address(0)) */\n  mload(0x40)\n  0x96c6fd1e00000000000000000000000000000000000000000000000000000000\n  dup2\n  mstore\n  0x04\n  add\n  tag_8\n  swap2\n  swap1\n  tag_9\n  jump\t// in\ntag_8:\n  mload(0x40)\n  dup1\n  swap2\n  sub\n  swap1\n  revert\n    /* \"src/TokenBank.sol\":627:692  if (_address == address(0)) revert ERC20InvalidSender(address(0)) */\ntag_7:\n    /* \"src/TokenBank.sol\":912:921  tokenAddr */\n  dup2\n    /* \"src/TokenBank.sol\":894:899  token */\n  0x01\n  0x00\n    /* \"src/TokenBank.sol\":894:922  token = BaseERC20(tokenAddr) */\n  0x0100\n  exp\n  dup2\n  sload\n  dup2\n  0xffffffffffffffffffffffffffffffffffffffff\n  mul\n  not\n  and\n  swap1\n  dup4\n  0xffffffffffffffffffffffffffffffffffffffff\n  and\n  mul\n  or\n  swap1\n  sstore\n  pop\n    /* \"src/TokenBank.sol\":829:929  constructor(address tokenAddr) ERC20Invalid(tokenAddr) {... */\n  pop\n  pop\n    /* \"src/chapter-006/TokenBankV2.sol\":180:226  constructor(address _addr) TokenBank(_addr) {} */\n  pop\n    /* \"src/chapter-006/TokenBankV2.sol\":120:470  contract TokenBankV2 is TokenBank, IERC20WithCallback {... */\n  jump(tag_12)\n    /* \"#utility.yul\":88:205   */\ntag_14:\n    /* \"#utility.yul\":197:198   */\n  0x00\n    /* \"#utility.yul\":194:195   */\n  dup1\n    /* \"#utility.yul\":187:199   */\n  revert\n    /* \"#utility.yul\":334:460   */\ntag_16:\n    /* \"#utility.yul\":371:378   */\n  0x00\n    /* \"#utility.yul\":411:453   */\n  0xffffffffffffffffffffffffffffffffffffffff\n    /* \"#utility.yul\":404:409   */\n  dup3\n    /* \"#utility.yul\":400:454   */\n  and\n    /* \"#utility.yul\":389:454   */\n  swap1\n  pop\n    /* \"#utility.yul\":334:460   */\n  swap2\n  swap1\n  pop\n  jump\t// out\n    /* \"#utility.yul\":466:562   */\ntag_17:\n    /* \"#utility.yul\":503:510   */\n  0x00\n    /* \"#utility.yul\":532:556   */\n  tag_27\n    /* \"#utility.yul\":550:555   */\n  dup3\n    /* \"#utility.yul\":532:556   */\n  tag_16\n  jump\t// in\ntag_27:\n    /* \"#utility.yul\":521:556   */\n  swap1\n  pop\n    /* \"#utility.yul\":466:562   */\n  swap2\n  swap1\n  pop\n  jump\t// out\n    /* \"#utility.yul\":568:690   */\ntag_18:\n    /* \"#utility.yul\":641:665   */\n  tag_29\n    /* \"#utility.yul\":659:664   */\n  dup2\n    /* \"#utility.yul\":641:665   */\n  tag_17\n  jump\t// in\ntag_29:\n    /* \"#utility.yul\":634:639   */\n  dup2\n    /* \"#utility.yul\":631:666   */\n  eq\n    /* \"#utility.yul\":621:684   */\n  tag_30\n  jumpi\n    /* \"#utility.yul\":680:681   */\n  0x00\n    /* \"#utility.yul\":677:678   */\n  dup1\n    /* \"#utility.yul\":670:682   */\n  revert\n    /* \"#utility.yul\":621:684   */\ntag_30:\n    /* \"#utility.yul\":568:690   */\n  pop\n  jump\t// out\n    /* \"#utility.yul\":696:839   */\ntag_19:\n    /* \"#utility.yul\":753:758   */\n  0x00\n    /* \"#utility.yul\":784:790   */\n  dup2\n    /* \"#utility.yul\":778:791   */\n  mload\n    /* \"#utility.yul\":769:791   */\n  swap1\n  pop\n    /* \"#utility.yul\":800:833   */\n  tag_32\n    /* \"#utility.yul\":827:832   */\n  dup2\n    /* \"#utility.yul\":800:833   */\n  tag_18\n  jump\t// in\ntag_32:\n    /* \"#utility.yul\":696:839   */\n  swap3\n  swap2\n  pop\n  pop\n  jump\t// out\n    /* \"#utility.yul\":845:1196   */\ntag_3:\n    /* \"#utility.yul\":915:921   */\n  0x00\n    /* \"#utility.yul\":964:966   */\n  0x20\n    /* \"#utility.yul\":952:961   */\n  dup3\n    /* \"#utility.yul\":943:950   */\n  dup5\n    /* \"#utility.yul\":939:962   */\n  sub\n    /* \"#utility.yul\":935:967   */\n  slt\n    /* \"#utility.yul\":932:1051   */\n  iszero\n  tag_34\n  jumpi\n    /* \"#utility.yul\":970:1049   */\n  tag_35\n  tag_14\n  jump\t// in\ntag_35:\n    /* \"#utility.yul\":932:1051   */\ntag_34:\n    /* \"#utility.yul\":1090:1091   */\n  0x00\n    /* \"#utility.yul\":1115:1179   */\n  tag_36\n    /* \"#utility.yul\":1171:1178   */\n  dup5\n    /* \"#utility.yul\":1162:1168   */\n  dup3\n    /* \"#utility.yul\":1151:1160   */\n  dup6\n    /* \"#utility.yul\":1147:1169   */\n  add\n    /* \"#utility.yul\":1115:1179   */\n  tag_19\n  jump\t// in\ntag_36:\n    /* \"#utility.yul\":1105:1179   */\n  swap2\n  pop\n    /* \"#utility.yul\":1061:1189   */\n  pop\n    /* \"#utility.yul\":845:1196   */\n  swap3\n  swap2\n  pop\n  pop\n  jump\t// out\n    /* \"#utility.yul\":1202:1320   */\ntag_20:\n    /* \"#utility.yul\":1289:1313   */\n  tag_38\n    /* \"#utility.yul\":1307:1312   */\n  dup2\n    /* \"#utility.yul\":1289:1313   */\n  tag_17\n  jump\t// in\ntag_38:\n    /* \"#utility.yul\":1284:1287   */\n  dup3\n    /* \"#utility.yul\":1277:1314   */\n  mstore\n    /* \"#utility.yul\":1202:1320   */\n  pop\n  pop\n  jump\t// out\n    /* \"#utility.yul\":1326:1548   */\ntag_9:\n    /* \"#utility.yul\":1419:1423   */\n  0x00\n    /* \"#utility.yul\":1457:1459   */\n  0x20\n    /* \"#utility.yul\":1446:1455   */\n  dup3\n    /* \"#utility.yul\":1442:1460   */\n  add\n    /* \"#utility.yul\":1434:1460   */\n  swap1\n  pop\n    /* \"#utility.yul\":1470:1541   */\n  tag_40\n    /* \"#utility.yul\":1538:1539   */\n  0x00\n    /* \"#utility.yul\":1527:1536   */\n  dup4\n    /* \"#utility.yul\":1523:1540   */\n  add\n    /* \"#utility.yul\":1514:1520   */\n  dup5\n    /* \"#utility.yul\":1470:1541   */\n  tag_20\n  jump\t// in\ntag_40:\n    /* \"#utility.yul\":1326:1548   */\n  swap3\n  swap2\n  pop\n  pop\n  jump\t// out\n    /* \"src/chapter-006/TokenBankV2.sol\":120:470  contract TokenBankV2 is TokenBank, IERC20WithCallback {... */\ntag_12:\n  dataSize(sub_0)\n  dup1\n  dataOffset(sub_0)\n  0x00\n  codecopy\n  0x00\n  return\nstop\n\nsub_0: assembly {\n        /* \"src/chapter-006/TokenBankV2.sol\":120:470  contract TokenBankV2 is TokenBank, IERC20WithCallback {... */\n      mstore(0x40, 0x80)\n      callvalue\n      dup1\n      iszero\n      tag_1\n      jumpi\n      0x00\n      dup1\n      revert\n    tag_1:\n      pop\n      jumpi(tag_2, lt(calldatasize, 0x04))\n      shr(0xe0, calldataload(0x00))\n      dup1\n      0x2818e67e\n      gt\n      tag_11\n      jumpi\n      dup1\n      0x2818e67e\n      eq\n      tag_7\n      jumpi\n      dup1\n      0x2e1a7d4d\n      eq\n      tag_8\n      jumpi\n      dup1\n      0xb6b55f25\n      eq\n      tag_9\n      jumpi\n      dup1\n      0xfc0c546a\n      eq\n      tag_10\n      jumpi\n      jump(tag_2)\n    tag_11:\n      dup1\n      0x12065fe0\n      eq\n      tag_3\n      jumpi\n      dup1\n      0x20987767\n      eq\n      tag_4\n      jumpi\n      dup1\n      0x24a756d1\n      eq\n      tag_5\n      jumpi\n      dup1\n      0x27e235e3\n      eq\n      tag_6\n      jumpi\n    tag_2:\n      0x00\n      dup1\n      revert\n        /* \"src/TokenBank.sol\":1554:1683  function getBalance() public view returns (uint256) {... */\n    tag_3:\n      tag_12\n      tag_13\n      jump\t// in\n    tag_12:\n      mload(0x40)\n      tag_14\n      swap2\n      swap1\n      tag_15\n      jump\t// in\n    tag_14:\n      mload(0x40)\n      dup1\n      swap2\n      sub\n      swap1\n      return\n        /* \"src/TokenBank.sol\":1689:1822  function testRevert(uint amount) public pure {... */\n    tag_4:\n      tag_16\n      0x04\n      dup1\n      calldatasize\n      sub\n      dup2\n      add\n      swap1\n      tag_17\n      swap2\n      swap1\n      tag_18\n      jump\t// in\n    tag_17:\n      tag_19\n      jump\t// in\n    tag_16:\n      stop\n        /* \"src/chapter-006/TokenBankV2.sol\":236:468  function tokensReceived(address account, uint amount) external DespositInvalid(amount) returns (bool) {... */\n    tag_5:\n      tag_20\n      0x04\n      dup1\n      calldatasize\n      sub\n      dup2\n      add\n      swap1\n      tag_21\n      swap2\n      swap1\n      tag_22\n      jump\t// in\n    tag_21:\n      tag_23\n      jump\t// in\n    tag_20:\n      mload(0x40)\n      tag_24\n      swap2\n      swap1\n      tag_25\n      jump\t// in\n    tag_24:\n      mload(0x40)\n      dup1\n      swap2\n      sub\n      swap1\n      return\n        /* \"src/TokenBank.sol\":466:510  mapping (address => uint256) public balances */\n    tag_6:\n      tag_26\n      0x04\n      dup1\n      calldatasize\n      sub\n      dup2\n      add\n      swap1\n      tag_27\n      swap2\n      swap1\n      tag_28\n      jump\t// in\n    tag_27:\n      tag_29\n      jump\t// in\n    tag_26:\n      mload(0x40)\n      tag_30\n      swap2\n      swap1\n      tag_15\n      jump\t// in\n    tag_30:\n      mload(0x40)\n      dup1\n      swap2\n      sub\n      swap1\n      return\n        /* \"src/TokenBank.sol\":1828:2036  function testRevertRequire(uint amount) public pure {... */\n    tag_7:\n      tag_31\n      0x04\n      dup1\n      calldatasize\n      sub\n      dup2\n      add\n      swap1\n      tag_32\n      swap2\n      swap1\n      tag_18\n      jump\t// in\n    tag_32:\n      tag_33\n      jump\t// in\n    tag_31:\n      stop\n        /* \"src/TokenBank.sol\":1242:1548  function withdraw(uint amount) public DespositInvalid(amount) {... */\n    tag_8:\n      tag_34\n      0x04\n      dup1\n      calldatasize\n      sub\n      dup2\n      add\n      swap1\n      tag_35\n      swap2\n      swap1\n      tag_18\n      jump\t// in\n    tag_35:\n      tag_36\n      jump\t// in\n    tag_34:\n      stop\n        /* \"src/TokenBank.sol\":935:1236  function deposit (uint256 amount) public DespositInvalid(amount) {... */\n    tag_9:\n      tag_37\n      0x04\n      dup1\n      calldatasize\n      sub\n      dup2\n      add\n      swap1\n      tag_38\n      swap2\n      swap1\n      tag_18\n      jump\t// in\n    tag_38:\n      tag_39\n      jump\t// in\n    tag_37:\n      stop\n        /* \"src/TokenBank.sol\":517:539  BaseERC20 public token */\n    tag_10:\n      tag_40\n      tag_41\n      jump\t// in\n    tag_40:\n      mload(0x40)\n      tag_42\n      swap2\n      swap1\n      tag_43\n      jump\t// in\n    tag_42:\n      mload(0x40)\n      dup1\n      swap2\n      sub\n      swap1\n      return\n        /* \"src/TokenBank.sol\":1554:1683  function getBalance() public view returns (uint256) {... */\n    tag_13:\n        /* \"src/TokenBank.sol\":1597:1604  uint256 */\n      0x00\n        /* \"src/TokenBank.sol\":1616:1629  address owner */\n      dup1\n        /* \"src/TokenBank.sol\":1632:1644  _msgSender() */\n      tag_45\n        /* \"src/TokenBank.sol\":1632:1642  _msgSender */\n      tag_46\n        /* \"src/TokenBank.sol\":1632:1644  _msgSender() */\n      jump\t// in\n    tag_45:\n        /* \"src/TokenBank.sol\":1616:1644  address owner = _msgSender() */\n      swap1\n      pop\n        /* \"src/TokenBank.sol\":1661:1669  balances */\n      0x00\n        /* \"src/TokenBank.sol\":1661:1676  balances[owner] */\n      dup1\n        /* \"src/TokenBank.sol\":1670:1675  owner */\n      dup3\n        /* \"src/TokenBank.sol\":1661:1676  balances[owner] */\n      0xffffffffffffffffffffffffffffffffffffffff\n      and\n      0xffffffffffffffffffffffffffffffffffffffff\n      and\n      dup2\n      mstore\n      0x20\n      add\n      swap1\n      dup2\n      mstore\n      0x20\n      add\n      0x00\n      keccak256\n      sload\n        /* \"src/TokenBank.sol\":1654:1676  return balances[owner] */\n      swap2\n      pop\n      pop\n        /* \"src/TokenBank.sol\":1554:1683  function getBalance() public view returns (uint256) {... */\n      swap1\n      jump\t// out\n        /* \"src/TokenBank.sol\":1689:1822  function testRevert(uint amount) public pure {... */\n    tag_19:\n        /* \"src/TokenBank.sol\":1756:1759  250 */\n      0xfa\n        /* \"src/TokenBank.sol\":1747:1753  amount */\n      dup2\n        /* \"src/TokenBank.sol\":1747:1759  amount < 250 */\n      lt\n        /* \"src/TokenBank.sol\":1744:1815  if(amount < 250)  revert ERC20InsufficientBalance(address(0), 250, 250) */\n      iszero\n      tag_48\n      jumpi\n        /* \"src/TokenBank.sol\":1802:1803  0 */\n      0x00\n        /* \"src/TokenBank.sol\":1806:1809  250 */\n      0xfa\n        /* \"src/TokenBank.sol\":1811:1814  250 */\n      dup1\n        /* \"src/TokenBank.sol\":1769:1815  ERC20InsufficientBalance(address(0), 250, 250) */\n      mload(0x40)\n      0xe450d38c00000000000000000000000000000000000000000000000000000000\n      dup2\n      mstore\n      0x04\n      add\n      tag_49\n      swap4\n      swap3\n      swap2\n      swap1\n      tag_50\n      jump\t// in\n    tag_49:\n      mload(0x40)\n      dup1\n      swap2\n      sub\n      swap1\n      revert\n        /* \"src/TokenBank.sol\":1744:1815  if(amount < 250)  revert ERC20InsufficientBalance(address(0), 250, 250) */\n    tag_48:\n        /* \"src/TokenBank.sol\":1689:1822  function testRevert(uint amount) public pure {... */\n      pop\n      jump\t// out\n        /* \"src/chapter-006/TokenBankV2.sol\":236:468  function tokensReceived(address account, uint amount) external DespositInvalid(amount) returns (bool) {... */\n    tag_23:\n        /* \"src/chapter-006/TokenBankV2.sol\":332:336  bool */\n      0x00\n        /* \"src/chapter-006/TokenBankV2.sol\":315:321  amount */\n      dup2\n        /* \"src/TokenBank.sol\":778:779  0 */\n      0x00\n        /* \"src/TokenBank.sol\":768:774  amount */\n      dup2\n        /* \"src/TokenBank.sol\":768:779  amount <= 0 */\n      gt\n        /* \"src/TokenBank.sol\":764:805  if (amount <= 0) revert NoEnoughBalance() */\n      tag_52\n      jumpi\n        /* \"src/TokenBank.sol\":788:805  NoEnoughBalance() */\n      mload(0x40)\n      0x5ad8341100000000000000000000000000000000000000000000000000000000\n      dup2\n      mstore\n      0x04\n      add\n      mload(0x40)\n      dup1\n      swap2\n      sub\n      swap1\n      revert\n        /* \"src/TokenBank.sol\":764:805  if (amount <= 0) revert NoEnoughBalance() */\n    tag_52:\n        /* \"src/chapter-006/TokenBankV2.sol\":378:383  token */\n      0x01\n      0x00\n      swap1\n      sload\n      swap1\n      0x0100\n      exp\n      swap1\n      div\n      0xffffffffffffffffffffffffffffffffffffffff\n      and\n        /* \"src/chapter-006/TokenBankV2.sol\":356:384  msg.sender == address(token) */\n      0xffffffffffffffffffffffffffffffffffffffff\n      and\n        /* \"src/chapter-006/TokenBankV2.sol\":356:366  msg.sender */\n      caller\n        /* \"src/chapter-006/TokenBankV2.sol\":356:384  msg.sender == address(token) */\n      0xffffffffffffffffffffffffffffffffffffffff\n      and\n      eq\n        /* \"src/chapter-006/TokenBankV2.sol\":348:403  require(msg.sender == address(token), \"Invalid sender\") */\n      tag_54\n      jumpi\n      mload(0x40)\n      0x08c379a000000000000000000000000000000000000000000000000000000000\n      dup2\n      mstore\n      0x04\n      add\n      tag_55\n      swap1\n      tag_56\n      jump\t// in\n    tag_55:\n      mload(0x40)\n      dup1\n      swap2\n      sub\n      swap1\n      revert\n    tag_54:\n        /* \"src/chapter-006/TokenBankV2.sol\":434:440  amount */\n      dup3\n        /* \"src/chapter-006/TokenBankV2.sol\":413:421  balances */\n      0x00\n        /* \"src/chapter-006/TokenBankV2.sol\":413:430  balances[account] */\n      dup1\n        /* \"src/chapter-006/TokenBankV2.sol\":422:429  account */\n      dup7\n        /* \"src/chapter-006/TokenBankV2.sol\":413:430  balances[account] */\n      0xffffffffffffffffffffffffffffffffffffffff\n      and\n      0xffffffffffffffffffffffffffffffffffffffff\n      and\n      dup2\n      mstore\n      0x20\n      add\n      swap1\n      dup2\n      mstore\n      0x20\n      add\n      0x00\n      keccak256\n      0x00\n        /* \"src/chapter-006/TokenBankV2.sol\":413:440  balances[account] += amount */\n      dup3\n      dup3\n      sload\n      tag_57\n      swap2\n      swap1\n      tag_58\n      jump\t// in\n    tag_57:\n      swap3\n      pop\n      pop\n      dup2\n      swap1\n      sstore\n      pop\n        /* \"src/chapter-006/TokenBankV2.sol\":457:461  true */\n      0x01\n        /* \"src/chapter-006/TokenBankV2.sol\":450:461  return true */\n      swap2\n      pop\n        /* \"src/chapter-006/TokenBankV2.sol\":236:468  function tokensReceived(address account, uint amount) external DespositInvalid(amount) returns (bool) {... */\n      pop\n      swap3\n      swap2\n      pop\n      pop\n      jump\t// out\n        /* \"src/TokenBank.sol\":466:510  mapping (address => uint256) public balances */\n    tag_29:\n      mstore(0x20, 0x00)\n      dup1\n      0x00\n      mstore\n      keccak256(0x00, 0x40)\n      0x00\n      swap2\n      pop\n      swap1\n      pop\n      sload\n      dup2\n      jump\t// out\n        /* \"src/TokenBank.sol\":1828:2036  function testRevertRequire(uint amount) public pure {... */\n    tag_33:\n        /* \"src/TokenBank.sol\":1992:1995  250 */\n      0xfa\n        /* \"src/TokenBank.sol\":1982:1988  amount */\n      dup2\n        /* \"src/TokenBank.sol\":1982:1995  amount >= 250 */\n      lt\n      iszero\n        /* \"src/TokenBank.sol\":1974:2029  require(amount >= 250, \"fuck ERC20InsufficientBalance\") */\n      tag_60\n      jumpi\n      mload(0x40)\n      0x08c379a000000000000000000000000000000000000000000000000000000000\n      dup2\n      mstore\n      0x04\n      add\n      tag_61\n      swap1\n      tag_62\n      jump\t// in\n    tag_61:\n      mload(0x40)\n      dup1\n      swap2\n      sub\n      swap1\n      revert\n    tag_60:\n        /* \"src/TokenBank.sol\":1828:2036  function testRevertRequire(uint amount) public pure {... */\n      pop\n      jump\t// out\n        /* \"src/TokenBank.sol\":1242:1548  function withdraw(uint amount) public DespositInvalid(amount) {... */\n    tag_36:\n        /* \"src/TokenBank.sol\":1296:1302  amount */\n      dup1\n        /* \"src/TokenBank.sol\":778:779  0 */\n      0x00\n        /* \"src/TokenBank.sol\":768:774  amount */\n      dup2\n        /* \"src/TokenBank.sol\":768:779  amount <= 0 */\n      gt\n        /* \"src/TokenBank.sol\":764:805  if (amount <= 0) revert NoEnoughBalance() */\n      tag_64\n      jumpi\n        /* \"src/TokenBank.sol\":788:805  NoEnoughBalance() */\n      mload(0x40)\n      0x5ad8341100000000000000000000000000000000000000000000000000000000\n      dup2\n      mstore\n      0x04\n      add\n      mload(0x40)\n      dup1\n      swap2\n      sub\n      swap1\n      revert\n        /* \"src/TokenBank.sol\":764:805  if (amount <= 0) revert NoEnoughBalance() */\n    tag_64:\n        /* \"src/TokenBank.sol\":1314:1327  address owner */\n      0x00\n        /* \"src/TokenBank.sol\":1330:1342  _msgSender() */\n      tag_66\n        /* \"src/TokenBank.sol\":1330:1340  _msgSender */\n      tag_46\n        /* \"src/TokenBank.sol\":1330:1342  _msgSender() */\n      jump\t// in\n    tag_66:\n        /* \"src/TokenBank.sol\":1314:1342  address owner = _msgSender() */\n      swap1\n      pop\n        /* \"src/TokenBank.sol\":1352:1367  uint256 balance */\n      0x00\n        /* \"src/TokenBank.sol\":1370:1378  balances */\n      dup1\n        /* \"src/TokenBank.sol\":1370:1385  balances[owner] */\n      0x00\n        /* \"src/TokenBank.sol\":1379:1384  owner */\n      dup4\n        /* \"src/TokenBank.sol\":1370:1385  balances[owner] */\n      0xffffffffffffffffffffffffffffffffffffffff\n      and\n      0xffffffffffffffffffffffffffffffffffffffff\n      and\n      dup2\n      mstore\n      0x20\n      add\n      swap1\n      dup2\n      mstore\n      0x20\n      add\n      0x00\n      keccak256\n      sload\n        /* \"src/TokenBank.sol\":1352:1385  uint256 balance = balances[owner] */\n      swap1\n      pop\n        /* \"src/TokenBank.sol\":1409:1415  amount */\n      dup4\n        /* \"src/TokenBank.sol\":1399:1406  balance */\n      dup2\n        /* \"src/TokenBank.sol\":1399:1415  balance < amount */\n      lt\n        /* \"src/TokenBank.sol\":1395:1472  if (balance < amount) revert ERC20InsufficientBalance(owner, balance, amount) */\n      iszero\n      tag_67\n      jumpi\n        /* \"src/TokenBank.sol\":1449:1454  owner */\n      dup2\n        /* \"src/TokenBank.sol\":1456:1463  balance */\n      dup2\n        /* \"src/TokenBank.sol\":1465:1471  amount */\n      dup6\n        /* \"src/TokenBank.sol\":1424:1472  ERC20InsufficientBalance(owner, balance, amount) */\n      mload(0x40)\n      0xe450d38c00000000000000000000000000000000000000000000000000000000\n      dup2\n      mstore\n      0x04\n      add\n      tag_68\n      swap4\n      swap3\n      swap2\n      swap1\n      tag_69\n      jump\t// in\n    tag_68:\n      mload(0x40)\n      dup1\n      swap2\n      sub\n      swap1\n      revert\n        /* \"src/TokenBank.sol\":1395:1472  if (balance < amount) revert ERC20InsufficientBalance(owner, balance, amount) */\n    tag_67:\n        /* \"src/TokenBank.sol\":1525:1531  amount */\n      dup4\n        /* \"src/TokenBank.sol\":1506:1514  balances */\n      0x00\n        /* \"src/TokenBank.sol\":1506:1521  balances[owner] */\n      dup1\n        /* \"src/TokenBank.sol\":1515:1520  owner */\n      dup5\n        /* \"src/TokenBank.sol\":1506:1521  balances[owner] */\n      0xffffffffffffffffffffffffffffffffffffffff\n      and\n      0xffffffffffffffffffffffffffffffffffffffff\n      and\n      dup2\n      mstore\n      0x20\n      add\n      swap1\n      dup2\n      mstore\n      0x20\n      add\n      0x00\n      keccak256\n      0x00\n        /* \"src/TokenBank.sol\":1506:1531  balances[owner] -= amount */\n      dup3\n      dup3\n      sload\n      sub\n      swap3\n      pop\n      pop\n      dup2\n      swap1\n      sstore\n      pop\n        /* \"src/TokenBank.sol\":1304:1548  {... */\n      pop\n      pop\n        /* \"src/TokenBank.sol\":1242:1548  function withdraw(uint amount) public DespositInvalid(amount) {... */\n      pop\n      pop\n      jump\t// out\n        /* \"src/TokenBank.sol\":935:1236  function deposit (uint256 amount) public DespositInvalid(amount) {... */\n    tag_39:\n        /* \"src/TokenBank.sol\":992:998  amount */\n      dup1\n        /* \"src/TokenBank.sol\":778:779  0 */\n      0x00\n        /* \"src/TokenBank.sol\":768:774  amount */\n      dup2\n        /* \"src/TokenBank.sol\":768:779  amount <= 0 */\n      gt\n        /* \"src/TokenBank.sol\":764:805  if (amount <= 0) revert NoEnoughBalance() */\n      tag_71\n      jumpi\n        /* \"src/TokenBank.sol\":788:805  NoEnoughBalance() */\n      mload(0x40)\n      0x5ad8341100000000000000000000000000000000000000000000000000000000\n      dup2\n      mstore\n      0x04\n      add\n      mload(0x40)\n      dup1\n      swap2\n      sub\n      swap1\n      revert\n        /* \"src/TokenBank.sol\":764:805  if (amount <= 0) revert NoEnoughBalance() */\n    tag_71:\n        /* \"src/TokenBank.sol\":1010:1023  address owner */\n      0x00\n        /* \"src/TokenBank.sol\":1026:1038  _msgSender() */\n      tag_73\n        /* \"src/TokenBank.sol\":1026:1036  _msgSender */\n      tag_46\n        /* \"src/TokenBank.sol\":1026:1038  _msgSender() */\n      jump\t// in\n    tag_73:\n        /* \"src/TokenBank.sol\":1010:1038  address owner = _msgSender() */\n      swap1\n      pop\n        /* \"src/TokenBank.sol\":1048:1060  bool isValid */\n      0x00\n        /* \"src/TokenBank.sol\":1063:1068  token */\n      0x01\n      0x00\n      swap1\n      sload\n      swap1\n      0x0100\n      exp\n      swap1\n      div\n      0xffffffffffffffffffffffffffffffffffffffff\n      and\n        /* \"src/TokenBank.sol\":1063:1081  token.transferFrom */\n      0xffffffffffffffffffffffffffffffffffffffff\n      and\n      0x23b872dd\n        /* \"src/TokenBank.sol\":1082:1087  owner */\n      dup4\n        /* \"src/TokenBank.sol\":1097:1101  this */\n      address\n        /* \"src/TokenBank.sol\":1104:1110  amount */\n      dup8\n        /* \"src/TokenBank.sol\":1063:1111  token.transferFrom(owner, address(this), amount) */\n      mload(0x40)\n      dup5\n      0xffffffff\n      and\n      0xe0\n      shl\n      dup2\n      mstore\n      0x04\n      add\n      tag_74\n      swap4\n      swap3\n      swap2\n      swap1\n      tag_75\n      jump\t// in\n    tag_74:\n      0x20\n      mload(0x40)\n      dup1\n      dup4\n      sub\n      dup2\n      0x00\n      dup8\n      gas\n      call\n      iszero\n      dup1\n      iszero\n      tag_77\n      jumpi\n      returndatasize\n      0x00\n      dup1\n      returndatacopy\n      revert(0x00, returndatasize)\n    tag_77:\n      pop\n      pop\n      pop\n      pop\n      mload(0x40)\n      returndatasize\n      not(0x1f)\n      0x1f\n      dup3\n      add\n      and\n      dup3\n      add\n      dup1\n      0x40\n      mstore\n      pop\n      dup2\n      add\n      swap1\n      tag_78\n      swap2\n      swap1\n      tag_79\n      jump\t// in\n    tag_78:\n        /* \"src/TokenBank.sol\":1048:1111  bool isValid = token.transferFrom(owner, address(this), amount) */\n      swap1\n      pop\n        /* \"src/TokenBank.sol\":1129:1136  isValid */\n      dup1\n        /* \"src/TokenBank.sol\":1121:1160  require(isValid, \"TransferFrom Failed\") */\n      tag_80\n      jumpi\n      mload(0x40)\n      0x08c379a000000000000000000000000000000000000000000000000000000000\n      dup2\n      mstore\n      0x04\n      add\n      tag_81\n      swap1\n      tag_82\n      jump\t// in\n    tag_81:\n      mload(0x40)\n      dup1\n      swap2\n      sub\n      swap1\n      revert\n    tag_80:\n        /* \"src/TokenBank.sol\":1213:1219  amount */\n      dup4\n        /* \"src/TokenBank.sol\":1194:1202  balances */\n      0x00\n        /* \"src/TokenBank.sol\":1194:1209  balances[owner] */\n      dup1\n        /* \"src/TokenBank.sol\":1203:1208  owner */\n      dup5\n        /* \"src/TokenBank.sol\":1194:1209  balances[owner] */\n      0xffffffffffffffffffffffffffffffffffffffff\n      and\n      0xffffffffffffffffffffffffffffffffffffffff\n      and\n      dup2\n      mstore\n      0x20\n      add\n      swap1\n      dup2\n      mstore\n      0x20\n      add\n      0x00\n      keccak256\n      0x00\n        /* \"src/TokenBank.sol\":1194:1219  balances[owner] += amount */\n      dup3\n      dup3\n      sload\n      add\n      swap3\n      pop\n      pop\n      dup2\n      swap1\n      sstore\n      pop\n        /* \"src/TokenBank.sol\":1000:1236  {... */\n      pop\n      pop\n        /* \"src/TokenBank.sol\":935:1236  function deposit (uint256 amount) public DespositInvalid(amount) {... */\n      pop\n      pop\n      jump\t// out\n        /* \"src/TokenBank.sol\":517:539  BaseERC20 public token */\n    tag_41:\n      0x01\n      0x00\n      swap1\n      sload\n      swap1\n      0x0100\n      exp\n      swap1\n      div\n      0xffffffffffffffffffffffffffffffffffffffff\n      and\n      dup2\n      jump\t// out\n        /* \"lib/openzeppelin-contracts/contracts/utils/Context.sol\":656:752  function _msgSender() internal view virtual returns (address) {... */\n    tag_46:\n        /* \"lib/openzeppelin-contracts/contracts/utils/Context.sol\":709:716  address */\n      0x00\n        /* \"lib/openzeppelin-contracts/contracts/utils/Context.sol\":735:745  msg.sender */\n      caller\n        /* \"lib/openzeppelin-contracts/contracts/utils/Context.sol\":728:745  return msg.sender */\n      swap1\n      pop\n        /* \"lib/openzeppelin-contracts/contracts/utils/Context.sol\":656:752  function _msgSender() internal view virtual returns (address) {... */\n      swap1\n      jump\t// out\n        /* \"#utility.yul\":7:84   */\n    tag_84:\n        /* \"#utility.yul\":44:51   */\n      0x00\n        /* \"#utility.yul\":73:78   */\n      dup2\n        /* \"#utility.yul\":62:78   */\n      swap1\n      pop\n        /* \"#utility.yul\":7:84   */\n      swap2\n      swap1\n      pop\n      jump\t// out\n        /* \"#utility.yul\":90:208   */\n    tag_85:\n        /* \"#utility.yul\":177:201   */\n      tag_119\n        /* \"#utility.yul\":195:200   */\n      dup2\n        /* \"#utility.yul\":177:201   */\n      tag_84\n      jump\t// in\n    tag_119:\n        /* \"#utility.yul\":172:175   */\n      dup3\n        /* \"#utility.yul\":165:202   */\n      mstore\n        /* \"#utility.yul\":90:208   */\n      pop\n      pop\n      jump\t// out\n        /* \"#utility.yul\":214:436   */\n    tag_15:\n        /* \"#utility.yul\":307:311   */\n      0x00\n        /* \"#utility.yul\":345:347   */\n      0x20\n        /* \"#utility.yul\":334:343   */\n      dup3\n        /* \"#utility.yul\":330:348   */\n      add\n        /* \"#utility.yul\":322:348   */\n      swap1\n      pop\n        /* \"#utility.yul\":358:429   */\n      tag_121\n        /* \"#utility.yul\":426:427   */\n      0x00\n        /* \"#utility.yul\":415:424   */\n      dup4\n        /* \"#utility.yul\":411:428   */\n      add\n        /* \"#utility.yul\":402:408   */\n      dup5\n        /* \"#utility.yul\":358:429   */\n      tag_85\n      jump\t// in\n    tag_121:\n        /* \"#utility.yul\":214:436   */\n      swap3\n      swap2\n      pop\n      pop\n      jump\t// out\n        /* \"#utility.yul\":523:640   */\n    tag_87:\n        /* \"#utility.yul\":632:633   */\n      0x00\n        /* \"#utility.yul\":629:630   */\n      dup1\n        /* \"#utility.yul\":622:634   */\n      revert\n        /* \"#utility.yul\":769:891   */\n    tag_89:\n        /* \"#utility.yul\":842:866   */\n      tag_126\n        /* \"#utility.yul\":860:865   */\n      dup2\n        /* \"#utility.yul\":842:866   */\n      tag_84\n      jump\t// in\n    tag_126:\n        /* \"#utility.yul\":835:840   */\n      dup2\n        /* \"#utility.yul\":832:867   */\n      eq\n        /* \"#utility.yul\":822:885   */\n      tag_127\n      jumpi\n        /* \"#utility.yul\":881:882   */\n      0x00\n        /* \"#utility.yul\":878:879   */\n      dup1\n        /* \"#utility.yul\":871:883   */\n      revert\n        /* \"#utility.yul\":822:885   */\n    tag_127:\n        /* \"#utility.yul\":769:891   */\n      pop\n      jump\t// out\n        /* \"#utility.yul\":897:1036   */\n    tag_90:\n        /* \"#utility.yul\":943:948   */\n      0x00\n        /* \"#utility.yul\":981:987   */\n      dup2\n        /* \"#utility.yul\":968:988   */\n      calldataload\n        /* \"#utility.yul\":959:988   */\n      swap1\n      pop\n        /* \"#utility.yul\":997:1030   */\n      tag_129\n        /* \"#utility.yul\":1024:1029   */\n      dup2\n        /* \"#utility.yul\":997:1030   */\n      tag_89\n      jump\t// in\n    tag_129:\n        /* \"#utility.yul\":897:1036   */\n      swap3\n      swap2\n      pop\n      pop\n      jump\t// out\n        /* \"#utility.yul\":1042:1371   */\n    tag_18:\n        /* \"#utility.yul\":1101:1107   */\n      0x00\n        /* \"#utility.yul\":1150:1152   */\n      0x20\n        /* \"#utility.yul\":1138:1147   */\n      dup3\n        /* \"#utility.yul\":1129:1136   */\n      dup5\n        /* \"#utility.yul\":1125:1148   */\n      sub\n        /* \"#utility.yul\":1121:1153   */\n      slt\n        /* \"#utility.yul\":1118:1237   */\n      iszero\n      tag_131\n      jumpi\n        /* \"#utility.yul\":1156:1235   */\n      tag_132\n      tag_87\n      jump\t// in\n    tag_132:\n        /* \"#utility.yul\":1118:1237   */\n    tag_131:\n        /* \"#utility.yul\":1276:1277   */\n      0x00\n        /* \"#utility.yul\":1301:1354   */\n      tag_133\n        /* \"#utility.yul\":1346:1353   */\n      dup5\n        /* \"#utility.yul\":1337:1343   */\n      dup3\n        /* \"#utility.yul\":1326:1335   */\n      dup6\n        /* \"#utility.yul\":1322:1344   */\n      add\n        /* \"#utility.yul\":1301:1354   */\n      tag_90\n      jump\t// in\n    tag_133:\n        /* \"#utility.yul\":1291:1354   */\n      swap2\n      pop\n        /* \"#utility.yul\":1247:1364   */\n      pop\n        /* \"#utility.yul\":1042:1371   */\n      swap3\n      swap2\n      pop\n      pop\n      jump\t// out\n        /* \"#utility.yul\":1377:1503   */\n    tag_91:\n        /* \"#utility.yul\":1414:1421   */\n      0x00\n        /* \"#utility.yul\":1454:1496   */\n      0xffffffffffffffffffffffffffffffffffffffff\n        /* \"#utility.yul\":1447:1452   */\n      dup3\n        /* \"#utility.yul\":1443:1497   */\n      and\n        /* \"#utility.yul\":1432:1497   */\n      swap1\n      pop\n        /* \"#utility.yul\":1377:1503   */\n      swap2\n      swap1\n      pop\n      jump\t// out\n        /* \"#utility.yul\":1509:1605   */\n    tag_92:\n        /* \"#utility.yul\":1546:1553   */\n      0x00\n        /* \"#utility.yul\":1575:1599   */\n      tag_136\n        /* \"#utility.yul\":1593:1598   */\n      dup3\n        /* \"#utility.yul\":1575:1599   */\n      tag_91\n      jump\t// in\n    tag_136:\n        /* \"#utility.yul\":1564:1599   */\n      swap1\n      pop\n        /* \"#utility.yul\":1509:1605   */\n      swap2\n      swap1\n      pop\n      jump\t// out\n        /* \"#utility.yul\":1611:1733   */\n    tag_93:\n        /* \"#utility.yul\":1684:1708   */\n      tag_138\n        /* \"#utility.yul\":1702:1707   */\n      dup2\n        /* \"#utility.yul\":1684:1708   */\n      tag_92\n      jump\t// in\n    tag_138:\n        /* \"#utility.yul\":1677:1682   */\n      dup2\n        /* \"#utility.yul\":1674:1709   */\n      eq\n        /* \"#utility.yul\":1664:1727   */\n      tag_139\n      jumpi\n        /* \"#utility.yul\":1723:1724   */\n      0x00\n        /* \"#utility.yul\":1720:1721   */\n      dup1\n        /* \"#utility.yul\":1713:1725   */\n      revert\n        /* \"#utility.yul\":1664:1727   */\n    tag_139:\n        /* \"#utility.yul\":1611:1733   */\n      pop\n      jump\t// out\n        /* \"#utility.yul\":1739:1878   */\n    tag_94:\n        /* \"#utility.yul\":1785:1790   */\n      0x00\n        /* \"#utility.yul\":1823:1829   */\n      dup2\n        /* \"#utility.yul\":1810:1830   */\n      calldataload\n        /* \"#utility.yul\":1801:1830   */\n      swap1\n      pop\n        /* \"#utility.yul\":1839:1872   */\n      tag_141\n        /* \"#utility.yul\":1866:1871   */\n      dup2\n        /* \"#utility.yul\":1839:1872   */\n      tag_93\n      jump\t// in\n    tag_141:\n        /* \"#utility.yul\":1739:1878   */\n      swap3\n      swap2\n      pop\n      pop\n      jump\t// out\n        /* \"#utility.yul\":1884:2358   */\n    tag_22:\n        /* \"#utility.yul\":1952:1958   */\n      0x00\n        /* \"#utility.yul\":1960:1966   */\n      dup1\n        /* \"#utility.yul\":2009:2011   */\n      0x40\n        /* \"#utility.yul\":1997:2006   */\n      dup4\n        /* \"#utility.yul\":1988:1995   */\n      dup6\n        /* \"#utility.yul\":1984:2007   */\n      sub\n        /* \"#utility.yul\":1980:2012   */\n      slt\n        /* \"#utility.yul\":1977:2096   */\n      iszero\n      tag_143\n      jumpi\n        /* \"#utility.yul\":2015:2094   */\n      tag_144\n      tag_87\n      jump\t// in\n    tag_144:\n        /* \"#utility.yul\":1977:2096   */\n    tag_143:\n        /* \"#utility.yul\":2135:2136   */\n      0x00\n        /* \"#utility.yul\":2160:2213   */\n      tag_145\n        /* \"#utility.yul\":2205:2212   */\n      dup6\n        /* \"#utility.yul\":2196:2202   */\n      dup3\n        /* \"#utility.yul\":2185:2194   */\n      dup7\n        /* \"#utility.yul\":2181:2203   */\n      add\n        /* \"#utility.yul\":2160:2213   */\n      tag_94\n      jump\t// in\n    tag_145:\n        /* \"#utility.yul\":2150:2213   */\n      swap3\n      pop\n        /* \"#utility.yul\":2106:2223   */\n      pop\n        /* \"#utility.yul\":2262:2264   */\n      0x20\n        /* \"#utility.yul\":2288:2341   */\n      tag_146\n        /* \"#utility.yul\":2333:2340   */\n      dup6\n        /* \"#utility.yul\":2324:2330   */\n      dup3\n        /* \"#utility.yul\":2313:2322   */\n      dup7\n        /* \"#utility.yul\":2309:2331   */\n      add\n        /* \"#utility.yul\":2288:2341   */\n      tag_90\n      jump\t// in\n    tag_146:\n        /* \"#utility.yul\":2278:2341   */\n      swap2\n      pop\n        /* \"#utility.yul\":2233:2351   */\n      pop\n        /* \"#utility.yul\":1884:2358   */\n      swap3\n      pop\n      swap3\n      swap1\n      pop\n      jump\t// out\n        /* \"#utility.yul\":2364:2454   */\n    tag_95:\n        /* \"#utility.yul\":2398:2405   */\n      0x00\n        /* \"#utility.yul\":2441:2446   */\n      dup2\n        /* \"#utility.yul\":2434:2447   */\n      iszero\n        /* \"#utility.yul\":2427:2448   */\n      iszero\n        /* \"#utility.yul\":2416:2448   */\n      swap1\n      pop\n        /* \"#utility.yul\":2364:2454   */\n      swap2\n      swap1\n      pop\n      jump\t// out\n        /* \"#utility.yul\":2460:2569   */\n    tag_96:\n        /* \"#utility.yul\":2541:2562   */\n      tag_149\n        /* \"#utility.yul\":2556:2561   */\n      dup2\n        /* \"#utility.yul\":2541:2562   */\n      tag_95\n      jump\t// in\n    tag_149:\n        /* \"#utility.yul\":2536:2539   */\n      dup3\n        /* \"#utility.yul\":2529:2563   */\n      mstore\n        /* \"#utility.yul\":2460:2569   */\n      pop\n      pop\n      jump\t// out\n        /* \"#utility.yul\":2575:2785   */\n    tag_25:\n        /* \"#utility.yul\":2662:2666   */\n      0x00\n        /* \"#utility.yul\":2700:2702   */\n      0x20\n        /* \"#utility.yul\":2689:2698   */\n      dup3\n        /* \"#utility.yul\":2685:2703   */\n      add\n        /* \"#utility.yul\":2677:2703   */\n      swap1\n      pop\n        /* \"#utility.yul\":2713:2778   */\n      tag_151\n        /* \"#utility.yul\":2775:2776   */\n      0x00\n        /* \"#utility.yul\":2764:2773   */\n      dup4\n        /* \"#utility.yul\":2760:2777   */\n      add\n        /* \"#utility.yul\":2751:2757   */\n      dup5\n        /* \"#utility.yul\":2713:2778   */\n      tag_96\n      jump\t// in\n    tag_151:\n        /* \"#utility.yul\":2575:2785   */\n      swap3\n      swap2\n      pop\n      pop\n      jump\t// out\n        /* \"#utility.yul\":2791:3120   */\n    tag_28:\n        /* \"#utility.yul\":2850:2856   */\n      0x00\n        /* \"#utility.yul\":2899:2901   */\n      0x20\n        /* \"#utility.yul\":2887:2896   */\n      dup3\n        /* \"#utility.yul\":2878:2885   */\n      dup5\n        /* \"#utility.yul\":2874:2897   */\n      sub\n        /* \"#utility.yul\":2870:2902   */\n      slt\n        /* \"#utility.yul\":2867:2986   */\n      iszero\n      tag_153\n      jumpi\n        /* \"#utility.yul\":2905:2984   */\n      tag_154\n      tag_87\n      jump\t// in\n    tag_154:\n        /* \"#utility.yul\":2867:2986   */\n    tag_153:\n        /* \"#utility.yul\":3025:3026   */\n      0x00\n        /* \"#utility.yul\":3050:3103   */\n      tag_155\n        /* \"#utility.yul\":3095:3102   */\n      dup5\n        /* \"#utility.yul\":3086:3092   */\n      dup3\n        /* \"#utility.yul\":3075:3084   */\n      dup6\n        /* \"#utility.yul\":3071:3093   */\n      add\n        /* \"#utility.yul\":3050:3103   */\n      tag_94\n      jump\t// in\n    tag_155:\n        /* \"#utility.yul\":3040:3103   */\n      swap2\n      pop\n        /* \"#utility.yul\":2996:3113   */\n      pop\n        /* \"#utility.yul\":2791:3120   */\n      swap3\n      swap2\n      pop\n      pop\n      jump\t// out\n        /* \"#utility.yul\":3126:3186   */\n    tag_97:\n        /* \"#utility.yul\":3154:3157   */\n      0x00\n        /* \"#utility.yul\":3175:3180   */\n      dup2\n        /* \"#utility.yul\":3168:3180   */\n      swap1\n      pop\n        /* \"#utility.yul\":3126:3186   */\n      swap2\n      swap1\n      pop\n      jump\t// out\n        /* \"#utility.yul\":3192:3334   */\n    tag_98:\n        /* \"#utility.yul\":3242:3251   */\n      0x00\n        /* \"#utility.yul\":3275:3328   */\n      tag_158\n        /* \"#utility.yul\":3293:3327   */\n      tag_159\n        /* \"#utility.yul\":3302:3326   */\n      tag_160\n        /* \"#utility.yul\":3320:3325   */\n      dup5\n        /* \"#utility.yul\":3302:3326   */\n      tag_91\n      jump\t// in\n    tag_160:\n        /* \"#utility.yul\":3293:3327   */\n      tag_97\n      jump\t// in\n    tag_159:\n        /* \"#utility.yul\":3275:3328   */\n      tag_91\n      jump\t// in\n    tag_158:\n        /* \"#utility.yul\":3262:3328   */\n      swap1\n      pop\n        /* \"#utility.yul\":3192:3334   */\n      swap2\n      swap1\n      pop\n      jump\t// out\n        /* \"#utility.yul\":3340:3466   */\n    tag_99:\n        /* \"#utility.yul\":3390:3399   */\n      0x00\n        /* \"#utility.yul\":3423:3460   */\n      tag_162\n        /* \"#utility.yul\":3454:3459   */\n      dup3\n        /* \"#utility.yul\":3423:3460   */\n      tag_98\n      jump\t// in\n    tag_162:\n        /* \"#utility.yul\":3410:3460   */\n      swap1\n      pop\n        /* \"#utility.yul\":3340:3466   */\n      swap2\n      swap1\n      pop\n      jump\t// out\n        /* \"#utility.yul\":3472:3615   */\n    tag_100:\n        /* \"#utility.yul\":3539:3548   */\n      0x00\n        /* \"#utility.yul\":3572:3609   */\n      tag_164\n        /* \"#utility.yul\":3603:3608   */\n      dup3\n        /* \"#utility.yul\":3572:3609   */\n      tag_99\n      jump\t// in\n    tag_164:\n        /* \"#utility.yul\":3559:3609   */\n      swap1\n      pop\n        /* \"#utility.yul\":3472:3615   */\n      swap2\n      swap1\n      pop\n      jump\t// out\n        /* \"#utility.yul\":3621:3786   */\n    tag_101:\n        /* \"#utility.yul\":3725:3779   */\n      tag_166\n        /* \"#utility.yul\":3773:3778   */\n      dup2\n        /* \"#utility.yul\":3725:3779   */\n      tag_100\n      jump\t// in\n    tag_166:\n        /* \"#utility.yul\":3720:3723   */\n      dup3\n        /* \"#utility.yul\":3713:3780   */\n      mstore\n        /* \"#utility.yul\":3621:3786   */\n      pop\n      pop\n      jump\t// out\n        /* \"#utility.yul\":3792:4048   */\n    tag_43:\n        /* \"#utility.yul\":3902:3906   */\n      0x00\n        /* \"#utility.yul\":3940:3942   */\n      0x20\n        /* \"#utility.yul\":3929:3938   */\n      dup3\n        /* \"#utility.yul\":3925:3943   */\n      add\n        /* \"#utility.yul\":3917:3943   */\n      swap1\n      pop\n        /* \"#utility.yul\":3953:4041   */\n      tag_168\n        /* \"#utility.yul\":4038:4039   */\n      0x00\n        /* \"#utility.yul\":4027:4036   */\n      dup4\n        /* \"#utility.yul\":4023:4040   */\n      add\n        /* \"#utility.yul\":4014:4020   */\n      dup5\n        /* \"#utility.yul\":3953:4041   */\n      tag_101\n      jump\t// in\n    tag_168:\n        /* \"#utility.yul\":3792:4048   */\n      swap3\n      swap2\n      pop\n      pop\n      jump\t// out\n        /* \"#utility.yul\":4054:4172   */\n    tag_102:\n        /* \"#utility.yul\":4141:4165   */\n      tag_170\n        /* \"#utility.yul\":4159:4164   */\n      dup2\n        /* \"#utility.yul\":4141:4165   */\n      tag_92\n      jump\t// in\n    tag_170:\n        /* \"#utility.yul\":4136:4139   */\n      dup3\n        /* \"#utility.yul\":4129:4166   */\n      mstore\n        /* \"#utility.yul\":4054:4172   */\n      pop\n      pop\n      jump\t// out\n        /* \"#utility.yul\":4178:4265   */\n    tag_103:\n        /* \"#utility.yul\":4225:4232   */\n      0x00\n        /* \"#utility.yul\":4254:4259   */\n      dup2\n        /* \"#utility.yul\":4243:4259   */\n      swap1\n      pop\n        /* \"#utility.yul\":4178:4265   */\n      swap2\n      swap1\n      pop\n      jump\t// out\n        /* \"#utility.yul\":4271:4433   */\n    tag_104:\n        /* \"#utility.yul\":4331:4340   */\n      0x00\n        /* \"#utility.yul\":4364:4427   */\n      tag_173\n        /* \"#utility.yul\":4382:4426   */\n      tag_174\n        /* \"#utility.yul\":4391:4425   */\n      tag_175\n        /* \"#utility.yul\":4419:4424   */\n      dup5\n        /* \"#utility.yul\":4391:4425   */\n      tag_103\n      jump\t// in\n    tag_175:\n        /* \"#utility.yul\":4382:4426   */\n      tag_97\n      jump\t// in\n    tag_174:\n        /* \"#utility.yul\":4364:4427   */\n      tag_84\n      jump\t// in\n    tag_173:\n        /* \"#utility.yul\":4351:4427   */\n      swap1\n      pop\n        /* \"#utility.yul\":4271:4433   */\n      swap2\n      swap1\n      pop\n      jump\t// out\n        /* \"#utility.yul\":4439:4590   */\n    tag_105:\n        /* \"#utility.yul\":4536:4583   */\n      tag_177\n        /* \"#utility.yul\":4577:4582   */\n      dup2\n        /* \"#utility.yul\":4536:4583   */\n      tag_104\n      jump\t// in\n    tag_177:\n        /* \"#utility.yul\":4531:4534   */\n      dup3\n        /* \"#utility.yul\":4524:4584   */\n      mstore\n        /* \"#utility.yul\":4439:4590   */\n      pop\n      pop\n      jump\t// out\n        /* \"#utility.yul\":4596:5078   */\n    tag_50:\n        /* \"#utility.yul\":4765:4769   */\n      0x00\n        /* \"#utility.yul\":4803:4805   */\n      0x60\n        /* \"#utility.yul\":4792:4801   */\n      dup3\n        /* \"#utility.yul\":4788:4806   */\n      add\n        /* \"#utility.yul\":4780:4806   */\n      swap1\n      pop\n        /* \"#utility.yul\":4816:4887   */\n      tag_179\n        /* \"#utility.yul\":4884:4885   */\n      0x00\n        /* \"#utility.yul\":4873:4882   */\n      dup4\n        /* \"#utility.yul\":4869:4886   */\n      add\n        /* \"#utility.yul\":4860:4866   */\n      dup7\n        /* \"#utility.yul\":4816:4887   */\n      tag_102\n      jump\t// in\n    tag_179:\n        /* \"#utility.yul\":4897:4979   */\n      tag_180\n        /* \"#utility.yul\":4975:4977   */\n      0x20\n        /* \"#utility.yul\":4964:4973   */\n      dup4\n        /* \"#utility.yul\":4960:4978   */\n      add\n        /* \"#utility.yul\":4951:4957   */\n      dup6\n        /* \"#utility.yul\":4897:4979   */\n      tag_105\n      jump\t// in\n    tag_180:\n        /* \"#utility.yul\":4989:5071   */\n      tag_181\n        /* \"#utility.yul\":5067:5069   */\n      0x40\n        /* \"#utility.yul\":5056:5065   */\n      dup4\n        /* \"#utility.yul\":5052:5070   */\n      add\n        /* \"#utility.yul\":5043:5049   */\n      dup5\n        /* \"#utility.yul\":4989:5071   */\n      tag_105\n      jump\t// in\n    tag_181:\n        /* \"#utility.yul\":4596:5078   */\n      swap5\n      swap4\n      pop\n      pop\n      pop\n      pop\n      jump\t// out\n        /* \"#utility.yul\":5084:5253   */\n    tag_106:\n        /* \"#utility.yul\":5168:5179   */\n      0x00\n        /* \"#utility.yul\":5202:5208   */\n      dup3\n        /* \"#utility.yul\":5197:5200   */\n      dup3\n        /* \"#utility.yul\":5190:5209   */\n      mstore\n        /* \"#utility.yul\":5242:5246   */\n      0x20\n        /* \"#utility.yul\":5237:5240   */\n      dup3\n        /* \"#utility.yul\":5233:5247   */\n      add\n        /* \"#utility.yul\":5218:5247   */\n      swap1\n      pop\n        /* \"#utility.yul\":5084:5253   */\n      swap3\n      swap2\n      pop\n      pop\n      jump\t// out\n        /* \"#utility.yul\":5259:5423   */\n    tag_107:\n        /* \"#utility.yul\":5399:5415   */\n      0x496e76616c69642073656e646572000000000000000000000000000000000000\n        /* \"#utility.yul\":5395:5396   */\n      0x00\n        /* \"#utility.yul\":5387:5393   */\n      dup3\n        /* \"#utility.yul\":5383:5397   */\n      add\n        /* \"#utility.yul\":5376:5416   */\n      mstore\n        /* \"#utility.yul\":5259:5423   */\n      pop\n      jump\t// out\n        /* \"#utility.yul\":5429:5795   */\n    tag_108:\n        /* \"#utility.yul\":5571:5574   */\n      0x00\n        /* \"#utility.yul\":5592:5659   */\n      tag_185\n        /* \"#utility.yul\":5656:5658   */\n      0x0e\n        /* \"#utility.yul\":5651:5654   */\n      dup4\n        /* \"#utility.yul\":5592:5659   */\n      tag_106\n      jump\t// in\n    tag_185:\n        /* \"#utility.yul\":5585:5659   */\n      swap2\n      pop\n        /* \"#utility.yul\":5668:5761   */\n      tag_186\n        /* \"#utility.yul\":5757:5760   */\n      dup3\n        /* \"#utility.yul\":5668:5761   */\n      tag_107\n      jump\t// in\n    tag_186:\n        /* \"#utility.yul\":5786:5788   */\n      0x20\n        /* \"#utility.yul\":5781:5784   */\n      dup3\n        /* \"#utility.yul\":5777:5789   */\n      add\n        /* \"#utility.yul\":5770:5789   */\n      swap1\n      pop\n        /* \"#utility.yul\":5429:5795   */\n      swap2\n      swap1\n      pop\n      jump\t// out\n        /* \"#utility.yul\":5801:6220   */\n    tag_56:\n        /* \"#utility.yul\":5967:5971   */\n      0x00\n        /* \"#utility.yul\":6005:6007   */\n      0x20\n        /* \"#utility.yul\":5994:6003   */\n      dup3\n        /* \"#utility.yul\":5990:6008   */\n      add\n        /* \"#utility.yul\":5982:6008   */\n      swap1\n      pop\n        /* \"#utility.yul\":6054:6063   */\n      dup2\n        /* \"#utility.yul\":6048:6052   */\n      dup2\n        /* \"#utility.yul\":6044:6064   */\n      sub\n        /* \"#utility.yul\":6040:6041   */\n      0x00\n        /* \"#utility.yul\":6029:6038   */\n      dup4\n        /* \"#utility.yul\":6025:6042   */\n      add\n        /* \"#utility.yul\":6018:6065   */\n      mstore\n        /* \"#utility.yul\":6082:6213   */\n      tag_188\n        /* \"#utility.yul\":6208:6212   */\n      dup2\n        /* \"#utility.yul\":6082:6213   */\n      tag_108\n      jump\t// in\n    tag_188:\n        /* \"#utility.yul\":6074:6213   */\n      swap1\n      pop\n        /* \"#utility.yul\":5801:6220   */\n      swap2\n      swap1\n      pop\n      jump\t// out\n        /* \"#utility.yul\":6226:6406   */\n    tag_109:\n        /* \"#utility.yul\":6274:6351   */\n      0x4e487b7100000000000000000000000000000000000000000000000000000000\n        /* \"#utility.yul\":6271:6272   */\n      0x00\n        /* \"#utility.yul\":6264:6352   */\n      mstore\n        /* \"#utility.yul\":6371:6375   */\n      0x11\n        /* \"#utility.yul\":6368:6369   */\n      0x04\n        /* \"#utility.yul\":6361:6376   */\n      mstore\n        /* \"#utility.yul\":6395:6399   */\n      0x24\n        /* \"#utility.yul\":6392:6393   */\n      0x00\n        /* \"#utility.yul\":6385:6400   */\n      revert\n        /* \"#utility.yul\":6412:6603   */\n    tag_58:\n        /* \"#utility.yul\":6452:6455   */\n      0x00\n        /* \"#utility.yul\":6471:6491   */\n      tag_191\n        /* \"#utility.yul\":6489:6490   */\n      dup3\n        /* \"#utility.yul\":6471:6491   */\n      tag_84\n      jump\t// in\n    tag_191:\n        /* \"#utility.yul\":6466:6491   */\n      swap2\n      pop\n        /* \"#utility.yul\":6505:6525   */\n      tag_192\n        /* \"#utility.yul\":6523:6524   */\n      dup4\n        /* \"#utility.yul\":6505:6525   */\n      tag_84\n      jump\t// in\n    tag_192:\n        /* \"#utility.yul\":6500:6525   */\n      swap3\n      pop\n        /* \"#utility.yul\":6548:6549   */\n      dup3\n        /* \"#utility.yul\":6545:6546   */\n      dup3\n        /* \"#utility.yul\":6541:6550   */\n      add\n        /* \"#utility.yul\":6534:6550   */\n      swap1\n      pop\n        /* \"#utility.yul\":6569:6572   */\n      dup1\n        /* \"#utility.yul\":6566:6567   */\n      dup3\n        /* \"#utility.yul\":6563:6573   */\n      gt\n        /* \"#utility.yul\":6560:6596   */\n      iszero\n      tag_193\n      jumpi\n        /* \"#utility.yul\":6576:6594   */\n      tag_194\n      tag_109\n      jump\t// in\n    tag_194:\n        /* \"#utility.yul\":6560:6596   */\n    tag_193:\n        /* \"#utility.yul\":6412:6603   */\n      swap3\n      swap2\n      pop\n      pop\n      jump\t// out\n        /* \"#utility.yul\":6609:6788   */\n    tag_110:\n        /* \"#utility.yul\":6749:6780   */\n      0x6675636b204552433230496e73756666696369656e7442616c616e6365000000\n        /* \"#utility.yul\":6745:6746   */\n      0x00\n        /* \"#utility.yul\":6737:6743   */\n      dup3\n        /* \"#utility.yul\":6733:6747   */\n      add\n        /* \"#utility.yul\":6726:6781   */\n      mstore\n        /* \"#utility.yul\":6609:6788   */\n      pop\n      jump\t// out\n        /* \"#utility.yul\":6794:7160   */\n    tag_111:\n        /* \"#utility.yul\":6936:6939   */\n      0x00\n        /* \"#utility.yul\":6957:7024   */\n      tag_197\n        /* \"#utility.yul\":7021:7023   */\n      0x1d\n        /* \"#utility.yul\":7016:7019   */\n      dup4\n        /* \"#utility.yul\":6957:7024   */\n      tag_106\n      jump\t// in\n    tag_197:\n        /* \"#utility.yul\":6950:7024   */\n      swap2\n      pop\n        /* \"#utility.yul\":7033:7126   */\n      tag_198\n        /* \"#utility.yul\":7122:7125   */\n      dup3\n        /* \"#utility.yul\":7033:7126   */\n      tag_110\n      jump\t// in\n    tag_198:\n        /* \"#utility.yul\":7151:7153   */\n      0x20\n        /* \"#utility.yul\":7146:7149   */\n      dup3\n        /* \"#utility.yul\":7142:7154   */\n      add\n        /* \"#utility.yul\":7135:7154   */\n      swap1\n      pop\n        /* \"#utility.yul\":6794:7160   */\n      swap2\n      swap1\n      pop\n      jump\t// out\n        /* \"#utility.yul\":7166:7585   */\n    tag_62:\n        /* \"#utility.yul\":7332:7336   */\n      0x00\n        /* \"#utility.yul\":7370:7372   */\n      0x20\n        /* \"#utility.yul\":7359:7368   */\n      dup3\n        /* \"#utility.yul\":7355:7373   */\n      add\n        /* \"#utility.yul\":7347:7373   */\n      swap1\n      pop\n        /* \"#utility.yul\":7419:7428   */\n      dup2\n        /* \"#utility.yul\":7413:7417   */\n      dup2\n        /* \"#utility.yul\":7409:7429   */\n      sub\n        /* \"#utility.yul\":7405:7406   */\n      0x00\n        /* \"#utility.yul\":7394:7403   */\n      dup4\n        /* \"#utility.yul\":7390:7407   */\n      add\n        /* \"#utility.yul\":7383:7430   */\n      mstore\n        /* \"#utility.yul\":7447:7578   */\n      tag_200\n        /* \"#utility.yul\":7573:7577   */\n      dup2\n        /* \"#utility.yul\":7447:7578   */\n      tag_111\n      jump\t// in\n    tag_200:\n        /* \"#utility.yul\":7439:7578   */\n      swap1\n      pop\n        /* \"#utility.yul\":7166:7585   */\n      swap2\n      swap1\n      pop\n      jump\t// out\n        /* \"#utility.yul\":7591:8033   */\n    tag_69:\n        /* \"#utility.yul\":7740:7744   */\n      0x00\n        /* \"#utility.yul\":7778:7780   */\n      0x60\n        /* \"#utility.yul\":7767:7776   */\n      dup3\n        /* \"#utility.yul\":7763:7781   */\n      add\n        /* \"#utility.yul\":7755:7781   */\n      swap1\n      pop\n        /* \"#utility.yul\":7791:7862   */\n      tag_202\n        /* \"#utility.yul\":7859:7860   */\n      0x00\n        /* \"#utility.yul\":7848:7857   */\n      dup4\n        /* \"#utility.yul\":7844:7861   */\n      add\n        /* \"#utility.yul\":7835:7841   */\n      dup7\n        /* \"#utility.yul\":7791:7862   */\n      tag_102\n      jump\t// in\n    tag_202:\n        /* \"#utility.yul\":7872:7944   */\n      tag_203\n        /* \"#utility.yul\":7940:7942   */\n      0x20\n        /* \"#utility.yul\":7929:7938   */\n      dup4\n        /* \"#utility.yul\":7925:7943   */\n      add\n        /* \"#utility.yul\":7916:7922   */\n      dup6\n        /* \"#utility.yul\":7872:7944   */\n      tag_85\n      jump\t// in\n    tag_203:\n        /* \"#utility.yul\":7954:8026   */\n      tag_204\n        /* \"#utility.yul\":8022:8024   */\n      0x40\n        /* \"#utility.yul\":8011:8020   */\n      dup4\n        /* \"#utility.yul\":8007:8025   */\n      add\n        /* \"#utility.yul\":7998:8004   */\n      dup5\n        /* \"#utility.yul\":7954:8026   */\n      tag_85\n      jump\t// in\n    tag_204:\n        /* \"#utility.yul\":7591:8033   */\n      swap5\n      swap4\n      pop\n      pop\n      pop\n      pop\n      jump\t// out\n        /* \"#utility.yul\":8039:8481   */\n    tag_75:\n        /* \"#utility.yul\":8188:8192   */\n      0x00\n        /* \"#utility.yul\":8226:8228   */\n      0x60\n        /* \"#utility.yul\":8215:8224   */\n      dup3\n        /* \"#utility.yul\":8211:8229   */\n      add\n        /* \"#utility.yul\":8203:8229   */\n      swap1\n      pop\n        /* \"#utility.yul\":8239:8310   */\n      tag_206\n        /* \"#utility.yul\":8307:8308   */\n      0x00\n        /* \"#utility.yul\":8296:8305   */\n      dup4\n        /* \"#utility.yul\":8292:8309   */\n      add\n        /* \"#utility.yul\":8283:8289   */\n      dup7\n        /* \"#utility.yul\":8239:8310   */\n      tag_102\n      jump\t// in\n    tag_206:\n        /* \"#utility.yul\":8320:8392   */\n      tag_207\n        /* \"#utility.yul\":8388:8390   */\n      0x20\n        /* \"#utility.yul\":8377:8386   */\n      dup4\n        /* \"#utility.yul\":8373:8391   */\n      add\n        /* \"#utility.yul\":8364:8370   */\n      dup6\n        /* \"#utility.yul\":8320:8392   */\n      tag_102\n      jump\t// in\n    tag_207:\n        /* \"#utility.yul\":8402:8474   */\n      tag_208\n        /* \"#utility.yul\":8470:8472   */\n      0x40\n        /* \"#utility.yul\":8459:8468   */\n      dup4\n        /* \"#utility.yul\":8455:8473   */\n      add\n        /* \"#utility.yul\":8446:8452   */\n      dup5\n        /* \"#utility.yul\":8402:8474   */\n      tag_85\n      jump\t// in\n    tag_208:\n        /* \"#utility.yul\":8039:8481   */\n      swap5\n      swap4\n      pop\n      pop\n      pop\n      pop\n      jump\t// out\n        /* \"#utility.yul\":8487:8603   */\n    tag_112:\n        /* \"#utility.yul\":8557:8578   */\n      tag_210\n        /* \"#utility.yul\":8572:8577   */\n      dup2\n        /* \"#utility.yul\":8557:8578   */\n      tag_95\n      jump\t// in\n    tag_210:\n        /* \"#utility.yul\":8550:8555   */\n      dup2\n        /* \"#utility.yul\":8547:8579   */\n      eq\n        /* \"#utility.yul\":8537:8597   */\n      tag_211\n      jumpi\n        /* \"#utility.yul\":8593:8594   */\n      0x00\n        /* \"#utility.yul\":8590:8591   */\n      dup1\n        /* \"#utility.yul\":8583:8595   */\n      revert\n        /* \"#utility.yul\":8537:8597   */\n    tag_211:\n        /* \"#utility.yul\":8487:8603   */\n      pop\n      jump\t// out\n        /* \"#utility.yul\":8609:8746   */\n    tag_113:\n        /* \"#utility.yul\":8663:8668   */\n      0x00\n        /* \"#utility.yul\":8694:8700   */\n      dup2\n        /* \"#utility.yul\":8688:8701   */\n      mload\n        /* \"#utility.yul\":8679:8701   */\n      swap1\n      pop\n        /* \"#utility.yul\":8710:8740   */\n      tag_213\n        /* \"#utility.yul\":8734:8739   */\n      dup2\n        /* \"#utility.yul\":8710:8740   */\n      tag_112\n      jump\t// in\n    tag_213:\n        /* \"#utility.yul\":8609:8746   */\n      swap3\n      swap2\n      pop\n      pop\n      jump\t// out\n        /* \"#utility.yul\":8752:9097   */\n    tag_79:\n        /* \"#utility.yul\":8819:8825   */\n      0x00\n        /* \"#utility.yul\":8868:8870   */\n      0x20\n        /* \"#utility.yul\":8856:8865   */\n      dup3\n        /* \"#utility.yul\":8847:8854   */\n      dup5\n        /* \"#utility.yul\":8843:8866   */\n      sub\n        /* \"#utility.yul\":8839:8871   */\n      slt\n        /* \"#utility.yul\":8836:8955   */\n      iszero\n      tag_215\n      jumpi\n        /* \"#utility.yul\":8874:8953   */\n      tag_216\n      tag_87\n      jump\t// in\n    tag_216:\n        /* \"#utility.yul\":8836:8955   */\n    tag_215:\n        /* \"#utility.yul\":8994:8995   */\n      0x00\n        /* \"#utility.yul\":9019:9080   */\n      tag_217\n        /* \"#utility.yul\":9072:9079   */\n      dup5\n        /* \"#utility.yul\":9063:9069   */\n      dup3\n        /* \"#utility.yul\":9052:9061   */\n      dup6\n        /* \"#utility.yul\":9048:9070   */\n      add\n        /* \"#utility.yul\":9019:9080   */\n      tag_113\n      jump\t// in\n    tag_217:\n        /* \"#utility.yul\":9009:9080   */\n      swap2\n      pop\n        /* \"#utility.yul\":8965:9090   */\n      pop\n        /* \"#utility.yul\":8752:9097   */\n      swap3\n      swap2\n      pop\n      pop\n      jump\t// out\n        /* \"#utility.yul\":9103:9272   */\n    tag_114:\n        /* \"#utility.yul\":9243:9264   */\n      0x5472616e7366657246726f6d204661696c656400000000000000000000000000\n        /* \"#utility.yul\":9239:9240   */\n      0x00\n        /* \"#utility.yul\":9231:9237   */\n      dup3\n        /* \"#utility.yul\":9227:9241   */\n      add\n        /* \"#utility.yul\":9220:9265   */\n      mstore\n        /* \"#utility.yul\":9103:9272   */\n      pop\n      jump\t// out\n        /* \"#utility.yul\":9278:9644   */\n    tag_115:\n        /* \"#utility.yul\":9420:9423   */\n      0x00\n        /* \"#utility.yul\":9441:9508   */\n      tag_220\n        /* \"#utility.yul\":9505:9507   */\n      0x13\n        /* \"#utility.yul\":9500:9503   */\n      dup4\n        /* \"#utility.yul\":9441:9508   */\n      tag_106\n      jump\t// in\n    tag_220:\n        /* \"#utility.yul\":9434:9508   */\n      swap2\n      pop\n        /* \"#utility.yul\":9517:9610   */\n      tag_221\n        /* \"#utility.yul\":9606:9609   */\n      dup3\n        /* \"#utility.yul\":9517:9610   */\n      tag_114\n      jump\t// in\n    tag_221:\n        /* \"#utility.yul\":9635:9637   */\n      0x20\n        /* \"#utility.yul\":9630:9633   */\n      dup3\n        /* \"#utility.yul\":9626:9638   */\n      add\n        /* \"#utility.yul\":9619:9638   */\n      swap1\n      pop\n        /* \"#utility.yul\":9278:9644   */\n      swap2\n      swap1\n      pop\n      jump\t// out\n        /* \"#utility.yul\":9650:10069   */\n    tag_82:\n        /* \"#utility.yul\":9816:9820   */\n      0x00\n        /* \"#utility.yul\":9854:9856   */\n      0x20\n        /* \"#utility.yul\":9843:9852   */\n      dup3\n        /* \"#utility.yul\":9839:9857   */\n      add\n        /* \"#utility.yul\":9831:9857   */\n      swap1\n      pop\n        /* \"#utility.yul\":9903:9912   */\n      dup2\n        /* \"#utility.yul\":9897:9901   */\n      dup2\n        /* \"#utility.yul\":9893:9913   */\n      sub\n        /* \"#utility.yul\":9889:9890   */\n      0x00\n        /* \"#utility.yul\":9878:9887   */\n      dup4\n        /* \"#utility.yul\":9874:9891   */\n      add\n        /* \"#utility.yul\":9867:9914   */\n      mstore\n        /* \"#utility.yul\":9931:10062   */\n      tag_223\n        /* \"#utility.yul\":10057:10061   */\n      dup2\n        /* \"#utility.yul\":9931:10062   */\n      tag_115\n      jump\t// in\n    tag_223:\n        /* \"#utility.yul\":9923:10062   */\n      swap1\n      pop\n        /* \"#utility.yul\":9650:10069   */\n      swap2\n      swap1\n      pop\n      jump\t// out\n\n    auxdata: 0xa264697066735822122050e134a111afaa084d2613bf96a300d134c5c3776e68775111460731ae8908e764736f6c634300081a0033\n}\n",
				"bytecode": {
					"linkReferences": {},
					"object": "608060405234801561000f575f80fd5b50604051610d2a380380610d2a83398181016040528101906100319190610149565b80805f73ffffffffffffffffffffffffffffffffffffffff168173ffffffffffffffffffffffffffffffffffffffff16036100a3575f6040517f96c6fd1e00000000000000000000000000000000000000000000000000000000815260040161009a9190610183565b60405180910390fd5b8160015f6101000a81548173ffffffffffffffffffffffffffffffffffffffff021916908373ffffffffffffffffffffffffffffffffffffffff16021790555050505061019c565b5f80fd5b5f73ffffffffffffffffffffffffffffffffffffffff82169050919050565b5f610118826100ef565b9050919050565b6101288161010e565b8114610132575f80fd5b50565b5f815190506101438161011f565b92915050565b5f6020828403121561015e5761015d6100eb565b5b5f61016b84828501610135565b91505092915050565b61017d8161010e565b82525050565b5f6020820190506101965f830184610174565b92915050565b610b81806101a95f395ff3fe608060405234801561000f575f80fd5b5060043610610086575f3560e01c80632818e67e116100595780632818e67e146101245780632e1a7d4d14610140578063b6b55f251461015c578063fc0c546a1461017857610086565b806312065fe01461008a57806320987767146100a857806324a756d1146100c457806327e235e3146100f4575b5f80fd5b610092610196565b60405161009f919061068b565b60405180910390f35b6100c260048036038101906100bd91906106d2565b6101e5565b005b6100de60048036038101906100d99190610757565b610233565b6040516100eb91906107af565b60405180910390f35b61010e600480360381019061010991906107c8565b61035a565b60405161011b919061068b565b60405180910390f35b61013e600480360381019061013991906106d2565b61036e565b005b61015a600480360381019061015591906106d2565b6103b5565b005b610176600480360381019061017191906106d2565b6104d2565b005b610180610647565b60405161018d919061084e565b60405180910390f35b5f806101a061066c565b90505f808273ffffffffffffffffffffffffffffffffffffffff1673ffffffffffffffffffffffffffffffffffffffff1681526020019081526020015f205491505090565b60fa811015610230575f60fa806040517fe450d38c000000000000000000000000000000000000000000000000000000008152600401610227939291906108af565b60405180910390fd5b50565b5f815f811161026e576040517f5ad8341100000000000000000000000000000000000000000000000000000000815260040160405180910390fd5b60015f9054906101000a900473ffffffffffffffffffffffffffffffffffffffff1673ffffffffffffffffffffffffffffffffffffffff163373ffffffffffffffffffffffffffffffffffffffff16146102fd576040517f08c379a00000000000000000000000000000000000000000000000000000000081526004016102f49061093e565b60405180910390fd5b825f808673ffffffffffffffffffffffffffffffffffffffff1673ffffffffffffffffffffffffffffffffffffffff1681526020019081526020015f205f8282546103489190610989565b92505081905550600191505092915050565b5f602052805f5260405f205f915090505481565b60fa8110156103b2576040517f08c379a00000000000000000000000000000000000000000000000000000000081526004016103a990610a06565b60405180910390fd5b50565b805f81116103ef576040517f5ad8341100000000000000000000000000000000000000000000000000000000815260040160405180910390fd5b5f6103f861066c565b90505f805f8373ffffffffffffffffffffffffffffffffffffffff1673ffffffffffffffffffffffffffffffffffffffff1681526020019081526020015f2054905083811015610483578181856040517fe450d38c00000000000000000000000000000000000000000000000000000000815260040161047a93929190610a24565b60405180910390fd5b835f808473ffffffffffffffffffffffffffffffffffffffff1673ffffffffffffffffffffffffffffffffffffffff1681526020019081526020015f205f828254039250508190555050505050565b805f811161050c576040517f5ad8341100000000000000000000000000000000000000000000000000000000815260040160405180910390fd5b5f61051561066c565b90505f60015f9054906101000a900473ffffffffffffffffffffffffffffffffffffffff1673ffffffffffffffffffffffffffffffffffffffff166323b872dd8330876040518463ffffffff1660e01b815260040161057693929190610a59565b6020604051808303815f875af1158015610592573d5f803e3d5ffd5b505050506040513d601f19601f820116820180604052508101906105b69190610ab8565b9050806105f8576040517f08c379a00000000000000000000000000000000000000000000000000000000081526004016105ef90610b2d565b60405180910390fd5b835f808473ffffffffffffffffffffffffffffffffffffffff1673ffffffffffffffffffffffffffffffffffffffff1681526020019081526020015f205f828254019250508190555050505050565b60015f9054906101000a900473ffffffffffffffffffffffffffffffffffffffff1681565b5f33905090565b5f819050919050565b61068581610673565b82525050565b5f60208201905061069e5f83018461067c565b92915050565b5f80fd5b6106b181610673565b81146106bb575f80fd5b50565b5f813590506106cc816106a8565b92915050565b5f602082840312156106e7576106e66106a4565b5b5f6106f4848285016106be565b91505092915050565b5f73ffffffffffffffffffffffffffffffffffffffff82169050919050565b5f610726826106fd565b9050919050565b6107368161071c565b8114610740575f80fd5b50565b5f813590506107518161072d565b92915050565b5f806040838503121561076d5761076c6106a4565b5b5f61077a85828601610743565b925050602061078b858286016106be565b9150509250929050565b5f8115159050919050565b6107a981610795565b82525050565b5f6020820190506107c25f8301846107a0565b92915050565b5f602082840312156107dd576107dc6106a4565b5b5f6107ea84828501610743565b91505092915050565b5f819050919050565b5f61081661081161080c846106fd565b6107f3565b6106fd565b9050919050565b5f610827826107fc565b9050919050565b5f6108388261081d565b9050919050565b6108488161082e565b82525050565b5f6020820190506108615f83018461083f565b92915050565b6108708161071c565b82525050565b5f819050919050565b5f61089961089461088f84610876565b6107f3565b610673565b9050919050565b6108a98161087f565b82525050565b5f6060820190506108c25f830186610867565b6108cf60208301856108a0565b6108dc60408301846108a0565b949350505050565b5f82825260208201905092915050565b7f496e76616c69642073656e6465720000000000000000000000000000000000005f82015250565b5f610928600e836108e4565b9150610933826108f4565b602082019050919050565b5f6020820190508181035f8301526109558161091c565b9050919050565b7f4e487b71000000000000000000000000000000000000000000000000000000005f52601160045260245ffd5b5f61099382610673565b915061099e83610673565b92508282019050808211156109b6576109b561095c565b5b92915050565b7f6675636b204552433230496e73756666696369656e7442616c616e63650000005f82015250565b5f6109f0601d836108e4565b91506109fb826109bc565b602082019050919050565b5f6020820190508181035f830152610a1d816109e4565b9050919050565b5f606082019050610a375f830186610867565b610a44602083018561067c565b610a51604083018461067c565b949350505050565b5f606082019050610a6c5f830186610867565b610a796020830185610867565b610a86604083018461067c565b949350505050565b610a9781610795565b8114610aa1575f80fd5b50565b5f81519050610ab281610a8e565b92915050565b5f60208284031215610acd57610acc6106a4565b5b5f610ada84828501610aa4565b91505092915050565b7f5472616e7366657246726f6d204661696c6564000000000000000000000000005f82015250565b5f610b176013836108e4565b9150610b2282610ae3565b602082019050919050565b5f6020820190508181035f830152610b4481610b0b565b905091905056fea264697066735822122050e134a111afaa084d2613bf96a300d134c5c3776e68775111460731ae8908e764736f6c634300081a0033",
					"opcodes": "PUSH1 0x80 PUSH1 0x40 MSTORE CALLVALUE DUP1 ISZERO PUSH2 0xF JUMPI PUSH0 DUP1 REVERT JUMPDEST POP PUSH1 0x40 MLOAD PUSH2 0xD2A CODESIZE SUB DUP1 PUSH2 0xD2A DUP4 CODECOPY DUP2 DUP2 ADD PUSH1 0x40 MSTORE DUP2 ADD SWAP1 PUSH2 0x31 SWAP2 SWAP1 PUSH2 0x149 JUMP JUMPDEST DUP1 DUP1 PUSH0 PUSH20 0xFFFFFFFFFFFFFFFFFFFFFFFFFFFFFFFFFFFFFFFF AND DUP2 PUSH20 0xFFFFFFFFFFFFFFFFFFFFFFFFFFFFFFFFFFFFFFFF AND SUB PUSH2 0xA3 JUMPI PUSH0 PUSH1 0x40 MLOAD PUSH32 0x96C6FD1E00000000000000000000000000000000000000000000000000000000 DUP2 MSTORE PUSH1 0x4 ADD PUSH2 0x9A SWAP2 SWAP1 PUSH2 0x183 JUMP JUMPDEST PUSH1 0x40 MLOAD DUP1 SWAP2 SUB SWAP1 REVERT JUMPDEST DUP2 PUSH1 0x1 PUSH0 PUSH2 0x100 EXP DUP2 SLOAD DUP2 PUSH20 0xFFFFFFFFFFFFFFFFFFFFFFFFFFFFFFFFFFFFFFFF MUL NOT AND SWAP1 DUP4 PUSH20 0xFFFFFFFFFFFFFFFFFFFFFFFFFFFFFFFFFFFFFFFF AND MUL OR SWAP1 SSTORE POP POP POP POP PUSH2 0x19C JUMP JUMPDEST PUSH0 DUP1 REVERT JUMPDEST PUSH0 PUSH20 0xFFFFFFFFFFFFFFFFFFFFFFFFFFFFFFFFFFFFFFFF DUP3 AND SWAP1 POP SWAP2 SWAP1 POP JUMP JUMPDEST PUSH0 PUSH2 0x118 DUP3 PUSH2 0xEF JUMP JUMPDEST SWAP1 POP SWAP2 SWAP1 POP JUMP JUMPDEST PUSH2 0x128 DUP2 PUSH2 0x10E JUMP JUMPDEST DUP2 EQ PUSH2 0x132 JUMPI PUSH0 DUP1 REVERT JUMPDEST POP JUMP JUMPDEST PUSH0 DUP2 MLOAD SWAP1 POP PUSH2 0x143 DUP2 PUSH2 0x11F JUMP JUMPDEST SWAP3 SWAP2 POP POP JUMP JUMPDEST PUSH0 PUSH1 0x20 DUP3 DUP5 SUB SLT ISZERO PUSH2 0x15E JUMPI PUSH2 0x15D PUSH2 0xEB JUMP JUMPDEST JUMPDEST PUSH0 PUSH2 0x16B DUP5 DUP3 DUP6 ADD PUSH2 0x135 JUMP JUMPDEST SWAP2 POP POP SWAP3 SWAP2 POP POP JUMP JUMPDEST PUSH2 0x17D DUP2 PUSH2 0x10E JUMP JUMPDEST DUP3 MSTORE POP POP JUMP JUMPDEST PUSH0 PUSH1 0x20 DUP3 ADD SWAP1 POP PUSH2 0x196 PUSH0 DUP4 ADD DUP5 PUSH2 0x174 JUMP JUMPDEST SWAP3 SWAP2 POP POP JUMP JUMPDEST PUSH2 0xB81 DUP1 PUSH2 0x1A9 PUSH0 CODECOPY PUSH0 RETURN INVALID PUSH1 0x80 PUSH1 0x40 MSTORE CALLVALUE DUP1 ISZERO PUSH2 0xF JUMPI PUSH0 DUP1 REVERT JUMPDEST POP PUSH1 0x4 CALLDATASIZE LT PUSH2 0x86 JUMPI PUSH0 CALLDATALOAD PUSH1 0xE0 SHR DUP1 PUSH4 0x2818E67E GT PUSH2 0x59 JUMPI DUP1 PUSH4 0x2818E67E EQ PUSH2 0x124 JUMPI DUP1 PUSH4 0x2E1A7D4D EQ PUSH2 0x140 JUMPI DUP1 PUSH4 0xB6B55F25 EQ PUSH2 0x15C JUMPI DUP1 PUSH4 0xFC0C546A EQ PUSH2 0x178 JUMPI PUSH2 0x86 JUMP JUMPDEST DUP1 PUSH4 0x12065FE0 EQ PUSH2 0x8A JUMPI DUP1 PUSH4 0x20987767 EQ PUSH2 0xA8 JUMPI DUP1 PUSH4 0x24A756D1 EQ PUSH2 0xC4 JUMPI DUP1 PUSH4 0x27E235E3 EQ PUSH2 0xF4 JUMPI JUMPDEST PUSH0 DUP1 REVERT JUMPDEST PUSH2 0x92 PUSH2 0x196 JUMP JUMPDEST PUSH1 0x40 MLOAD PUSH2 0x9F SWAP2 SWAP1 PUSH2 0x68B JUMP JUMPDEST PUSH1 0x40 MLOAD DUP1 SWAP2 SUB SWAP1 RETURN JUMPDEST PUSH2 0xC2 PUSH1 0x4 DUP1 CALLDATASIZE SUB DUP2 ADD SWAP1 PUSH2 0xBD SWAP2 SWAP1 PUSH2 0x6D2 JUMP JUMPDEST PUSH2 0x1E5 JUMP JUMPDEST STOP JUMPDEST PUSH2 0xDE PUSH1 0x4 DUP1 CALLDATASIZE SUB DUP2 ADD SWAP1 PUSH2 0xD9 SWAP2 SWAP1 PUSH2 0x757 JUMP JUMPDEST PUSH2 0x233 JUMP JUMPDEST PUSH1 0x40 MLOAD PUSH2 0xEB SWAP2 SWAP1 PUSH2 0x7AF JUMP JUMPDEST PUSH1 0x40 MLOAD DUP1 SWAP2 SUB SWAP1 RETURN JUMPDEST PUSH2 0x10E PUSH1 0x4 DUP1 CALLDATASIZE SUB DUP2 ADD SWAP1 PUSH2 0x109 SWAP2 SWAP1 PUSH2 0x7C8 JUMP JUMPDEST PUSH2 0x35A JUMP JUMPDEST PUSH1 0x40 MLOAD PUSH2 0x11B SWAP2 SWAP1 PUSH2 0x68B JUMP JUMPDEST PUSH1 0x40 MLOAD DUP1 SWAP2 SUB SWAP1 RETURN JUMPDEST PUSH2 0x13E PUSH1 0x4 DUP1 CALLDATASIZE SUB DUP2 ADD SWAP1 PUSH2 0x139 SWAP2 SWAP1 PUSH2 0x6D2 JUMP JUMPDEST PUSH2 0x36E JUMP JUMPDEST STOP JUMPDEST PUSH2 0x15A PUSH1 0x4 DUP1 CALLDATASIZE SUB DUP2 ADD SWAP1 PUSH2 0x155 SWAP2 SWAP1 PUSH2 0x6D2 JUMP JUMPDEST PUSH2 0x3B5 JUMP JUMPDEST STOP JUMPDEST PUSH2 0x176 PUSH1 0x4 DUP1 CALLDATASIZE SUB DUP2 ADD SWAP1 PUSH2 0x171 SWAP2 SWAP1 PUSH2 0x6D2 JUMP JUMPDEST PUSH2 0x4D2 JUMP JUMPDEST STOP JUMPDEST PUSH2 0x180 PUSH2 0x647 JUMP JUMPDEST PUSH1 0x40 MLOAD PUSH2 0x18D SWAP2 SWAP1 PUSH2 0x84E JUMP JUMPDEST PUSH1 0x40 MLOAD DUP1 SWAP2 SUB SWAP1 RETURN JUMPDEST PUSH0 DUP1 PUSH2 0x1A0 PUSH2 0x66C JUMP JUMPDEST SWAP1 POP PUSH0 DUP1 DUP3 PUSH20 0xFFFFFFFFFFFFFFFFFFFFFFFFFFFFFFFFFFFFFFFF AND PUSH20 0xFFFFFFFFFFFFFFFFFFFFFFFFFFFFFFFFFFFFFFFF AND DUP2 MSTORE PUSH1 0x20 ADD SWAP1 DUP2 MSTORE PUSH1 0x20 ADD PUSH0 KECCAK256 SLOAD SWAP2 POP POP SWAP1 JUMP JUMPDEST PUSH1 0xFA DUP2 LT ISZERO PUSH2 0x230 JUMPI PUSH0 PUSH1 0xFA DUP1 PUSH1 0x40 MLOAD PUSH32 0xE450D38C00000000000000000000000000000000000000000000000000000000 DUP2 MSTORE PUSH1 0x4 ADD PUSH2 0x227 SWAP4 SWAP3 SWAP2 SWAP1 PUSH2 0x8AF JUMP JUMPDEST PUSH1 0x40 MLOAD DUP1 SWAP2 SUB SWAP1 REVERT JUMPDEST POP JUMP JUMPDEST PUSH0 DUP2 PUSH0 DUP2 GT PUSH2 0x26E JUMPI PUSH1 0x40 MLOAD PUSH32 0x5AD8341100000000000000000000000000000000000000000000000000000000 DUP2 MSTORE PUSH1 0x4 ADD PUSH1 0x40 MLOAD DUP1 SWAP2 SUB SWAP1 REVERT JUMPDEST PUSH1 0x1 PUSH0 SWAP1 SLOAD SWAP1 PUSH2 0x100 EXP SWAP1 DIV PUSH20 0xFFFFFFFFFFFFFFFFFFFFFFFFFFFFFFFFFFFFFFFF AND PUSH20 0xFFFFFFFFFFFFFFFFFFFFFFFFFFFFFFFFFFFFFFFF AND CALLER PUSH20 0xFFFFFFFFFFFFFFFFFFFFFFFFFFFFFFFFFFFFFFFF AND EQ PUSH2 0x2FD JUMPI PUSH1 0x40 MLOAD PUSH32 0x8C379A000000000000000000000000000000000000000000000000000000000 DUP2 MSTORE PUSH1 0x4 ADD PUSH2 0x2F4 SWAP1 PUSH2 0x93E JUMP JUMPDEST PUSH1 0x40 MLOAD DUP1 SWAP2 SUB SWAP1 REVERT JUMPDEST DUP3 PUSH0 DUP1 DUP7 PUSH20 0xFFFFFFFFFFFFFFFFFFFFFFFFFFFFFFFFFFFFFFFF AND PUSH20 0xFFFFFFFFFFFFFFFFFFFFFFFFFFFFFFFFFFFFFFFF AND DUP2 MSTORE PUSH1 0x20 ADD SWAP1 DUP2 MSTORE PUSH1 0x20 ADD PUSH0 KECCAK256 PUSH0 DUP3 DUP3 SLOAD PUSH2 0x348 SWAP2 SWAP1 PUSH2 0x989 JUMP JUMPDEST SWAP3 POP POP DUP2 SWAP1 SSTORE POP PUSH1 0x1 SWAP2 POP POP SWAP3 SWAP2 POP POP JUMP JUMPDEST PUSH0 PUSH1 0x20 MSTORE DUP1 PUSH0 MSTORE PUSH1 0x40 PUSH0 KECCAK256 PUSH0 SWAP2 POP SWAP1 POP SLOAD DUP2 JUMP JUMPDEST PUSH1 0xFA DUP2 LT ISZERO PUSH2 0x3B2 JUMPI PUSH1 0x40 MLOAD PUSH32 0x8C379A000000000000000000000000000000000000000000000000000000000 DUP2 MSTORE PUSH1 0x4 ADD PUSH2 0x3A9 SWAP1 PUSH2 0xA06 JUMP JUMPDEST PUSH1 0x40 MLOAD DUP1 SWAP2 SUB SWAP1 REVERT JUMPDEST POP JUMP JUMPDEST DUP1 PUSH0 DUP2 GT PUSH2 0x3EF JUMPI PUSH1 0x40 MLOAD PUSH32 0x5AD8341100000000000000000000000000000000000000000000000000000000 DUP2 MSTORE PUSH1 0x4 ADD PUSH1 0x40 MLOAD DUP1 SWAP2 SUB SWAP1 REVERT JUMPDEST PUSH0 PUSH2 0x3F8 PUSH2 0x66C JUMP JUMPDEST SWAP1 POP PUSH0 DUP1 PUSH0 DUP4 PUSH20 0xFFFFFFFFFFFFFFFFFFFFFFFFFFFFFFFFFFFFFFFF AND PUSH20 0xFFFFFFFFFFFFFFFFFFFFFFFFFFFFFFFFFFFFFFFF AND DUP2 MSTORE PUSH1 0x20 ADD SWAP1 DUP2 MSTORE PUSH1 0x20 ADD PUSH0 KECCAK256 SLOAD SWAP1 POP DUP4 DUP2 LT ISZERO PUSH2 0x483 JUMPI DUP2 DUP2 DUP6 PUSH1 0x40 MLOAD PUSH32 0xE450D38C00000000000000000000000000000000000000000000000000000000 DUP2 MSTORE PUSH1 0x4 ADD PUSH2 0x47A SWAP4 SWAP3 SWAP2 SWAP1 PUSH2 0xA24 JUMP JUMPDEST PUSH1 0x40 MLOAD DUP1 SWAP2 SUB SWAP1 REVERT JUMPDEST DUP4 PUSH0 DUP1 DUP5 PUSH20 0xFFFFFFFFFFFFFFFFFFFFFFFFFFFFFFFFFFFFFFFF AND PUSH20 0xFFFFFFFFFFFFFFFFFFFFFFFFFFFFFFFFFFFFFFFF AND DUP2 MSTORE PUSH1 0x20 ADD SWAP1 DUP2 MSTORE PUSH1 0x20 ADD PUSH0 KECCAK256 PUSH0 DUP3 DUP3 SLOAD SUB SWAP3 POP POP DUP2 SWAP1 SSTORE POP POP POP POP POP JUMP JUMPDEST DUP1 PUSH0 DUP2 GT PUSH2 0x50C JUMPI PUSH1 0x40 MLOAD PUSH32 0x5AD8341100000000000000000000000000000000000000000000000000000000 DUP2 MSTORE PUSH1 0x4 ADD PUSH1 0x40 MLOAD DUP1 SWAP2 SUB SWAP1 REVERT JUMPDEST PUSH0 PUSH2 0x515 PUSH2 0x66C JUMP JUMPDEST SWAP1 POP PUSH0 PUSH1 0x1 PUSH0 SWAP1 SLOAD SWAP1 PUSH2 0x100 EXP SWAP1 DIV PUSH20 0xFFFFFFFFFFFFFFFFFFFFFFFFFFFFFFFFFFFFFFFF AND PUSH20 0xFFFFFFFFFFFFFFFFFFFFFFFFFFFFFFFFFFFFFFFF AND PUSH4 0x23B872DD DUP4 ADDRESS DUP8 PUSH1 0x40 MLOAD DUP5 PUSH4 0xFFFFFFFF AND PUSH1 0xE0 SHL DUP2 MSTORE PUSH1 0x4 ADD PUSH2 0x576 SWAP4 SWAP3 SWAP2 SWAP1 PUSH2 0xA59 JUMP JUMPDEST PUSH1 0x20 PUSH1 0x40 MLOAD DUP1 DUP4 SUB DUP2 PUSH0 DUP8 GAS CALL ISZERO DUP1 ISZERO PUSH2 0x592 JUMPI RETURNDATASIZE PUSH0 DUP1 RETURNDATACOPY RETURNDATASIZE PUSH0 REVERT JUMPDEST POP POP POP POP PUSH1 0x40 MLOAD RETURNDATASIZE PUSH1 0x1F NOT PUSH1 0x1F DUP3 ADD AND DUP3 ADD DUP1 PUSH1 0x40 MSTORE POP DUP2 ADD SWAP1 PUSH2 0x5B6 SWAP2 SWAP1 PUSH2 0xAB8 JUMP JUMPDEST SWAP1 POP DUP1 PUSH2 0x5F8 JUMPI PUSH1 0x40 MLOAD PUSH32 0x8C379A000000000000000000000000000000000000000000000000000000000 DUP2 MSTORE PUSH1 0x4 ADD PUSH2 0x5EF SWAP1 PUSH2 0xB2D JUMP JUMPDEST PUSH1 0x40 MLOAD DUP1 SWAP2 SUB SWAP1 REVERT JUMPDEST DUP4 PUSH0 DUP1 DUP5 PUSH20 0xFFFFFFFFFFFFFFFFFFFFFFFFFFFFFFFFFFFFFFFF AND PUSH20 0xFFFFFFFFFFFFFFFFFFFFFFFFFFFFFFFFFFFFFFFF AND DUP2 MSTORE PUSH1 0x20 ADD SWAP1 DUP2 MSTORE PUSH1 0x20 ADD PUSH0 KECCAK256 PUSH0 DUP3 DUP3 SLOAD ADD SWAP3 POP POP DUP2 SWAP1 SSTORE POP POP POP POP POP JUMP JUMPDEST PUSH1 0x1 PUSH0 SWAP1 SLOAD SWAP1 PUSH2 0x100 EXP SWAP1 DIV PUSH20 0xFFFFFFFFFFFFFFFFFFFFFFFFFFFFFFFFFFFFFFFF AND DUP2 JUMP JUMPDEST PUSH0 CALLER SWAP1 POP SWAP1 JUMP JUMPDEST PUSH0 DUP2 SWAP1 POP SWAP2 SWAP1 POP JUMP JUMPDEST PUSH2 0x685 DUP2 PUSH2 0x673 JUMP JUMPDEST DUP3 MSTORE POP POP JUMP JUMPDEST PUSH0 PUSH1 0x20 DUP3 ADD SWAP1 POP PUSH2 0x69E PUSH0 DUP4 ADD DUP5 PUSH2 0x67C JUMP JUMPDEST SWAP3 SWAP2 POP POP JUMP JUMPDEST PUSH0 DUP1 REVERT JUMPDEST PUSH2 0x6B1 DUP2 PUSH2 0x673 JUMP JUMPDEST DUP2 EQ PUSH2 0x6BB JUMPI PUSH0 DUP1 REVERT JUMPDEST POP JUMP JUMPDEST PUSH0 DUP2 CALLDATALOAD SWAP1 POP PUSH2 0x6CC DUP2 PUSH2 0x6A8 JUMP JUMPDEST SWAP3 SWAP2 POP POP JUMP JUMPDEST PUSH0 PUSH1 0x20 DUP3 DUP5 SUB SLT ISZERO PUSH2 0x6E7 JUMPI PUSH2 0x6E6 PUSH2 0x6A4 JUMP JUMPDEST JUMPDEST PUSH0 PUSH2 0x6F4 DUP5 DUP3 DUP6 ADD PUSH2 0x6BE JUMP JUMPDEST SWAP2 POP POP SWAP3 SWAP2 POP POP JUMP JUMPDEST PUSH0 PUSH20 0xFFFFFFFFFFFFFFFFFFFFFFFFFFFFFFFFFFFFFFFF DUP3 AND SWAP1 POP SWAP2 SWAP1 POP JUMP JUMPDEST PUSH0 PUSH2 0x726 DUP3 PUSH2 0x6FD JUMP JUMPDEST SWAP1 POP SWAP2 SWAP1 POP JUMP JUMPDEST PUSH2 0x736 DUP2 PUSH2 0x71C JUMP JUMPDEST DUP2 EQ PUSH2 0x740 JUMPI PUSH0 DUP1 REVERT JUMPDEST POP JUMP JUMPDEST PUSH0 DUP2 CALLDATALOAD SWAP1 POP PUSH2 0x751 DUP2 PUSH2 0x72D JUMP JUMPDEST SWAP3 SWAP2 POP POP JUMP JUMPDEST PUSH0 DUP1 PUSH1 0x40 DUP4 DUP6 SUB SLT ISZERO PUSH2 0x76D JUMPI PUSH2 0x76C PUSH2 0x6A4 JUMP JUMPDEST JUMPDEST PUSH0 PUSH2 0x77A DUP6 DUP3 DUP7 ADD PUSH2 0x743 JUMP JUMPDEST SWAP3 POP POP PUSH1 0x20 PUSH2 0x78B DUP6 DUP3 DUP7 ADD PUSH2 0x6BE JUMP JUMPDEST SWAP2 POP POP SWAP3 POP SWAP3 SWAP1 POP JUMP JUMPDEST PUSH0 DUP2 ISZERO ISZERO SWAP1 POP SWAP2 SWAP1 POP JUMP JUMPDEST PUSH2 0x7A9 DUP2 PUSH2 0x795 JUMP JUMPDEST DUP3 MSTORE POP POP JUMP JUMPDEST PUSH0 PUSH1 0x20 DUP3 ADD SWAP1 POP PUSH2 0x7C2 PUSH0 DUP4 ADD DUP5 PUSH2 0x7A0 JUMP JUMPDEST SWAP3 SWAP2 POP POP JUMP JUMPDEST PUSH0 PUSH1 0x20 DUP3 DUP5 SUB SLT ISZERO PUSH2 0x7DD JUMPI PUSH2 0x7DC PUSH2 0x6A4 JUMP JUMPDEST JUMPDEST PUSH0 PUSH2 0x7EA DUP5 DUP3 DUP6 ADD PUSH2 0x743 JUMP JUMPDEST SWAP2 POP POP SWAP3 SWAP2 POP POP JUMP JUMPDEST PUSH0 DUP2 SWAP1 POP SWAP2 SWAP1 POP JUMP JUMPDEST PUSH0 PUSH2 0x816 PUSH2 0x811 PUSH2 0x80C DUP5 PUSH2 0x6FD JUMP JUMPDEST PUSH2 0x7F3 JUMP JUMPDEST PUSH2 0x6FD JUMP JUMPDEST SWAP1 POP SWAP2 SWAP1 POP JUMP JUMPDEST PUSH0 PUSH2 0x827 DUP3 PUSH2 0x7FC JUMP JUMPDEST SWAP1 POP SWAP2 SWAP1 POP JUMP JUMPDEST PUSH0 PUSH2 0x838 DUP3 PUSH2 0x81D JUMP JUMPDEST SWAP1 POP SWAP2 SWAP1 POP JUMP JUMPDEST PUSH2 0x848 DUP2 PUSH2 0x82E JUMP JUMPDEST DUP3 MSTORE POP POP JUMP JUMPDEST PUSH0 PUSH1 0x20 DUP3 ADD SWAP1 POP PUSH2 0x861 PUSH0 DUP4 ADD DUP5 PUSH2 0x83F JUMP JUMPDEST SWAP3 SWAP2 POP POP JUMP JUMPDEST PUSH2 0x870 DUP2 PUSH2 0x71C JUMP JUMPDEST DUP3 MSTORE POP POP JUMP JUMPDEST PUSH0 DUP2 SWAP1 POP SWAP2 SWAP1 POP JUMP JUMPDEST PUSH0 PUSH2 0x899 PUSH2 0x894 PUSH2 0x88F DUP5 PUSH2 0x876 JUMP JUMPDEST PUSH2 0x7F3 JUMP JUMPDEST PUSH2 0x673 JUMP JUMPDEST SWAP1 POP SWAP2 SWAP1 POP JUMP JUMPDEST PUSH2 0x8A9 DUP2 PUSH2 0x87F JUMP JUMPDEST DUP3 MSTORE POP POP JUMP JUMPDEST PUSH0 PUSH1 0x60 DUP3 ADD SWAP1 POP PUSH2 0x8C2 PUSH0 DUP4 ADD DUP7 PUSH2 0x867 JUMP JUMPDEST PUSH2 0x8CF PUSH1 0x20 DUP4 ADD DUP6 PUSH2 0x8A0 JUMP JUMPDEST PUSH2 0x8DC PUSH1 0x40 DUP4 ADD DUP5 PUSH2 0x8A0 JUMP JUMPDEST SWAP5 SWAP4 POP POP POP POP JUMP JUMPDEST PUSH0 DUP3 DUP3 MSTORE PUSH1 0x20 DUP3 ADD SWAP1 POP SWAP3 SWAP2 POP POP JUMP JUMPDEST PUSH32 0x496E76616C69642073656E646572000000000000000000000000000000000000 PUSH0 DUP3 ADD MSTORE POP JUMP JUMPDEST PUSH0 PUSH2 0x928 PUSH1 0xE DUP4 PUSH2 0x8E4 JUMP JUMPDEST SWAP2 POP PUSH2 0x933 DUP3 PUSH2 0x8F4 JUMP JUMPDEST PUSH1 0x20 DUP3 ADD SWAP1 POP SWAP2 SWAP1 POP JUMP JUMPDEST PUSH0 PUSH1 0x20 DUP3 ADD SWAP1 POP DUP2 DUP2 SUB PUSH0 DUP4 ADD MSTORE PUSH2 0x955 DUP2 PUSH2 0x91C JUMP JUMPDEST SWAP1 POP SWAP2 SWAP1 POP JUMP JUMPDEST PUSH32 0x4E487B7100000000000000000000000000000000000000000000000000000000 PUSH0 MSTORE PUSH1 0x11 PUSH1 0x4 MSTORE PUSH1 0x24 PUSH0 REVERT JUMPDEST PUSH0 PUSH2 0x993 DUP3 PUSH2 0x673 JUMP JUMPDEST SWAP2 POP PUSH2 0x99E DUP4 PUSH2 0x673 JUMP JUMPDEST SWAP3 POP DUP3 DUP3 ADD SWAP1 POP DUP1 DUP3 GT ISZERO PUSH2 0x9B6 JUMPI PUSH2 0x9B5 PUSH2 0x95C JUMP JUMPDEST JUMPDEST SWAP3 SWAP2 POP POP JUMP JUMPDEST PUSH32 0x6675636B204552433230496E73756666696369656E7442616C616E6365000000 PUSH0 DUP3 ADD MSTORE POP JUMP JUMPDEST PUSH0 PUSH2 0x9F0 PUSH1 0x1D DUP4 PUSH2 0x8E4 JUMP JUMPDEST SWAP2 POP PUSH2 0x9FB DUP3 PUSH2 0x9BC JUMP JUMPDEST PUSH1 0x20 DUP3 ADD SWAP1 POP SWAP2 SWAP1 POP JUMP JUMPDEST PUSH0 PUSH1 0x20 DUP3 ADD SWAP1 POP DUP2 DUP2 SUB PUSH0 DUP4 ADD MSTORE PUSH2 0xA1D DUP2 PUSH2 0x9E4 JUMP JUMPDEST SWAP1 POP SWAP2 SWAP1 POP JUMP JUMPDEST PUSH0 PUSH1 0x60 DUP3 ADD SWAP1 POP PUSH2 0xA37 PUSH0 DUP4 ADD DUP7 PUSH2 0x867 JUMP JUMPDEST PUSH2 0xA44 PUSH1 0x20 DUP4 ADD DUP6 PUSH2 0x67C JUMP JUMPDEST PUSH2 0xA51 PUSH1 0x40 DUP4 ADD DUP5 PUSH2 0x67C JUMP JUMPDEST SWAP5 SWAP4 POP POP POP POP JUMP JUMPDEST PUSH0 PUSH1 0x60 DUP3 ADD SWAP1 POP PUSH2 0xA6C PUSH0 DUP4 ADD DUP7 PUSH2 0x867 JUMP JUMPDEST PUSH2 0xA79 PUSH1 0x20 DUP4 ADD DUP6 PUSH2 0x867 JUMP JUMPDEST PUSH2 0xA86 PUSH1 0x40 DUP4 ADD DUP5 PUSH2 0x67C JUMP JUMPDEST SWAP5 SWAP4 POP POP POP POP JUMP JUMPDEST PUSH2 0xA97 DUP2 PUSH2 0x795 JUMP JUMPDEST DUP2 EQ PUSH2 0xAA1 JUMPI PUSH0 DUP1 REVERT JUMPDEST POP JUMP JUMPDEST PUSH0 DUP2 MLOAD SWAP1 POP PUSH2 0xAB2 DUP2 PUSH2 0xA8E JUMP JUMPDEST SWAP3 SWAP2 POP POP JUMP JUMPDEST PUSH0 PUSH1 0x20 DUP3 DUP5 SUB SLT ISZERO PUSH2 0xACD JUMPI PUSH2 0xACC PUSH2 0x6A4 JUMP JUMPDEST JUMPDEST PUSH0 PUSH2 0xADA DUP5 DUP3 DUP6 ADD PUSH2 0xAA4 JUMP JUMPDEST SWAP2 POP POP SWAP3 SWAP2 POP POP JUMP JUMPDEST PUSH32 0x5472616E7366657246726F6D204661696C656400000000000000000000000000 PUSH0 DUP3 ADD MSTORE POP JUMP JUMPDEST PUSH0 PUSH2 0xB17 PUSH1 0x13 DUP4 PUSH2 0x8E4 JUMP JUMPDEST SWAP2 POP PUSH2 0xB22 DUP3 PUSH2 0xAE3 JUMP JUMPDEST PUSH1 0x20 DUP3 ADD SWAP1 POP SWAP2 SWAP1 POP JUMP JUMPDEST PUSH0 PUSH1 0x20 DUP3 ADD SWAP1 POP DUP2 DUP2 SUB PUSH0 DUP4 ADD MSTORE PUSH2 0xB44 DUP2 PUSH2 0xB0B JUMP JUMPDEST SWAP1 POP SWAP2 SWAP1 POP JUMP INVALID LOG2 PUSH5 0x6970667358 0x22 SLT KECCAK256 POP 0xE1 CALLVALUE LOG1 GT 0xAF 0xAA ADDMOD 0x4D 0x26 SGT 0xBF SWAP7 LOG3 STOP 0xD1 CALLVALUE 0xC5 0xC3 PUSH24 0x6E68775111460731AE8908E764736F6C634300081A003300 "
				},
				"gasEstimates": {
					"creation": {
						"codeDepositCost": "589000",
						"executionCost": "infinite",
						"totalCost": "infinite"
					},
					"external": {
						"balances(address)": "2868",
						"deposit(uint256)": "infinite",
						"getBalance()": "2567",
						"testRevert(uint256)": "infinite",
						"testRevertRequire(uint256)": "709",
						"token()": "infinite",
						"tokensReceived(address,uint256)": "infinite",
						"withdraw(uint256)": "infinite"
					}
				},
				"methodIdentifiers": {
					"balances(address)": "27e235e3",
					"deposit(uint256)": "b6b55f25",
					"getBalance()": "12065fe0",
					"testRevert(uint256)": "20987767",
					"testRevertRequire(uint256)": "2818e67e",
					"token()": "fc0c546a",
					"tokensReceived(address,uint256)": "24a756d1",
					"withdraw(uint256)": "2e1a7d4d"
				}
			},
			"storageLayout": {
				"storage": [
					{
						"astId": 1023,
						"contract": "src/chapter-006/TokenBankV2.sol:TokenBankV2",
						"label": "balances",
						"offset": 0,
						"slot": "0",
						"type": "t_mapping(t_address,t_uint256)"
					},
					{
						"astId": 1026,
						"contract": "src/chapter-006/TokenBankV2.sol:TokenBankV2",
						"label": "token",
						"offset": 0,
						"slot": "1",
						"type": "t_contract(BaseERC20)991"
					}
				],
				"types": {
					"t_address": {
						"encoding": "inplace",
						"label": "address",
						"numberOfBytes": "20"
					},
					"t_contract(BaseERC20)991": {
						"encoding": "inplace",
						"label": "contract BaseERC20",
						"numberOfBytes": "20"
					},
					"t_mapping(t_address,t_uint256)": {
						"encoding": "mapping",
						"key": "t_address",
						"label": "mapping(address => uint256)",
						"numberOfBytes": "32",
						"value": "t_uint256"
					},
					"t_uint256": {
						"encoding": "inplace",
						"label": "uint256",
						"numberOfBytes": "32"
					}
				}
			},
			"userdoc": {
				"kind": "user",
				"methods": {},
				"version": 1
			}
		}
	}
}