{
	"src/TokenBank.sol": {
		"TokenBank": {
			"abi": [
				{
					"inputs": [
						{
							"internalType": "address",
							"name": "tokenAddr",
							"type": "address"
						}
					],
					"stateMutability": "nonpayable",
					"type": "constructor"
				},
				{
					"inputs": [
						{
							"internalType": "address",
							"name": "spender",
							"type": "address"
						},
						{
							"internalType": "uint256",
							"name": "allowance",
							"type": "uint256"
						},
						{
							"internalType": "uint256",
							"name": "needed",
							"type": "uint256"
						}
					],
					"name": "ERC20InsufficientAllowance",
					"type": "error"
				},
				{
					"inputs": [
						{
							"internalType": "address",
							"name": "sender",
							"type": "address"
						},
						{
							"internalType": "uint256",
							"name": "balance",
							"type": "uint256"
						},
						{
							"internalType": "uint256",
							"name": "needed",
							"type": "uint256"
						}
					],
					"name": "ERC20InsufficientBalance",
					"type": "error"
				},
				{
					"inputs": [
						{
							"internalType": "address",
							"name": "approver",
							"type": "address"
						}
					],
					"name": "ERC20InvalidApprover",
					"type": "error"
				},
				{
					"inputs": [
						{
							"internalType": "address",
							"name": "receiver",
							"type": "address"
						}
					],
					"name": "ERC20InvalidReceiver",
					"type": "error"
				},
				{
					"inputs": [
						{
							"internalType": "address",
							"name": "sender",
							"type": "address"
						}
					],
					"name": "ERC20InvalidSender",
					"type": "error"
				},
				{
					"inputs": [
						{
							"internalType": "address",
							"name": "spender",
							"type": "address"
						}
					],
					"name": "ERC20InvalidSpender",
					"type": "error"
				},
				{
					"inputs": [],
					"name": "NoEnoughBalance",
					"type": "error"
				},
				{
					"inputs": [
						{
							"internalType": "address",
							"name": "",
							"type": "address"
						}
					],
					"name": "balances",
					"outputs": [
						{
							"internalType": "uint256",
							"name": "",
							"type": "uint256"
						}
					],
					"stateMutability": "view",
					"type": "function"
				},
				{
					"inputs": [
						{
							"internalType": "uint256",
							"name": "amount",
							"type": "uint256"
						}
					],
					"name": "deposit",
					"outputs": [],
					"stateMutability": "nonpayable",
					"type": "function"
				},
				{
					"inputs": [],
					"name": "getBalance",
					"outputs": [
						{
							"internalType": "uint256",
							"name": "",
							"type": "uint256"
						}
					],
					"stateMutability": "view",
					"type": "function"
				},
				{
					"inputs": [
						{
							"internalType": "uint256",
							"name": "amount",
							"type": "uint256"
						}
					],
					"name": "testRevert",
					"outputs": [],
					"stateMutability": "pure",
					"type": "function"
				},
				{
					"inputs": [
						{
							"internalType": "uint256",
							"name": "amount",
							"type": "uint256"
						}
					],
					"name": "testRevertRequire",
					"outputs": [],
					"stateMutability": "pure",
					"type": "function"
				},
				{
					"inputs": [],
					"name": "token",
					"outputs": [
						{
							"internalType": "contract BaseERC20",
							"name": "",
							"type": "address"
						}
					],
					"stateMutability": "view",
					"type": "function"
				},
				{
					"inputs": [
						{
							"internalType": "uint256",
							"name": "amount",
							"type": "uint256"
						}
					],
					"name": "withdraw",
					"outputs": [],
					"stateMutability": "nonpayable",
					"type": "function"
				}
			],
			"devdoc": {
				"errors": {
					"ERC20InsufficientAllowance(address,uint256,uint256)": [
						{
							"details": "Indicates a failure with the `spender`’s `allowance`. Used in transfers.",
							"params": {
								"allowance": "Amount of tokens a `spender` is allowed to operate with.",
								"needed": "Minimum amount required to perform a transfer.",
								"spender": "Address that may be allowed to operate on tokens without being their owner."
							}
						}
					],
					"ERC20InsufficientBalance(address,uint256,uint256)": [
						{
							"details": "Indicates an error related to the current `balance` of a `sender`. Used in transfers.",
							"params": {
								"balance": "Current balance for the interacting account.",
								"needed": "Minimum amount required to perform a transfer.",
								"sender": "Address whose tokens are being transferred."
							}
						}
					],
					"ERC20InvalidApprover(address)": [
						{
							"details": "Indicates a failure with the `approver` of a token to be approved. Used in approvals.",
							"params": {
								"approver": "Address initiating an approval operation."
							}
						}
					],
					"ERC20InvalidReceiver(address)": [
						{
							"details": "Indicates a failure with the token `receiver`. Used in transfers.",
							"params": {
								"receiver": "Address to which tokens are being transferred."
							}
						}
					],
					"ERC20InvalidSender(address)": [
						{
							"details": "Indicates a failure with the token `sender`. Used in transfers.",
							"params": {
								"sender": "Address whose tokens are being transferred."
							}
						}
					],
					"ERC20InvalidSpender(address)": [
						{
							"details": "Indicates a failure with the `spender` to be approved. Used in approvals.",
							"params": {
								"spender": "Address that may be allowed to operate on tokens without being their owner."
							}
						}
					]
				},
				"kind": "dev",
				"methods": {},
				"version": 1
			},
			"evm": {
				"assembly": "    /* \"src/TokenBank.sol\":404:2039  contract TokenBank is ITokenBank, Context, IERC20Errors {... */\n  mstore(0x40, 0x80)\n    /* \"src/TokenBank.sol\":829:929  constructor(address tokenAddr) ERC20Invalid(tokenAddr) {... */\n  callvalue\n  dup1\n  iszero\n  tag_1\n  jumpi\n  0x00\n  dup1\n  revert\ntag_1:\n  pop\n  mload(0x40)\n  sub(codesize, bytecodeSize)\n  dup1\n  bytecodeSize\n  dup4\n  codecopy\n  dup2\n  dup2\n  add\n  0x40\n  mstore\n  dup2\n  add\n  swap1\n  tag_2\n  swap2\n  swap1\n  tag_3\n  jump\t// in\ntag_2:\n    /* \"src/TokenBank.sol\":873:882  tokenAddr */\n  dup1\n    /* \"src/TokenBank.sol\":651:652  0 */\n  0x00\n    /* \"src/TokenBank.sol\":631:653  _address == address(0) */\n  0xffffffffffffffffffffffffffffffffffffffff\n  and\n    /* \"src/TokenBank.sol\":631:639  _address */\n  dup2\n    /* \"src/TokenBank.sol\":631:653  _address == address(0) */\n  0xffffffffffffffffffffffffffffffffffffffff\n  and\n  sub\n    /* \"src/TokenBank.sol\":627:692  if (_address == address(0)) revert ERC20InvalidSender(address(0)) */\n  tag_6\n  jumpi\n    /* \"src/TokenBank.sol\":689:690  0 */\n  0x00\n    /* \"src/TokenBank.sol\":662:692  ERC20InvalidSender(address(0)) */\n  mload(0x40)\n  0x96c6fd1e00000000000000000000000000000000000000000000000000000000\n  dup2\n  mstore\n  0x04\n  add\n  tag_7\n  swap2\n  swap1\n  tag_8\n  jump\t// in\ntag_7:\n  mload(0x40)\n  dup1\n  swap2\n  sub\n  swap1\n  revert\n    /* \"src/TokenBank.sol\":627:692  if (_address == address(0)) revert ERC20InvalidSender(address(0)) */\ntag_6:\n    /* \"src/TokenBank.sol\":912:921  tokenAddr */\n  dup2\n    /* \"src/TokenBank.sol\":894:899  token */\n  0x01\n  0x00\n    /* \"src/TokenBank.sol\":894:922  token = BaseERC20(tokenAddr) */\n  0x0100\n  exp\n  dup2\n  sload\n  dup2\n  0xffffffffffffffffffffffffffffffffffffffff\n  mul\n  not\n  and\n  swap1\n  dup4\n  0xffffffffffffffffffffffffffffffffffffffff\n  and\n  mul\n  or\n  swap1\n  sstore\n  pop\n    /* \"src/TokenBank.sol\":829:929  constructor(address tokenAddr) ERC20Invalid(tokenAddr) {... */\n  pop\n  pop\n    /* \"src/TokenBank.sol\":404:2039  contract TokenBank is ITokenBank, Context, IERC20Errors {... */\n  jump(tag_10)\n    /* \"#utility.yul\":88:205   */\ntag_12:\n    /* \"#utility.yul\":197:198   */\n  0x00\n    /* \"#utility.yul\":194:195   */\n  dup1\n    /* \"#utility.yul\":187:199   */\n  revert\n    /* \"#utility.yul\":334:460   */\ntag_14:\n    /* \"#utility.yul\":371:378   */\n  0x00\n    /* \"#utility.yul\":411:453   */\n  0xffffffffffffffffffffffffffffffffffffffff\n    /* \"#utility.yul\":404:409   */\n  dup3\n    /* \"#utility.yul\":400:454   */\n  and\n    /* \"#utility.yul\":389:454   */\n  swap1\n  pop\n    /* \"#utility.yul\":334:460   */\n  swap2\n  swap1\n  pop\n  jump\t// out\n    /* \"#utility.yul\":466:562   */\ntag_15:\n    /* \"#utility.yul\":503:510   */\n  0x00\n    /* \"#utility.yul\":532:556   */\n  tag_25\n    /* \"#utility.yul\":550:555   */\n  dup3\n    /* \"#utility.yul\":532:556   */\n  tag_14\n  jump\t// in\ntag_25:\n    /* \"#utility.yul\":521:556   */\n  swap1\n  pop\n    /* \"#utility.yul\":466:562   */\n  swap2\n  swap1\n  pop\n  jump\t// out\n    /* \"#utility.yul\":568:690   */\ntag_16:\n    /* \"#utility.yul\":641:665   */\n  tag_27\n    /* \"#utility.yul\":659:664   */\n  dup2\n    /* \"#utility.yul\":641:665   */\n  tag_15\n  jump\t// in\ntag_27:\n    /* \"#utility.yul\":634:639   */\n  dup2\n    /* \"#utility.yul\":631:666   */\n  eq\n    /* \"#utility.yul\":621:684   */\n  tag_28\n  jumpi\n    /* \"#utility.yul\":680:681   */\n  0x00\n    /* \"#utility.yul\":677:678   */\n  dup1\n    /* \"#utility.yul\":670:682   */\n  revert\n    /* \"#utility.yul\":621:684   */\ntag_28:\n    /* \"#utility.yul\":568:690   */\n  pop\n  jump\t// out\n    /* \"#utility.yul\":696:839   */\ntag_17:\n    /* \"#utility.yul\":753:758   */\n  0x00\n    /* \"#utility.yul\":784:790   */\n  dup2\n    /* \"#utility.yul\":778:791   */\n  mload\n    /* \"#utility.yul\":769:791   */\n  swap1\n  pop\n    /* \"#utility.yul\":800:833   */\n  tag_30\n    /* \"#utility.yul\":827:832   */\n  dup2\n    /* \"#utility.yul\":800:833   */\n  tag_16\n  jump\t// in\ntag_30:\n    /* \"#utility.yul\":696:839   */\n  swap3\n  swap2\n  pop\n  pop\n  jump\t// out\n    /* \"#utility.yul\":845:1196   */\ntag_3:\n    /* \"#utility.yul\":915:921   */\n  0x00\n    /* \"#utility.yul\":964:966   */\n  0x20\n    /* \"#utility.yul\":952:961   */\n  dup3\n    /* \"#utility.yul\":943:950   */\n  dup5\n    /* \"#utility.yul\":939:962   */\n  sub\n    /* \"#utility.yul\":935:967   */\n  slt\n    /* \"#utility.yul\":932:1051   */\n  iszero\n  tag_32\n  jumpi\n    /* \"#utility.yul\":970:1049   */\n  tag_33\n  tag_12\n  jump\t// in\ntag_33:\n    /* \"#utility.yul\":932:1051   */\ntag_32:\n    /* \"#utility.yul\":1090:1091   */\n  0x00\n    /* \"#utility.yul\":1115:1179   */\n  tag_34\n    /* \"#utility.yul\":1171:1178   */\n  dup5\n    /* \"#utility.yul\":1162:1168   */\n  dup3\n    /* \"#utility.yul\":1151:1160   */\n  dup6\n    /* \"#utility.yul\":1147:1169   */\n  add\n    /* \"#utility.yul\":1115:1179   */\n  tag_17\n  jump\t// in\ntag_34:\n    /* \"#utility.yul\":1105:1179   */\n  swap2\n  pop\n    /* \"#utility.yul\":1061:1189   */\n  pop\n    /* \"#utility.yul\":845:1196   */\n  swap3\n  swap2\n  pop\n  pop\n  jump\t// out\n    /* \"#utility.yul\":1202:1320   */\ntag_18:\n    /* \"#utility.yul\":1289:1313   */\n  tag_36\n    /* \"#utility.yul\":1307:1312   */\n  dup2\n    /* \"#utility.yul\":1289:1313   */\n  tag_15\n  jump\t// in\ntag_36:\n    /* \"#utility.yul\":1284:1287   */\n  dup3\n    /* \"#utility.yul\":1277:1314   */\n  mstore\n    /* \"#utility.yul\":1202:1320   */\n  pop\n  pop\n  jump\t// out\n    /* \"#utility.yul\":1326:1548   */\ntag_8:\n    /* \"#utility.yul\":1419:1423   */\n  0x00\n    /* \"#utility.yul\":1457:1459   */\n  0x20\n    /* \"#utility.yul\":1446:1455   */\n  dup3\n    /* \"#utility.yul\":1442:1460   */\n  add\n    /* \"#utility.yul\":1434:1460   */\n  swap1\n  pop\n    /* \"#utility.yul\":1470:1541   */\n  tag_38\n    /* \"#utility.yul\":1538:1539   */\n  0x00\n    /* \"#utility.yul\":1527:1536   */\n  dup4\n    /* \"#utility.yul\":1523:1540   */\n  add\n    /* \"#utility.yul\":1514:1520   */\n  dup5\n    /* \"#utility.yul\":1470:1541   */\n  tag_18\n  jump\t// in\ntag_38:\n    /* \"#utility.yul\":1326:1548   */\n  swap3\n  swap2\n  pop\n  pop\n  jump\t// out\n    /* \"src/TokenBank.sol\":404:2039  contract TokenBank is ITokenBank, Context, IERC20Errors {... */\ntag_10:\n  dataSize(sub_0)\n  dup1\n  dataOffset(sub_0)\n  0x00\n  codecopy\n  0x00\n  return\nstop\n\nsub_0: assembly {\n        /* \"src/TokenBank.sol\":404:2039  contract TokenBank is ITokenBank, Context, IERC20Errors {... */\n      mstore(0x40, 0x80)\n      callvalue\n      dup1\n      iszero\n      tag_1\n      jumpi\n      0x00\n      dup1\n      revert\n    tag_1:\n      pop\n      jumpi(tag_2, lt(calldatasize, 0x04))\n      shr(0xe0, calldataload(0x00))\n      dup1\n      0x2818e67e\n      gt\n      tag_10\n      jumpi\n      dup1\n      0x2818e67e\n      eq\n      tag_6\n      jumpi\n      dup1\n      0x2e1a7d4d\n      eq\n      tag_7\n      jumpi\n      dup1\n      0xb6b55f25\n      eq\n      tag_8\n      jumpi\n      dup1\n      0xfc0c546a\n      eq\n      tag_9\n      jumpi\n      jump(tag_2)\n    tag_10:\n      dup1\n      0x12065fe0\n      eq\n      tag_3\n      jumpi\n      dup1\n      0x20987767\n      eq\n      tag_4\n      jumpi\n      dup1\n      0x27e235e3\n      eq\n      tag_5\n      jumpi\n    tag_2:\n      0x00\n      dup1\n      revert\n        /* \"src/TokenBank.sol\":1554:1683  function getBalance() public view returns (uint256) {... */\n    tag_3:\n      tag_11\n      tag_12\n      jump\t// in\n    tag_11:\n      mload(0x40)\n      tag_13\n      swap2\n      swap1\n      tag_14\n      jump\t// in\n    tag_13:\n      mload(0x40)\n      dup1\n      swap2\n      sub\n      swap1\n      return\n        /* \"src/TokenBank.sol\":1689:1822  function testRevert(uint amount) public pure {... */\n    tag_4:\n      tag_15\n      0x04\n      dup1\n      calldatasize\n      sub\n      dup2\n      add\n      swap1\n      tag_16\n      swap2\n      swap1\n      tag_17\n      jump\t// in\n    tag_16:\n      tag_18\n      jump\t// in\n    tag_15:\n      stop\n        /* \"src/TokenBank.sol\":466:510  mapping (address => uint256) public balances */\n    tag_5:\n      tag_19\n      0x04\n      dup1\n      calldatasize\n      sub\n      dup2\n      add\n      swap1\n      tag_20\n      swap2\n      swap1\n      tag_21\n      jump\t// in\n    tag_20:\n      tag_22\n      jump\t// in\n    tag_19:\n      mload(0x40)\n      tag_23\n      swap2\n      swap1\n      tag_14\n      jump\t// in\n    tag_23:\n      mload(0x40)\n      dup1\n      swap2\n      sub\n      swap1\n      return\n        /* \"src/TokenBank.sol\":1828:2036  function testRevertRequire(uint amount) public pure {... */\n    tag_6:\n      tag_24\n      0x04\n      dup1\n      calldatasize\n      sub\n      dup2\n      add\n      swap1\n      tag_25\n      swap2\n      swap1\n      tag_17\n      jump\t// in\n    tag_25:\n      tag_26\n      jump\t// in\n    tag_24:\n      stop\n        /* \"src/TokenBank.sol\":1242:1548  function withdraw(uint amount) public DespositInvalid(amount) {... */\n    tag_7:\n      tag_27\n      0x04\n      dup1\n      calldatasize\n      sub\n      dup2\n      add\n      swap1\n      tag_28\n      swap2\n      swap1\n      tag_17\n      jump\t// in\n    tag_28:\n      tag_29\n      jump\t// in\n    tag_27:\n      stop\n        /* \"src/TokenBank.sol\":935:1236  function deposit (uint256 amount) public DespositInvalid(amount) {... */\n    tag_8:\n      tag_30\n      0x04\n      dup1\n      calldatasize\n      sub\n      dup2\n      add\n      swap1\n      tag_31\n      swap2\n      swap1\n      tag_17\n      jump\t// in\n    tag_31:\n      tag_32\n      jump\t// in\n    tag_30:\n      stop\n        /* \"src/TokenBank.sol\":517:539  BaseERC20 public token */\n    tag_9:\n      tag_33\n      tag_34\n      jump\t// in\n    tag_33:\n      mload(0x40)\n      tag_35\n      swap2\n      swap1\n      tag_36\n      jump\t// in\n    tag_35:\n      mload(0x40)\n      dup1\n      swap2\n      sub\n      swap1\n      return\n        /* \"src/TokenBank.sol\":1554:1683  function getBalance() public view returns (uint256) {... */\n    tag_12:\n        /* \"src/TokenBank.sol\":1597:1604  uint256 */\n      0x00\n        /* \"src/TokenBank.sol\":1616:1629  address owner */\n      dup1\n        /* \"src/TokenBank.sol\":1632:1644  _msgSender() */\n      tag_38\n        /* \"src/TokenBank.sol\":1632:1642  _msgSender */\n      tag_39\n        /* \"src/TokenBank.sol\":1632:1644  _msgSender() */\n      jump\t// in\n    tag_38:\n        /* \"src/TokenBank.sol\":1616:1644  address owner = _msgSender() */\n      swap1\n      pop\n        /* \"src/TokenBank.sol\":1661:1669  balances */\n      0x00\n        /* \"src/TokenBank.sol\":1661:1676  balances[owner] */\n      dup1\n        /* \"src/TokenBank.sol\":1670:1675  owner */\n      dup3\n        /* \"src/TokenBank.sol\":1661:1676  balances[owner] */\n      0xffffffffffffffffffffffffffffffffffffffff\n      and\n      0xffffffffffffffffffffffffffffffffffffffff\n      and\n      dup2\n      mstore\n      0x20\n      add\n      swap1\n      dup2\n      mstore\n      0x20\n      add\n      0x00\n      keccak256\n      sload\n        /* \"src/TokenBank.sol\":1654:1676  return balances[owner] */\n      swap2\n      pop\n      pop\n        /* \"src/TokenBank.sol\":1554:1683  function getBalance() public view returns (uint256) {... */\n      swap1\n      jump\t// out\n        /* \"src/TokenBank.sol\":1689:1822  function testRevert(uint amount) public pure {... */\n    tag_18:\n        /* \"src/TokenBank.sol\":1756:1759  250 */\n      0xfa\n        /* \"src/TokenBank.sol\":1747:1753  amount */\n      dup2\n        /* \"src/TokenBank.sol\":1747:1759  amount < 250 */\n      lt\n        /* \"src/TokenBank.sol\":1744:1815  if(amount < 250)  revert ERC20InsufficientBalance(address(0), 250, 250) */\n      iszero\n      tag_41\n      jumpi\n        /* \"src/TokenBank.sol\":1802:1803  0 */\n      0x00\n        /* \"src/TokenBank.sol\":1806:1809  250 */\n      0xfa\n        /* \"src/TokenBank.sol\":1811:1814  250 */\n      dup1\n        /* \"src/TokenBank.sol\":1769:1815  ERC20InsufficientBalance(address(0), 250, 250) */\n      mload(0x40)\n      0xe450d38c00000000000000000000000000000000000000000000000000000000\n      dup2\n      mstore\n      0x04\n      add\n      tag_42\n      swap4\n      swap3\n      swap2\n      swap1\n      tag_43\n      jump\t// in\n    tag_42:\n      mload(0x40)\n      dup1\n      swap2\n      sub\n      swap1\n      revert\n        /* \"src/TokenBank.sol\":1744:1815  if(amount < 250)  revert ERC20InsufficientBalance(address(0), 250, 250) */\n    tag_41:\n        /* \"src/TokenBank.sol\":1689:1822  function testRevert(uint amount) public pure {... */\n      pop\n      jump\t// out\n        /* \"src/TokenBank.sol\":466:510  mapping (address => uint256) public balances */\n    tag_22:\n      mstore(0x20, 0x00)\n      dup1\n      0x00\n      mstore\n      keccak256(0x00, 0x40)\n      0x00\n      swap2\n      pop\n      swap1\n      pop\n      sload\n      dup2\n      jump\t// out\n        /* \"src/TokenBank.sol\":1828:2036  function testRevertRequire(uint amount) public pure {... */\n    tag_26:\n        /* \"src/TokenBank.sol\":1992:1995  250 */\n      0xfa\n        /* \"src/TokenBank.sol\":1982:1988  amount */\n      dup2\n        /* \"src/TokenBank.sol\":1982:1995  amount >= 250 */\n      lt\n      iszero\n        /* \"src/TokenBank.sol\":1974:2029  require(amount >= 250, \"fuck ERC20InsufficientBalance\") */\n      tag_45\n      jumpi\n      mload(0x40)\n      0x08c379a000000000000000000000000000000000000000000000000000000000\n      dup2\n      mstore\n      0x04\n      add\n      tag_46\n      swap1\n      tag_47\n      jump\t// in\n    tag_46:\n      mload(0x40)\n      dup1\n      swap2\n      sub\n      swap1\n      revert\n    tag_45:\n        /* \"src/TokenBank.sol\":1828:2036  function testRevertRequire(uint amount) public pure {... */\n      pop\n      jump\t// out\n        /* \"src/TokenBank.sol\":1242:1548  function withdraw(uint amount) public DespositInvalid(amount) {... */\n    tag_29:\n        /* \"src/TokenBank.sol\":1296:1302  amount */\n      dup1\n        /* \"src/TokenBank.sol\":778:779  0 */\n      0x00\n        /* \"src/TokenBank.sol\":768:774  amount */\n      dup2\n        /* \"src/TokenBank.sol\":768:779  amount <= 0 */\n      gt\n        /* \"src/TokenBank.sol\":764:805  if (amount <= 0) revert NoEnoughBalance() */\n      tag_49\n      jumpi\n        /* \"src/TokenBank.sol\":788:805  NoEnoughBalance() */\n      mload(0x40)\n      0x5ad8341100000000000000000000000000000000000000000000000000000000\n      dup2\n      mstore\n      0x04\n      add\n      mload(0x40)\n      dup1\n      swap2\n      sub\n      swap1\n      revert\n        /* \"src/TokenBank.sol\":764:805  if (amount <= 0) revert NoEnoughBalance() */\n    tag_49:\n        /* \"src/TokenBank.sol\":1314:1327  address owner */\n      0x00\n        /* \"src/TokenBank.sol\":1330:1342  _msgSender() */\n      tag_51\n        /* \"src/TokenBank.sol\":1330:1340  _msgSender */\n      tag_39\n        /* \"src/TokenBank.sol\":1330:1342  _msgSender() */\n      jump\t// in\n    tag_51:\n        /* \"src/TokenBank.sol\":1314:1342  address owner = _msgSender() */\n      swap1\n      pop\n        /* \"src/TokenBank.sol\":1352:1367  uint256 balance */\n      0x00\n        /* \"src/TokenBank.sol\":1370:1378  balances */\n      dup1\n        /* \"src/TokenBank.sol\":1370:1385  balances[owner] */\n      0x00\n        /* \"src/TokenBank.sol\":1379:1384  owner */\n      dup4\n        /* \"src/TokenBank.sol\":1370:1385  balances[owner] */\n      0xffffffffffffffffffffffffffffffffffffffff\n      and\n      0xffffffffffffffffffffffffffffffffffffffff\n      and\n      dup2\n      mstore\n      0x20\n      add\n      swap1\n      dup2\n      mstore\n      0x20\n      add\n      0x00\n      keccak256\n      sload\n        /* \"src/TokenBank.sol\":1352:1385  uint256 balance = balances[owner] */\n      swap1\n      pop\n        /* \"src/TokenBank.sol\":1409:1415  amount */\n      dup4\n        /* \"src/TokenBank.sol\":1399:1406  balance */\n      dup2\n        /* \"src/TokenBank.sol\":1399:1415  balance < amount */\n      lt\n        /* \"src/TokenBank.sol\":1395:1472  if (balance < amount) revert ERC20InsufficientBalance(owner, balance, amount) */\n      iszero\n      tag_52\n      jumpi\n        /* \"src/TokenBank.sol\":1449:1454  owner */\n      dup2\n        /* \"src/TokenBank.sol\":1456:1463  balance */\n      dup2\n        /* \"src/TokenBank.sol\":1465:1471  amount */\n      dup6\n        /* \"src/TokenBank.sol\":1424:1472  ERC20InsufficientBalance(owner, balance, amount) */\n      mload(0x40)\n      0xe450d38c00000000000000000000000000000000000000000000000000000000\n      dup2\n      mstore\n      0x04\n      add\n      tag_53\n      swap4\n      swap3\n      swap2\n      swap1\n      tag_54\n      jump\t// in\n    tag_53:\n      mload(0x40)\n      dup1\n      swap2\n      sub\n      swap1\n      revert\n        /* \"src/TokenBank.sol\":1395:1472  if (balance < amount) revert ERC20InsufficientBalance(owner, balance, amount) */\n    tag_52:\n        /* \"src/TokenBank.sol\":1525:1531  amount */\n      dup4\n        /* \"src/TokenBank.sol\":1506:1514  balances */\n      0x00\n        /* \"src/TokenBank.sol\":1506:1521  balances[owner] */\n      dup1\n        /* \"src/TokenBank.sol\":1515:1520  owner */\n      dup5\n        /* \"src/TokenBank.sol\":1506:1521  balances[owner] */\n      0xffffffffffffffffffffffffffffffffffffffff\n      and\n      0xffffffffffffffffffffffffffffffffffffffff\n      and\n      dup2\n      mstore\n      0x20\n      add\n      swap1\n      dup2\n      mstore\n      0x20\n      add\n      0x00\n      keccak256\n      0x00\n        /* \"src/TokenBank.sol\":1506:1531  balances[owner] -= amount */\n      dup3\n      dup3\n      sload\n      sub\n      swap3\n      pop\n      pop\n      dup2\n      swap1\n      sstore\n      pop\n        /* \"src/TokenBank.sol\":1304:1548  {... */\n      pop\n      pop\n        /* \"src/TokenBank.sol\":1242:1548  function withdraw(uint amount) public DespositInvalid(amount) {... */\n      pop\n      pop\n      jump\t// out\n        /* \"src/TokenBank.sol\":935:1236  function deposit (uint256 amount) public DespositInvalid(amount) {... */\n    tag_32:\n        /* \"src/TokenBank.sol\":992:998  amount */\n      dup1\n        /* \"src/TokenBank.sol\":778:779  0 */\n      0x00\n        /* \"src/TokenBank.sol\":768:774  amount */\n      dup2\n        /* \"src/TokenBank.sol\":768:779  amount <= 0 */\n      gt\n        /* \"src/TokenBank.sol\":764:805  if (amount <= 0) revert NoEnoughBalance() */\n      tag_56\n      jumpi\n        /* \"src/TokenBank.sol\":788:805  NoEnoughBalance() */\n      mload(0x40)\n      0x5ad8341100000000000000000000000000000000000000000000000000000000\n      dup2\n      mstore\n      0x04\n      add\n      mload(0x40)\n      dup1\n      swap2\n      sub\n      swap1\n      revert\n        /* \"src/TokenBank.sol\":764:805  if (amount <= 0) revert NoEnoughBalance() */\n    tag_56:\n        /* \"src/TokenBank.sol\":1010:1023  address owner */\n      0x00\n        /* \"src/TokenBank.sol\":1026:1038  _msgSender() */\n      tag_58\n        /* \"src/TokenBank.sol\":1026:1036  _msgSender */\n      tag_39\n        /* \"src/TokenBank.sol\":1026:1038  _msgSender() */\n      jump\t// in\n    tag_58:\n        /* \"src/TokenBank.sol\":1010:1038  address owner = _msgSender() */\n      swap1\n      pop\n        /* \"src/TokenBank.sol\":1048:1060  bool isValid */\n      0x00\n        /* \"src/TokenBank.sol\":1063:1068  token */\n      0x01\n      0x00\n      swap1\n      sload\n      swap1\n      0x0100\n      exp\n      swap1\n      div\n      0xffffffffffffffffffffffffffffffffffffffff\n      and\n        /* \"src/TokenBank.sol\":1063:1081  token.transferFrom */\n      0xffffffffffffffffffffffffffffffffffffffff\n      and\n      0x23b872dd\n        /* \"src/TokenBank.sol\":1082:1087  owner */\n      dup4\n        /* \"src/TokenBank.sol\":1097:1101  this */\n      address\n        /* \"src/TokenBank.sol\":1104:1110  amount */\n      dup8\n        /* \"src/TokenBank.sol\":1063:1111  token.transferFrom(owner, address(this), amount) */\n      mload(0x40)\n      dup5\n      0xffffffff\n      and\n      0xe0\n      shl\n      dup2\n      mstore\n      0x04\n      add\n      tag_59\n      swap4\n      swap3\n      swap2\n      swap1\n      tag_60\n      jump\t// in\n    tag_59:\n      0x20\n      mload(0x40)\n      dup1\n      dup4\n      sub\n      dup2\n      0x00\n      dup8\n      gas\n      call\n      iszero\n      dup1\n      iszero\n      tag_62\n      jumpi\n      returndatasize\n      0x00\n      dup1\n      returndatacopy\n      revert(0x00, returndatasize)\n    tag_62:\n      pop\n      pop\n      pop\n      pop\n      mload(0x40)\n      returndatasize\n      not(0x1f)\n      0x1f\n      dup3\n      add\n      and\n      dup3\n      add\n      dup1\n      0x40\n      mstore\n      pop\n      dup2\n      add\n      swap1\n      tag_63\n      swap2\n      swap1\n      tag_64\n      jump\t// in\n    tag_63:\n        /* \"src/TokenBank.sol\":1048:1111  bool isValid = token.transferFrom(owner, address(this), amount) */\n      swap1\n      pop\n        /* \"src/TokenBank.sol\":1129:1136  isValid */\n      dup1\n        /* \"src/TokenBank.sol\":1121:1160  require(isValid, \"TransferFrom Failed\") */\n      tag_65\n      jumpi\n      mload(0x40)\n      0x08c379a000000000000000000000000000000000000000000000000000000000\n      dup2\n      mstore\n      0x04\n      add\n      tag_66\n      swap1\n      tag_67\n      jump\t// in\n    tag_66:\n      mload(0x40)\n      dup1\n      swap2\n      sub\n      swap1\n      revert\n    tag_65:\n        /* \"src/TokenBank.sol\":1213:1219  amount */\n      dup4\n        /* \"src/TokenBank.sol\":1194:1202  balances */\n      0x00\n        /* \"src/TokenBank.sol\":1194:1209  balances[owner] */\n      dup1\n        /* \"src/TokenBank.sol\":1203:1208  owner */\n      dup5\n        /* \"src/TokenBank.sol\":1194:1209  balances[owner] */\n      0xffffffffffffffffffffffffffffffffffffffff\n      and\n      0xffffffffffffffffffffffffffffffffffffffff\n      and\n      dup2\n      mstore\n      0x20\n      add\n      swap1\n      dup2\n      mstore\n      0x20\n      add\n      0x00\n      keccak256\n      0x00\n        /* \"src/TokenBank.sol\":1194:1219  balances[owner] += amount */\n      dup3\n      dup3\n      sload\n      add\n      swap3\n      pop\n      pop\n      dup2\n      swap1\n      sstore\n      pop\n        /* \"src/TokenBank.sol\":1000:1236  {... */\n      pop\n      pop\n        /* \"src/TokenBank.sol\":935:1236  function deposit (uint256 amount) public DespositInvalid(amount) {... */\n      pop\n      pop\n      jump\t// out\n        /* \"src/TokenBank.sol\":517:539  BaseERC20 public token */\n    tag_34:\n      0x01\n      0x00\n      swap1\n      sload\n      swap1\n      0x0100\n      exp\n      swap1\n      div\n      0xffffffffffffffffffffffffffffffffffffffff\n      and\n      dup2\n      jump\t// out\n        /* \"lib/openzeppelin-contracts/contracts/utils/Context.sol\":656:752  function _msgSender() internal view virtual returns (address) {... */\n    tag_39:\n        /* \"lib/openzeppelin-contracts/contracts/utils/Context.sol\":709:716  address */\n      0x00\n        /* \"lib/openzeppelin-contracts/contracts/utils/Context.sol\":735:745  msg.sender */\n      caller\n        /* \"lib/openzeppelin-contracts/contracts/utils/Context.sol\":728:745  return msg.sender */\n      swap1\n      pop\n        /* \"lib/openzeppelin-contracts/contracts/utils/Context.sol\":656:752  function _msgSender() internal view virtual returns (address) {... */\n      swap1\n      jump\t// out\n        /* \"#utility.yul\":7:84   */\n    tag_69:\n        /* \"#utility.yul\":44:51   */\n      0x00\n        /* \"#utility.yul\":73:78   */\n      dup2\n        /* \"#utility.yul\":62:78   */\n      swap1\n      pop\n        /* \"#utility.yul\":7:84   */\n      swap2\n      swap1\n      pop\n      jump\t// out\n        /* \"#utility.yul\":90:208   */\n    tag_70:\n        /* \"#utility.yul\":177:201   */\n      tag_100\n        /* \"#utility.yul\":195:200   */\n      dup2\n        /* \"#utility.yul\":177:201   */\n      tag_69\n      jump\t// in\n    tag_100:\n        /* \"#utility.yul\":172:175   */\n      dup3\n        /* \"#utility.yul\":165:202   */\n      mstore\n        /* \"#utility.yul\":90:208   */\n      pop\n      pop\n      jump\t// out\n        /* \"#utility.yul\":214:436   */\n    tag_14:\n        /* \"#utility.yul\":307:311   */\n      0x00\n        /* \"#utility.yul\":345:347   */\n      0x20\n        /* \"#utility.yul\":334:343   */\n      dup3\n        /* \"#utility.yul\":330:348   */\n      add\n        /* \"#utility.yul\":322:348   */\n      swap1\n      pop\n        /* \"#utility.yul\":358:429   */\n      tag_102\n        /* \"#utility.yul\":426:427   */\n      0x00\n        /* \"#utility.yul\":415:424   */\n      dup4\n        /* \"#utility.yul\":411:428   */\n      add\n        /* \"#utility.yul\":402:408   */\n      dup5\n        /* \"#utility.yul\":358:429   */\n      tag_70\n      jump\t// in\n    tag_102:\n        /* \"#utility.yul\":214:436   */\n      swap3\n      swap2\n      pop\n      pop\n      jump\t// out\n        /* \"#utility.yul\":523:640   */\n    tag_72:\n        /* \"#utility.yul\":632:633   */\n      0x00\n        /* \"#utility.yul\":629:630   */\n      dup1\n        /* \"#utility.yul\":622:634   */\n      revert\n        /* \"#utility.yul\":769:891   */\n    tag_74:\n        /* \"#utility.yul\":842:866   */\n      tag_107\n        /* \"#utility.yul\":860:865   */\n      dup2\n        /* \"#utility.yul\":842:866   */\n      tag_69\n      jump\t// in\n    tag_107:\n        /* \"#utility.yul\":835:840   */\n      dup2\n        /* \"#utility.yul\":832:867   */\n      eq\n        /* \"#utility.yul\":822:885   */\n      tag_108\n      jumpi\n        /* \"#utility.yul\":881:882   */\n      0x00\n        /* \"#utility.yul\":878:879   */\n      dup1\n        /* \"#utility.yul\":871:883   */\n      revert\n        /* \"#utility.yul\":822:885   */\n    tag_108:\n        /* \"#utility.yul\":769:891   */\n      pop\n      jump\t// out\n        /* \"#utility.yul\":897:1036   */\n    tag_75:\n        /* \"#utility.yul\":943:948   */\n      0x00\n        /* \"#utility.yul\":981:987   */\n      dup2\n        /* \"#utility.yul\":968:988   */\n      calldataload\n        /* \"#utility.yul\":959:988   */\n      swap1\n      pop\n        /* \"#utility.yul\":997:1030   */\n      tag_110\n        /* \"#utility.yul\":1024:1029   */\n      dup2\n        /* \"#utility.yul\":997:1030   */\n      tag_74\n      jump\t// in\n    tag_110:\n        /* \"#utility.yul\":897:1036   */\n      swap3\n      swap2\n      pop\n      pop\n      jump\t// out\n        /* \"#utility.yul\":1042:1371   */\n    tag_17:\n        /* \"#utility.yul\":1101:1107   */\n      0x00\n        /* \"#utility.yul\":1150:1152   */\n      0x20\n        /* \"#utility.yul\":1138:1147   */\n      dup3\n        /* \"#utility.yul\":1129:1136   */\n      dup5\n        /* \"#utility.yul\":1125:1148   */\n      sub\n        /* \"#utility.yul\":1121:1153   */\n      slt\n        /* \"#utility.yul\":1118:1237   */\n      iszero\n      tag_112\n      jumpi\n        /* \"#utility.yul\":1156:1235   */\n      tag_113\n      tag_72\n      jump\t// in\n    tag_113:\n        /* \"#utility.yul\":1118:1237   */\n    tag_112:\n        /* \"#utility.yul\":1276:1277   */\n      0x00\n        /* \"#utility.yul\":1301:1354   */\n      tag_114\n        /* \"#utility.yul\":1346:1353   */\n      dup5\n        /* \"#utility.yul\":1337:1343   */\n      dup3\n        /* \"#utility.yul\":1326:1335   */\n      dup6\n        /* \"#utility.yul\":1322:1344   */\n      add\n        /* \"#utility.yul\":1301:1354   */\n      tag_75\n      jump\t// in\n    tag_114:\n        /* \"#utility.yul\":1291:1354   */\n      swap2\n      pop\n        /* \"#utility.yul\":1247:1364   */\n      pop\n        /* \"#utility.yul\":1042:1371   */\n      swap3\n      swap2\n      pop\n      pop\n      jump\t// out\n        /* \"#utility.yul\":1377:1503   */\n    tag_76:\n        /* \"#utility.yul\":1414:1421   */\n      0x00\n        /* \"#utility.yul\":1454:1496   */\n      0xffffffffffffffffffffffffffffffffffffffff\n        /* \"#utility.yul\":1447:1452   */\n      dup3\n        /* \"#utility.yul\":1443:1497   */\n      and\n        /* \"#utility.yul\":1432:1497   */\n      swap1\n      pop\n        /* \"#utility.yul\":1377:1503   */\n      swap2\n      swap1\n      pop\n      jump\t// out\n        /* \"#utility.yul\":1509:1605   */\n    tag_77:\n        /* \"#utility.yul\":1546:1553   */\n      0x00\n        /* \"#utility.yul\":1575:1599   */\n      tag_117\n        /* \"#utility.yul\":1593:1598   */\n      dup3\n        /* \"#utility.yul\":1575:1599   */\n      tag_76\n      jump\t// in\n    tag_117:\n        /* \"#utility.yul\":1564:1599   */\n      swap1\n      pop\n        /* \"#utility.yul\":1509:1605   */\n      swap2\n      swap1\n      pop\n      jump\t// out\n        /* \"#utility.yul\":1611:1733   */\n    tag_78:\n        /* \"#utility.yul\":1684:1708   */\n      tag_119\n        /* \"#utility.yul\":1702:1707   */\n      dup2\n        /* \"#utility.yul\":1684:1708   */\n      tag_77\n      jump\t// in\n    tag_119:\n        /* \"#utility.yul\":1677:1682   */\n      dup2\n        /* \"#utility.yul\":1674:1709   */\n      eq\n        /* \"#utility.yul\":1664:1727   */\n      tag_120\n      jumpi\n        /* \"#utility.yul\":1723:1724   */\n      0x00\n        /* \"#utility.yul\":1720:1721   */\n      dup1\n        /* \"#utility.yul\":1713:1725   */\n      revert\n        /* \"#utility.yul\":1664:1727   */\n    tag_120:\n        /* \"#utility.yul\":1611:1733   */\n      pop\n      jump\t// out\n        /* \"#utility.yul\":1739:1878   */\n    tag_79:\n        /* \"#utility.yul\":1785:1790   */\n      0x00\n        /* \"#utility.yul\":1823:1829   */\n      dup2\n        /* \"#utility.yul\":1810:1830   */\n      calldataload\n        /* \"#utility.yul\":1801:1830   */\n      swap1\n      pop\n        /* \"#utility.yul\":1839:1872   */\n      tag_122\n        /* \"#utility.yul\":1866:1871   */\n      dup2\n        /* \"#utility.yul\":1839:1872   */\n      tag_78\n      jump\t// in\n    tag_122:\n        /* \"#utility.yul\":1739:1878   */\n      swap3\n      swap2\n      pop\n      pop\n      jump\t// out\n        /* \"#utility.yul\":1884:2213   */\n    tag_21:\n        /* \"#utility.yul\":1943:1949   */\n      0x00\n        /* \"#utility.yul\":1992:1994   */\n      0x20\n        /* \"#utility.yul\":1980:1989   */\n      dup3\n        /* \"#utility.yul\":1971:1978   */\n      dup5\n        /* \"#utility.yul\":1967:1990   */\n      sub\n        /* \"#utility.yul\":1963:1995   */\n      slt\n        /* \"#utility.yul\":1960:2079   */\n      iszero\n      tag_124\n      jumpi\n        /* \"#utility.yul\":1998:2077   */\n      tag_125\n      tag_72\n      jump\t// in\n    tag_125:\n        /* \"#utility.yul\":1960:2079   */\n    tag_124:\n        /* \"#utility.yul\":2118:2119   */\n      0x00\n        /* \"#utility.yul\":2143:2196   */\n      tag_126\n        /* \"#utility.yul\":2188:2195   */\n      dup5\n        /* \"#utility.yul\":2179:2185   */\n      dup3\n        /* \"#utility.yul\":2168:2177   */\n      dup6\n        /* \"#utility.yul\":2164:2186   */\n      add\n        /* \"#utility.yul\":2143:2196   */\n      tag_79\n      jump\t// in\n    tag_126:\n        /* \"#utility.yul\":2133:2196   */\n      swap2\n      pop\n        /* \"#utility.yul\":2089:2206   */\n      pop\n        /* \"#utility.yul\":1884:2213   */\n      swap3\n      swap2\n      pop\n      pop\n      jump\t// out\n        /* \"#utility.yul\":2219:2279   */\n    tag_80:\n        /* \"#utility.yul\":2247:2250   */\n      0x00\n        /* \"#utility.yul\":2268:2273   */\n      dup2\n        /* \"#utility.yul\":2261:2273   */\n      swap1\n      pop\n        /* \"#utility.yul\":2219:2279   */\n      swap2\n      swap1\n      pop\n      jump\t// out\n        /* \"#utility.yul\":2285:2427   */\n    tag_81:\n        /* \"#utility.yul\":2335:2344   */\n      0x00\n        /* \"#utility.yul\":2368:2421   */\n      tag_129\n        /* \"#utility.yul\":2386:2420   */\n      tag_130\n        /* \"#utility.yul\":2395:2419   */\n      tag_131\n        /* \"#utility.yul\":2413:2418   */\n      dup5\n        /* \"#utility.yul\":2395:2419   */\n      tag_76\n      jump\t// in\n    tag_131:\n        /* \"#utility.yul\":2386:2420   */\n      tag_80\n      jump\t// in\n    tag_130:\n        /* \"#utility.yul\":2368:2421   */\n      tag_76\n      jump\t// in\n    tag_129:\n        /* \"#utility.yul\":2355:2421   */\n      swap1\n      pop\n        /* \"#utility.yul\":2285:2427   */\n      swap2\n      swap1\n      pop\n      jump\t// out\n        /* \"#utility.yul\":2433:2559   */\n    tag_82:\n        /* \"#utility.yul\":2483:2492   */\n      0x00\n        /* \"#utility.yul\":2516:2553   */\n      tag_133\n        /* \"#utility.yul\":2547:2552   */\n      dup3\n        /* \"#utility.yul\":2516:2553   */\n      tag_81\n      jump\t// in\n    tag_133:\n        /* \"#utility.yul\":2503:2553   */\n      swap1\n      pop\n        /* \"#utility.yul\":2433:2559   */\n      swap2\n      swap1\n      pop\n      jump\t// out\n        /* \"#utility.yul\":2565:2708   */\n    tag_83:\n        /* \"#utility.yul\":2632:2641   */\n      0x00\n        /* \"#utility.yul\":2665:2702   */\n      tag_135\n        /* \"#utility.yul\":2696:2701   */\n      dup3\n        /* \"#utility.yul\":2665:2702   */\n      tag_82\n      jump\t// in\n    tag_135:\n        /* \"#utility.yul\":2652:2702   */\n      swap1\n      pop\n        /* \"#utility.yul\":2565:2708   */\n      swap2\n      swap1\n      pop\n      jump\t// out\n        /* \"#utility.yul\":2714:2879   */\n    tag_84:\n        /* \"#utility.yul\":2818:2872   */\n      tag_137\n        /* \"#utility.yul\":2866:2871   */\n      dup2\n        /* \"#utility.yul\":2818:2872   */\n      tag_83\n      jump\t// in\n    tag_137:\n        /* \"#utility.yul\":2813:2816   */\n      dup3\n        /* \"#utility.yul\":2806:2873   */\n      mstore\n        /* \"#utility.yul\":2714:2879   */\n      pop\n      pop\n      jump\t// out\n        /* \"#utility.yul\":2885:3141   */\n    tag_36:\n        /* \"#utility.yul\":2995:2999   */\n      0x00\n        /* \"#utility.yul\":3033:3035   */\n      0x20\n        /* \"#utility.yul\":3022:3031   */\n      dup3\n        /* \"#utility.yul\":3018:3036   */\n      add\n        /* \"#utility.yul\":3010:3036   */\n      swap1\n      pop\n        /* \"#utility.yul\":3046:3134   */\n      tag_139\n        /* \"#utility.yul\":3131:3132   */\n      0x00\n        /* \"#utility.yul\":3120:3129   */\n      dup4\n        /* \"#utility.yul\":3116:3133   */\n      add\n        /* \"#utility.yul\":3107:3113   */\n      dup5\n        /* \"#utility.yul\":3046:3134   */\n      tag_84\n      jump\t// in\n    tag_139:\n        /* \"#utility.yul\":2885:3141   */\n      swap3\n      swap2\n      pop\n      pop\n      jump\t// out\n        /* \"#utility.yul\":3147:3265   */\n    tag_85:\n        /* \"#utility.yul\":3234:3258   */\n      tag_141\n        /* \"#utility.yul\":3252:3257   */\n      dup2\n        /* \"#utility.yul\":3234:3258   */\n      tag_77\n      jump\t// in\n    tag_141:\n        /* \"#utility.yul\":3229:3232   */\n      dup3\n        /* \"#utility.yul\":3222:3259   */\n      mstore\n        /* \"#utility.yul\":3147:3265   */\n      pop\n      pop\n      jump\t// out\n        /* \"#utility.yul\":3271:3358   */\n    tag_86:\n        /* \"#utility.yul\":3318:3325   */\n      0x00\n        /* \"#utility.yul\":3347:3352   */\n      dup2\n        /* \"#utility.yul\":3336:3352   */\n      swap1\n      pop\n        /* \"#utility.yul\":3271:3358   */\n      swap2\n      swap1\n      pop\n      jump\t// out\n        /* \"#utility.yul\":3364:3526   */\n    tag_87:\n        /* \"#utility.yul\":3424:3433   */\n      0x00\n        /* \"#utility.yul\":3457:3520   */\n      tag_144\n        /* \"#utility.yul\":3475:3519   */\n      tag_145\n        /* \"#utility.yul\":3484:3518   */\n      tag_146\n        /* \"#utility.yul\":3512:3517   */\n      dup5\n        /* \"#utility.yul\":3484:3518   */\n      tag_86\n      jump\t// in\n    tag_146:\n        /* \"#utility.yul\":3475:3519   */\n      tag_80\n      jump\t// in\n    tag_145:\n        /* \"#utility.yul\":3457:3520   */\n      tag_69\n      jump\t// in\n    tag_144:\n        /* \"#utility.yul\":3444:3520   */\n      swap1\n      pop\n        /* \"#utility.yul\":3364:3526   */\n      swap2\n      swap1\n      pop\n      jump\t// out\n        /* \"#utility.yul\":3532:3683   */\n    tag_88:\n        /* \"#utility.yul\":3629:3676   */\n      tag_148\n        /* \"#utility.yul\":3670:3675   */\n      dup2\n        /* \"#utility.yul\":3629:3676   */\n      tag_87\n      jump\t// in\n    tag_148:\n        /* \"#utility.yul\":3624:3627   */\n      dup3\n        /* \"#utility.yul\":3617:3677   */\n      mstore\n        /* \"#utility.yul\":3532:3683   */\n      pop\n      pop\n      jump\t// out\n        /* \"#utility.yul\":3689:4171   */\n    tag_43:\n        /* \"#utility.yul\":3858:3862   */\n      0x00\n        /* \"#utility.yul\":3896:3898   */\n      0x60\n        /* \"#utility.yul\":3885:3894   */\n      dup3\n        /* \"#utility.yul\":3881:3899   */\n      add\n        /* \"#utility.yul\":3873:3899   */\n      swap1\n      pop\n        /* \"#utility.yul\":3909:3980   */\n      tag_150\n        /* \"#utility.yul\":3977:3978   */\n      0x00\n        /* \"#utility.yul\":3966:3975   */\n      dup4\n        /* \"#utility.yul\":3962:3979   */\n      add\n        /* \"#utility.yul\":3953:3959   */\n      dup7\n        /* \"#utility.yul\":3909:3980   */\n      tag_85\n      jump\t// in\n    tag_150:\n        /* \"#utility.yul\":3990:4072   */\n      tag_151\n        /* \"#utility.yul\":4068:4070   */\n      0x20\n        /* \"#utility.yul\":4057:4066   */\n      dup4\n        /* \"#utility.yul\":4053:4071   */\n      add\n        /* \"#utility.yul\":4044:4050   */\n      dup6\n        /* \"#utility.yul\":3990:4072   */\n      tag_88\n      jump\t// in\n    tag_151:\n        /* \"#utility.yul\":4082:4164   */\n      tag_152\n        /* \"#utility.yul\":4160:4162   */\n      0x40\n        /* \"#utility.yul\":4149:4158   */\n      dup4\n        /* \"#utility.yul\":4145:4163   */\n      add\n        /* \"#utility.yul\":4136:4142   */\n      dup5\n        /* \"#utility.yul\":4082:4164   */\n      tag_88\n      jump\t// in\n    tag_152:\n        /* \"#utility.yul\":3689:4171   */\n      swap5\n      swap4\n      pop\n      pop\n      pop\n      pop\n      jump\t// out\n        /* \"#utility.yul\":4177:4346   */\n    tag_89:\n        /* \"#utility.yul\":4261:4272   */\n      0x00\n        /* \"#utility.yul\":4295:4301   */\n      dup3\n        /* \"#utility.yul\":4290:4293   */\n      dup3\n        /* \"#utility.yul\":4283:4302   */\n      mstore\n        /* \"#utility.yul\":4335:4339   */\n      0x20\n        /* \"#utility.yul\":4330:4333   */\n      dup3\n        /* \"#utility.yul\":4326:4340   */\n      add\n        /* \"#utility.yul\":4311:4340   */\n      swap1\n      pop\n        /* \"#utility.yul\":4177:4346   */\n      swap3\n      swap2\n      pop\n      pop\n      jump\t// out\n        /* \"#utility.yul\":4352:4531   */\n    tag_90:\n        /* \"#utility.yul\":4492:4523   */\n      0x6675636b204552433230496e73756666696369656e7442616c616e6365000000\n        /* \"#utility.yul\":4488:4489   */\n      0x00\n        /* \"#utility.yul\":4480:4486   */\n      dup3\n        /* \"#utility.yul\":4476:4490   */\n      add\n        /* \"#utility.yul\":4469:4524   */\n      mstore\n        /* \"#utility.yul\":4352:4531   */\n      pop\n      jump\t// out\n        /* \"#utility.yul\":4537:4903   */\n    tag_91:\n        /* \"#utility.yul\":4679:4682   */\n      0x00\n        /* \"#utility.yul\":4700:4767   */\n      tag_156\n        /* \"#utility.yul\":4764:4766   */\n      0x1d\n        /* \"#utility.yul\":4759:4762   */\n      dup4\n        /* \"#utility.yul\":4700:4767   */\n      tag_89\n      jump\t// in\n    tag_156:\n        /* \"#utility.yul\":4693:4767   */\n      swap2\n      pop\n        /* \"#utility.yul\":4776:4869   */\n      tag_157\n        /* \"#utility.yul\":4865:4868   */\n      dup3\n        /* \"#utility.yul\":4776:4869   */\n      tag_90\n      jump\t// in\n    tag_157:\n        /* \"#utility.yul\":4894:4896   */\n      0x20\n        /* \"#utility.yul\":4889:4892   */\n      dup3\n        /* \"#utility.yul\":4885:4897   */\n      add\n        /* \"#utility.yul\":4878:4897   */\n      swap1\n      pop\n        /* \"#utility.yul\":4537:4903   */\n      swap2\n      swap1\n      pop\n      jump\t// out\n        /* \"#utility.yul\":4909:5328   */\n    tag_47:\n        /* \"#utility.yul\":5075:5079   */\n      0x00\n        /* \"#utility.yul\":5113:5115   */\n      0x20\n        /* \"#utility.yul\":5102:5111   */\n      dup3\n        /* \"#utility.yul\":5098:5116   */\n      add\n        /* \"#utility.yul\":5090:5116   */\n      swap1\n      pop\n        /* \"#utility.yul\":5162:5171   */\n      dup2\n        /* \"#utility.yul\":5156:5160   */\n      dup2\n        /* \"#utility.yul\":5152:5172   */\n      sub\n        /* \"#utility.yul\":5148:5149   */\n      0x00\n        /* \"#utility.yul\":5137:5146   */\n      dup4\n        /* \"#utility.yul\":5133:5150   */\n      add\n        /* \"#utility.yul\":5126:5173   */\n      mstore\n        /* \"#utility.yul\":5190:5321   */\n      tag_159\n        /* \"#utility.yul\":5316:5320   */\n      dup2\n        /* \"#utility.yul\":5190:5321   */\n      tag_91\n      jump\t// in\n    tag_159:\n        /* \"#utility.yul\":5182:5321   */\n      swap1\n      pop\n        /* \"#utility.yul\":4909:5328   */\n      swap2\n      swap1\n      pop\n      jump\t// out\n        /* \"#utility.yul\":5334:5776   */\n    tag_54:\n        /* \"#utility.yul\":5483:5487   */\n      0x00\n        /* \"#utility.yul\":5521:5523   */\n      0x60\n        /* \"#utility.yul\":5510:5519   */\n      dup3\n        /* \"#utility.yul\":5506:5524   */\n      add\n        /* \"#utility.yul\":5498:5524   */\n      swap1\n      pop\n        /* \"#utility.yul\":5534:5605   */\n      tag_161\n        /* \"#utility.yul\":5602:5603   */\n      0x00\n        /* \"#utility.yul\":5591:5600   */\n      dup4\n        /* \"#utility.yul\":5587:5604   */\n      add\n        /* \"#utility.yul\":5578:5584   */\n      dup7\n        /* \"#utility.yul\":5534:5605   */\n      tag_85\n      jump\t// in\n    tag_161:\n        /* \"#utility.yul\":5615:5687   */\n      tag_162\n        /* \"#utility.yul\":5683:5685   */\n      0x20\n        /* \"#utility.yul\":5672:5681   */\n      dup4\n        /* \"#utility.yul\":5668:5686   */\n      add\n        /* \"#utility.yul\":5659:5665   */\n      dup6\n        /* \"#utility.yul\":5615:5687   */\n      tag_70\n      jump\t// in\n    tag_162:\n        /* \"#utility.yul\":5697:5769   */\n      tag_163\n        /* \"#utility.yul\":5765:5767   */\n      0x40\n        /* \"#utility.yul\":5754:5763   */\n      dup4\n        /* \"#utility.yul\":5750:5768   */\n      add\n        /* \"#utility.yul\":5741:5747   */\n      dup5\n        /* \"#utility.yul\":5697:5769   */\n      tag_70\n      jump\t// in\n    tag_163:\n        /* \"#utility.yul\":5334:5776   */\n      swap5\n      swap4\n      pop\n      pop\n      pop\n      pop\n      jump\t// out\n        /* \"#utility.yul\":5782:6224   */\n    tag_60:\n        /* \"#utility.yul\":5931:5935   */\n      0x00\n        /* \"#utility.yul\":5969:5971   */\n      0x60\n        /* \"#utility.yul\":5958:5967   */\n      dup3\n        /* \"#utility.yul\":5954:5972   */\n      add\n        /* \"#utility.yul\":5946:5972   */\n      swap1\n      pop\n        /* \"#utility.yul\":5982:6053   */\n      tag_165\n        /* \"#utility.yul\":6050:6051   */\n      0x00\n        /* \"#utility.yul\":6039:6048   */\n      dup4\n        /* \"#utility.yul\":6035:6052   */\n      add\n        /* \"#utility.yul\":6026:6032   */\n      dup7\n        /* \"#utility.yul\":5982:6053   */\n      tag_85\n      jump\t// in\n    tag_165:\n        /* \"#utility.yul\":6063:6135   */\n      tag_166\n        /* \"#utility.yul\":6131:6133   */\n      0x20\n        /* \"#utility.yul\":6120:6129   */\n      dup4\n        /* \"#utility.yul\":6116:6134   */\n      add\n        /* \"#utility.yul\":6107:6113   */\n      dup6\n        /* \"#utility.yul\":6063:6135   */\n      tag_85\n      jump\t// in\n    tag_166:\n        /* \"#utility.yul\":6145:6217   */\n      tag_167\n        /* \"#utility.yul\":6213:6215   */\n      0x40\n        /* \"#utility.yul\":6202:6211   */\n      dup4\n        /* \"#utility.yul\":6198:6216   */\n      add\n        /* \"#utility.yul\":6189:6195   */\n      dup5\n        /* \"#utility.yul\":6145:6217   */\n      tag_70\n      jump\t// in\n    tag_167:\n        /* \"#utility.yul\":5782:6224   */\n      swap5\n      swap4\n      pop\n      pop\n      pop\n      pop\n      jump\t// out\n        /* \"#utility.yul\":6230:6320   */\n    tag_92:\n        /* \"#utility.yul\":6264:6271   */\n      0x00\n        /* \"#utility.yul\":6307:6312   */\n      dup2\n        /* \"#utility.yul\":6300:6313   */\n      iszero\n        /* \"#utility.yul\":6293:6314   */\n      iszero\n        /* \"#utility.yul\":6282:6314   */\n      swap1\n      pop\n        /* \"#utility.yul\":6230:6320   */\n      swap2\n      swap1\n      pop\n      jump\t// out\n        /* \"#utility.yul\":6326:6442   */\n    tag_93:\n        /* \"#utility.yul\":6396:6417   */\n      tag_170\n        /* \"#utility.yul\":6411:6416   */\n      dup2\n        /* \"#utility.yul\":6396:6417   */\n      tag_92\n      jump\t// in\n    tag_170:\n        /* \"#utility.yul\":6389:6394   */\n      dup2\n        /* \"#utility.yul\":6386:6418   */\n      eq\n        /* \"#utility.yul\":6376:6436   */\n      tag_171\n      jumpi\n        /* \"#utility.yul\":6432:6433   */\n      0x00\n        /* \"#utility.yul\":6429:6430   */\n      dup1\n        /* \"#utility.yul\":6422:6434   */\n      revert\n        /* \"#utility.yul\":6376:6436   */\n    tag_171:\n        /* \"#utility.yul\":6326:6442   */\n      pop\n      jump\t// out\n        /* \"#utility.yul\":6448:6585   */\n    tag_94:\n        /* \"#utility.yul\":6502:6507   */\n      0x00\n        /* \"#utility.yul\":6533:6539   */\n      dup2\n        /* \"#utility.yul\":6527:6540   */\n      mload\n        /* \"#utility.yul\":6518:6540   */\n      swap1\n      pop\n        /* \"#utility.yul\":6549:6579   */\n      tag_173\n        /* \"#utility.yul\":6573:6578   */\n      dup2\n        /* \"#utility.yul\":6549:6579   */\n      tag_93\n      jump\t// in\n    tag_173:\n        /* \"#utility.yul\":6448:6585   */\n      swap3\n      swap2\n      pop\n      pop\n      jump\t// out\n        /* \"#utility.yul\":6591:6936   */\n    tag_64:\n        /* \"#utility.yul\":6658:6664   */\n      0x00\n        /* \"#utility.yul\":6707:6709   */\n      0x20\n        /* \"#utility.yul\":6695:6704   */\n      dup3\n        /* \"#utility.yul\":6686:6693   */\n      dup5\n        /* \"#utility.yul\":6682:6705   */\n      sub\n        /* \"#utility.yul\":6678:6710   */\n      slt\n        /* \"#utility.yul\":6675:6794   */\n      iszero\n      tag_175\n      jumpi\n        /* \"#utility.yul\":6713:6792   */\n      tag_176\n      tag_72\n      jump\t// in\n    tag_176:\n        /* \"#utility.yul\":6675:6794   */\n    tag_175:\n        /* \"#utility.yul\":6833:6834   */\n      0x00\n        /* \"#utility.yul\":6858:6919   */\n      tag_177\n        /* \"#utility.yul\":6911:6918   */\n      dup5\n        /* \"#utility.yul\":6902:6908   */\n      dup3\n        /* \"#utility.yul\":6891:6900   */\n      dup6\n        /* \"#utility.yul\":6887:6909   */\n      add\n        /* \"#utility.yul\":6858:6919   */\n      tag_94\n      jump\t// in\n    tag_177:\n        /* \"#utility.yul\":6848:6919   */\n      swap2\n      pop\n        /* \"#utility.yul\":6804:6929   */\n      pop\n        /* \"#utility.yul\":6591:6936   */\n      swap3\n      swap2\n      pop\n      pop\n      jump\t// out\n        /* \"#utility.yul\":6942:7111   */\n    tag_95:\n        /* \"#utility.yul\":7082:7103   */\n      0x5472616e7366657246726f6d204661696c656400000000000000000000000000\n        /* \"#utility.yul\":7078:7079   */\n      0x00\n        /* \"#utility.yul\":7070:7076   */\n      dup3\n        /* \"#utility.yul\":7066:7080   */\n      add\n        /* \"#utility.yul\":7059:7104   */\n      mstore\n        /* \"#utility.yul\":6942:7111   */\n      pop\n      jump\t// out\n        /* \"#utility.yul\":7117:7483   */\n    tag_96:\n        /* \"#utility.yul\":7259:7262   */\n      0x00\n        /* \"#utility.yul\":7280:7347   */\n      tag_180\n        /* \"#utility.yul\":7344:7346   */\n      0x13\n        /* \"#utility.yul\":7339:7342   */\n      dup4\n        /* \"#utility.yul\":7280:7347   */\n      tag_89\n      jump\t// in\n    tag_180:\n        /* \"#utility.yul\":7273:7347   */\n      swap2\n      pop\n        /* \"#utility.yul\":7356:7449   */\n      tag_181\n        /* \"#utility.yul\":7445:7448   */\n      dup3\n        /* \"#utility.yul\":7356:7449   */\n      tag_95\n      jump\t// in\n    tag_181:\n        /* \"#utility.yul\":7474:7476   */\n      0x20\n        /* \"#utility.yul\":7469:7472   */\n      dup3\n        /* \"#utility.yul\":7465:7477   */\n      add\n        /* \"#utility.yul\":7458:7477   */\n      swap1\n      pop\n        /* \"#utility.yul\":7117:7483   */\n      swap2\n      swap1\n      pop\n      jump\t// out\n        /* \"#utility.yul\":7489:7908   */\n    tag_67:\n        /* \"#utility.yul\":7655:7659   */\n      0x00\n        /* \"#utility.yul\":7693:7695   */\n      0x20\n        /* \"#utility.yul\":7682:7691   */\n      dup3\n        /* \"#utility.yul\":7678:7696   */\n      add\n        /* \"#utility.yul\":7670:7696   */\n      swap1\n      pop\n        /* \"#utility.yul\":7742:7751   */\n      dup2\n        /* \"#utility.yul\":7736:7740   */\n      dup2\n        /* \"#utility.yul\":7732:7752   */\n      sub\n        /* \"#utility.yul\":7728:7729   */\n      0x00\n        /* \"#utility.yul\":7717:7726   */\n      dup4\n        /* \"#utility.yul\":7713:7730   */\n      add\n        /* \"#utility.yul\":7706:7753   */\n      mstore\n        /* \"#utility.yul\":7770:7901   */\n      tag_183\n        /* \"#utility.yul\":7896:7900   */\n      dup2\n        /* \"#utility.yul\":7770:7901   */\n      tag_96\n      jump\t// in\n    tag_183:\n        /* \"#utility.yul\":7762:7901   */\n      swap1\n      pop\n        /* \"#utility.yul\":7489:7908   */\n      swap2\n      swap1\n      pop\n      jump\t// out\n\n    auxdata: 0xa26469706673582212201952838fd79d3f9f600e255146a970d639fc2c5342efc6a3abd5d2d2db23ec3164736f6c634300081a0033\n}\n",
				"bytecode": {
					"linkReferences": {},
					"object": "608060405234801561000f575f80fd5b50604051610a98380380610a9883398181016040528101906100319190610147565b805f73ffffffffffffffffffffffffffffffffffffffff168173ffffffffffffffffffffffffffffffffffffffff16036100a2575f6040517f96c6fd1e0000000000000000000000000000000000000000000000000000000081526004016100999190610181565b60405180910390fd5b8160015f6101000a81548173ffffffffffffffffffffffffffffffffffffffff021916908373ffffffffffffffffffffffffffffffffffffffff160217905550505061019a565b5f80fd5b5f73ffffffffffffffffffffffffffffffffffffffff82169050919050565b5f610116826100ed565b9050919050565b6101268161010c565b8114610130575f80fd5b50565b5f815190506101418161011d565b92915050565b5f6020828403121561015c5761015b6100e9565b5b5f61016984828501610133565b91505092915050565b61017b8161010c565b82525050565b5f6020820190506101945f830184610172565b92915050565b6108f1806101a75f395ff3fe608060405234801561000f575f80fd5b506004361061007b575f3560e01c80632818e67e116100595780632818e67e146100e95780632e1a7d4d14610105578063b6b55f2514610121578063fc0c546a1461013d5761007b565b806312065fe01461007f578063209877671461009d57806327e235e3146100b9575b5f80fd5b61008761015b565b6040516100949190610529565b60405180910390f35b6100b760048036038101906100b29190610570565b6101aa565b005b6100d360048036038101906100ce91906105f5565b6101f8565b6040516100e09190610529565b60405180910390f35b61010360048036038101906100fe9190610570565b61020c565b005b61011f600480360381019061011a9190610570565b610253565b005b61013b60048036038101906101369190610570565b610370565b005b6101456104e5565b604051610152919061067b565b60405180910390f35b5f8061016561050a565b90505f808273ffffffffffffffffffffffffffffffffffffffff1673ffffffffffffffffffffffffffffffffffffffff1681526020019081526020015f205491505090565b60fa8110156101f5575f60fa806040517fe450d38c0000000000000000000000000000000000000000000000000000000081526004016101ec939291906106dc565b60405180910390fd5b50565b5f602052805f5260405f205f915090505481565b60fa811015610250576040517f08c379a00000000000000000000000000000000000000000000000000000000081526004016102479061076b565b60405180910390fd5b50565b805f811161028d576040517f5ad8341100000000000000000000000000000000000000000000000000000000815260040160405180910390fd5b5f61029661050a565b90505f805f8373ffffffffffffffffffffffffffffffffffffffff1673ffffffffffffffffffffffffffffffffffffffff1681526020019081526020015f2054905083811015610321578181856040517fe450d38c00000000000000000000000000000000000000000000000000000000815260040161031893929190610789565b60405180910390fd5b835f808473ffffffffffffffffffffffffffffffffffffffff1673ffffffffffffffffffffffffffffffffffffffff1681526020019081526020015f205f828254039250508190555050505050565b805f81116103aa576040517f5ad8341100000000000000000000000000000000000000000000000000000000815260040160405180910390fd5b5f6103b361050a565b90505f60015f9054906101000a900473ffffffffffffffffffffffffffffffffffffffff1673ffffffffffffffffffffffffffffffffffffffff166323b872dd8330876040518463ffffffff1660e01b8152600401610414939291906107be565b6020604051808303815f875af1158015610430573d5f803e3d5ffd5b505050506040513d601f19601f820116820180604052508101906104549190610828565b905080610496576040517f08c379a000000000000000000000000000000000000000000000000000000000815260040161048d9061089d565b60405180910390fd5b835f808473ffffffffffffffffffffffffffffffffffffffff1673ffffffffffffffffffffffffffffffffffffffff1681526020019081526020015f205f828254019250508190555050505050565b60015f9054906101000a900473ffffffffffffffffffffffffffffffffffffffff1681565b5f33905090565b5f819050919050565b61052381610511565b82525050565b5f60208201905061053c5f83018461051a565b92915050565b5f80fd5b61054f81610511565b8114610559575f80fd5b50565b5f8135905061056a81610546565b92915050565b5f6020828403121561058557610584610542565b5b5f6105928482850161055c565b91505092915050565b5f73ffffffffffffffffffffffffffffffffffffffff82169050919050565b5f6105c48261059b565b9050919050565b6105d4816105ba565b81146105de575f80fd5b50565b5f813590506105ef816105cb565b92915050565b5f6020828403121561060a57610609610542565b5b5f610617848285016105e1565b91505092915050565b5f819050919050565b5f61064361063e6106398461059b565b610620565b61059b565b9050919050565b5f61065482610629565b9050919050565b5f6106658261064a565b9050919050565b6106758161065b565b82525050565b5f60208201905061068e5f83018461066c565b92915050565b61069d816105ba565b82525050565b5f819050919050565b5f6106c66106c16106bc846106a3565b610620565b610511565b9050919050565b6106d6816106ac565b82525050565b5f6060820190506106ef5f830186610694565b6106fc60208301856106cd565b61070960408301846106cd565b949350505050565b5f82825260208201905092915050565b7f6675636b204552433230496e73756666696369656e7442616c616e63650000005f82015250565b5f610755601d83610711565b915061076082610721565b602082019050919050565b5f6020820190508181035f83015261078281610749565b9050919050565b5f60608201905061079c5f830186610694565b6107a9602083018561051a565b6107b6604083018461051a565b949350505050565b5f6060820190506107d15f830186610694565b6107de6020830185610694565b6107eb604083018461051a565b949350505050565b5f8115159050919050565b610807816107f3565b8114610811575f80fd5b50565b5f81519050610822816107fe565b92915050565b5f6020828403121561083d5761083c610542565b5b5f61084a84828501610814565b91505092915050565b7f5472616e7366657246726f6d204661696c6564000000000000000000000000005f82015250565b5f610887601383610711565b915061089282610853565b602082019050919050565b5f6020820190508181035f8301526108b48161087b565b905091905056fea26469706673582212201952838fd79d3f9f600e255146a970d639fc2c5342efc6a3abd5d2d2db23ec3164736f6c634300081a0033",
					"opcodes": "PUSH1 0x80 PUSH1 0x40 MSTORE CALLVALUE DUP1 ISZERO PUSH2 0xF JUMPI PUSH0 DUP1 REVERT JUMPDEST POP PUSH1 0x40 MLOAD PUSH2 0xA98 CODESIZE SUB DUP1 PUSH2 0xA98 DUP4 CODECOPY DUP2 DUP2 ADD PUSH1 0x40 MSTORE DUP2 ADD SWAP1 PUSH2 0x31 SWAP2 SWAP1 PUSH2 0x147 JUMP JUMPDEST DUP1 PUSH0 PUSH20 0xFFFFFFFFFFFFFFFFFFFFFFFFFFFFFFFFFFFFFFFF AND DUP2 PUSH20 0xFFFFFFFFFFFFFFFFFFFFFFFFFFFFFFFFFFFFFFFF AND SUB PUSH2 0xA2 JUMPI PUSH0 PUSH1 0x40 MLOAD PUSH32 0x96C6FD1E00000000000000000000000000000000000000000000000000000000 DUP2 MSTORE PUSH1 0x4 ADD PUSH2 0x99 SWAP2 SWAP1 PUSH2 0x181 JUMP JUMPDEST PUSH1 0x40 MLOAD DUP1 SWAP2 SUB SWAP1 REVERT JUMPDEST DUP2 PUSH1 0x1 PUSH0 PUSH2 0x100 EXP DUP2 SLOAD DUP2 PUSH20 0xFFFFFFFFFFFFFFFFFFFFFFFFFFFFFFFFFFFFFFFF MUL NOT AND SWAP1 DUP4 PUSH20 0xFFFFFFFFFFFFFFFFFFFFFFFFFFFFFFFFFFFFFFFF AND MUL OR SWAP1 SSTORE POP POP POP PUSH2 0x19A JUMP JUMPDEST PUSH0 DUP1 REVERT JUMPDEST PUSH0 PUSH20 0xFFFFFFFFFFFFFFFFFFFFFFFFFFFFFFFFFFFFFFFF DUP3 AND SWAP1 POP SWAP2 SWAP1 POP JUMP JUMPDEST PUSH0 PUSH2 0x116 DUP3 PUSH2 0xED JUMP JUMPDEST SWAP1 POP SWAP2 SWAP1 POP JUMP JUMPDEST PUSH2 0x126 DUP2 PUSH2 0x10C JUMP JUMPDEST DUP2 EQ PUSH2 0x130 JUMPI PUSH0 DUP1 REVERT JUMPDEST POP JUMP JUMPDEST PUSH0 DUP2 MLOAD SWAP1 POP PUSH2 0x141 DUP2 PUSH2 0x11D JUMP JUMPDEST SWAP3 SWAP2 POP POP JUMP JUMPDEST PUSH0 PUSH1 0x20 DUP3 DUP5 SUB SLT ISZERO PUSH2 0x15C JUMPI PUSH2 0x15B PUSH2 0xE9 JUMP JUMPDEST JUMPDEST PUSH0 PUSH2 0x169 DUP5 DUP3 DUP6 ADD PUSH2 0x133 JUMP JUMPDEST SWAP2 POP POP SWAP3 SWAP2 POP POP JUMP JUMPDEST PUSH2 0x17B DUP2 PUSH2 0x10C JUMP JUMPDEST DUP3 MSTORE POP POP JUMP JUMPDEST PUSH0 PUSH1 0x20 DUP3 ADD SWAP1 POP PUSH2 0x194 PUSH0 DUP4 ADD DUP5 PUSH2 0x172 JUMP JUMPDEST SWAP3 SWAP2 POP POP JUMP JUMPDEST PUSH2 0x8F1 DUP1 PUSH2 0x1A7 PUSH0 CODECOPY PUSH0 RETURN INVALID PUSH1 0x80 PUSH1 0x40 MSTORE CALLVALUE DUP1 ISZERO PUSH2 0xF JUMPI PUSH0 DUP1 REVERT JUMPDEST POP PUSH1 0x4 CALLDATASIZE LT PUSH2 0x7B JUMPI PUSH0 CALLDATALOAD PUSH1 0xE0 SHR DUP1 PUSH4 0x2818E67E GT PUSH2 0x59 JUMPI DUP1 PUSH4 0x2818E67E EQ PUSH2 0xE9 JUMPI DUP1 PUSH4 0x2E1A7D4D EQ PUSH2 0x105 JUMPI DUP1 PUSH4 0xB6B55F25 EQ PUSH2 0x121 JUMPI DUP1 PUSH4 0xFC0C546A EQ PUSH2 0x13D JUMPI PUSH2 0x7B JUMP JUMPDEST DUP1 PUSH4 0x12065FE0 EQ PUSH2 0x7F JUMPI DUP1 PUSH4 0x20987767 EQ PUSH2 0x9D JUMPI DUP1 PUSH4 0x27E235E3 EQ PUSH2 0xB9 JUMPI JUMPDEST PUSH0 DUP1 REVERT JUMPDEST PUSH2 0x87 PUSH2 0x15B JUMP JUMPDEST PUSH1 0x40 MLOAD PUSH2 0x94 SWAP2 SWAP1 PUSH2 0x529 JUMP JUMPDEST PUSH1 0x40 MLOAD DUP1 SWAP2 SUB SWAP1 RETURN JUMPDEST PUSH2 0xB7 PUSH1 0x4 DUP1 CALLDATASIZE SUB DUP2 ADD SWAP1 PUSH2 0xB2 SWAP2 SWAP1 PUSH2 0x570 JUMP JUMPDEST PUSH2 0x1AA JUMP JUMPDEST STOP JUMPDEST PUSH2 0xD3 PUSH1 0x4 DUP1 CALLDATASIZE SUB DUP2 ADD SWAP1 PUSH2 0xCE SWAP2 SWAP1 PUSH2 0x5F5 JUMP JUMPDEST PUSH2 0x1F8 JUMP JUMPDEST PUSH1 0x40 MLOAD PUSH2 0xE0 SWAP2 SWAP1 PUSH2 0x529 JUMP JUMPDEST PUSH1 0x40 MLOAD DUP1 SWAP2 SUB SWAP1 RETURN JUMPDEST PUSH2 0x103 PUSH1 0x4 DUP1 CALLDATASIZE SUB DUP2 ADD SWAP1 PUSH2 0xFE SWAP2 SWAP1 PUSH2 0x570 JUMP JUMPDEST PUSH2 0x20C JUMP JUMPDEST STOP JUMPDEST PUSH2 0x11F PUSH1 0x4 DUP1 CALLDATASIZE SUB DUP2 ADD SWAP1 PUSH2 0x11A SWAP2 SWAP1 PUSH2 0x570 JUMP JUMPDEST PUSH2 0x253 JUMP JUMPDEST STOP JUMPDEST PUSH2 0x13B PUSH1 0x4 DUP1 CALLDATASIZE SUB DUP2 ADD SWAP1 PUSH2 0x136 SWAP2 SWAP1 PUSH2 0x570 JUMP JUMPDEST PUSH2 0x370 JUMP JUMPDEST STOP JUMPDEST PUSH2 0x145 PUSH2 0x4E5 JUMP JUMPDEST PUSH1 0x40 MLOAD PUSH2 0x152 SWAP2 SWAP1 PUSH2 0x67B JUMP JUMPDEST PUSH1 0x40 MLOAD DUP1 SWAP2 SUB SWAP1 RETURN JUMPDEST PUSH0 DUP1 PUSH2 0x165 PUSH2 0x50A JUMP JUMPDEST SWAP1 POP PUSH0 DUP1 DUP3 PUSH20 0xFFFFFFFFFFFFFFFFFFFFFFFFFFFFFFFFFFFFFFFF AND PUSH20 0xFFFFFFFFFFFFFFFFFFFFFFFFFFFFFFFFFFFFFFFF AND DUP2 MSTORE PUSH1 0x20 ADD SWAP1 DUP2 MSTORE PUSH1 0x20 ADD PUSH0 KECCAK256 SLOAD SWAP2 POP POP SWAP1 JUMP JUMPDEST PUSH1 0xFA DUP2 LT ISZERO PUSH2 0x1F5 JUMPI PUSH0 PUSH1 0xFA DUP1 PUSH1 0x40 MLOAD PUSH32 0xE450D38C00000000000000000000000000000000000000000000000000000000 DUP2 MSTORE PUSH1 0x4 ADD PUSH2 0x1EC SWAP4 SWAP3 SWAP2 SWAP1 PUSH2 0x6DC JUMP JUMPDEST PUSH1 0x40 MLOAD DUP1 SWAP2 SUB SWAP1 REVERT JUMPDEST POP JUMP JUMPDEST PUSH0 PUSH1 0x20 MSTORE DUP1 PUSH0 MSTORE PUSH1 0x40 PUSH0 KECCAK256 PUSH0 SWAP2 POP SWAP1 POP SLOAD DUP2 JUMP JUMPDEST PUSH1 0xFA DUP2 LT ISZERO PUSH2 0x250 JUMPI PUSH1 0x40 MLOAD PUSH32 0x8C379A000000000000000000000000000000000000000000000000000000000 DUP2 MSTORE PUSH1 0x4 ADD PUSH2 0x247 SWAP1 PUSH2 0x76B JUMP JUMPDEST PUSH1 0x40 MLOAD DUP1 SWAP2 SUB SWAP1 REVERT JUMPDEST POP JUMP JUMPDEST DUP1 PUSH0 DUP2 GT PUSH2 0x28D JUMPI PUSH1 0x40 MLOAD PUSH32 0x5AD8341100000000000000000000000000000000000000000000000000000000 DUP2 MSTORE PUSH1 0x4 ADD PUSH1 0x40 MLOAD DUP1 SWAP2 SUB SWAP1 REVERT JUMPDEST PUSH0 PUSH2 0x296 PUSH2 0x50A JUMP JUMPDEST SWAP1 POP PUSH0 DUP1 PUSH0 DUP4 PUSH20 0xFFFFFFFFFFFFFFFFFFFFFFFFFFFFFFFFFFFFFFFF AND PUSH20 0xFFFFFFFFFFFFFFFFFFFFFFFFFFFFFFFFFFFFFFFF AND DUP2 MSTORE PUSH1 0x20 ADD SWAP1 DUP2 MSTORE PUSH1 0x20 ADD PUSH0 KECCAK256 SLOAD SWAP1 POP DUP4 DUP2 LT ISZERO PUSH2 0x321 JUMPI DUP2 DUP2 DUP6 PUSH1 0x40 MLOAD PUSH32 0xE450D38C00000000000000000000000000000000000000000000000000000000 DUP2 MSTORE PUSH1 0x4 ADD PUSH2 0x318 SWAP4 SWAP3 SWAP2 SWAP1 PUSH2 0x789 JUMP JUMPDEST PUSH1 0x40 MLOAD DUP1 SWAP2 SUB SWAP1 REVERT JUMPDEST DUP4 PUSH0 DUP1 DUP5 PUSH20 0xFFFFFFFFFFFFFFFFFFFFFFFFFFFFFFFFFFFFFFFF AND PUSH20 0xFFFFFFFFFFFFFFFFFFFFFFFFFFFFFFFFFFFFFFFF AND DUP2 MSTORE PUSH1 0x20 ADD SWAP1 DUP2 MSTORE PUSH1 0x20 ADD PUSH0 KECCAK256 PUSH0 DUP3 DUP3 SLOAD SUB SWAP3 POP POP DUP2 SWAP1 SSTORE POP POP POP POP POP JUMP JUMPDEST DUP1 PUSH0 DUP2 GT PUSH2 0x3AA JUMPI PUSH1 0x40 MLOAD PUSH32 0x5AD8341100000000000000000000000000000000000000000000000000000000 DUP2 MSTORE PUSH1 0x4 ADD PUSH1 0x40 MLOAD DUP1 SWAP2 SUB SWAP1 REVERT JUMPDEST PUSH0 PUSH2 0x3B3 PUSH2 0x50A JUMP JUMPDEST SWAP1 POP PUSH0 PUSH1 0x1 PUSH0 SWAP1 SLOAD SWAP1 PUSH2 0x100 EXP SWAP1 DIV PUSH20 0xFFFFFFFFFFFFFFFFFFFFFFFFFFFFFFFFFFFFFFFF AND PUSH20 0xFFFFFFFFFFFFFFFFFFFFFFFFFFFFFFFFFFFFFFFF AND PUSH4 0x23B872DD DUP4 ADDRESS DUP8 PUSH1 0x40 MLOAD DUP5 PUSH4 0xFFFFFFFF AND PUSH1 0xE0 SHL DUP2 MSTORE PUSH1 0x4 ADD PUSH2 0x414 SWAP4 SWAP3 SWAP2 SWAP1 PUSH2 0x7BE JUMP JUMPDEST PUSH1 0x20 PUSH1 0x40 MLOAD DUP1 DUP4 SUB DUP2 PUSH0 DUP8 GAS CALL ISZERO DUP1 ISZERO PUSH2 0x430 JUMPI RETURNDATASIZE PUSH0 DUP1 RETURNDATACOPY RETURNDATASIZE PUSH0 REVERT JUMPDEST POP POP POP POP PUSH1 0x40 MLOAD RETURNDATASIZE PUSH1 0x1F NOT PUSH1 0x1F DUP3 ADD AND DUP3 ADD DUP1 PUSH1 0x40 MSTORE POP DUP2 ADD SWAP1 PUSH2 0x454 SWAP2 SWAP1 PUSH2 0x828 JUMP JUMPDEST SWAP1 POP DUP1 PUSH2 0x496 JUMPI PUSH1 0x40 MLOAD PUSH32 0x8C379A000000000000000000000000000000000000000000000000000000000 DUP2 MSTORE PUSH1 0x4 ADD PUSH2 0x48D SWAP1 PUSH2 0x89D JUMP JUMPDEST PUSH1 0x40 MLOAD DUP1 SWAP2 SUB SWAP1 REVERT JUMPDEST DUP4 PUSH0 DUP1 DUP5 PUSH20 0xFFFFFFFFFFFFFFFFFFFFFFFFFFFFFFFFFFFFFFFF AND PUSH20 0xFFFFFFFFFFFFFFFFFFFFFFFFFFFFFFFFFFFFFFFF AND DUP2 MSTORE PUSH1 0x20 ADD SWAP1 DUP2 MSTORE PUSH1 0x20 ADD PUSH0 KECCAK256 PUSH0 DUP3 DUP3 SLOAD ADD SWAP3 POP POP DUP2 SWAP1 SSTORE POP POP POP POP POP JUMP JUMPDEST PUSH1 0x1 PUSH0 SWAP1 SLOAD SWAP1 PUSH2 0x100 EXP SWAP1 DIV PUSH20 0xFFFFFFFFFFFFFFFFFFFFFFFFFFFFFFFFFFFFFFFF AND DUP2 JUMP JUMPDEST PUSH0 CALLER SWAP1 POP SWAP1 JUMP JUMPDEST PUSH0 DUP2 SWAP1 POP SWAP2 SWAP1 POP JUMP JUMPDEST PUSH2 0x523 DUP2 PUSH2 0x511 JUMP JUMPDEST DUP3 MSTORE POP POP JUMP JUMPDEST PUSH0 PUSH1 0x20 DUP3 ADD SWAP1 POP PUSH2 0x53C PUSH0 DUP4 ADD DUP5 PUSH2 0x51A JUMP JUMPDEST SWAP3 SWAP2 POP POP JUMP JUMPDEST PUSH0 DUP1 REVERT JUMPDEST PUSH2 0x54F DUP2 PUSH2 0x511 JUMP JUMPDEST DUP2 EQ PUSH2 0x559 JUMPI PUSH0 DUP1 REVERT JUMPDEST POP JUMP JUMPDEST PUSH0 DUP2 CALLDATALOAD SWAP1 POP PUSH2 0x56A DUP2 PUSH2 0x546 JUMP JUMPDEST SWAP3 SWAP2 POP POP JUMP JUMPDEST PUSH0 PUSH1 0x20 DUP3 DUP5 SUB SLT ISZERO PUSH2 0x585 JUMPI PUSH2 0x584 PUSH2 0x542 JUMP JUMPDEST JUMPDEST PUSH0 PUSH2 0x592 DUP5 DUP3 DUP6 ADD PUSH2 0x55C JUMP JUMPDEST SWAP2 POP POP SWAP3 SWAP2 POP POP JUMP JUMPDEST PUSH0 PUSH20 0xFFFFFFFFFFFFFFFFFFFFFFFFFFFFFFFFFFFFFFFF DUP3 AND SWAP1 POP SWAP2 SWAP1 POP JUMP JUMPDEST PUSH0 PUSH2 0x5C4 DUP3 PUSH2 0x59B JUMP JUMPDEST SWAP1 POP SWAP2 SWAP1 POP JUMP JUMPDEST PUSH2 0x5D4 DUP2 PUSH2 0x5BA JUMP JUMPDEST DUP2 EQ PUSH2 0x5DE JUMPI PUSH0 DUP1 REVERT JUMPDEST POP JUMP JUMPDEST PUSH0 DUP2 CALLDATALOAD SWAP1 POP PUSH2 0x5EF DUP2 PUSH2 0x5CB JUMP JUMPDEST SWAP3 SWAP2 POP POP JUMP JUMPDEST PUSH0 PUSH1 0x20 DUP3 DUP5 SUB SLT ISZERO PUSH2 0x60A JUMPI PUSH2 0x609 PUSH2 0x542 JUMP JUMPDEST JUMPDEST PUSH0 PUSH2 0x617 DUP5 DUP3 DUP6 ADD PUSH2 0x5E1 JUMP JUMPDEST SWAP2 POP POP SWAP3 SWAP2 POP POP JUMP JUMPDEST PUSH0 DUP2 SWAP1 POP SWAP2 SWAP1 POP JUMP JUMPDEST PUSH0 PUSH2 0x643 PUSH2 0x63E PUSH2 0x639 DUP5 PUSH2 0x59B JUMP JUMPDEST PUSH2 0x620 JUMP JUMPDEST PUSH2 0x59B JUMP JUMPDEST SWAP1 POP SWAP2 SWAP1 POP JUMP JUMPDEST PUSH0 PUSH2 0x654 DUP3 PUSH2 0x629 JUMP JUMPDEST SWAP1 POP SWAP2 SWAP1 POP JUMP JUMPDEST PUSH0 PUSH2 0x665 DUP3 PUSH2 0x64A JUMP JUMPDEST SWAP1 POP SWAP2 SWAP1 POP JUMP JUMPDEST PUSH2 0x675 DUP2 PUSH2 0x65B JUMP JUMPDEST DUP3 MSTORE POP POP JUMP JUMPDEST PUSH0 PUSH1 0x20 DUP3 ADD SWAP1 POP PUSH2 0x68E PUSH0 DUP4 ADD DUP5 PUSH2 0x66C JUMP JUMPDEST SWAP3 SWAP2 POP POP JUMP JUMPDEST PUSH2 0x69D DUP2 PUSH2 0x5BA JUMP JUMPDEST DUP3 MSTORE POP POP JUMP JUMPDEST PUSH0 DUP2 SWAP1 POP SWAP2 SWAP1 POP JUMP JUMPDEST PUSH0 PUSH2 0x6C6 PUSH2 0x6C1 PUSH2 0x6BC DUP5 PUSH2 0x6A3 JUMP JUMPDEST PUSH2 0x620 JUMP JUMPDEST PUSH2 0x511 JUMP JUMPDEST SWAP1 POP SWAP2 SWAP1 POP JUMP JUMPDEST PUSH2 0x6D6 DUP2 PUSH2 0x6AC JUMP JUMPDEST DUP3 MSTORE POP POP JUMP JUMPDEST PUSH0 PUSH1 0x60 DUP3 ADD SWAP1 POP PUSH2 0x6EF PUSH0 DUP4 ADD DUP7 PUSH2 0x694 JUMP JUMPDEST PUSH2 0x6FC PUSH1 0x20 DUP4 ADD DUP6 PUSH2 0x6CD JUMP JUMPDEST PUSH2 0x709 PUSH1 0x40 DUP4 ADD DUP5 PUSH2 0x6CD JUMP JUMPDEST SWAP5 SWAP4 POP POP POP POP JUMP JUMPDEST PUSH0 DUP3 DUP3 MSTORE PUSH1 0x20 DUP3 ADD SWAP1 POP SWAP3 SWAP2 POP POP JUMP JUMPDEST PUSH32 0x6675636B204552433230496E73756666696369656E7442616C616E6365000000 PUSH0 DUP3 ADD MSTORE POP JUMP JUMPDEST PUSH0 PUSH2 0x755 PUSH1 0x1D DUP4 PUSH2 0x711 JUMP JUMPDEST SWAP2 POP PUSH2 0x760 DUP3 PUSH2 0x721 JUMP JUMPDEST PUSH1 0x20 DUP3 ADD SWAP1 POP SWAP2 SWAP1 POP JUMP JUMPDEST PUSH0 PUSH1 0x20 DUP3 ADD SWAP1 POP DUP2 DUP2 SUB PUSH0 DUP4 ADD MSTORE PUSH2 0x782 DUP2 PUSH2 0x749 JUMP JUMPDEST SWAP1 POP SWAP2 SWAP1 POP JUMP JUMPDEST PUSH0 PUSH1 0x60 DUP3 ADD SWAP1 POP PUSH2 0x79C PUSH0 DUP4 ADD DUP7 PUSH2 0x694 JUMP JUMPDEST PUSH2 0x7A9 PUSH1 0x20 DUP4 ADD DUP6 PUSH2 0x51A JUMP JUMPDEST PUSH2 0x7B6 PUSH1 0x40 DUP4 ADD DUP5 PUSH2 0x51A JUMP JUMPDEST SWAP5 SWAP4 POP POP POP POP JUMP JUMPDEST PUSH0 PUSH1 0x60 DUP3 ADD SWAP1 POP PUSH2 0x7D1 PUSH0 DUP4 ADD DUP7 PUSH2 0x694 JUMP JUMPDEST PUSH2 0x7DE PUSH1 0x20 DUP4 ADD DUP6 PUSH2 0x694 JUMP JUMPDEST PUSH2 0x7EB PUSH1 0x40 DUP4 ADD DUP5 PUSH2 0x51A JUMP JUMPDEST SWAP5 SWAP4 POP POP POP POP JUMP JUMPDEST PUSH0 DUP2 ISZERO ISZERO SWAP1 POP SWAP2 SWAP1 POP JUMP JUMPDEST PUSH2 0x807 DUP2 PUSH2 0x7F3 JUMP JUMPDEST DUP2 EQ PUSH2 0x811 JUMPI PUSH0 DUP1 REVERT JUMPDEST POP JUMP JUMPDEST PUSH0 DUP2 MLOAD SWAP1 POP PUSH2 0x822 DUP2 PUSH2 0x7FE JUMP JUMPDEST SWAP3 SWAP2 POP POP JUMP JUMPDEST PUSH0 PUSH1 0x20 DUP3 DUP5 SUB SLT ISZERO PUSH2 0x83D JUMPI PUSH2 0x83C PUSH2 0x542 JUMP JUMPDEST JUMPDEST PUSH0 PUSH2 0x84A DUP5 DUP3 DUP6 ADD PUSH2 0x814 JUMP JUMPDEST SWAP2 POP POP SWAP3 SWAP2 POP POP JUMP JUMPDEST PUSH32 0x5472616E7366657246726F6D204661696C656400000000000000000000000000 PUSH0 DUP3 ADD MSTORE POP JUMP JUMPDEST PUSH0 PUSH2 0x887 PUSH1 0x13 DUP4 PUSH2 0x711 JUMP JUMPDEST SWAP2 POP PUSH2 0x892 DUP3 PUSH2 0x853 JUMP JUMPDEST PUSH1 0x20 DUP3 ADD SWAP1 POP SWAP2 SWAP1 POP JUMP JUMPDEST PUSH0 PUSH1 0x20 DUP3 ADD SWAP1 POP DUP2 DUP2 SUB PUSH0 DUP4 ADD MSTORE PUSH2 0x8B4 DUP2 PUSH2 0x87B JUMP JUMPDEST SWAP1 POP SWAP2 SWAP1 POP JUMP INVALID LOG2 PUSH5 0x6970667358 0x22 SLT KECCAK256 NOT MSTORE DUP4 DUP16 0xD7 SWAP14 EXTCODEHASH SWAP16 PUSH1 0xE 0x25 MLOAD CHAINID 0xA9 PUSH17 0xD639FC2C5342EFC6A3ABD5D2D2DB23EC31 PUSH5 0x736F6C6343 STOP ADDMOD BYTE STOP CALLER "
				},
				"gasEstimates": {
					"creation": {
						"codeDepositCost": "457800",
						"executionCost": "infinite",
						"totalCost": "infinite"
					},
					"external": {
						"balances(address)": "2846",
						"deposit(uint256)": "infinite",
						"getBalance()": "2567",
						"testRevert(uint256)": "infinite",
						"testRevertRequire(uint256)": "709",
						"token()": "infinite",
						"withdraw(uint256)": "infinite"
					}
				},
				"methodIdentifiers": {
					"balances(address)": "27e235e3",
					"deposit(uint256)": "b6b55f25",
					"getBalance()": "12065fe0",
					"testRevert(uint256)": "20987767",
					"testRevertRequire(uint256)": "2818e67e",
					"token()": "fc0c546a",
					"withdraw(uint256)": "2e1a7d4d"
				}
			},
			"storageLayout": {
				"storage": [
					{
						"astId": 1023,
						"contract": "src/TokenBank.sol:TokenBank",
						"label": "balances",
						"offset": 0,
						"slot": "0",
						"type": "t_mapping(t_address,t_uint256)"
					},
					{
						"astId": 1026,
						"contract": "src/TokenBank.sol:TokenBank",
						"label": "token",
						"offset": 0,
						"slot": "1",
						"type": "t_contract(BaseERC20)991"
					}
				],
				"types": {
					"t_address": {
						"encoding": "inplace",
						"label": "address",
						"numberOfBytes": "20"
					},
					"t_contract(BaseERC20)991": {
						"encoding": "inplace",
						"label": "contract BaseERC20",
						"numberOfBytes": "20"
					},
					"t_mapping(t_address,t_uint256)": {
						"encoding": "mapping",
						"key": "t_address",
						"label": "mapping(address => uint256)",
						"numberOfBytes": "32",
						"value": "t_uint256"
					},
					"t_uint256": {
						"encoding": "inplace",
						"label": "uint256",
						"numberOfBytes": "32"
					}
				}
			},
			"userdoc": {
				"kind": "user",
				"methods": {},
				"version": 1
			}
		}
	}
}