{
	"实践POW/index.sol": {
		"ProofOfWork": {
			"abi": [
				{
					"inputs": [],
					"stateMutability": "nonpayable",
					"type": "constructor"
				},
				{
					"inputs": [
						{
							"internalType": "string",
							"name": "data",
							"type": "string"
						},
						{
							"internalType": "uint256",
							"name": "difficulty",
							"type": "uint256"
						}
					],
					"name": "pow",
					"outputs": [
						{
							"internalType": "uint256",
							"name": "nonce",
							"type": "uint256"
						},
						{
							"internalType": "bytes32",
							"name": "hash",
							"type": "bytes32"
						}
					],
					"stateMutability": "pure",
					"type": "function"
				}
			],
			"devdoc": {
				"kind": "dev",
				"methods": {},
				"version": 1
			},
			"evm": {
				"assembly": "    /* \"\\xe5\\xae\\x9e\\xe8\\xb7\\xb5POW/index.sol\":57:479  contract ProofOfWork {... */\n  mstore(0x40, 0x80)\n    /* \"\\xe5\\xae\\x9e\\xe8\\xb7\\xb5POW/index.sol\":84:105  constructor() {... */\n  callvalue\n  dup1\n  iszero\n  tag_1\n  jumpi\n  0x00\n  dup1\n  revert\ntag_1:\n  pop\n    /* \"\\xe5\\xae\\x9e\\xe8\\xb7\\xb5POW/index.sol\":57:479  contract ProofOfWork {... */\n  dataSize(sub_0)\n  dup1\n  dataOffset(sub_0)\n  0x00\n  codecopy\n  0x00\n  return\nstop\n\nsub_0: assembly {\n        /* \"\\xe5\\xae\\x9e\\xe8\\xb7\\xb5POW/index.sol\":57:479  contract ProofOfWork {... */\n      mstore(0x40, 0x80)\n      callvalue\n      dup1\n      iszero\n      tag_1\n      jumpi\n      0x00\n      dup1\n      revert\n    tag_1:\n      pop\n      jumpi(tag_2, lt(calldatasize, 0x04))\n      shr(0xe0, calldataload(0x00))\n      dup1\n      0x7e1bf9e4\n      eq\n      tag_3\n      jumpi\n    tag_2:\n      0x00\n      dup1\n      revert\n        /* \"\\xe5\\xae\\x9e\\xe8\\xb7\\xb5POW/index.sol\":111:472  function pow(string memory data, uint256 difficulty) public pure returns (uint256 nonce, bytes32 hash) {... */\n    tag_3:\n      tag_4\n      0x04\n      dup1\n      calldatasize\n      sub\n      dup2\n      add\n      swap1\n      tag_5\n      swap2\n      swap1\n      tag_6\n      jump\t// in\n    tag_5:\n      tag_7\n      jump\t// in\n    tag_4:\n      mload(0x40)\n      tag_8\n      swap3\n      swap2\n      swap1\n      tag_9\n      jump\t// in\n    tag_8:\n      mload(0x40)\n      dup1\n      swap2\n      sub\n      swap1\n      return\n    tag_7:\n        /* \"\\xe5\\xae\\x9e\\xe8\\xb7\\xb5POW/index.sol\":185:198  uint256 nonce */\n      0x00\n        /* \"\\xe5\\xae\\x9e\\xe8\\xb7\\xb5POW/index.sol\":200:212  bytes32 hash */\n      dup1\n        /* \"\\xe5\\xae\\x9e\\xe8\\xb7\\xb5POW/index.sol\":232:233  0 */\n      0x00\n        /* \"\\xe5\\xae\\x9e\\xe8\\xb7\\xb5POW/index.sol\":224:233  nonce = 0 */\n      swap2\n      pop\n        /* \"\\xe5\\xae\\x9e\\xe8\\xb7\\xb5POW/index.sol\":250:287  sha256(abi.encodePacked(data, nonce)) */\n      0x02\n        /* \"\\xe5\\xae\\x9e\\xe8\\xb7\\xb5POW/index.sol\":274:278  data */\n      dup5\n        /* \"\\xe5\\xae\\x9e\\xe8\\xb7\\xb5POW/index.sol\":280:285  nonce */\n      dup4\n        /* \"\\xe5\\xae\\x9e\\xe8\\xb7\\xb5POW/index.sol\":257:286  abi.encodePacked(data, nonce) */\n      add(0x20, mload(0x40))\n      tag_11\n      swap3\n      swap2\n      swap1\n      tag_12\n      jump\t// in\n    tag_11:\n      mload(0x40)\n      0x20\n      dup2\n      dup4\n      sub\n      sub\n      dup2\n      mstore\n      swap1\n      0x40\n      mstore\n        /* \"\\xe5\\xae\\x9e\\xe8\\xb7\\xb5POW/index.sol\":250:287  sha256(abi.encodePacked(data, nonce)) */\n      mload(0x40)\n      tag_13\n      swap2\n      swap1\n      tag_14\n      jump\t// in\n    tag_13:\n      0x20\n      mload(0x40)\n      dup1\n      dup4\n      sub\n      dup2\n      dup6\n      gas\n      staticcall\n      iszero\n      dup1\n      iszero\n      tag_16\n      jumpi\n      returndatasize\n      0x00\n      dup1\n      returndatacopy\n      revert(0x00, returndatasize)\n    tag_16:\n      pop\n      pop\n      pop\n      mload(0x40)\n      returndatasize\n      not(0x1f)\n      0x1f\n      dup3\n      add\n      and\n      dup3\n      add\n      dup1\n      0x40\n      mstore\n      pop\n      dup2\n      add\n      swap1\n      tag_17\n      swap2\n      swap1\n      tag_18\n      jump\t// in\n    tag_17:\n        /* \"\\xe5\\xae\\x9e\\xe8\\xb7\\xb5POW/index.sol\":243:287  hash = sha256(abi.encodePacked(data, nonce)) */\n      swap1\n      pop\n        /* \"\\xe5\\xae\\x9e\\xe8\\xb7\\xb5POW/index.sol\":297:436  while (uint256(hash) >> (256 - difficulty) != 0) {... */\n    tag_19:\n        /* \"\\xe5\\xae\\x9e\\xe8\\xb7\\xb5POW/index.sol\":343:344  0 */\n      0x00\n        /* \"\\xe5\\xae\\x9e\\xe8\\xb7\\xb5POW/index.sol\":328:338  difficulty */\n      dup4\n        /* \"\\xe5\\xae\\x9e\\xe8\\xb7\\xb5POW/index.sol\":322:325  256 */\n      0x0100\n        /* \"\\xe5\\xae\\x9e\\xe8\\xb7\\xb5POW/index.sol\":322:338  256 - difficulty */\n      tag_21\n      swap2\n      swap1\n      tag_22\n      jump\t// in\n    tag_21:\n        /* \"\\xe5\\xae\\x9e\\xe8\\xb7\\xb5POW/index.sol\":312:316  hash */\n      dup3\n        /* \"\\xe5\\xae\\x9e\\xe8\\xb7\\xb5POW/index.sol\":304:317  uint256(hash) */\n      0x00\n      shr\n        /* \"\\xe5\\xae\\x9e\\xe8\\xb7\\xb5POW/index.sol\":304:339  uint256(hash) >> (256 - difficulty) */\n      swap1\n      shr\n        /* \"\\xe5\\xae\\x9e\\xe8\\xb7\\xb5POW/index.sol\":304:344  uint256(hash) >> (256 - difficulty) != 0 */\n      eq\n        /* \"\\xe5\\xae\\x9e\\xe8\\xb7\\xb5POW/index.sol\":297:436  while (uint256(hash) >> (256 - difficulty) != 0) {... */\n      tag_20\n      jumpi\n        /* \"\\xe5\\xae\\x9e\\xe8\\xb7\\xb5POW/index.sol\":360:367  nonce++ */\n      dup2\n      dup1\n      tag_23\n      swap1\n      tag_24\n      jump\t// in\n    tag_23:\n      swap3\n      pop\n      pop\n        /* \"\\xe5\\xae\\x9e\\xe8\\xb7\\xb5POW/index.sol\":388:425  sha256(abi.encodePacked(data, nonce)) */\n      0x02\n        /* \"\\xe5\\xae\\x9e\\xe8\\xb7\\xb5POW/index.sol\":412:416  data */\n      dup5\n        /* \"\\xe5\\xae\\x9e\\xe8\\xb7\\xb5POW/index.sol\":418:423  nonce */\n      dup4\n        /* \"\\xe5\\xae\\x9e\\xe8\\xb7\\xb5POW/index.sol\":395:424  abi.encodePacked(data, nonce) */\n      add(0x20, mload(0x40))\n      tag_25\n      swap3\n      swap2\n      swap1\n      tag_12\n      jump\t// in\n    tag_25:\n      mload(0x40)\n      0x20\n      dup2\n      dup4\n      sub\n      sub\n      dup2\n      mstore\n      swap1\n      0x40\n      mstore\n        /* \"\\xe5\\xae\\x9e\\xe8\\xb7\\xb5POW/index.sol\":388:425  sha256(abi.encodePacked(data, nonce)) */\n      mload(0x40)\n      tag_26\n      swap2\n      swap1\n      tag_14\n      jump\t// in\n    tag_26:\n      0x20\n      mload(0x40)\n      dup1\n      dup4\n      sub\n      dup2\n      dup6\n      gas\n      staticcall\n      iszero\n      dup1\n      iszero\n      tag_28\n      jumpi\n      returndatasize\n      0x00\n      dup1\n      returndatacopy\n      revert(0x00, returndatasize)\n    tag_28:\n      pop\n      pop\n      pop\n      mload(0x40)\n      returndatasize\n      not(0x1f)\n      0x1f\n      dup3\n      add\n      and\n      dup3\n      add\n      dup1\n      0x40\n      mstore\n      pop\n      dup2\n      add\n      swap1\n      tag_29\n      swap2\n      swap1\n      tag_18\n      jump\t// in\n    tag_29:\n        /* \"\\xe5\\xae\\x9e\\xe8\\xb7\\xb5POW/index.sol\":381:425  hash = sha256(abi.encodePacked(data, nonce)) */\n      swap1\n      pop\n        /* \"\\xe5\\xae\\x9e\\xe8\\xb7\\xb5POW/index.sol\":297:436  while (uint256(hash) >> (256 - difficulty) != 0) {... */\n      jump(tag_19)\n    tag_20:\n        /* \"\\xe5\\xae\\x9e\\xe8\\xb7\\xb5POW/index.sol\":111:472  function pow(string memory data, uint256 difficulty) public pure returns (uint256 nonce, bytes32 hash) {... */\n      swap3\n      pop\n      swap3\n      swap1\n      pop\n      jump\t// out\n        /* \"#utility.yul\":7:82   */\n    tag_30:\n        /* \"#utility.yul\":40:46   */\n      0x00\n        /* \"#utility.yul\":73:75   */\n      0x40\n        /* \"#utility.yul\":67:76   */\n      mload\n        /* \"#utility.yul\":57:76   */\n      swap1\n      pop\n        /* \"#utility.yul\":7:82   */\n      swap1\n      jump\t// out\n        /* \"#utility.yul\":88:205   */\n    tag_31:\n        /* \"#utility.yul\":197:198   */\n      0x00\n        /* \"#utility.yul\":194:195   */\n      dup1\n        /* \"#utility.yul\":187:199   */\n      revert\n        /* \"#utility.yul\":211:328   */\n    tag_32:\n        /* \"#utility.yul\":320:321   */\n      0x00\n        /* \"#utility.yul\":317:318   */\n      dup1\n        /* \"#utility.yul\":310:322   */\n      revert\n        /* \"#utility.yul\":334:451   */\n    tag_33:\n        /* \"#utility.yul\":443:444   */\n      0x00\n        /* \"#utility.yul\":440:441   */\n      dup1\n        /* \"#utility.yul\":433:445   */\n      revert\n        /* \"#utility.yul\":457:574   */\n    tag_34:\n        /* \"#utility.yul\":566:567   */\n      0x00\n        /* \"#utility.yul\":563:564   */\n      dup1\n        /* \"#utility.yul\":556:568   */\n      revert\n        /* \"#utility.yul\":580:682   */\n    tag_35:\n        /* \"#utility.yul\":621:627   */\n      0x00\n        /* \"#utility.yul\":672:674   */\n      0x1f\n        /* \"#utility.yul\":668:675   */\n      not\n        /* \"#utility.yul\":663:665   */\n      0x1f\n        /* \"#utility.yul\":656:661   */\n      dup4\n        /* \"#utility.yul\":652:666   */\n      add\n        /* \"#utility.yul\":648:676   */\n      and\n        /* \"#utility.yul\":638:676   */\n      swap1\n      pop\n        /* \"#utility.yul\":580:682   */\n      swap2\n      swap1\n      pop\n      jump\t// out\n        /* \"#utility.yul\":688:868   */\n    tag_36:\n        /* \"#utility.yul\":736:813   */\n      0x4e487b7100000000000000000000000000000000000000000000000000000000\n        /* \"#utility.yul\":733:734   */\n      0x00\n        /* \"#utility.yul\":726:814   */\n      mstore\n        /* \"#utility.yul\":833:837   */\n      0x41\n        /* \"#utility.yul\":830:831   */\n      0x04\n        /* \"#utility.yul\":823:838   */\n      mstore\n        /* \"#utility.yul\":857:861   */\n      0x24\n        /* \"#utility.yul\":854:855   */\n      0x00\n        /* \"#utility.yul\":847:862   */\n      revert\n        /* \"#utility.yul\":874:1155   */\n    tag_37:\n        /* \"#utility.yul\":957:984   */\n      tag_70\n        /* \"#utility.yul\":979:983   */\n      dup3\n        /* \"#utility.yul\":957:984   */\n      tag_35\n      jump\t// in\n    tag_70:\n        /* \"#utility.yul\":949:955   */\n      dup2\n        /* \"#utility.yul\":945:985   */\n      add\n        /* \"#utility.yul\":1087:1093   */\n      dup2\n        /* \"#utility.yul\":1075:1085   */\n      dup2\n        /* \"#utility.yul\":1072:1094   */\n      lt\n        /* \"#utility.yul\":1051:1069   */\n      0xffffffffffffffff\n        /* \"#utility.yul\":1039:1049   */\n      dup3\n        /* \"#utility.yul\":1036:1070   */\n      gt\n        /* \"#utility.yul\":1033:1095   */\n      or\n        /* \"#utility.yul\":1030:1118   */\n      iszero\n      tag_71\n      jumpi\n        /* \"#utility.yul\":1098:1116   */\n      tag_72\n      tag_36\n      jump\t// in\n    tag_72:\n        /* \"#utility.yul\":1030:1118   */\n    tag_71:\n        /* \"#utility.yul\":1138:1148   */\n      dup1\n        /* \"#utility.yul\":1134:1136   */\n      0x40\n        /* \"#utility.yul\":1127:1149   */\n      mstore\n        /* \"#utility.yul\":917:1155   */\n      pop\n        /* \"#utility.yul\":874:1155   */\n      pop\n      pop\n      jump\t// out\n        /* \"#utility.yul\":1161:1290   */\n    tag_38:\n        /* \"#utility.yul\":1195:1201   */\n      0x00\n        /* \"#utility.yul\":1222:1242   */\n      tag_74\n      tag_30\n      jump\t// in\n    tag_74:\n        /* \"#utility.yul\":1212:1242   */\n      swap1\n      pop\n        /* \"#utility.yul\":1251:1284   */\n      tag_75\n        /* \"#utility.yul\":1279:1283   */\n      dup3\n        /* \"#utility.yul\":1271:1277   */\n      dup3\n        /* \"#utility.yul\":1251:1284   */\n      tag_37\n      jump\t// in\n    tag_75:\n        /* \"#utility.yul\":1161:1290   */\n      swap2\n      swap1\n      pop\n      jump\t// out\n        /* \"#utility.yul\":1296:1604   */\n    tag_39:\n        /* \"#utility.yul\":1358:1362   */\n      0x00\n        /* \"#utility.yul\":1448:1466   */\n      0xffffffffffffffff\n        /* \"#utility.yul\":1440:1446   */\n      dup3\n        /* \"#utility.yul\":1437:1467   */\n      gt\n        /* \"#utility.yul\":1434:1490   */\n      iszero\n      tag_77\n      jumpi\n        /* \"#utility.yul\":1470:1488   */\n      tag_78\n      tag_36\n      jump\t// in\n    tag_78:\n        /* \"#utility.yul\":1434:1490   */\n    tag_77:\n        /* \"#utility.yul\":1508:1537   */\n      tag_79\n        /* \"#utility.yul\":1530:1536   */\n      dup3\n        /* \"#utility.yul\":1508:1537   */\n      tag_35\n      jump\t// in\n    tag_79:\n        /* \"#utility.yul\":1500:1537   */\n      swap1\n      pop\n        /* \"#utility.yul\":1592:1596   */\n      0x20\n        /* \"#utility.yul\":1586:1590   */\n      dup2\n        /* \"#utility.yul\":1582:1597   */\n      add\n        /* \"#utility.yul\":1574:1597   */\n      swap1\n      pop\n        /* \"#utility.yul\":1296:1604   */\n      swap2\n      swap1\n      pop\n      jump\t// out\n        /* \"#utility.yul\":1610:1758   */\n    tag_40:\n        /* \"#utility.yul\":1708:1714   */\n      dup3\n        /* \"#utility.yul\":1703:1706   */\n      dup2\n        /* \"#utility.yul\":1698:1701   */\n      dup4\n        /* \"#utility.yul\":1685:1715   */\n      calldatacopy\n        /* \"#utility.yul\":1749:1750   */\n      0x00\n        /* \"#utility.yul\":1740:1746   */\n      dup4\n        /* \"#utility.yul\":1735:1738   */\n      dup4\n        /* \"#utility.yul\":1731:1747   */\n      add\n        /* \"#utility.yul\":1724:1751   */\n      mstore\n        /* \"#utility.yul\":1610:1758   */\n      pop\n      pop\n      pop\n      jump\t// out\n        /* \"#utility.yul\":1764:2189   */\n    tag_41:\n        /* \"#utility.yul\":1842:1847   */\n      0x00\n        /* \"#utility.yul\":1867:1933   */\n      tag_82\n        /* \"#utility.yul\":1883:1932   */\n      tag_83\n        /* \"#utility.yul\":1925:1931   */\n      dup5\n        /* \"#utility.yul\":1883:1932   */\n      tag_39\n      jump\t// in\n    tag_83:\n        /* \"#utility.yul\":1867:1933   */\n      tag_38\n      jump\t// in\n    tag_82:\n        /* \"#utility.yul\":1858:1933   */\n      swap1\n      pop\n        /* \"#utility.yul\":1956:1962   */\n      dup3\n        /* \"#utility.yul\":1949:1954   */\n      dup2\n        /* \"#utility.yul\":1942:1963   */\n      mstore\n        /* \"#utility.yul\":1994:1998   */\n      0x20\n        /* \"#utility.yul\":1987:1992   */\n      dup2\n        /* \"#utility.yul\":1983:1999   */\n      add\n        /* \"#utility.yul\":2032:2035   */\n      dup5\n        /* \"#utility.yul\":2023:2029   */\n      dup5\n        /* \"#utility.yul\":2018:2021   */\n      dup5\n        /* \"#utility.yul\":2014:2030   */\n      add\n        /* \"#utility.yul\":2011:2036   */\n      gt\n        /* \"#utility.yul\":2008:2120   */\n      iszero\n      tag_84\n      jumpi\n        /* \"#utility.yul\":2039:2118   */\n      tag_85\n      tag_34\n      jump\t// in\n    tag_85:\n        /* \"#utility.yul\":2008:2120   */\n    tag_84:\n        /* \"#utility.yul\":2129:2183   */\n      tag_86\n        /* \"#utility.yul\":2176:2182   */\n      dup5\n        /* \"#utility.yul\":2171:2174   */\n      dup3\n        /* \"#utility.yul\":2166:2169   */\n      dup6\n        /* \"#utility.yul\":2129:2183   */\n      tag_40\n      jump\t// in\n    tag_86:\n        /* \"#utility.yul\":1848:2189   */\n      pop\n        /* \"#utility.yul\":1764:2189   */\n      swap4\n      swap3\n      pop\n      pop\n      pop\n      jump\t// out\n        /* \"#utility.yul\":2209:2549   */\n    tag_42:\n        /* \"#utility.yul\":2265:2270   */\n      0x00\n        /* \"#utility.yul\":2314:2317   */\n      dup3\n        /* \"#utility.yul\":2307:2311   */\n      0x1f\n        /* \"#utility.yul\":2299:2305   */\n      dup4\n        /* \"#utility.yul\":2295:2312   */\n      add\n        /* \"#utility.yul\":2291:2318   */\n      slt\n        /* \"#utility.yul\":2281:2403   */\n      tag_88\n      jumpi\n        /* \"#utility.yul\":2322:2401   */\n      tag_89\n      tag_33\n      jump\t// in\n    tag_89:\n        /* \"#utility.yul\":2281:2403   */\n    tag_88:\n        /* \"#utility.yul\":2439:2445   */\n      dup2\n        /* \"#utility.yul\":2426:2446   */\n      calldataload\n        /* \"#utility.yul\":2464:2543   */\n      tag_90\n        /* \"#utility.yul\":2539:2542   */\n      dup5\n        /* \"#utility.yul\":2531:2537   */\n      dup3\n        /* \"#utility.yul\":2524:2528   */\n      0x20\n        /* \"#utility.yul\":2516:2522   */\n      dup7\n        /* \"#utility.yul\":2512:2529   */\n      add\n        /* \"#utility.yul\":2464:2543   */\n      tag_41\n      jump\t// in\n    tag_90:\n        /* \"#utility.yul\":2455:2543   */\n      swap2\n      pop\n        /* \"#utility.yul\":2271:2549   */\n      pop\n        /* \"#utility.yul\":2209:2549   */\n      swap3\n      swap2\n      pop\n      pop\n      jump\t// out\n        /* \"#utility.yul\":2555:2632   */\n    tag_43:\n        /* \"#utility.yul\":2592:2599   */\n      0x00\n        /* \"#utility.yul\":2621:2626   */\n      dup2\n        /* \"#utility.yul\":2610:2626   */\n      swap1\n      pop\n        /* \"#utility.yul\":2555:2632   */\n      swap2\n      swap1\n      pop\n      jump\t// out\n        /* \"#utility.yul\":2638:2760   */\n    tag_44:\n        /* \"#utility.yul\":2711:2735   */\n      tag_93\n        /* \"#utility.yul\":2729:2734   */\n      dup2\n        /* \"#utility.yul\":2711:2735   */\n      tag_43\n      jump\t// in\n    tag_93:\n        /* \"#utility.yul\":2704:2709   */\n      dup2\n        /* \"#utility.yul\":2701:2736   */\n      eq\n        /* \"#utility.yul\":2691:2754   */\n      tag_94\n      jumpi\n        /* \"#utility.yul\":2750:2751   */\n      0x00\n        /* \"#utility.yul\":2747:2748   */\n      dup1\n        /* \"#utility.yul\":2740:2752   */\n      revert\n        /* \"#utility.yul\":2691:2754   */\n    tag_94:\n        /* \"#utility.yul\":2638:2760   */\n      pop\n      jump\t// out\n        /* \"#utility.yul\":2766:2905   */\n    tag_45:\n        /* \"#utility.yul\":2812:2817   */\n      0x00\n        /* \"#utility.yul\":2850:2856   */\n      dup2\n        /* \"#utility.yul\":2837:2857   */\n      calldataload\n        /* \"#utility.yul\":2828:2857   */\n      swap1\n      pop\n        /* \"#utility.yul\":2866:2899   */\n      tag_96\n        /* \"#utility.yul\":2893:2898   */\n      dup2\n        /* \"#utility.yul\":2866:2899   */\n      tag_44\n      jump\t// in\n    tag_96:\n        /* \"#utility.yul\":2766:2905   */\n      swap3\n      swap2\n      pop\n      pop\n      jump\t// out\n        /* \"#utility.yul\":2911:3565   */\n    tag_6:\n        /* \"#utility.yul\":2989:2995   */\n      0x00\n        /* \"#utility.yul\":2997:3003   */\n      dup1\n        /* \"#utility.yul\":3046:3048   */\n      0x40\n        /* \"#utility.yul\":3034:3043   */\n      dup4\n        /* \"#utility.yul\":3025:3032   */\n      dup6\n        /* \"#utility.yul\":3021:3044   */\n      sub\n        /* \"#utility.yul\":3017:3049   */\n      slt\n        /* \"#utility.yul\":3014:3133   */\n      iszero\n      tag_98\n      jumpi\n        /* \"#utility.yul\":3052:3131   */\n      tag_99\n      tag_31\n      jump\t// in\n    tag_99:\n        /* \"#utility.yul\":3014:3133   */\n    tag_98:\n        /* \"#utility.yul\":3200:3201   */\n      0x00\n        /* \"#utility.yul\":3189:3198   */\n      dup4\n        /* \"#utility.yul\":3185:3202   */\n      add\n        /* \"#utility.yul\":3172:3203   */\n      calldataload\n        /* \"#utility.yul\":3230:3248   */\n      0xffffffffffffffff\n        /* \"#utility.yul\":3222:3228   */\n      dup2\n        /* \"#utility.yul\":3219:3249   */\n      gt\n        /* \"#utility.yul\":3216:3333   */\n      iszero\n      tag_100\n      jumpi\n        /* \"#utility.yul\":3252:3331   */\n      tag_101\n      tag_32\n      jump\t// in\n    tag_101:\n        /* \"#utility.yul\":3216:3333   */\n    tag_100:\n        /* \"#utility.yul\":3357:3420   */\n      tag_102\n        /* \"#utility.yul\":3412:3419   */\n      dup6\n        /* \"#utility.yul\":3403:3409   */\n      dup3\n        /* \"#utility.yul\":3392:3401   */\n      dup7\n        /* \"#utility.yul\":3388:3410   */\n      add\n        /* \"#utility.yul\":3357:3420   */\n      tag_42\n      jump\t// in\n    tag_102:\n        /* \"#utility.yul\":3347:3420   */\n      swap3\n      pop\n        /* \"#utility.yul\":3143:3430   */\n      pop\n        /* \"#utility.yul\":3469:3471   */\n      0x20\n        /* \"#utility.yul\":3495:3548   */\n      tag_103\n        /* \"#utility.yul\":3540:3547   */\n      dup6\n        /* \"#utility.yul\":3531:3537   */\n      dup3\n        /* \"#utility.yul\":3520:3529   */\n      dup7\n        /* \"#utility.yul\":3516:3538   */\n      add\n        /* \"#utility.yul\":3495:3548   */\n      tag_45\n      jump\t// in\n    tag_103:\n        /* \"#utility.yul\":3485:3548   */\n      swap2\n      pop\n        /* \"#utility.yul\":3440:3558   */\n      pop\n        /* \"#utility.yul\":2911:3565   */\n      swap3\n      pop\n      swap3\n      swap1\n      pop\n      jump\t// out\n        /* \"#utility.yul\":3571:3689   */\n    tag_46:\n        /* \"#utility.yul\":3658:3682   */\n      tag_105\n        /* \"#utility.yul\":3676:3681   */\n      dup2\n        /* \"#utility.yul\":3658:3682   */\n      tag_43\n      jump\t// in\n    tag_105:\n        /* \"#utility.yul\":3653:3656   */\n      dup3\n        /* \"#utility.yul\":3646:3683   */\n      mstore\n        /* \"#utility.yul\":3571:3689   */\n      pop\n      pop\n      jump\t// out\n        /* \"#utility.yul\":3695:3772   */\n    tag_47:\n        /* \"#utility.yul\":3732:3739   */\n      0x00\n        /* \"#utility.yul\":3761:3766   */\n      dup2\n        /* \"#utility.yul\":3750:3766   */\n      swap1\n      pop\n        /* \"#utility.yul\":3695:3772   */\n      swap2\n      swap1\n      pop\n      jump\t// out\n        /* \"#utility.yul\":3778:3896   */\n    tag_48:\n        /* \"#utility.yul\":3865:3889   */\n      tag_108\n        /* \"#utility.yul\":3883:3888   */\n      dup2\n        /* \"#utility.yul\":3865:3889   */\n      tag_47\n      jump\t// in\n    tag_108:\n        /* \"#utility.yul\":3860:3863   */\n      dup3\n        /* \"#utility.yul\":3853:3890   */\n      mstore\n        /* \"#utility.yul\":3778:3896   */\n      pop\n      pop\n      jump\t// out\n        /* \"#utility.yul\":3902:4234   */\n    tag_9:\n        /* \"#utility.yul\":4023:4027   */\n      0x00\n        /* \"#utility.yul\":4061:4063   */\n      0x40\n        /* \"#utility.yul\":4050:4059   */\n      dup3\n        /* \"#utility.yul\":4046:4064   */\n      add\n        /* \"#utility.yul\":4038:4064   */\n      swap1\n      pop\n        /* \"#utility.yul\":4074:4145   */\n      tag_110\n        /* \"#utility.yul\":4142:4143   */\n      0x00\n        /* \"#utility.yul\":4131:4140   */\n      dup4\n        /* \"#utility.yul\":4127:4144   */\n      add\n        /* \"#utility.yul\":4118:4124   */\n      dup6\n        /* \"#utility.yul\":4074:4145   */\n      tag_46\n      jump\t// in\n    tag_110:\n        /* \"#utility.yul\":4155:4227   */\n      tag_111\n        /* \"#utility.yul\":4223:4225   */\n      0x20\n        /* \"#utility.yul\":4212:4221   */\n      dup4\n        /* \"#utility.yul\":4208:4226   */\n      add\n        /* \"#utility.yul\":4199:4205   */\n      dup5\n        /* \"#utility.yul\":4155:4227   */\n      tag_48\n      jump\t// in\n    tag_111:\n        /* \"#utility.yul\":3902:4234   */\n      swap4\n      swap3\n      pop\n      pop\n      pop\n      jump\t// out\n        /* \"#utility.yul\":4240:4339   */\n    tag_49:\n        /* \"#utility.yul\":4292:4298   */\n      0x00\n        /* \"#utility.yul\":4326:4331   */\n      dup2\n        /* \"#utility.yul\":4320:4332   */\n      mload\n        /* \"#utility.yul\":4310:4332   */\n      swap1\n      pop\n        /* \"#utility.yul\":4240:4339   */\n      swap2\n      swap1\n      pop\n      jump\t// out\n        /* \"#utility.yul\":4345:4493   */\n    tag_50:\n        /* \"#utility.yul\":4447:4458   */\n      0x00\n        /* \"#utility.yul\":4484:4487   */\n      dup2\n        /* \"#utility.yul\":4469:4487   */\n      swap1\n      pop\n        /* \"#utility.yul\":4345:4493   */\n      swap3\n      swap2\n      pop\n      pop\n      jump\t// out\n        /* \"#utility.yul\":4499:4638   */\n    tag_51:\n        /* \"#utility.yul\":4588:4594   */\n      dup3\n        /* \"#utility.yul\":4583:4586   */\n      dup2\n        /* \"#utility.yul\":4578:4581   */\n      dup4\n        /* \"#utility.yul\":4572:4595   */\n      mcopy\n        /* \"#utility.yul\":4629:4630   */\n      0x00\n        /* \"#utility.yul\":4620:4626   */\n      dup4\n        /* \"#utility.yul\":4615:4618   */\n      dup4\n        /* \"#utility.yul\":4611:4627   */\n      add\n        /* \"#utility.yul\":4604:4631   */\n      mstore\n        /* \"#utility.yul\":4499:4638   */\n      pop\n      pop\n      pop\n      jump\t// out\n        /* \"#utility.yul\":4644:5034   */\n    tag_52:\n        /* \"#utility.yul\":4750:4753   */\n      0x00\n        /* \"#utility.yul\":4778:4817   */\n      tag_116\n        /* \"#utility.yul\":4811:4816   */\n      dup3\n        /* \"#utility.yul\":4778:4817   */\n      tag_49\n      jump\t// in\n    tag_116:\n        /* \"#utility.yul\":4833:4922   */\n      tag_117\n        /* \"#utility.yul\":4915:4921   */\n      dup2\n        /* \"#utility.yul\":4910:4913   */\n      dup6\n        /* \"#utility.yul\":4833:4922   */\n      tag_50\n      jump\t// in\n    tag_117:\n        /* \"#utility.yul\":4826:4922   */\n      swap4\n      pop\n        /* \"#utility.yul\":4931:4996   */\n      tag_118\n        /* \"#utility.yul\":4989:4995   */\n      dup2\n        /* \"#utility.yul\":4984:4987   */\n      dup6\n        /* \"#utility.yul\":4977:4981   */\n      0x20\n        /* \"#utility.yul\":4970:4975   */\n      dup7\n        /* \"#utility.yul\":4966:4982   */\n      add\n        /* \"#utility.yul\":4931:4996   */\n      tag_51\n      jump\t// in\n    tag_118:\n        /* \"#utility.yul\":5021:5027   */\n      dup1\n        /* \"#utility.yul\":5016:5019   */\n      dup5\n        /* \"#utility.yul\":5012:5028   */\n      add\n        /* \"#utility.yul\":5005:5028   */\n      swap2\n      pop\n        /* \"#utility.yul\":4754:5034   */\n      pop\n        /* \"#utility.yul\":4644:5034   */\n      swap3\n      swap2\n      pop\n      pop\n      jump\t// out\n        /* \"#utility.yul\":5040:5119   */\n    tag_53:\n        /* \"#utility.yul\":5079:5086   */\n      0x00\n        /* \"#utility.yul\":5108:5113   */\n      dup2\n        /* \"#utility.yul\":5097:5113   */\n      swap1\n      pop\n        /* \"#utility.yul\":5040:5119   */\n      swap2\n      swap1\n      pop\n      jump\t// out\n        /* \"#utility.yul\":5125:5282   */\n    tag_54:\n        /* \"#utility.yul\":5230:5275   */\n      tag_121\n        /* \"#utility.yul\":5250:5274   */\n      tag_122\n        /* \"#utility.yul\":5268:5273   */\n      dup3\n        /* \"#utility.yul\":5250:5274   */\n      tag_43\n      jump\t// in\n    tag_122:\n        /* \"#utility.yul\":5230:5275   */\n      tag_53\n      jump\t// in\n    tag_121:\n        /* \"#utility.yul\":5225:5228   */\n      dup3\n        /* \"#utility.yul\":5218:5276   */\n      mstore\n        /* \"#utility.yul\":5125:5282   */\n      pop\n      pop\n      jump\t// out\n        /* \"#utility.yul\":5288:5704   */\n    tag_12:\n        /* \"#utility.yul\":5448:5451   */\n      0x00\n        /* \"#utility.yul\":5470:5565   */\n      tag_124\n        /* \"#utility.yul\":5561:5564   */\n      dup3\n        /* \"#utility.yul\":5552:5558   */\n      dup6\n        /* \"#utility.yul\":5470:5565   */\n      tag_52\n      jump\t// in\n    tag_124:\n        /* \"#utility.yul\":5463:5565   */\n      swap2\n      pop\n        /* \"#utility.yul\":5575:5650   */\n      tag_125\n        /* \"#utility.yul\":5646:5649   */\n      dup3\n        /* \"#utility.yul\":5637:5643   */\n      dup5\n        /* \"#utility.yul\":5575:5650   */\n      tag_54\n      jump\t// in\n    tag_125:\n        /* \"#utility.yul\":5675:5677   */\n      0x20\n        /* \"#utility.yul\":5670:5673   */\n      dup3\n        /* \"#utility.yul\":5666:5678   */\n      add\n        /* \"#utility.yul\":5659:5678   */\n      swap2\n      pop\n        /* \"#utility.yul\":5695:5698   */\n      dup2\n        /* \"#utility.yul\":5688:5698   */\n      swap1\n      pop\n        /* \"#utility.yul\":5288:5704   */\n      swap4\n      swap3\n      pop\n      pop\n      pop\n      jump\t// out\n        /* \"#utility.yul\":5710:5808   */\n    tag_55:\n        /* \"#utility.yul\":5761:5767   */\n      0x00\n        /* \"#utility.yul\":5795:5800   */\n      dup2\n        /* \"#utility.yul\":5789:5801   */\n      mload\n        /* \"#utility.yul\":5779:5801   */\n      swap1\n      pop\n        /* \"#utility.yul\":5710:5808   */\n      swap2\n      swap1\n      pop\n      jump\t// out\n        /* \"#utility.yul\":5814:5961   */\n    tag_56:\n        /* \"#utility.yul\":5915:5926   */\n      0x00\n        /* \"#utility.yul\":5952:5955   */\n      dup2\n        /* \"#utility.yul\":5937:5955   */\n      swap1\n      pop\n        /* \"#utility.yul\":5814:5961   */\n      swap3\n      swap2\n      pop\n      pop\n      jump\t// out\n        /* \"#utility.yul\":5967:6353   */\n    tag_57:\n        /* \"#utility.yul\":6071:6074   */\n      0x00\n        /* \"#utility.yul\":6099:6137   */\n      tag_129\n        /* \"#utility.yul\":6131:6136   */\n      dup3\n        /* \"#utility.yul\":6099:6137   */\n      tag_55\n      jump\t// in\n    tag_129:\n        /* \"#utility.yul\":6153:6241   */\n      tag_130\n        /* \"#utility.yul\":6234:6240   */\n      dup2\n        /* \"#utility.yul\":6229:6232   */\n      dup6\n        /* \"#utility.yul\":6153:6241   */\n      tag_56\n      jump\t// in\n    tag_130:\n        /* \"#utility.yul\":6146:6241   */\n      swap4\n      pop\n        /* \"#utility.yul\":6250:6315   */\n      tag_131\n        /* \"#utility.yul\":6308:6314   */\n      dup2\n        /* \"#utility.yul\":6303:6306   */\n      dup6\n        /* \"#utility.yul\":6296:6300   */\n      0x20\n        /* \"#utility.yul\":6289:6294   */\n      dup7\n        /* \"#utility.yul\":6285:6301   */\n      add\n        /* \"#utility.yul\":6250:6315   */\n      tag_51\n      jump\t// in\n    tag_131:\n        /* \"#utility.yul\":6340:6346   */\n      dup1\n        /* \"#utility.yul\":6335:6338   */\n      dup5\n        /* \"#utility.yul\":6331:6347   */\n      add\n        /* \"#utility.yul\":6324:6347   */\n      swap2\n      pop\n        /* \"#utility.yul\":6075:6353   */\n      pop\n        /* \"#utility.yul\":5967:6353   */\n      swap3\n      swap2\n      pop\n      pop\n      jump\t// out\n        /* \"#utility.yul\":6359:6630   */\n    tag_14:\n        /* \"#utility.yul\":6489:6492   */\n      0x00\n        /* \"#utility.yul\":6511:6604   */\n      tag_133\n        /* \"#utility.yul\":6600:6603   */\n      dup3\n        /* \"#utility.yul\":6591:6597   */\n      dup5\n        /* \"#utility.yul\":6511:6604   */\n      tag_57\n      jump\t// in\n    tag_133:\n        /* \"#utility.yul\":6504:6604   */\n      swap2\n      pop\n        /* \"#utility.yul\":6621:6624   */\n      dup2\n        /* \"#utility.yul\":6614:6624   */\n      swap1\n      pop\n        /* \"#utility.yul\":6359:6630   */\n      swap3\n      swap2\n      pop\n      pop\n      jump\t// out\n        /* \"#utility.yul\":6636:6758   */\n    tag_58:\n        /* \"#utility.yul\":6709:6733   */\n      tag_135\n        /* \"#utility.yul\":6727:6732   */\n      dup2\n        /* \"#utility.yul\":6709:6733   */\n      tag_47\n      jump\t// in\n    tag_135:\n        /* \"#utility.yul\":6702:6707   */\n      dup2\n        /* \"#utility.yul\":6699:6734   */\n      eq\n        /* \"#utility.yul\":6689:6752   */\n      tag_136\n      jumpi\n        /* \"#utility.yul\":6748:6749   */\n      0x00\n        /* \"#utility.yul\":6745:6746   */\n      dup1\n        /* \"#utility.yul\":6738:6750   */\n      revert\n        /* \"#utility.yul\":6689:6752   */\n    tag_136:\n        /* \"#utility.yul\":6636:6758   */\n      pop\n      jump\t// out\n        /* \"#utility.yul\":6764:6907   */\n    tag_59:\n        /* \"#utility.yul\":6821:6826   */\n      0x00\n        /* \"#utility.yul\":6852:6858   */\n      dup2\n        /* \"#utility.yul\":6846:6859   */\n      mload\n        /* \"#utility.yul\":6837:6859   */\n      swap1\n      pop\n        /* \"#utility.yul\":6868:6901   */\n      tag_138\n        /* \"#utility.yul\":6895:6900   */\n      dup2\n        /* \"#utility.yul\":6868:6901   */\n      tag_58\n      jump\t// in\n    tag_138:\n        /* \"#utility.yul\":6764:6907   */\n      swap3\n      swap2\n      pop\n      pop\n      jump\t// out\n        /* \"#utility.yul\":6913:7264   */\n    tag_18:\n        /* \"#utility.yul\":6983:6989   */\n      0x00\n        /* \"#utility.yul\":7032:7034   */\n      0x20\n        /* \"#utility.yul\":7020:7029   */\n      dup3\n        /* \"#utility.yul\":7011:7018   */\n      dup5\n        /* \"#utility.yul\":7007:7030   */\n      sub\n        /* \"#utility.yul\":7003:7035   */\n      slt\n        /* \"#utility.yul\":7000:7119   */\n      iszero\n      tag_140\n      jumpi\n        /* \"#utility.yul\":7038:7117   */\n      tag_141\n      tag_31\n      jump\t// in\n    tag_141:\n        /* \"#utility.yul\":7000:7119   */\n    tag_140:\n        /* \"#utility.yul\":7158:7159   */\n      0x00\n        /* \"#utility.yul\":7183:7247   */\n      tag_142\n        /* \"#utility.yul\":7239:7246   */\n      dup5\n        /* \"#utility.yul\":7230:7236   */\n      dup3\n        /* \"#utility.yul\":7219:7228   */\n      dup6\n        /* \"#utility.yul\":7215:7237   */\n      add\n        /* \"#utility.yul\":7183:7247   */\n      tag_59\n      jump\t// in\n    tag_142:\n        /* \"#utility.yul\":7173:7247   */\n      swap2\n      pop\n        /* \"#utility.yul\":7129:7257   */\n      pop\n        /* \"#utility.yul\":6913:7264   */\n      swap3\n      swap2\n      pop\n      pop\n      jump\t// out\n        /* \"#utility.yul\":7270:7450   */\n    tag_60:\n        /* \"#utility.yul\":7318:7395   */\n      0x4e487b7100000000000000000000000000000000000000000000000000000000\n        /* \"#utility.yul\":7315:7316   */\n      0x00\n        /* \"#utility.yul\":7308:7396   */\n      mstore\n        /* \"#utility.yul\":7415:7419   */\n      0x11\n        /* \"#utility.yul\":7412:7413   */\n      0x04\n        /* \"#utility.yul\":7405:7420   */\n      mstore\n        /* \"#utility.yul\":7439:7443   */\n      0x24\n        /* \"#utility.yul\":7436:7437   */\n      0x00\n        /* \"#utility.yul\":7429:7444   */\n      revert\n        /* \"#utility.yul\":7456:7650   */\n    tag_22:\n        /* \"#utility.yul\":7496:7500   */\n      0x00\n        /* \"#utility.yul\":7516:7536   */\n      tag_145\n        /* \"#utility.yul\":7534:7535   */\n      dup3\n        /* \"#utility.yul\":7516:7536   */\n      tag_43\n      jump\t// in\n    tag_145:\n        /* \"#utility.yul\":7511:7536   */\n      swap2\n      pop\n        /* \"#utility.yul\":7550:7570   */\n      tag_146\n        /* \"#utility.yul\":7568:7569   */\n      dup4\n        /* \"#utility.yul\":7550:7570   */\n      tag_43\n      jump\t// in\n    tag_146:\n        /* \"#utility.yul\":7545:7570   */\n      swap3\n      pop\n        /* \"#utility.yul\":7594:7595   */\n      dup3\n        /* \"#utility.yul\":7591:7592   */\n      dup3\n        /* \"#utility.yul\":7587:7596   */\n      sub\n        /* \"#utility.yul\":7579:7596   */\n      swap1\n      pop\n        /* \"#utility.yul\":7618:7619   */\n      dup2\n        /* \"#utility.yul\":7612:7616   */\n      dup2\n        /* \"#utility.yul\":7609:7620   */\n      gt\n        /* \"#utility.yul\":7606:7643   */\n      iszero\n      tag_147\n      jumpi\n        /* \"#utility.yul\":7623:7641   */\n      tag_148\n      tag_60\n      jump\t// in\n    tag_148:\n        /* \"#utility.yul\":7606:7643   */\n    tag_147:\n        /* \"#utility.yul\":7456:7650   */\n      swap3\n      swap2\n      pop\n      pop\n      jump\t// out\n        /* \"#utility.yul\":7656:7889   */\n    tag_24:\n        /* \"#utility.yul\":7695:7698   */\n      0x00\n        /* \"#utility.yul\":7718:7742   */\n      tag_150\n        /* \"#utility.yul\":7736:7741   */\n      dup3\n        /* \"#utility.yul\":7718:7742   */\n      tag_43\n      jump\t// in\n    tag_150:\n        /* \"#utility.yul\":7709:7742   */\n      swap2\n      pop\n        /* \"#utility.yul\":7764:7830   */\n      0xffffffffffffffffffffffffffffffffffffffffffffffffffffffffffffffff\n        /* \"#utility.yul\":7757:7762   */\n      dup3\n        /* \"#utility.yul\":7754:7831   */\n      sub\n        /* \"#utility.yul\":7751:7854   */\n      tag_151\n      jumpi\n        /* \"#utility.yul\":7834:7852   */\n      tag_152\n      tag_60\n      jump\t// in\n    tag_152:\n        /* \"#utility.yul\":7751:7854   */\n    tag_151:\n        /* \"#utility.yul\":7881:7882   */\n      0x01\n        /* \"#utility.yul\":7874:7879   */\n      dup3\n        /* \"#utility.yul\":7870:7883   */\n      add\n        /* \"#utility.yul\":7863:7883   */\n      swap1\n      pop\n        /* \"#utility.yul\":7656:7889   */\n      swap2\n      swap1\n      pop\n      jump\t// out\n\n    auxdata: 0xa26469706673582212208bc3cf42b683ba1967bf2bd45aa93fe50670d027c2cbf29c67cfb5ba22e594ff64736f6c634300081a0033\n}\n",
				"bytecode": {
					"linkReferences": {},
					"object": "6080604052348015600e575f80fd5b506105c68061001c5f395ff3fe608060405234801561000f575f80fd5b5060043610610029575f3560e01c80637e1bf9e41461002d575b5f80fd5b610047600480360381019061004291906102f9565b61005e565b60405161005592919061037a565b60405180910390f35b5f805f915060028483604051602001610078929190610413565b604051602081830303815290604052604051610094919061047e565b602060405180830381855afa1580156100af573d5f803e3d5ffd5b5050506040513d601f19601f820116820180604052508101906100d291906104be565b90505b5f836101006100e49190610516565b825f1c901c146101725781806100f990610549565b92505060028483604051602001610111929190610413565b60405160208183030381529060405260405161012d919061047e565b602060405180830381855afa158015610148573d5f803e3d5ffd5b5050506040513d601f19601f8201168201806040525081019061016b91906104be565b90506100d5565b9250929050565b5f604051905090565b5f80fd5b5f80fd5b5f80fd5b5f80fd5b5f601f19601f8301169050919050565b7f4e487b71000000000000000000000000000000000000000000000000000000005f52604160045260245ffd5b6101d882610192565b810181811067ffffffffffffffff821117156101f7576101f66101a2565b5b80604052505050565b5f610209610179565b905061021582826101cf565b919050565b5f67ffffffffffffffff821115610234576102336101a2565b5b61023d82610192565b9050602081019050919050565b828183375f83830152505050565b5f61026a6102658461021a565b610200565b9050828152602081018484840111156102865761028561018e565b5b61029184828561024a565b509392505050565b5f82601f8301126102ad576102ac61018a565b5b81356102bd848260208601610258565b91505092915050565b5f819050919050565b6102d8816102c6565b81146102e2575f80fd5b50565b5f813590506102f3816102cf565b92915050565b5f806040838503121561030f5761030e610182565b5b5f83013567ffffffffffffffff81111561032c5761032b610186565b5b61033885828601610299565b9250506020610349858286016102e5565b9150509250929050565b61035c816102c6565b82525050565b5f819050919050565b61037481610362565b82525050565b5f60408201905061038d5f830185610353565b61039a602083018461036b565b9392505050565b5f81519050919050565b5f81905092915050565b8281835e5f83830152505050565b5f6103cd826103a1565b6103d781856103ab565b93506103e78185602086016103b5565b80840191505092915050565b5f819050919050565b61040d610408826102c6565b6103f3565b82525050565b5f61041e82856103c3565b915061042a82846103fc565b6020820191508190509392505050565b5f81519050919050565b5f81905092915050565b5f6104588261043a565b6104628185610444565b93506104728185602086016103b5565b80840191505092915050565b5f610489828461044e565b915081905092915050565b61049d81610362565b81146104a7575f80fd5b50565b5f815190506104b881610494565b92915050565b5f602082840312156104d3576104d2610182565b5b5f6104e0848285016104aa565b91505092915050565b7f4e487b71000000000000000000000000000000000000000000000000000000005f52601160045260245ffd5b5f610520826102c6565b915061052b836102c6565b9250828203905081811115610543576105426104e9565b5b92915050565b5f610553826102c6565b91507fffffffffffffffffffffffffffffffffffffffffffffffffffffffffffffffff8203610585576105846104e9565b5b60018201905091905056fea26469706673582212208bc3cf42b683ba1967bf2bd45aa93fe50670d027c2cbf29c67cfb5ba22e594ff64736f6c634300081a0033",
					"opcodes": "PUSH1 0x80 PUSH1 0x40 MSTORE CALLVALUE DUP1 ISZERO PUSH1 0xE JUMPI PUSH0 DUP1 REVERT JUMPDEST POP PUSH2 0x5C6 DUP1 PUSH2 0x1C PUSH0 CODECOPY PUSH0 RETURN INVALID PUSH1 0x80 PUSH1 0x40 MSTORE CALLVALUE DUP1 ISZERO PUSH2 0xF JUMPI PUSH0 DUP1 REVERT JUMPDEST POP PUSH1 0x4 CALLDATASIZE LT PUSH2 0x29 JUMPI PUSH0 CALLDATALOAD PUSH1 0xE0 SHR DUP1 PUSH4 0x7E1BF9E4 EQ PUSH2 0x2D JUMPI JUMPDEST PUSH0 DUP1 REVERT JUMPDEST PUSH2 0x47 PUSH1 0x4 DUP1 CALLDATASIZE SUB DUP2 ADD SWAP1 PUSH2 0x42 SWAP2 SWAP1 PUSH2 0x2F9 JUMP JUMPDEST PUSH2 0x5E JUMP JUMPDEST PUSH1 0x40 MLOAD PUSH2 0x55 SWAP3 SWAP2 SWAP1 PUSH2 0x37A JUMP JUMPDEST PUSH1 0x40 MLOAD DUP1 SWAP2 SUB SWAP1 RETURN JUMPDEST PUSH0 DUP1 PUSH0 SWAP2 POP PUSH1 0x2 DUP5 DUP4 PUSH1 0x40 MLOAD PUSH1 0x20 ADD PUSH2 0x78 SWAP3 SWAP2 SWAP1 PUSH2 0x413 JUMP JUMPDEST PUSH1 0x40 MLOAD PUSH1 0x20 DUP2 DUP4 SUB SUB DUP2 MSTORE SWAP1 PUSH1 0x40 MSTORE PUSH1 0x40 MLOAD PUSH2 0x94 SWAP2 SWAP1 PUSH2 0x47E JUMP JUMPDEST PUSH1 0x20 PUSH1 0x40 MLOAD DUP1 DUP4 SUB DUP2 DUP6 GAS STATICCALL ISZERO DUP1 ISZERO PUSH2 0xAF JUMPI RETURNDATASIZE PUSH0 DUP1 RETURNDATACOPY RETURNDATASIZE PUSH0 REVERT JUMPDEST POP POP POP PUSH1 0x40 MLOAD RETURNDATASIZE PUSH1 0x1F NOT PUSH1 0x1F DUP3 ADD AND DUP3 ADD DUP1 PUSH1 0x40 MSTORE POP DUP2 ADD SWAP1 PUSH2 0xD2 SWAP2 SWAP1 PUSH2 0x4BE JUMP JUMPDEST SWAP1 POP JUMPDEST PUSH0 DUP4 PUSH2 0x100 PUSH2 0xE4 SWAP2 SWAP1 PUSH2 0x516 JUMP JUMPDEST DUP3 PUSH0 SHR SWAP1 SHR EQ PUSH2 0x172 JUMPI DUP2 DUP1 PUSH2 0xF9 SWAP1 PUSH2 0x549 JUMP JUMPDEST SWAP3 POP POP PUSH1 0x2 DUP5 DUP4 PUSH1 0x40 MLOAD PUSH1 0x20 ADD PUSH2 0x111 SWAP3 SWAP2 SWAP1 PUSH2 0x413 JUMP JUMPDEST PUSH1 0x40 MLOAD PUSH1 0x20 DUP2 DUP4 SUB SUB DUP2 MSTORE SWAP1 PUSH1 0x40 MSTORE PUSH1 0x40 MLOAD PUSH2 0x12D SWAP2 SWAP1 PUSH2 0x47E JUMP JUMPDEST PUSH1 0x20 PUSH1 0x40 MLOAD DUP1 DUP4 SUB DUP2 DUP6 GAS STATICCALL ISZERO DUP1 ISZERO PUSH2 0x148 JUMPI RETURNDATASIZE PUSH0 DUP1 RETURNDATACOPY RETURNDATASIZE PUSH0 REVERT JUMPDEST POP POP POP PUSH1 0x40 MLOAD RETURNDATASIZE PUSH1 0x1F NOT PUSH1 0x1F DUP3 ADD AND DUP3 ADD DUP1 PUSH1 0x40 MSTORE POP DUP2 ADD SWAP1 PUSH2 0x16B SWAP2 SWAP1 PUSH2 0x4BE JUMP JUMPDEST SWAP1 POP PUSH2 0xD5 JUMP JUMPDEST SWAP3 POP SWAP3 SWAP1 POP JUMP JUMPDEST PUSH0 PUSH1 0x40 MLOAD SWAP1 POP SWAP1 JUMP JUMPDEST PUSH0 DUP1 REVERT JUMPDEST PUSH0 DUP1 REVERT JUMPDEST PUSH0 DUP1 REVERT JUMPDEST PUSH0 DUP1 REVERT JUMPDEST PUSH0 PUSH1 0x1F NOT PUSH1 0x1F DUP4 ADD AND SWAP1 POP SWAP2 SWAP1 POP JUMP JUMPDEST PUSH32 0x4E487B7100000000000000000000000000000000000000000000000000000000 PUSH0 MSTORE PUSH1 0x41 PUSH1 0x4 MSTORE PUSH1 0x24 PUSH0 REVERT JUMPDEST PUSH2 0x1D8 DUP3 PUSH2 0x192 JUMP JUMPDEST DUP2 ADD DUP2 DUP2 LT PUSH8 0xFFFFFFFFFFFFFFFF DUP3 GT OR ISZERO PUSH2 0x1F7 JUMPI PUSH2 0x1F6 PUSH2 0x1A2 JUMP JUMPDEST JUMPDEST DUP1 PUSH1 0x40 MSTORE POP POP POP JUMP JUMPDEST PUSH0 PUSH2 0x209 PUSH2 0x179 JUMP JUMPDEST SWAP1 POP PUSH2 0x215 DUP3 DUP3 PUSH2 0x1CF JUMP JUMPDEST SWAP2 SWAP1 POP JUMP JUMPDEST PUSH0 PUSH8 0xFFFFFFFFFFFFFFFF DUP3 GT ISZERO PUSH2 0x234 JUMPI PUSH2 0x233 PUSH2 0x1A2 JUMP JUMPDEST JUMPDEST PUSH2 0x23D DUP3 PUSH2 0x192 JUMP JUMPDEST SWAP1 POP PUSH1 0x20 DUP2 ADD SWAP1 POP SWAP2 SWAP1 POP JUMP JUMPDEST DUP3 DUP2 DUP4 CALLDATACOPY PUSH0 DUP4 DUP4 ADD MSTORE POP POP POP JUMP JUMPDEST PUSH0 PUSH2 0x26A PUSH2 0x265 DUP5 PUSH2 0x21A JUMP JUMPDEST PUSH2 0x200 JUMP JUMPDEST SWAP1 POP DUP3 DUP2 MSTORE PUSH1 0x20 DUP2 ADD DUP5 DUP5 DUP5 ADD GT ISZERO PUSH2 0x286 JUMPI PUSH2 0x285 PUSH2 0x18E JUMP JUMPDEST JUMPDEST PUSH2 0x291 DUP5 DUP3 DUP6 PUSH2 0x24A JUMP JUMPDEST POP SWAP4 SWAP3 POP POP POP JUMP JUMPDEST PUSH0 DUP3 PUSH1 0x1F DUP4 ADD SLT PUSH2 0x2AD JUMPI PUSH2 0x2AC PUSH2 0x18A JUMP JUMPDEST JUMPDEST DUP2 CALLDATALOAD PUSH2 0x2BD DUP5 DUP3 PUSH1 0x20 DUP7 ADD PUSH2 0x258 JUMP JUMPDEST SWAP2 POP POP SWAP3 SWAP2 POP POP JUMP JUMPDEST PUSH0 DUP2 SWAP1 POP SWAP2 SWAP1 POP JUMP JUMPDEST PUSH2 0x2D8 DUP2 PUSH2 0x2C6 JUMP JUMPDEST DUP2 EQ PUSH2 0x2E2 JUMPI PUSH0 DUP1 REVERT JUMPDEST POP JUMP JUMPDEST PUSH0 DUP2 CALLDATALOAD SWAP1 POP PUSH2 0x2F3 DUP2 PUSH2 0x2CF JUMP JUMPDEST SWAP3 SWAP2 POP POP JUMP JUMPDEST PUSH0 DUP1 PUSH1 0x40 DUP4 DUP6 SUB SLT ISZERO PUSH2 0x30F JUMPI PUSH2 0x30E PUSH2 0x182 JUMP JUMPDEST JUMPDEST PUSH0 DUP4 ADD CALLDATALOAD PUSH8 0xFFFFFFFFFFFFFFFF DUP2 GT ISZERO PUSH2 0x32C JUMPI PUSH2 0x32B PUSH2 0x186 JUMP JUMPDEST JUMPDEST PUSH2 0x338 DUP6 DUP3 DUP7 ADD PUSH2 0x299 JUMP JUMPDEST SWAP3 POP POP PUSH1 0x20 PUSH2 0x349 DUP6 DUP3 DUP7 ADD PUSH2 0x2E5 JUMP JUMPDEST SWAP2 POP POP SWAP3 POP SWAP3 SWAP1 POP JUMP JUMPDEST PUSH2 0x35C DUP2 PUSH2 0x2C6 JUMP JUMPDEST DUP3 MSTORE POP POP JUMP JUMPDEST PUSH0 DUP2 SWAP1 POP SWAP2 SWAP1 POP JUMP JUMPDEST PUSH2 0x374 DUP2 PUSH2 0x362 JUMP JUMPDEST DUP3 MSTORE POP POP JUMP JUMPDEST PUSH0 PUSH1 0x40 DUP3 ADD SWAP1 POP PUSH2 0x38D PUSH0 DUP4 ADD DUP6 PUSH2 0x353 JUMP JUMPDEST PUSH2 0x39A PUSH1 0x20 DUP4 ADD DUP5 PUSH2 0x36B JUMP JUMPDEST SWAP4 SWAP3 POP POP POP JUMP JUMPDEST PUSH0 DUP2 MLOAD SWAP1 POP SWAP2 SWAP1 POP JUMP JUMPDEST PUSH0 DUP2 SWAP1 POP SWAP3 SWAP2 POP POP JUMP JUMPDEST DUP3 DUP2 DUP4 MCOPY PUSH0 DUP4 DUP4 ADD MSTORE POP POP POP JUMP JUMPDEST PUSH0 PUSH2 0x3CD DUP3 PUSH2 0x3A1 JUMP JUMPDEST PUSH2 0x3D7 DUP2 DUP6 PUSH2 0x3AB JUMP JUMPDEST SWAP4 POP PUSH2 0x3E7 DUP2 DUP6 PUSH1 0x20 DUP7 ADD PUSH2 0x3B5 JUMP JUMPDEST DUP1 DUP5 ADD SWAP2 POP POP SWAP3 SWAP2 POP POP JUMP JUMPDEST PUSH0 DUP2 SWAP1 POP SWAP2 SWAP1 POP JUMP JUMPDEST PUSH2 0x40D PUSH2 0x408 DUP3 PUSH2 0x2C6 JUMP JUMPDEST PUSH2 0x3F3 JUMP JUMPDEST DUP3 MSTORE POP POP JUMP JUMPDEST PUSH0 PUSH2 0x41E DUP3 DUP6 PUSH2 0x3C3 JUMP JUMPDEST SWAP2 POP PUSH2 0x42A DUP3 DUP5 PUSH2 0x3FC JUMP JUMPDEST PUSH1 0x20 DUP3 ADD SWAP2 POP DUP2 SWAP1 POP SWAP4 SWAP3 POP POP POP JUMP JUMPDEST PUSH0 DUP2 MLOAD SWAP1 POP SWAP2 SWAP1 POP JUMP JUMPDEST PUSH0 DUP2 SWAP1 POP SWAP3 SWAP2 POP POP JUMP JUMPDEST PUSH0 PUSH2 0x458 DUP3 PUSH2 0x43A JUMP JUMPDEST PUSH2 0x462 DUP2 DUP6 PUSH2 0x444 JUMP JUMPDEST SWAP4 POP PUSH2 0x472 DUP2 DUP6 PUSH1 0x20 DUP7 ADD PUSH2 0x3B5 JUMP JUMPDEST DUP1 DUP5 ADD SWAP2 POP POP SWAP3 SWAP2 POP POP JUMP JUMPDEST PUSH0 PUSH2 0x489 DUP3 DUP5 PUSH2 0x44E JUMP JUMPDEST SWAP2 POP DUP2 SWAP1 POP SWAP3 SWAP2 POP POP JUMP JUMPDEST PUSH2 0x49D DUP2 PUSH2 0x362 JUMP JUMPDEST DUP2 EQ PUSH2 0x4A7 JUMPI PUSH0 DUP1 REVERT JUMPDEST POP JUMP JUMPDEST PUSH0 DUP2 MLOAD SWAP1 POP PUSH2 0x4B8 DUP2 PUSH2 0x494 JUMP JUMPDEST SWAP3 SWAP2 POP POP JUMP JUMPDEST PUSH0 PUSH1 0x20 DUP3 DUP5 SUB SLT ISZERO PUSH2 0x4D3 JUMPI PUSH2 0x4D2 PUSH2 0x182 JUMP JUMPDEST JUMPDEST PUSH0 PUSH2 0x4E0 DUP5 DUP3 DUP6 ADD PUSH2 0x4AA JUMP JUMPDEST SWAP2 POP POP SWAP3 SWAP2 POP POP JUMP JUMPDEST PUSH32 0x4E487B7100000000000000000000000000000000000000000000000000000000 PUSH0 MSTORE PUSH1 0x11 PUSH1 0x4 MSTORE PUSH1 0x24 PUSH0 REVERT JUMPDEST PUSH0 PUSH2 0x520 DUP3 PUSH2 0x2C6 JUMP JUMPDEST SWAP2 POP PUSH2 0x52B DUP4 PUSH2 0x2C6 JUMP JUMPDEST SWAP3 POP DUP3 DUP3 SUB SWAP1 POP DUP2 DUP2 GT ISZERO PUSH2 0x543 JUMPI PUSH2 0x542 PUSH2 0x4E9 JUMP JUMPDEST JUMPDEST SWAP3 SWAP2 POP POP JUMP JUMPDEST PUSH0 PUSH2 0x553 DUP3 PUSH2 0x2C6 JUMP JUMPDEST SWAP2 POP PUSH32 0xFFFFFFFFFFFFFFFFFFFFFFFFFFFFFFFFFFFFFFFFFFFFFFFFFFFFFFFFFFFFFFFF DUP3 SUB PUSH2 0x585 JUMPI PUSH2 0x584 PUSH2 0x4E9 JUMP JUMPDEST JUMPDEST PUSH1 0x1 DUP3 ADD SWAP1 POP SWAP2 SWAP1 POP JUMP INVALID LOG2 PUSH5 0x6970667358 0x22 SLT KECCAK256 DUP12 0xC3 0xCF TIMESTAMP 0xB6 DUP4 0xBA NOT PUSH8 0xBF2BD45AA93FE506 PUSH17 0xD027C2CBF29C67CFB5BA22E594FF64736F PUSH13 0x634300081A0033000000000000 "
				},
				"gasEstimates": {
					"creation": {
						"codeDepositCost": "295600",
						"executionCost": "335",
						"totalCost": "295935"
					},
					"external": {
						"pow(string,uint256)": "infinite"
					}
				},
				"methodIdentifiers": {
					"pow(string,uint256)": "7e1bf9e4"
				}
			},
			"storageLayout": {
				"storage": [],
				"types": null
			},
			"userdoc": {
				"kind": "user",
				"methods": {},
				"version": 1
			}
		}
	}
}